:100000000C947A030C9497030C9497030C94970325
:100010000C9497030C9497030C9497030C949703F8
:100020000C9497030C9497030C941E1F0C94F61FCA
:100030000C9437130C9497030C9497030C94970328
:100040000C9497030C9497030C9497030C949703C8
:100050000C9497030C94FA1E0C9497030C9497033A
:100060000C9497030C9497030C9497030C949703A8
:100070000C9497030C9497030C9497030C94970398
:100080000C9497030C9497030C9497030C94970388
:100090000C9497030C9497030C9497030C94970378
:1000A0000C9497030C9497030C94970300AF00AE45
:1000B00000000000000000002F0000000007000703
:1000C0000000123F123F1200242A7F2A1200360934
:1000D0001E241B001826291228000000070000001B
:1000E000001E214000000040211E000014083E08B0
:1000F000140008083E0808000000307000000808DE
:100100000808080000003030000020100C02010038
:100110001E2925231E0000223F200000223129290C
:100120002600122125251A001814123F1000172549
:10013000252518001E252525180001310905030075
:100140001A2525251A00062929291E000000333307
:10015000000000003373000008141422220014145D
:1001600014141400222214140800020129050200AC
:100170003E59555D3E003816111638003F2525259D
:100180001A001E21212112003F2121211E003F259E
:10019000252521003F09090901001E2121291A00F6
:1001A0003F0404043F0000213F21000010202020D4
:1001B0001F003F040C1221003F20202020003F029E
:1001C00004023F003F020C103F001E2121211E00AF
:1001D0003F09090906001E2129112E003F090919AE
:1001E000260012252529120001013F0101001F20D0
:1001F00020201F000718201807000F300C300F00B8
:1002000021120C1221000304380403003129252394
:100210002100007F4141000001020C10200000413C
:10022000417F0000040201020400404040404000C1
:10023000000103040000102A2A2A3C003F24222245
:100240001C001C22222224001C2222243F001C2AE3
:100250002A2A0C0000043E0505000C5252543E00B0
:100260003F080404380000003D0000002040403DED
:1002700000003F080814220000013F2000003E0259
:100280003C023C003E0402023C001C2222221C00D4
:100290007E1422221C001C2222147E003E04020234
:1002A0000400242A2A2A120000021F2200001E2015
:1002B00020103E000618201806000E300C300E00EC
:1002C0002214081422000E5050483E0022322A26E2
:1002D000220008087741410000007F0000004141F2
:1002E00077080800180408100C0000000000000047
:1002F0000000381C0CCCCCCCFC3800180C8CCC7C0E
:1003000038000080C0404040404040C0800000C0F5
:1003100047CF4C4C4C4C4743404E4F49484848C04F
:1003200040FF0001FD0101FD0100FF0000FF007F13
:10033000808080808080808080808080807F00FFBF
:100340000000FF0000FF0000FF00000F0A0908087E
:100350000808080808080808080808090A0D02041F
:100360000404040404020100000000000000000076
:10037000000000000000000000000000000000007D
:10038000000000000000000000000000000000006D
:10039000000000000000000000000000000000005D
:1003A000000000000000000000000000000000004D
:1003B000000000000000000000000000000000003D
:1003C000000000000000000000000000000000002D
:1003D000000000000000000000000000000000001D
:1003E000000000000000000000000000000000000D
:1003F00000000000000000000000000000000000FD
:1004000000000000000000000000000000000000EC
:1004100005010980A101850319012AB700150126EC
:10042000B700950175108100C0050C0901A1018577
:100430000419012AA002150126A002950175108158
:1004400000C005010906A101050719E029E715000B
:10045000250195087501810295017508810105073F
:10046000190029FF150026FF009506750881000573
:1004700008190129051500250195057501910295B9
:100480000175039101C009023B00020100A0FA09B5
:1004900004000001030101000921110100012244AF
:1004A00000070581030800010904010001030000A1
:1004B00000092111010001223200070582032000FA
:1004C0000112010002000000083288328800010198
:1004D000020001200366007200650065006100648F
:1004E0000072007300330032005F006B006E006F1B
:1004F00000620000002203540061006B006100688C
:1005000000690072006F0020004E006100740073EB
:100510000075006D00650000000403090420002040
:100520002000200052204320200020004B6579202D
:10053000200020004C6179657200FFAA7F554000C1
:100540000101010101010101010202020202020294
:100550000202030303030303030304040404040467
:10056000040505050505060606060607070707072D
:1005700008080808090909090A0A0A0B0B0B0C0CE0
:100580000C0D0D0D0E0E0E0F0F0F1010111111127C
:100590001213131414151516161717181819191AFB
:1005A0001A1B1B1C1D1D1E1E1F202021222223245E
:1005B00024252626272829292A2B2C2D2D2E2F309D
:1005C000313232333435363738393A3B3C3D3E3FB1
:1005D000404142434445464748494A4C4D4E4F509E
:1005E000515354555658595A5B5D5E5F616264655C
:1005F0006668696B6C6D6F7072737577787A7B7DE6
:100600007E8082838587888A8C8E8F919395969839
:100610009A9C9EA0A2A3A5A7A9ABADAFB1B3B5B755
:10062000BABCBEC0C2C4C6C9CBCDCFD1D4D6D8DB2C
:10063000DDDFE2E4E7E9EBEEF0F3F5F8FAFDFF00C9
:10064000DA0281FFD9F1DB20A4A62EAF00A0C0D32F
:100650000000A1C8D30000AED580A81F408D142093
:100660000000041E0029001F0020000000210022BD
:1006700000230024002500000014001A00080000D8
:1006800000150017001C0018000C001E00E10004FB
:100690000016000000070009000A000B000D001EF4
:1006A00000E2001D001B00000006001900110010F0
:1006B0000028004E004B00510052004F00500061D6
:1006C00062636465666768696A6B6C6D6E6F707192
:1006D00072737475767778797A3132333435363788
:1006E000383930524542545F2D3D5B5D5C233B27DA
:1006F000602C2E2F11241FBECFEFDAE0DEBFCDBF5E
:1007000011E0A0E0B1E0ECE2FBE402C005900D9244
:10071000AE39B107D9F725E0AEE9B1E001C01D92CD
:10072000A430B207E1F70E947C1A0C9475250C9452
:100730000000F894E82FE295EF70F0E041A18F708F
:1007400021E030E0B90102C0660F771F8A95E2F719
:10075000CB01962F9095942391A392A1892B82A3EC
:1007600078940895F894E82FE295EF70F0E041A1B5
:100770008F7021E030E0B90102C0660F771F8A95C3
:10078000E2F7CB01942F982B91A392A18095892316
:1007900082A378940895982F82958F70882311F002
:1007A000982F84E0292F26952695222311F08E5F1D
:1007B000922F969591118F5F08958093BD040895AF
:1007C0008093BE04089521E030E001C0220F8A9595
:1007D000EAF78091BE04822B0E94E003089521E095
:1007E00030E0A90102C0440F551F8A95E2F7CA0103
:1007F00080959091BE0489230E94E00308959B0197
:10080000677091E001C0990F6A95EAF763E0369549
:1008100027956A95E1F7B901660F771F260F371FF5
:10082000FA01E20FF31F40E050E0682F70E0819181
:10083000DF0111979B01042E02C0369527950A947B
:10084000E2F7217021952827292328272C934F5F31
:100850005F4F4330510559F708959C01A82FA770A9
:1008600083E0369527958A95E1F7C901880F991F8E
:10087000820F931FFB01E80FF91F40E050E080E07A
:10088000219130E00A2E02C0369527950A94E2F7AE
:1008900021703327042E01C0220F0A94EAF7822B1D
:1008A0004F5F5F4F4330510559F70895282F862F2A
:1008B000943070F42A3058F4622F70E02AE0929F4E
:1008C000600D711D112441EA54E00E94FF03089558
:1008D0009C5F9230E0F7622F70E04EE954E0F5CF74
:1008E000292F943068F48A3090F490E061EA74E043
:1008F0003AE0239F800D911D11240E942D0408953C
:100900002C5F223020F46EE974E090E0F6CF80E0B6
:1009100008958091C4049091C304981301C0089570
:100920008F5F8770FACF9091BF0480958923809361
:10093000BF04282F277021110DC0891759F09091FD
:10094000C10492FF07C08695869586950E94EF03A5
:100950001092BF040895982F90958091BA0489232E
:100960008093BA040895E62F743088F46A3048F50D
:1009700081112AC0F0E08AE0789FE00DF11D11247A
:10098000EE0FFF1FED59F94F8591949108957D3F2A
:1009900059F46330B0F4811117C084E0689FF0010E
:1009A0001124ED54F94FF0CF7C3F59F4633048F4F3
:1009B00081110AC084E0689FF0011124EB54F94FC3
:1009C000E3CF80E090E0089581E0FCCF803E910588
:1009D000D1F1C8F48133910509F47FC048F489321C
:1009E000910509F46FC08A32910509F47DC008951C
:1009F00089339105E1F082389105C9F0853391057D
:100A000009F45BC00895843E9105D1F148F4823E1B
:100A1000910531F1833E910541F181EE90E0089519
:100A2000863E9105C1F1873E9105E1F1089520913F
:100A3000C0042370211165C02091C10423FF14C09C
:100A400089E290E008952091C00420FD43C03091D8
:100A5000C10430FF09C024FF4EC080E090E008953B
:100A60002091C00422FDF7CF08952091C00422FDFB
:100A700045C03091C10430FD44C024FFF5CFEDCF17
:100A80002091C10421FFF0CF8091C00484FDE5CF07
:100A900087EE90E008952091C00423FFE5CF24FD68
:100AA000DCCFF6CF2091C00423FD2EC03091C104CD
:100AB00031FFE3CF84EE90E008952091C00425FF3C
:100AC000D3CFBECF2091C00425FD21C02091C10409
:100AD00023FFCACF89E390E008952091C00426FF48
:100AE000C3CF8AE290E008952091C00426FFBCCFD6
:100AF00081E390E0089583EE90E0089582EE90E027
:100B0000089580EE90E0089586EE90E0089585E3E4
:100B100090E0AACF9091C00492FF10C041E0282F2E
:100B20002471243009F040E031E0282F287128306A
:100B300009F030E0431711F02CE0822793FF10C03A
:100B400041E0282F2471243109F040E031E0282FC2
:100B50002871283109F030E0431711F02CE082278A
:100B60003091C10430FF10C051E0282F2171213095
:100B700009F050E041E0282F2871283009F040E0CA
:100B8000541711F029E0822731FF10C041E0282FCF
:100B90002171213109F040E031E0282F28712831FE
:100BA00009F030E0431711F029E0822794FD877E99
:100BB00008951F93CF93DF930E94E604EC01811503
:100BC00022E5920708F053C0811540E5940708F02C
:100BD000DDC0803E9105F8F48D3C910508F0AEC073
:100BE000883A910580F4853A910508F099C08130E2
:100BF000910521F00497813A910550F4CE01DF91DF
:100C0000CF911F910895885A91094B9708F48BC092
:100C1000C0E0D0E0F3CF811550E49507F8F4C1159A
:100C200080E2D80708F0CBC0C83ED10538F3CE012A
:100C30009A9581159F4160F78D2F0E948A05182F84
:100C4000CE0199270E94E604212F30E0322F22277F
:100C5000E901CC27DF71C82BD92BD0CF99270E946F
:100C6000E604CC27DF70C82BD92BD06AC7CF8038D9
:100C700042E59407C8F5803652E5950708F067C04D
:100C8000C03482E5D807B0F08C2F869586958770A2
:100C900020E2829FC0011124C37021E030E0A9014D
:100CA00002C0440F551FCA95E2F7EA01C82BD92BA1
:100CB000DC68A4CFC03252E5D50708F041C08C2FC4
:100CC0008695869520E2829FC0011124C37021E0A1
:100CD00030E0A90102C0440F551FCA95E2F7EA01AE
:100CE000C82BD92BDD688ACF803C52E5950760F48C
:100CF0008F71C03AD24508F03FC090E0982F882706
:100D0000EC01C46FD06A7ACF805C9245809708F07E
:100D10007FCFDC2FCC27CC27DF71C06FD06A6ECF9E
:100D2000A497D0646BCFC85AD0E0CC0FDD1FC9594F
:100D3000DE4F0990D881C02DD46460CFD0655ECFDE
:100D4000CF71D0E0DC2FCC27C16FD06A57CF86950A
:100D50008695877020E2829FC0011124C37021E034
:100D600030E0A90102C0440F551FCA95E2F7EA011D
:100D7000C82BD92BDA6842CF0E948A05C82FD0E051
:100D8000DC2FCC27CC27DF71D06238CF8F710E9447
:100D90008A0565E0D695C7956A95E1F7CF70D0E0F2
:100DA000DC2FCC27282F30E084FF05C054E0220F31
:100DB000331F5A95E1F7C22BD32BD0691FCF8D2F4C
:100DC0008F710E948A05182FCE0199270E94E60490
:100DD000212F30E0322F222722273F71282B392B59
:100DE000E901D2CFA0E0B0E0E8EFF6E00C94D32127
:100DF0007C010091BE048091BD04082BC7E0D0E0C7
:100E000010E0C8010C2E02C0959587950A94E2F770
:100E100080FD09C02197A8F7D12C8D2DCDB7DEB765
:100E2000E7E00C94EF21DC2EB7018C2F0E94B30475
:100E30000E94D905019771F3F0CF0F931F93CF93C1
:100E4000FC01858100811181882391F0662381F066
:100E5000C8010E94F206C82F682FC8010E945604DC
:100E6000B8018C2F0E94B304CF911F910F91089568
:100E7000C8010E947004C82FF3CFCF93DF93D82FFF
:100E8000C92F0E94F2066D2F7C2F0E94B3040E948E
:100E9000D905DF91CF910895FC0184818823A1F0C9
:100EA000808191810E943D07282F92959F709630F6
:100EB00091F060F4925F9F70923030F481E0203FB7
:100EC00079F030F4283E30F080E004C09A5FF3CF30
:100ED000243FD1F7089581E0283E18F0213FF9CF53
:100EE0000895089580E008950895A0E0B0E0EBE74C
:100EF000F7E00C94D021E901E42FF0E0E15CFA4F37
:100F000061110BC0E4919E2F8E2F8983E8839A8311
:100F1000CDB7DEB7EAE00C94EC21282F30E0062FA5
:100F200010E0F491EF2F86E0829F6001839FD00C48
:100F30001124EE24EA94F12CC601B7010E94B421D9
:100F4000220F331F45E5469FC001479F900D112496
:100F5000281B390B822F880F280FC701801B910B8C
:100F6000F89FA001F99F500D1124952F209F50014B
:100F7000219FB00C1124AB2CBB24D701AA19BB09AB
:100F80005D01FA9DD001FB9DB00D11248B2F5701FF
:100F9000A21AB1089501209F5001219FB00C309FEB
:100FA000B00C1124AB2CBB24EA18FB08FE9D900169
:100FB000FF9D300D112463307105C9F01CEFC1167F
:100FC00013E0D10650F46130710509F49ECF623010
:100FD000710589F08E2FE32F98CF6430710571F081
:100FE00066307105B9F3E52F9B2F8F2F8ECFEB2F36
:100FF000852F9F2F8ACF852F932F87CF832FE52F84
:10100000F8CF8091B204843060F483708460809360
:10101000B2048091B504893718F088E78093B5044D
:1010200008958433B0F383708063F1CF8091B2046C
:1010300080FD0AC0E3EFF3E0118210821282339642
:1010400084E0E335F807C1F760E270E083EF93E0F6
:101050000E94B30A08959091B20490FF0CC0E3EF90
:10106000F3E0818360834283339694E0E335F907AC
:10107000C1F70E9416080895A3E0B0E0E2E4F8E0AA
:101080000C94D6218C018091F20381110AC09E013B
:101090002F5F3F4F48E76FEF0E9475078A8180936B
:1010A000F203F8016481613049F06230D1F080913F
:1010B000F20340E0662331F040E015C06091F20396
:1010C00040E080E00E942B08F801848190E00196C6
:1010D00063E070E00E940B2284832396E4E00C948A
:1010E000F2214091F20380E060E0ECCFFA01882326
:1010F00011F009950895FB01FCCF90E06623E9F01B
:10110000895C9E4FFC0180818F3FB1F0E82FE29512
:10111000EF70F0E041A18F7021E030E0B90102C032
:10112000660F771F8A95E2F7CB01962F909594234F
:1011300091A392A1892B82A308958C5C9E4FE2CF4C
:1011400090E06623A9F0895C9E4FFC0120812F3F2F
:1011500091F0E22FE295EF70E05EF0E0808190E0A8
:101160002F7002C0959587952A95E2F781700895B2
:101170008C5C9E4FEACF80E00895539A0895E091E9
:101180009404F0919504309729F00190F081E02DBE
:101190000995089580E00895A3E0B0E0E2EDF8E05D
:1011A0000C94D8219C018091CC019091CD018217A3
:1011B0009307A1F03093CD012093CC01E0919404EA
:1011C000F0919504309751F083E089833B832A8323
:1011D0000084F185E02DCE01019609952396E2E089
:1011E0000C94F421A3E0B0E0E8EFF8E00C94D821EF
:1011F0009C018091CA019091CB0182179307A1F0C5
:101200003093CB012093CA01E0919404F0919504AE
:10121000309751F084E089833B832A830084F185F1
:10122000E02DCE01019609952396E2E00C94F4217D
:10123000A4E0B0E0EEE1F9E00C94D8218FB7F89487
:101240002091C6013091C7014091C8015091C90158
:1012500029833A834B835C838FBF69817A818B8139
:101260009C812496E2E00C94F4218091C5010895BC
:1012700008950895FC019B018091BB019091BC01F0
:101280008617970740F0672B29F48091E8008E7746
:101290008093E800C90140E0009741F4411106C085
:1012A0008091E80082FF2FC080E0089520916904BA
:1012B0002223A9F12530A9F12091E80023FD2DC0BA
:1012C0002091E80022FDECCF2091E80020FFE4CF40
:1012D0003091F3002091F200009719F02830310589
:1012E00058F041E02830310509F040E02091E80055
:1012F0002E772093E800D0CF41914093F1000197E1
:101300002F5F3F4FE9CF80916904882341F08530FA
:1013100041F08091E80083FFC3CF81E0089582E02F
:10132000089583E008958091B50187FF13C08091EF
:10133000E80082FF06C08091E8008B778093E80088
:1013400004C0809169048111F2CF089580916904ED
:101350008823D9F38091E80080FFF8CF8091E800DE
:101360008E77ECCF2091E4003091E50095E6A9015D
:101370008091EC008170882331F08091E80080FF3B
:1013800006C080E008952091E80022FD1BC08091F6
:101390006904882391F0853091F08091EB0085FD00
:1013A00010C02091E4003091E5004217530701F38B
:1013B00091509111DCCF84E0089582E0089583E09C
:1013C000089581E00895E8EDF0E080818E7F8083CC
:1013D0001092E2001092DA001092E100A0EEB0E06C
:1013E0008C9181608C9380818F77808319BCA7ED6D
:1013F000B0E08C918E7F8C9380818F7E8083109261
:10140000B4010895982FE42FE2709093E9008913B6
:1014100008C0762F242F50E0E11111C091E0980F01
:10142000F4CF7091EC002091ED005091F00021FD7F
:1014300006C09F5F973049F78093E9000895309187
:10144000EB003E7F3093EB003091ED003D7F309319
:10145000ED003091EB0031603093EB007093EC00C5
:101460002093ED005093F0002091EE0027FDE1CF96
:101470000895A0E0B0E0EFE3FAE00C94D221C8EDCB
:10148000D0E088818F7E8883E7EDF0E08081816005
:10149000808384E082BF81E08093B40188818E7F65
:1014A000888302EE10E0F80110821092DA0081EEDB
:1014B000C82ED12CF601108288818F77888388818D
:1014C0008068888388818F7D888319BC1092690425
:1014D0001092B301109268041092B20190EEE92EBE
:1014E000F12CF70180818B7F8083888181608883E4
:1014F00042E060E080E00E94020AF60180818E7F77
:101500008083F8018081816080838081886080830E
:10151000F70180818E7F8083888180618883CDB749
:10152000DEB7E8E00C94EE21E091C4049091C3048E
:1015300027E0E91302C080E00895AE2FB0E02E9FAF
:10154000F0011124EB53FB4F3181361306C030817B
:10155000381303C03581341304C0FD013196E770A0
:10156000E8CF81E008959C01AB016BB1677F7BB14F
:101570007860EFB7F894CA01880F991F840F951F00
:10158000820F931F8217930741F4EFBF8FE594E01A
:101590000197F1F700C000000895D9014D919D0118
:1015A00058E07BB9000000C047FF6BB9440F000052
:1015B00000C000C000C06BB900C05A9591F7E2CFDF
:1015C0000F931F93CF93DF93EB018A0190916904EE
:1015D000943079F58093E9008FEF9091E80095FDC4
:1015E00007C095ED9A95F1F7000081508111F5CF74
:1015F0008091E80085FF1DC00E94B209811114C0CE
:101600008091E80085FD06C08091E8008E77809388
:10161000E800F2CF88818093F10001501109011593
:10162000110511F02196ECCF8091E8008E77809320
:10163000E800DF91CF911F910F910895CF93DF9331
:10164000D82FC92F48E050E0682F792F81E00E9401
:10165000E00A88E0ED2FFC2FADEBB1E001900D9298
:101660008A95E1F7DF91CF910895BC0143E050E006
:1016700082E00E94E00A08959091C10492FB222723
:1016800020F9281779F080FB92F99093C1046091BA
:10169000C0047091C10484E090E00E945F2582E064
:1016A0000E9493040895E2EFF1E080E092E0DF0110
:1016B0009C011D9221503040E1F7F093F101E0933D
:1016C000F0018FEF9FEF9093EF018093EE0108956B
:1016D0008091BA049091C204892B4091BB044423A9
:1016E00089F090E022EA31E0F90150812F5F3F4F0D
:1016F00051119F5F51E0283A3507B1F791111092CF
:10170000BB04842B8093A00148E050E066E974E0BC
:1017100080EA91E00E947122892BA9F088E0E0EA3A
:10172000F1E0A6E9B4E001900D928A95E1F7E0912D
:101730009404F0919504309731F00280F381E02D0C
:1017400080EA91E0099508951092BA04E2EAF1E086
:1017500086E0DF011D928A95E9F780E090E00E9423
:10176000CC0880E090E00E94F2081092C2040E942F
:10177000680B08950E94A40B2FEF84E39CE0215096
:1017800080409040E1F700C0000088E19AE00FB689
:10179000F894A895809360000FBE90936000FFCFEF
:1017A000AAE2B0E0E6EDFBE00C94D72185EB91E0F6
:1017B000FC0101962091F100208321E08D3B9207EE
:1017C000B9F78091B601893009F456C0C8F4823067
:1017D00009F4B2C0833009F481C0813071F1809185
:1017E000E80083FFE6C08091B5019091B6019A3080
:1017F00008F0DFC0E92FF0E0E958FA4D0C941F2201
:101800008A3009F488C08B3051F78091B50181325C
:1018100031F78091B9019091BA01892B01F780913C
:10182000E800877F8093E8000E9493098091B701C8
:10183000809300010E94A40BD2CF8091B501813A20
:1018400071F68091E800877F8093E8008091B9016C
:101850009091BA01892B61F060E080E090E070E047
:101860000E943A098091E8008B778093E800B7CF17
:1018700068E08DEB91E0F3CF8091B501813209F002
:10188000AECF8091B9019091BA01029708F0A7CF2D
:101890008091E800877F8093E8008091E80082FFD4
:1018A00018C09091F3008091F200029731F480917A
:1018B000F100813011F0863021F48091F1008093A5
:1018C000C5018091E8008B778093E8000E9493091E
:1018D00086CF809169048111E0CF81CF8091B501DD
:1018E000813A09F07CCF8091B9019091BA01892B9E
:1018F00009F075CF8091E800877F8093E8008091A0
:10190000E80080FFFCCF809100018093F10080917E
:10191000E8008E77D9CF8091B501813209F05FCF91
:101920008091E800877F8093E8000E94930980916E
:10193000B8018093B10153CF8091B501813A09F08C
:101940004ECF8091E800877F8093E8008091E80087
:1019500080FFFCCF8091B101D8CF803889F08238E8
:1019600041F58091B9018F70873018F58093E900B7
:101970008091EB0085FB882780F91092E90006C072
:101980008091B20190916804911182609091E80079
:10199000977F9093E8008093F1001092F10080917E
:1019A000E8008E7723C0811116C08091B701813085
:1019B00011F18091E80083FF0AC08091E800877FE1
:1019C0008093E8008091EB0080628093EB00AA9600
:1019D000E3E00C94F321823061F78091B701882312
:1019E00089F01092E9008091E800877F8093E800F9
:1019F0000E949309DECF81E0933009F080E080936C
:101A00006804EFCF8091B9018F702FEF280F263037
:101A100080F68093E9002091EB0020FFE2CF933025
:101A200031F48091EB0080628093EB00DACF9091EB
:101A3000EB0090619093EB0021E030E0A90102C03F
:101A4000440F551F8A95E2F74093EA001092EA008E
:101A50008091EB008860E8CF8111ABCF1091B70186
:101A60001F778091E3008078812B8093E300809141
:101A7000E800877F8093E8000E9493098091E80046
:101A800080FFFCCF8091E30080688093E30083E0D7
:101A9000111101C082E0809369048BCF805882309D
:101AA00008F087CF4091B7015091B8014C3D83E0D9
:101AB000580799F583E08A838AE289834FB7F894BF
:101AC000DE01139620E03EE051E2E32FF0E0509378
:101AD0005700849120FF03C082958F703F5F8F7005
:101AE0008A30C8F0895C90E08D939D932F5F2431FC
:101AF00061F74FBF8091E800877F8093E8006AE23A
:101B000070E0CE0101960E943A098091E8008B773F
:101B10008093E8004ECF805DE6CF2091B9013091EF
:101B2000BA01852F99278330910509F160F481303E
:101B3000910509F472C0029709F03BCF8BE390E066
:101B4000E6E8F4E029C08132910509F45AC0829791
:101B500009F02FCF2115310509F469C02130310575
:101B600009F027CF82E390E0E0E1F4E015C0CA017C
:101B700099274130B1F18230910509F43AC0892B9F
:101B800009F017CFE9E1F5E0E4918E2F90E0E9E16B
:101B9000F5E0009709F40DCF2091E800277F20930E
:101BA000E8002091BB013091BC018217930708F433
:101BB0009C0140E02115310509F03EC041113CC0B7
:101BC0008091E80082FDA1CF80916904882309F407
:101BD0009CCF853009F499CF8091E80083FFF0CF46
:101BE00094CFE5EFF4E0E4918E2F90E0E5EFF4E0A0
:101BF000D0CFE3EDF4E0E4918E2F90E0E3EDF4E05C
:101C0000C8CF2115310571F02130310509F0D1CE51
:101C100089E090E0E1EBF4E0BFCF82E190E0E1EC1D
:101C2000F4E0BACF89E090E0E8E9F4E0B5CF84E4ED
:101C300090E0E2E4F4E0B0CF80916904882309F4F5
:101C400064CF853009F461CF8091E80083FD5DCFDA
:101C50008091E80082FDB4CF8091E80080FFAACF98
:101C60009091F3008091F2002115310519F0883030
:101C7000910550F041E0089709F040E08091E800BC
:101C80008E778093E80096CF44914093F10031968F
:101C9000215031090196E8CF803809F08ACE809131
:101CA000E800877F8093E8008091B3018093F10082
:101CB00076CE81117ECE1091B701123008F079CE28
:101CC0008091E800877F8093E8001093B3010E9421
:101CD0009309112381F084E08093690442E061EC70
:101CE00081E00E94020A42E261EC82E00E94020A64
:101CF000809169045ECE8091E30087FDECCF81E0A6
:101D0000EBCF0F931F93CF93C82F882339F18CEF1C
:101D10008C0F813AB0F502EA11E0F8018191C81701
:101D200009F121E0E83AF207C9F7EFEF80E0D801C6
:101D30009D918D01C91781F0EF3F19F4911101C0F8
:101D4000E82F8F5F863099F7EF3F31F00E2E000CB1
:101D5000FF0BE056FE4FC2830E94680BCF911F918C
:101D60000F910895E2EAF1E08191C81303C0DF0109
:101D700011971C9231E0E83AF307B1F70E94680B23
:101D8000D4CF80E28C0F883068F4C77081E090E097
:101D900001C0880FCA95EAF7C091BA04C82BC09356
:101DA000BA04DACF8BE58C0F833038F42C2F245211
:101DB000330BC9010E94CC08D1CFC85ACB3170F681
:101DC000EC2FF0E0EE0FFF1FE959FE4F808191816B
:101DD0000E94F208C3CF882389F19CEF980F913AB3
:101DE00078F4E2EAF1E09191891303C0DF011197E1
:101DF0001C9291E0E83AF907B1F70E94680B089548
:101E000090E2980F983050F4877091E001C0990FDC
:101E10008A95EAF7892F0E94AB04EFCF9BE5980FD4
:101E2000933028F480E090E00E94CC080895885A0E
:101E30008B3120F480E090E00E94F208089588231E
:101E400039F09091BA04892B8093BA040E94680BF0
:101E50000895882321F00E94AB040E94680B089526
:101E6000A0E0B0E0E6E3FFE00C94D2218901D42F9A
:101E7000C52F6B017C010E940108A8016D2F7C2FEA
:101E800088E090E00E94532598014D2F5C2FB60109
:101E9000C70100E20E944022622F83E290E00E948C
:101EA0004125CDB7DEB7E8E00C94EE218091B60471
:101EB000833018F48F5F8093B6042091B204309180
:101EC000B3044091B4045091B5046091B60470918C
:101ED000B7048091B8049091B9040E94300F08951E
:101EE0008091B604882319F081508093B604209124
:101EF000B2043091B3044091B4045091B5046091A0
:101F0000B6047091B7048091B8049091B9040E940E
:101F1000300F0895A3E0B0E0E0E9FFE00C94CD219C
:101F2000E82ED62EF42E722E8091B20480FF34C09B
:101F3000982F96959695E92FF0E0EE5BFE4F208165
:101F40002093B0048C7F843059F528E7241708F4D7
:101F500048E79E012F5F3F4F6D2D8E2D0E94750724
:101F60004B8169818A810E942B08E092B304D09250
:101F7000B404F092B504772079F02091B204609116
:101F8000B6047091B7043E2D4D2D5F2D8091B8049D
:101F90009091B9040E94300F2396EDE00C94E92152
:101FA000223019F7EEEFE90F9170C92EE695F0E0B7
:101FB000E65CFA4FE4910E2F10E033EFA32E33E0EE
:101FC000B32E812C912CC40125E0969587952A95F6
:101FD000E1F7C11017C08E0D4F2D98E79F1508F43B
:101FE00048E795016D2D0E947507800E911E23E034
:101FF000A20EB11C83E5A81684E0B80621F70E9462
:102000001608B3CF2E2D281B822FE6CFE2EBF4E08B
:10201000818121E0438162818F5E0E948A0F089551
:10202000E2EBF4E0818121E04381628181510E94F1
:102030008A0F0895E2EBF4E0628121E1620F08F477
:102040006FEF21E0438181810E948A0F0895E2EBC6
:10205000F4E0628121E1621B08F460E021E0438149
:1020600081810E948A0F0895E2EBF4E043812CE025
:10207000420F08F44FEF21E0628181810E948A0FB4
:102080000895E2EBF4E043812CE0421B08F440E0C9
:1020900021E0628181810E948A0F0895AB0124E6CC
:1020A00030E0BC0188E70E9415219C0181E0232BD0
:1020B00009F080E0089580915D04882369F08091A3
:1020C0005C04882349F062E070E08EEA90E00E94B0
:1020D0004E10811110925C040895A4E0B0E0E3E793
:1020E000F0E10C94D82180915D048823F9F00E94DE
:1020F0001809DC01CB01805A9541AF4FBF4F809347
:102100005E0490935F04A0936004B0936104809197
:102110005C0481110BC062E070E08CEA90E00E94E8
:102120004E10882319F081E080935C042496E2E04D
:102130000C94F421CF93DF93282F81E02A3019F0FB
:102140002D3031F480E00E942011DF91CF9108956D
:102150008091F0019091F10136E0FC01ABEAB1E031
:1021600001900D923A95E1F730EE320F303908F4D4
:1021700058C026E0FC0111922A95E9F7C091F001C0
:10218000D091F10146E050E0BE018BEA91E00E945F
:1021900071229E01225F3140892B41F1C90145E046
:1021A000969587954A95E1F741E050E0BA0102C063
:1021B000660F771F8A95E2F7CB016091EE0170916F
:1021C000EF01862B972BB9016B5F7F4FE5E076958A
:1021D0006795EA95E1F702C0440F551F6A95E2F74B
:1021E000842B952B9093EF018093EE012A5F3F4F54
:1021F00040916204642F70E0C9010E94B421481B21
:10220000463010F4240F311D211572E0370710F00D
:1022100020E030E02E503E4F3093F1012093F0014A
:1022200094CF2052330B46E0429FB001439F700D84
:10223000112460557F4F46E050E00E945B229ECF04
:10224000CF93382FE091F001F091F101E25FF1407E
:1022500020916204622F70E0CF010E94B421281BFC
:10226000822F332361F066E00E94FF21C82FC15006
:1022700010F4CF91089580E20E949A10F8CF9F0148
:10228000280F311D2115324018F080E0E0E0F0E029
:102290008E0F9F2F911D8E509E4F9093F101809332
:1022A000F001E7CFCF93DF93C0E8D5E0DC0F8C2FB0
:1022B000CF5F0E949A10DC13FACFD43911F0CD2FE2
:1022C000F4CF80E00E942011DF91CF9108950F9309
:1022D0001F93CF93DF93EC01FC0101900020E9F7FD
:1022E0008F0101501109C017D10728F0DF91CF915C
:1022F0001F910F91089589910E949A10F4CFCF9366
:10230000DF93EC01FE018491811103C0DF91CF9135
:1023100008950E949A102196F5CFA0E1B0E0E3E97C
:10232000F1E10C94C92180915D04882309F4D1C0A6
:1023300082EF91E09093F1018093F0010E9452119D
:102340008091620425E0829FC0011124811532E052
:10235000930714F080E090E08E509E4F9093F1012F
:102360008093F0018CE295E00E947F11809126011C
:102370009091270154E0969587955A95E1F78F70D3
:102380008A3008F0AAC0805D0E949A1080912601D0
:102390008F708A3008F0A3C0805D0E949A108AE294
:1023A00095E00E947F1181E00E94201184E295E077
:1023B0000E947F11809129018F708A3008F091C0AE
:1023C000805D0E949A1082E295E00E947F118091C8
:1023D00028018F708A3008F086C0805D0E949A10B4
:1023E0008FE195E00E947F118AE291E00E946711DF
:1023F0008DE195E00E947F1181E00E94201184E32D
:1024000095E00E947F1181E00E9420118091BE041E
:102410000E94CB031F928F9381E391E09F938F9350
:102420001F928CE08F938E010F5F1F4F1F930F93AE
:102430000E947E22C8010E94671181E00E94201143
:1024400082E395E00E947F1181E00E9420110FB687
:10245000F894DEBF0FBECDBF8091EE019091EF01E9
:10246000892BA1F080915D04882381F080915B0429
:1024700081110CC00E946D102091EE013091EF018E
:1024800080E061E070E02115310581F580915C0408
:102490008823F9F00E9418096D877E878F87988BB3
:1024A00080915E0490915F04A0916004B0916104FA
:1024B0002D853E854F855889281B390B4A0B5B0BB0
:1024C000DA01C9018F3F9F4FAF4FBF4710F40E9401
:1024D0005B106096E1E10C94E521895A55CF895A49
:1024E0005CCF895A6ECF895A79CF8F5F082F10E061
:1024F0007B01082E02C0EE0CFF1C0A94E2F7A70134
:1025000042235323452B89F39091630490FD43C0EC
:1025100098013695279536952795922F8295880FA5
:1025200080763FE1380F80930301209306013093BA
:1025300004019093070124E630E047E050E061E0B9
:1025400071E088E70E94CA20892B09F09FCFA8017B
:1025500025E0440F551F2A95E1F78091630480FD23
:1025600022C04E505E4F04E610E020E230E060E40E
:1025700088E70E946221892B09F088CFE094F094CB
:102580008091EE019091EF01E822F922F092EF01A3
:10259000E092EE017BCF880F880F880F37E0380F6D
:1025A00020E093E0C0CFEEECF1E080E2DF011D928D
:1025B0008A95E9F7EEE3F1E0FE87ED870AE311E0A3
:1025C00082E4A82E81E0B82E97E0392E442443946B
:1025D000AD85BE858D91BE87AD87F80121918F01B4
:1025E000240F352F311D2E503E4FE82FF0E0E253DF
:1025F000FE4F80E090E0632C681A742C082E01C016
:10260000770C0A94EAF76901812CD6019D906D013F
:102610009720662D6819677070E0B92D062E01C0ED
:10262000BB0F0A94EAF75B2E71956195710967708B
:10263000772701C096946A95EAF759286081562A4F
:102640005082839468E08612E0CF019631968830FC
:10265000910589F68D859E85A816B90609F0B8CF33
:1026600004E610E020E230E04EEC51E080CF1F9213
:102670001FB61F9211248F939F93AF93BF938091A6
:102680006504811113C08091C6019091C701A0918A
:10269000C801B091C9014196A11DB11D8093C60129
:1026A0009093C701A093C801B093C901BF91AF91A6
:1026B0009F918F911F901FBE1F9018952FB7F89470
:1026C0008091C6019091C701A091C801B091C90144
:1026D0002FBF08956091B2046695669570E04BE057
:1026E00050E088E091E00E946422892B19F481E097
:1026F0008093B1040E945E1390937C0480937B04CA
:1027000008959091B20490FF3BC08823D1F18D30A1
:10271000D0F58F73282F220F220F8091B20483707F
:10272000282B2093B204662381F03091B3044091AA
:10273000B4045091B5046091B6047091B7048091CF
:10274000B8049091B9040E94300F6091B20466956C
:10275000669570E04BE050E088E091E00E946422D2
:10276000892B99F01092B10481E080937E0420E0DF
:102770004091B5046091B4048091B3040E948A0F23
:10278000089581E0C7CF8CE0C5CF0E946A13ECCFDB
:102790008091B204869586958F5F8D3008F081E038
:1027A00061E00E94811308959091B20496959695E8
:1027B0008FEF890F913009F48CE061E00E94811362
:1027C00008958091B20480FF09C086958695825C49
:1027D0008F73893018F40E94C813089561E082E075
:1027E0000E9481130895A0E0B0E0E9EFF3E10C94BA
:1027F000D2217C01FC018481882309F405C161E0B8
:10280000C7010E941D079C01F70145819093270194
:1028100080932601808191819093290180932801E2
:10282000F9013497E533F10508F0B2C0E154F94FEE
:10283000E4915FE5442311F05E2FEFE5AAE2B1E0F9
:1028400080E090E06D916E136CC08A5D9E4FFC013C
:102850005483F7018581811176C0F701858100815C
:102860001181882309F43EC1C8010E94F206C82FD5
:10287000682FC8010E945604B8018C2F0E94B3042F
:102880000E94D905D82FC92FF701C580068102956E
:102890000F708091BF048770882301F1DC2CCC205D
:1028A000F1F0892F807F803461F080E28D0F8830D5
:1028B000A8F0892F807E803221F4D23078F0002376
:1028C00069F08091C10482FF09C082E00E949304F4
:1028D0008091BF048770DD24D3948111D12C8C2F7B
:1028E00082958F70883009F4EFC108F01FC18430E1
:1028F00008F0FDC01C2F1F70823008F428C1C07F73
:10290000C03211F01295107FDD2309F456C1D13089
:1029100009F49FC1CC2009F4A9C1002309F46BC1BB
:102920002BC101968630910509F08CCF442309F420
:1029300094CF2B358CE7380708F0B8C021309CE7DE
:10294000390709F4CBC02330ECE73E0709F4C0C0D7
:1029500021153C4709F081CF0E94A40BEFEFF4E36F
:102960002CE0E150F0402040E1F700C0000087E794
:1029700097E7909301088093000888E19AE00FB6EA
:10298000F894A895809360000FBE90936000FFCFED
:10299000411185C08091BA048272F901E052F84772
:1029A000E531F10508F059CFEF57FA4D0C941F228D
:1029B0008091B20480FF2DC0282F2E7F2093B20477
:1029C0003091B3044091B4045091B5046091B604C1
:1029D0007091B7048091B8049091B9040E94300FAF
:1029E0001092B1040E9416088091BF04877088235A
:1029F00059F0F7018581882339F08091C10482FF65
:102A000003C082E00E949304CDB7DEB7E8E00C94E7
:102A1000EE2181608093B20461E0869586950E94E4
:102A20008113E2CF44ED53E168EC73E10E94760834
:102A3000DBCF48EC53E164ED73E1F8CF40E150E1C6
:102A400066E070E1F3CF46E050E160E170E1EECF87
:102A500047E250E16AE170E1E9CF4AE150E167E223
:102A600070E1E4CF41E450E164E370E1DFCF44E39F
:102A700050E161E470E1DACF40E75FE066E57FE0D6
:102A8000D5CF46E55FE060E77FE0D0CF61E081E051
:102A9000C6CF0E94E113A8CF61E08CE0C0CF2A35F9
:102AA000FCE73F0709F045CF81E00FC02B358CE7ED
:102AB0003807B1F02C353C4709F0CFCE8091C104E6
:102AC00082FB882780F991E089270E943C0BC5CEC4
:102AD0006FEF7FEF80E090E00E945F250E94BA0BCD
:102AE00080E0F3CFC8010E947004C82FC5CE8430A7
:102AF00009F4CDC0DD20A9F08091BF0480FD11C094
:102B0000F70115828695869586950E94E303C70195
:102B10000E94F3138091BF048695869586950E9446
:102B2000EF0360E0C7010E941D076ECF893009F4F2
:102B30003AC18A5F8F708230E8F6D23F09F044C113
:102B40008C2F8F71C1103DC10E94E303EAC0C031D8
:102B500010F01295107FCC20B9F0112369F080E2BB
:102B60008D0F883010F0D11109C08091BA04812BEB
:102B70008093BA040E94680B8D2F2FC08091C204ED
:102B8000812B8093C204F6CF8D2F0E94EB0E112370
:102B900009F4B0CF80E28D0F883010F0D11104C05D
:102BA000812F0E94AB0406C010958091C20481233E
:102BB0008093C2040E94680B9DCF8091C10482FD66
:102BC00016C0CC2069F0112339F08091BA04812B12
:102BD0008093BA040E94680B80E00E94810E8ACF25
:102BE00080E00E94EB0E112309F484CFD9CFCC20D2
:102BF000A1F0011104C0812F0E941F0F7BCF013073
:102C000009F078CF8091BB04912F9823191709F40C
:102C100071CF812B8093BB046DCF01116BCF812FBE
:102C20000E94290F9091BB04812F8923882329F0CA
:102C3000812F809589238093BB048091BC04912FC0
:102C40009823992309F456CF109518231093BC04A8
:102C500051CFCC2021F0063008F04CCFCCCF05303E
:102C600008F048CF812F0E94290F44CF0023D1F3D1
:102C7000D93349F4FFEF27EE33E0F15020403040E4
:102C8000E1F700C000008D2F0E94EB0E33CF8C2F98
:102C9000869586958370882369F0813009F02ACF64
:102CA0008D2F9C2F9370C11002C080E090E00E9495
:102CB000F20820CF8D2F9C2F9370C11002C080E0AE
:102CC00090E00E94CC0816CF8C2F8370811134C005
:102CD000C11027C04D2F429546954770440F440FB1
:102CE0008D2F8F70042E01C0880F0A94EAF7D071DF
:102CF000DD2341F02FE030E001C0220F4A95EAF7D2
:102D0000D22FD095C695C695C370C23081F0C3301E
:102D100061F02091BD04C13039F08D2B82230E94D7
:102D2000DD030E94BF08E6CE822B8D2BF8CF8D2BC2
:102D30009091BD048927F3CFCC2051F1C0FFF1CF92
:102D40004D2F429546954770440F440F8D2F8F703D
:102D5000042E01C0880F0A94EAF7D071DD2341F0F8
:102D60002FE030E001C0220F4A95EAF7D22FD0952C
:102D7000C695C695C370C23089F0C33069F0209102
:102D8000BE04C13041F08D2B82230E94E003C9CFE5
:102D9000823038F2D5CF822B8D2BF7CF8D2B9091AF
:102DA000BE048927F2CFCF70CC2039F08C2F0E943F
:102DB000E3038D2F0E941F0FB4CF8D2F0E94290F88
:102DC0008C2F0E94EF03ADCFD33F70F4D03FB9F00A
:102DD000D13FB9F1CC2009F455C0002309F44FC00C
:102DE0008D2F0E94810E9DCFD33FE1F0D43F29F17A
:102DF000C110F3CF011154C08C2F8F71E2CFCC20C2
:102E000079F0053008F08DCFCF7181E090E0FC01C2
:102E100001C0EE0FCA95EAF78091BE048E27B5CFA8
:102E20000530F0CF80E0CC2009F4AFCFCF7181E046
:102E300001C0880FCA95EAF7A8CF9091C10492FD0E
:102E400006C08C2F8F71CC2009F4BBCF7DCECC2057
:102E500061F08C2F8F7192FF77CEF8E08F9F9001F9
:102E6000112423602093BF046FCE81E00E9493045D
:102E7000023008F456CF82E00E94930452CF8C2F88
:102E80008F7162CE002309F4B7CFD93349F42FEF05
:102E900037EE83E0215030408040E1F700C0000071
:102EA0008D2F0E94EB0E3DCF80910305803178F489
:102EB00080910205882359F0E091C4042091C30455
:102EC0003091FE044091FD0457E02E1301C0089597
:102ED0006E2F70E05E9FF0011124DF01AB53BB4FFA
:102EE00014968C911497882361F111968C91119707
:102EF000831327C08C91841324C015968C91159749
:102F000081111FC012968D919C91A091FF04B091E8
:102F100000058A1B9B0B883C910598F48091030562
:102F20008F70806180930305E553FB4F80818F7024
:102F3000806180838DEF94E00E94F3130E948904E6
:102F40000895FB013196E770C0CFADE0B0E0EBEA49
:102F5000F7E10C94CD218C0186E0F801DE01189692
:102F600001900D928A95E1F7F801E080F580A2804A
:102F7000B380C4808DEF882E84E0982E7090010578
:102F8000711020C0CC20D9F0FF2009F419C1C8016C
:102F90000E944C07882309F413C187E0F801D4018B
:102FA00001900D928A95E1F7F1E0CF1206C0809171
:102FB000FD049091FE040E943D070E945417FF24D7
:102FC000F39451C0D09002058091FF0490910005C8
:102FD0009501281B390BDD2009F4BAC0283C3105C6
:102FE00008F090C0CC2059F39091FE04C1808091EC
:102FF0000305803108F058C0C91214C09091FD0437
:103000009E1110C0F1104AC08F708061809303053B
:103010008DEF94E00E94F31380910305F8018683FD
:10302000F12C21C0F1103AC040E06C2D8E2D0E9491
:10303000940A40E06C2D8E2D0E94940AF82E811186
:10304000EFCF888599850E943D07292F22952F7003
:10305000903470F49F702230A0F09923B1F0F80101
:103060009681903190F48F2D2D96EDE00C94E9210E
:103070002A5F2F70223068F0C8010E94F313FD2CE4
:10308000F2CF992311F0882371F3805E883058F3D2
:10309000F3CF803F40F3815F8230F9CF8091030509
:1030A000816080930305BCCFC91207C09091FD04D5
:1030B0009E1103C0FF2009F46CC0C8010E944C0798
:1030C000882309F47DC0FF2009F47AC080910305AC
:1030D000803278F02091FD043091FE043A832983F8
:1030E000BC82AB827D821E828F83CE0101960E94BC
:1030F000F31387E0F801ADEFB4E001900D928A95EB
:10310000E1F75BCF80910305803150F48DEF94E0BF
:103110000E94F31387E0F40111928A95E9F780CFBA
:10312000CC2009F44CCF2091FE0491812913C5CF06
:103130009091FD049E11C1CFF110BFCF8683C801CD
:103140000E94F31387E0F40111928A95E9F737CFD3
:10315000283C3105F8F6CC2009F431CFFF2081F16D
:103160009091FE048181981321C08091FD048E11FD
:103170001DC08091030580FD10C0803170F08683F2
:10318000807F803F39F08681982F907F905F8F708D
:10319000892B8683C8010E94F31387E0F801ADEF05
:1031A000B4E001900D928A95E1F709CFC8010E9421
:1031B0004C0781119ECF80910305816080930305A8
:1031C000C8010E94F313FBCEABE1B0E0EAEEF8E1F8
:1031D0000C94D7214E8B5F8B688F798F8A8F9B8F52
:1031E00091111092C2041D8A86E0FE017696DE01DE
:1031F0001F9601900D928A95E1F78B89882329F01B
:1032000061E0CE010F960E941D0787E0FE013F9608
:10321000DE01189601900D928A95E1F7CE0108968D
:103220000E94A51781112BC087E0FE013896DE01B0
:10323000119601900D928A95E1F72091C304409177
:10324000C4048C858823D9F030E0C90101968770C9
:10325000992750E084179507E9F097E0929FD001F5
:10326000939FB00D1124AB53BB4FFE0131960190DB
:103270000D929A95E1F78093C3040E94890417E0A8
:103280008091C4049091C304891312C06B96E3E04B
:103290000C94F3210E94A40B1092C3041092C40456
:1032A00087E0EDEFF4E0DF011D928A95E9F7E7CFC3
:1032B000189FC00111248B539B4F0E94A517882390
:1032C00029F38091C40490E0019687709927809338
:1032D000C404D6CFA6E0B0E0E0E7F9E10C94D62133
:1032E0000E945E138C018091920490919304801748
:1032F000910779F019821A820E945E13BC014981FC
:103300005A8180E090E00E94E418109393040093A7
:1033100092042696E4E00C94F2219C014FB7F894B5
:103320008091C6019091C701A091C801B091C901D7
:103330004FBF821B930B0895A8E0B0E0E2EAF9E1E9
:103340000C94CA21CE0101967C0188E0D7011D9220
:103350008A95E9F73701570123E1C22E21E0D22EE9
:1033600044244394512CF60181916F010E94B203D1
:1033700000C097E1892E91E0992EF40100E010E061
:103380002191A22FA295AF70A05EB0E08C9190E049
:103390002F7002C0959587952A95E2F7817081116B
:1033A0000FC0D5018D919C9111979201002E02C002
:1033B000220F331F0A94E2F7822B932B8D939C9359
:1033C0000F5F1F4F05301105D9F6F6013197808147
:1033D0000E949903B0EABA95F1F7E2E0AE0EB11C93
:1033E000F7E1CF16F1E0DF0609F0BDCFCC24C3949E
:1033F000D12CD4018D914D010E94B20300C09601E1
:10340000002E02C0220F331F0A94E2F7F70163E196
:1034100071E0DB014D91BD01842F82958F70805E3C
:1034200090E0DC018C9190E04F7002C095958795FB
:103430004A95E2F78170811106C080819181822BCB
:10344000932B918380833296B1E067317B0709F734
:10345000F401319780810E949903E0EAEA95F1F73F
:103460000F5F1F4F0A30110521F6E3E5F4E0C701B5
:10347000089620E0D3014D915D913D0161917191DC
:103480004617570729F0DF0112974D935C9321E00F
:103490008615970579F7222369F081E08093AA01C8
:1034A0000E945E139093A9018093A8012896E0E101
:1034B0000C94E6218091AA018823C1F38091A80190
:1034C0009091A9010E948D19059780F348E050E082
:1034D00063E574E08AE694E00E947122892B49F04A
:1034E00088E0E3E5F4E0AAE6B4E001900D928A9565
:1034F000E1F71092AA01DACFCDB7DEB76A970FB61F
:10350000F894DEBF0FBECDBF85B7806885BF85B795
:10351000806885BF84B7877F84BF0FB6F894A8956D
:1035200080916000886180936000109260000FBEFF
:1035300080E890E00FB6F89480936100909361006A
:103540000FBE82E797E090939F0180939E010E94B7
:10355000E3090E94390A8091E20084608093E200CE
:10356000789480916904882399F08091E900109102
:10357000EC001795112717958F70182B1092E90002
:103580008091E80083FD0E94D00B1F701093E9002A
:1035900092E094BD83E085BD2AEF27BD90936E0035
:1035A000E8E8F4E098E0DF011D929A95E9F780934E
:1035B000870410E060E0812F0E947D0861E0812F88
:1035C0000E947D081F5F1330A9F7EFE8F1E0319703
:1035D000F1F700C0000010E080918704181708F48C
:1035E00026C207E111E0FCE1EF2EF1E0FF2ED80149
:1035F0008D918D010E949903E016F106C1F703E158
:1036000011E0F80181918F010E949903F1E00731E7
:103610001F07B9F7109254041092530410926B04D0
:1036200010926A04109256041092550410926D0480
:1036300010926C04109258041092570410926F0468
:1036400010926E0410925A04109259041092710450
:103650001092700480E090E00E942B25853E9E4FE2
:1036600009F45EC065EE7EEF80E090E00E945F2589
:1036700060E082E090E00E94412581E08093BD04FB
:1036800061E083E090E00E94412560E074E184E025
:1036900090E00E945F2560E086E090E00E94412576
:1036A00060E087E090E00E94412540E050E0BA01F0
:1036B00088E090E00E94532560E083E290E00E9461
:1036C000412560E08CE090E00E94412560E08DE0C3
:1036D00090E00E94412519821A821B821C821D8261
:1036E0001E821F82188648E050E067E170E0CE013C
:1036F00001960E94312540E050E0BA018FE190E050
:103700000E94532540E050E0BA018FE090E00E9413
:10371000532540E050E0BA0183E190E00E94532538
:1037200082E090E00E941D258093720484E090E086
:103730000E942B259093C1048093C00483E090E005
:103740000E941D250E94DD0383E08093630480E2D4
:10375000809362040E9494206BE070E086E596E01E
:103760000E944E10882389F18091630465E070E027
:1037700081FD6FC181E596E00E944E10882329F1FA
:103780006DE070E08FE396E00E944E108823E9F030
:103790000E9418096D8B7E8B8F8B988FDC01CB017B
:1037A000805A9541AF4FBF4F80935E0490935F0462
:1037B000A0936004B09361040E94530B81E0809356
:1037C0005D0480935C0410925B0480916404811119
:1037D00099C088E090E00E9425256B017C0183E27E
:1037E00090E00E941D25282F30E040E050E060E08E
:1037F00070E080E090E000E20E942522F22FA32EEC
:10380000B42EB52FA62FE72F9701860140E050E098
:10381000BA01FC29A12AB22AB32BA42BE52B862BB3
:10382000972BF093B204A092B304B092B404B09377
:10383000B504A093B604E093B7048093B8049093C2
:10384000B904F43008F04CC025E02093B204109283
:10385000B3042FEF2093B40428E72093B50410920B
:10386000B60425E030E04FEF58E760E07E2F0E947D
:10387000300F88E090E00E9425256B017C0183E2F7
:1038800090E00E941D25282F30E040E050E060E0ED
:1038900070E080E090E000E20E9425225901B42F00
:1038A000A52FF62FE72F9701860140E050E0BA01DF
:1038B000AC28B12AB22BA32BF42BE52B862B972B0C
:1038C000A092B204B092B304B093B404A093B50430
:1038D000F093B604E093B7048093B8049093B904CE
:1038E0000E9401081092B1040E94BD088091B204A8
:1038F00080FF05C060E0869586950E94811381E077
:10390000809364048091B20481608093B20460E08B
:10391000869586950E94811360E08CE00E94811359
:103920008CE191E090939504809394047BE7272E9B
:1039300074E0372EE0E47E2EFF24F3945CEFE52E56
:103940006DEFD62E8091690411E0853009F4D7C05F
:103950000E949C1943E7442E44E0542EAAE6B4E0AA
:10396000BA8FA98FEFE4F1E0FE8BED8BAF018D01F3
:10397000F20121913191D8018D919D918D01DA0152
:103980006D917D91AD01862397232E163F0609F494
:10399000EAC02817390769F3C12CE98DFA8D019126
:1039A0001191FA8FE98FAD89BE898D919D91BE8B62
:1039B000AD8B08231923F201819091902F0180167D
:1039C000910661F180269126612CAA24A394B12C42
:1039D000C50188219921892BB9F06F86C88A0E9478
:1039E0005E139A8B898BF1E0FB8B91E0950120238C
:1039F0003123232B09F490E09C8B4F8558896989EA
:103A00007A898B890E94E4186394AA0CBB1C2AE073
:103A10006212DECFF201329711830083C39444E037
:103A2000C412BBCF0E941809CC24C394A3C060E089
:103A3000812F0E94A008082F61E0812F0E94A0081A
:103A4000E12FF0E0EC57FB4F880F802B80831F5F46
:103A5000C3CD8CE496E090CE80916904843009F463
:103A600038C01092B1048091670481110DC0109389
:103A700067048091B204982F9170909366048E7FB2
:103A80008093B2040E9416080E945B101092650495
:103A900088E190E00FB6F894A895809360000FBE7F
:103AA0007092600083B7817F846083BF83B7816039
:103AB00083BF7894889583B78E7F83BF0FB6F894C1
:103AC000A8958091600088618093600010926000EA
:103AD0000FBE80916804882391F00E949C19EAE649
:103AE000F4E0AFE4B1E0819191912D913D91822379
:103AF0009323892B01F594E0E237F907A1F7809130
:103B00006904853009F4A8CF0E94A40B0E94BF0865
:103B10001092670480916604882351F08091B2046A
:103B200081608093B20460E0869586950E9481133F
:103B30000E946A130DCF80E189BD82E189BD09B47D
:103B400000FEFDCF8091D8008F7D8093D8008091BA
:103B5000E00082608093E0008091E00081FDFCCF76
:103B60000E94A40BCCCF2817390709F015CF0E946B
:103B70006A19C12C8091B104882309F43EC0909148
:103B8000B0048091B20486958695891B80937D044C
:103B900000ED17E084E7A82E87E0B82E9C3041F4B2
:103BA000E1E6F6E0059114919CE3A92E98E0B92E88
:103BB00080917E04882361F010927E040E945E133F
:103BC00090937C0480937B041092800410927F0475
:103BD0000E945E1320917B0430917C04821B930B26
:103BE0008F3F9F4750F4200F311F30937C04209368
:103BF0007B048BE794E0F50109958091900488237C
:103C000051F080918A041092900480938B048091EB
:103C100088048093890400E050C061E0802F0E94F6
:103C2000A008A82E60E0802F0E94A008AA0CA82A55
:103C3000E02FF0E09F012C573B4FD9019C91892F39
:103C40008370A816C9F1A92FAA0FAA0F8A2F8A2953
:103C5000D9018C93A82FAF70B0E0A95ABE4FEF578F
:103C6000FB4F8C919081890F808382300CF465C06A
:103C7000412F50E02B2D30E0BA016F5F7F4F637012
:103C800077272617370781F048575B4F902F9F778C
:103C9000DA0114969C931F5F137010938A0490911D
:103CA00088049F5F90938804082E000C990B62E0B3
:103CB00070E00E940B2280830F5FB0908B04109104
:103CC0008A0480918704081708F4A7CF90E08091B8
:103CD0008B0420918A04281709F473C0E82FF0E0C0
:103CE000E457FB4F9081192F1F778F5F837080936C
:103CF0008B04809189048F5F8093890497FD32C083
:103D00001983EA820E945E13BC018B839C83F3E0DB
:103D1000FD83FE8249815A8183E091E00E94E4188C
:103D20008FE39CE90197F1F700C000001987EA864C
:103D30000E945E13282F83E031C08F3F0CF0B4CF78
:103D4000412F50E02B2D30E0BA016F5F7F4F637041
:103D500077272617370709F4A7CF48575B4F902FCF
:103D6000906896CF1983DA820E945E13BC018B8320
:103D70009C83B2E0BD83FE8249815A8182E091E05A
:103D80000E94E418EFE3FCE93197F1F700C000006E
:103D90001987DA860E945E13282F82E0622F792F1E
:103DA0002B879C878D871E8649855A8590E00E94C7
:103DB000E418AFE3BCE91197F1F700C0000091E00F
:103DC00086CF992339F00E9418090E948D110E9414
:103DD0006D1004C00E948D11C110F9CF0E94BF0860
:103DE00090919104891709F4ADCD809391040E94BC
:103DF0001809A2CD78941F921FB61F9211248F9399
:103E00009F93AF93BF938091C6019091C701A091FA
:103E1000C801B091C9010196A11DB11D8093C601D1
:103E20009093C701A093C801B093C901BF91AF910E
:103E30009F918F911F901FBE1F9018951F920F92F8
:103E40000FB60F9211242F933F934F935F936F936D
:103E50007F938F939F93AF93BF93EF93FF93809143
:103E6000E10082FF09C08091E20082FF05C08091DD
:103E7000E1008B7F8093E1008091DA0080FF24C015
:103E80008091D80080FF20C08091DA008E7F8093DF
:103E9000DA008091D90080FF9BC080E189BD82E17A
:103EA00089BD09B400FEFDCF81E080936904809153
:103EB000B401811109C00E94E3090E94390A80916E
:103EC000E20084608093E2008091E10080FF17C0EF
:103ED0008091E20080FF13C08091E2008E7F80938A
:103EE000E2008091E20080618093E2008091D8003E
:103EF00080628093D80019BC85E08093690480912A
:103F0000E10084FF29C08091E20084FF25C080E1A8
:103F100089BD82E189BD09B400FEFDCF8091D80042
:103F20008F7D8093D8008091E1008F7E8093E100A7
:103F30008091E2008F7E8093E2008091E2008160B8
:103F40008093E2008091B301882309F447C084E0A4
:103F500080936904809169048091E10083FF27C008
:103F60008091E20083FF23C08091E100877F8093EE
:103F7000E10082E0809369041092B3018091E10036
:103F80008E7F8093E1008091E2008E7F8093E2003B
:103F90008091E20080618093E20042E060E080E096
:103FA0000E94020A8091F00088608093F000FF91E7
:103FB000EF91BF91AF919F918F917F916F915F91A1
:103FC0004F913F912F910F900FBE0F901F9018951A
:103FD00019BC109269041092B40176CF8091E3006D
:103FE00087FF02C083E0B4CF81E0B2CF1F920F926F
:103FF0000FB60F921124FF920F931F932F933F93AD
:104000004F935F936F937F938F939F93AF93BF93E0
:10401000CF93DF93EF93FF9309EE10E0F8018081D7
:10402000C091EC00C795CC27C7958F70FC2EF82A5D
:104030001082C0EFD0E08881877F888378940E94C7
:10404000D00BF8011082888188608883CF2DCF70D3
:10405000C083FF91EF91DF91CF91BF91AF919F917D
:104060008F917F916F915F914F913F912F911F9110
:104070000F91FF900F900FBE0F901F901895FF9219
:104080000F931F93CF93DF93182FEB011092BC0077
:1040900084EA8093BC000E945E13082FF92E809161
:1040A000BC0087FF28C08091B900887F883029F044
:1040B0008091B900887F8031A1F51093BB0084E81E
:1040C0008093BC000E945E13182F092F8091BC00C2
:1040D00087FF1FC02091B900287F80E090E0283141
:1040E00099F081E090E0203411F480E090E0919527
:1040F0008195910909C0802F9F2D0E948D19C817A5
:10410000D90768F68EEF9FEFCDB7DEB7E5E00C94E8
:10411000F121812F902F0E948D19C817D907B0F671
:10412000F1CF8FEF9FEFF0CF1092B9008CE080932A
:10413000B80008950F931F93CF93DF93EB01809303
:10414000BB0084E88093BC000E945E13182F092FE7
:104150008091BC0087FF11C02091B900287F81E0C9
:1041600090E0283211F480E090E0919581959109DA
:10417000DF91CF911F910F910895CF3FDC0741F35D
:10418000812F902F0E948D19C817D90708F78EEF3D
:104190009FEFEECFA0E0B0E0E0EDF0E20C94CD2197
:1041A000782E5B016A0189010E945E134C01043183
:1041B000110560F10F3F100769F1C80164E170E07B
:1041C0000E94B421F62EE72E6F2D7E2D872D0E94A2
:1041D0003F20EC0197FF09C00F3F1007A9F3C4016E
:1041E0000E948D190817190778F77501CA0CDB1C96
:1041F000EC14FD0411F0D7FF10C084E98093BC00DB
:10420000CE01CDB7DEB7EDE00C94E921FF24F394A5
:10421000E12CDACF85E0F82EFBCFB801F7018191D0
:104220007F010E949A20EC01E3CFA0E0B0E0EBE137
:10423000F1E20C94CD21782E5B016A0189010E9484
:104240005E134C010431110560F10F3F100769F155
:10425000C80164E170E00E94B421F62EE72E6F2DB4
:104260007E2D872D0E943F20EC0197FF09C00F3F54
:104270001007A9F3C4010E948D190817190778F7D0
:104280007501CA0CDB1CEC14FD0411F0D7FF10C043
:1042900084E98093BC00CE01CDB7DEB7EDE00C948D
:1042A000E921FF24F394E12CDACF85E0F82EFBCF4F
:1042B000F7018491B8010E949A20EC01FFEFEF1AF8
:1042C000FF0AE1CFA0E0B0E0E8E6F1E20C94CC21F7
:1042D000682E962E5A01690178010E945E13782E8D
:1042E000892E0431110530F10F3F100731F1C8015B
:1042F00064E170E00E94B421162F072F612F702F08
:10430000862D0E943F20EC0197FF19C0FFEFEF16AA
:10431000FF06A1F3872D982D0E948D19E816F90646
:1043200068F784E98093BC00CE01CDB7DEB7EEE03C
:104330000C94E82111E000E0E1CF15E0FCCFB701DB
:10434000892D0E949A20EC018501CA0CDB1C0C15FA
:104350001D0539F3D7FDE5CFB701F80181918F0134
:104360000E949A20EC01F3CFAA1BBB1B51E107C0AE
:10437000AA1FBB1FA617B70710F0A61BB70B881FF5
:10438000991F5A95A9F780959095BC01CD01089584
:104390002F923F924F925F926F927F928F929F9255
:1043A000AF92BF92CF92DF92EF92FF920F931F9343
:1043B000CF93DF93CDB7DEB7CA1BDB0B0FB6F894F4
:1043C000DEBF0FBECDBF09942A88398848885F8434
:1043D0006E847D848C849B84AA84B984C884DF80A5
:1043E000EE80FD800C811B81AA81B981CE0FD11D89
:1043F0000FB6F894DEBF0FBECDBFED010895991B37
:1044000079E004C0991F961708F0961B881F7A95CB
:10441000C9F78095089597FB072E16F4009407D0EE
:1044200077FD09D00E94B42107FC05D03EF4909599
:1044300081959F4F0895709561957F4F0895EE0F78
:10444000FF1F0590F491E02D0994002E083090F0A4
:10445000982F872F762F652F542F432F322F222707
:104460000850F4CF220F331F441F551F661F771FBC
:10447000881F991F0A95B2F7002D089597FD109493
:10448000002E083098F00850232F342F452F562F38
:10449000672F782F892F912DF4CF159497958795B5
:1044A0007795679557954795379527950A95AAF774
:1044B0001124002D0895FB01DC0102C005900D922E
:1044C00041505040D8F70895FC014150504030F021
:1044D00001900616D1F73197CF01089588279927C3
:1044E0000895FB01DC0104C08D910190801921F435
:1044F00041505040C8F7881B990B0895AEE0B0E0DA
:10450000E4E8F2E20C94D6210D891E898F89988DFA
:1045100026E02C831A83098397FF02C080E090E88D
:1045200001979E838D83AE01455E5F4F698D7A8DC5
:10453000CE0101960E94AE224D815E8157FD0AC0D8
:104540002F813885421753070CF49A01020F131F6D
:10455000F80110822E96E4E00C94F221ABE0B0E07A
:10456000E4EBF2E20C94C8217C013B018A01FC01DE
:1045700017821682838181FFB9C19AE0292ECE016C
:1045800001965C01F7019381F30193FD859193FFFF
:1045900081913F01882309F446C1853239F493FDA6
:1045A000859193FF81913F01853229F4B70190E015
:1045B0000E948F24E7CF912C412C512CFFE1F5155F
:1045C00038F08B3209F188F4803201F1833221F125
:1045D00057FC3AC020ED280F2A3040F556FE1FC088
:1045E000929C200D1124922E06C08D3291F08033C2
:1045F00079F7689450F8F30193FD859193FF8191C9
:104600003F018111DBCF20C0689451F8689452F8C3
:10461000F2CF689453F8EFCF689454F8ECCF429CF3
:10462000200D1124422E689455F8E5CF8E3229F4DE
:1046300056FCF9C0689456F8DECF8C3619F46894AD
:1046400057F8D9CF8836B9F2982F9F7D955493307B
:10465000C0F08336A1F18337C1F1833509F05BC027
:10466000F801C190D1908F01692D70E056FC02C015
:104670006FEF7FEFC6010E9479244C01689457F8D0
:104680000AC00C5F1F4F2FE3298388248394912C49
:104690006501E89457F853FC04C04814190409F064
:1046A00018F5342C8114910431F5332009F46ACFC4
:1046B000B70180E290E00E948F243A94F6CFF8018F
:1046C000808189830E5F1F4FE0CFF801C190D190A8
:1046D0008F01692D70E056FC02C06FEF7FEFC601BD
:1046E0000E9484244C01D5CFB70180E290E00E9463
:1046F0008F244A94D2CFF60157FC859157FE8191C1
:104700006F01B70190E00E948F2431103A94F1E0DC
:104710008F1A9108C7CF843619F0893609F074C012
:10472000F80157FE6AC061917191819191918F0159
:10473000252D2F76D22E97FF09C0909580957095E4
:1047400061957F4F8F4F9F4F6894D7F82AE030E0F4
:10475000A5010E94BF24C82ECA188C2C5D2CD6FE41
:104760000CC0E89450F8C91440F4D4FE05C0D2FC43
:1047700003C0FD2DFE7E5F2E892C54FE8FC0FE01EE
:10478000EC0DF11D8081803309F081C0252D297E3B
:10479000522E852D8870382E53FC8FC050FE89C054
:1047A0009C2C841418F44C0C942C981854FE8BC038
:1047B000B70180E390E00E948F2452FE09C088E791
:1047C00090E051FE02C088E590E0B7010E948F247E
:1047D000C91408F484C0CA94D12C9FEFC91AD90A0D
:1047E000CA0CDB1CF60182916F01B70190E00E94B8
:1047F0008F24AC14BD04B1F758CF61917191072E8D
:10480000000C880B990B93CFD52CE894D4F82AE0B0
:1048100030E0853739F1952D997FD92E8F3601F10A
:1048200048F48835A9F0F701868197812B96E2E15B
:104830000C94E421803749F08837A9F7D4FE02C0F0
:104840006894D2F820E130E00DC06894D4F8F6CF37
:1048500054FE03C0E92FE660DE2E20E132E002C004
:1048600028E030E0F801D7FE0DC06191719181918F
:1048700091918F01A5010E94BF24C82ECA18E89407
:10488000D7F86BCF6191719190E080E0F2CF52FC4C
:1048900002C083947ECF839483947BCF852D8678CA
:1048A00009F477CFF6CFB70180E290E00E948F2421
:1048B00083948414C0F3312C79CF342C38188414A9
:1048C00008F474CFF8CF852D867809F481CF8BE278
:1048D00051FE80E257FC8DE2B70190E077CFB7013F
:1048E00080E390E00E948F249A9472CF8FEF9FEF25
:1048F0009DCFFC010590615070400110D8F7809564
:1049000090958E0F9F1F0895FC016150704001909B
:104910000110D8F7809590958E0F9F1F08950F93E3
:104920001F93CF93DF93182F092FEB018B8181FD0C
:1049300009C01FEF0FEF812F902FDF91CF911F91B3
:104940000F91089582FF14C02E813F818C819D813B
:10495000281739073CF4E881F981CF010196998342
:10496000888310838E819F8101969F838E83E3CFFE
:10497000E885F985812F0995892BA1F3DACFFA0112
:10498000AA27283051F1203181F1E8946F936E7F8E
:104990006E5F7F4F8F4F9F4FAF4FB1E03ED0B4E07F
:1049A0003CD0670F781F891F9A1FA11D680F791FC0
:1049B0008A1F911DA11D6A0F711D811D911DA11DD1
:1049C00020D009F468943F912AE0269F11243019E1
:1049D000305D3193DEF6CF010895462F4770405D7C
:1049E0004193B3E00FD0C9F7F6CF462F4F70405D2B
:1049F0004A3318F0495D31FD4052419302D0A9F786
:104A0000EACFB4E0A6959795879577956795BA957F
:104A1000C9F700976105710508959B01AC010A2E45
:104A200006945795479537952795BA95C9F7620F1C
:104A3000731F841F951FA01D0895F999FECF92BD85
:104A400081BDF89A992780B50895A6E1B0E044E0C9
:104A500050E00C946725A8E1B0E042E050E00C94EF
:104A60006725DC01A40FB51F4150504048F0CB0131
:104A7000840F951F2E910E94422541505040D0F73F
:104A80000895262FF999FECF92BD81BDF89A01971E
:104A900000B4021639F01FBA20BD0FB6F894FA9A86
:104AA000F99A0FBE08950396272F0E9442250E946F
:104AB0004125252F0E944225242F0C944225019642
:104AC000272F0E9442250C944125DC01CB01FC01DB
:104AD000F999FECF06C0F2BDE1BDF89A319600B457
:104AE0000D9241505040B8F70895F894FFCFAD0CA7
:104AF000D30CD90CD30CD90C2C0D4E0DD90C4C0E5B
:104B0000590ED814121519151E15231528152D1513
:104B1000321537153C1541154615F414F414F414E8
:0C4B2000F414F414F41449154C15F414AA
:104B2C00010021007F22000301020304050607088F
:104B3C00090A0B92946697F4F5F6F73135091E0BBA
:104B4C0038093909350B000000005F5F5F5F5F00BB
:104B5C0000256400C635323436330008101818109E
:104B6C0008000001020202020202020202020CEF21
:104B7C0003EE03EF03EF0300FF0100010000FFFF52
:104B8C000000010001FF00E200E900EA00B500B6F8
:104B9C0000B700CD008301CC008A01920194012161
:104BAC0002230224022502260227022A02B300B4A1
:0E4BBC00006F0070009F01CB019F02A002005D
:00000001FF
