:100000000C944E040C946B040C946B040C946B04D1
:100010000C946B040C946B040C946B040C946B04A4
:100020000C946B040C946B040C9465240C943D2587
:100030000C94A91C0C946B040C946B040C946B042E
:100040000C946B040C946B040C946B040C946B0474
:100050000C946B040C9441240C946B040C946B046E
:100060000C946B040C946B040C946B040C946B0454
:100070000C946B040C946B040C946B040C946B0444
:100080000C946B040C946B040C946B040C946B0434
:100090000C946B040C946B040C946B040C946B0424
:1000A0000C946B040C946B040C946B040501098094
:1000B000A101850319012AB700150126B700950192
:1000C00075108100C0050C0901A101850419012AE0
:1000D000A002150126A002950175108100C00660DE
:1000E000FF0961A1010962150026FF00952075082E
:1000F00081020963150026FF00952075089102C052
:1001000005010906A101050719E029E715002501E8
:10011000950875018102950175088101050719008F
:1001200029FF150026FF00950675088100050819AE
:1001300001290515002501950575019102950175A7
:10014000039101C000AF00AE0000000000000000FD
:100150002F000000000700070000123F123F1200AE
:10016000242A7F2A120036091E241B001826291271
:100170002800000007000000001E21400000004091
:10018000211E000014083E08140008083E0808005C
:100190000000307000000808080808000000303037
:1001A000000020100C0201001E2925231E00002241
:1001B0003F200000223129292600122125251A007E
:1001C0001814123F10001725252518001E25252577
:1001D00018000131090503001A2525251A000629F2
:1001E00029291E0000003333000000003373000093
:1001F00008141422220014141414140022221414BB
:1002000008000201290502003E59555D3E003816DE
:10021000111638003F2525251A001E212121120024
:100220003F2121211E003F25252521003F090909E5
:1002300001001E2121291A003F0404043F0000216F
:100240003F210000102020201F003F040C1221003D
:100250003F20202020003F0204023F003F020C10FC
:100260003F001E2121211E003F09090906001E2111
:1002700029112E003F0909192600122525291200EF
:1002800001013F0101001F2020201F000718201836
:1002900007000F300C300F0021120C122100030454
:1002A00038040300312925232100007F414100004B
:1002B00001020C1020000041417F000004020102F5
:1002C0000400404040404000000103040000102AA8
:1002D0002A2A3C003F2422221C001C222222240025
:1002E0001C2222243F001C2A2A2A0C0000043E055E
:1002F00005000C5252543E003F0804043800000030
:100300003D0000002040403D00003F08081422004E
:1003100000013F2000003E023C023C003E0402027D
:100320003C001C2222221C007E1422221C001C22C3
:1003300022147E003E0402020400242A2A2A12000B
:1003400000021F2200001E2020103E000618201868
:1003500006000E300C300E002214081422000E503D
:1003600050483E0022322A262200080877414100E8
:1003700000007F00000041417708080018040810C1
:100380000C000000000000000000381C0CCCCCCC9D
:10039000FC3800180C8CCC7C38000080C0404040F9
:1003A000404040C0800000C047CF4C4C4C4C4743BD
:1003B000404E4F49484848C040FF0001FD0101FD43
:1003C0000100FF0000FF007F8080808080808080AF
:1003D00080808080807F00FF0000FF0000FF000021
:1003E000FF00000F0A09080808080808080808089C
:1003F000080808090A0D02040404040404020100A8
:1004000000000000000000000000000000000000EC
:1004100000000000000000000000000000000000DC
:1004200000000000000000000000000000000000CC
:1004300000000000000000000000000000000000BC
:1004400000000000000000000000000000000000AC
:10045000000000000000000000000000000000009C
:10046000000000000000000000000000000000008C
:10047000000000000000000000000000000000007C
:10048000000000000000000000000000000000006C
:10049000000000000000000000000000000000005C
:1004A000000000000000000009025B00030100A042
:1004B000FA090400000103010100092111010001F2
:1004C000224400070581030800010904010002031A
:1004D000000000092111010001222200070582030A
:1004E00020000107050303200001090402000103A5
:1004F00000000009211101000122320007058403D8
:100500002000011201000200000008328832880039
:1005100001010200012003660072006500650061B0
:1005200000640072007300330032005F006B006EE5
:10053000006F00620000002203540061006B006144
:10054000006800690072006F0020004E00610074B6
:1005500000730075006D0065000000040309041EAF
:100560000029004402440000000B000C001200139C
:10057000004C00000014001A0008000000150017CD
:10058000001C0018002B001E0009020400160000C9
:1005900000070009000E000F00E3001E001D041BF1
:1005A00000060000000A00215210000D0028001E65
:1005B0000029024402440200000B020C0212021342
:1005C000024C02000014021A020802000015021771
:1005D000021C0218022B021E00090204021602006D
:1005E00000070209020E020F02E3021E001D041B97
:1005F00002060200000A02010010420D0228020158
:10060000000100010001000000010001002178222A
:1006100078007C00000100010001000000010001E1
:1006200000010001000100010001000100010000C3
:10063000000100010001000100017C010001000136
:100640000001000000010001000100010001004E56
:10065000004B00510052004F0050000100010023E8
:100660007824782778287801000100010001000132
:100670000001002000202000200052204320200004
:1006800020004B657920200020004C6179657200C4
:10069000FFAA7F5540000101010101010101010292
:1006A0000202020202020202030303030303030322
:1006B00004040404040404050505050506060606ED
:1006C00006070707070708080808090909090A0AA9
:1006D0000A0B0B0B0C0C0C0D0D0D0E0E0E0F0F0F4D
:1006E00010101111111212131314141515161617D8
:1006F00017181819191A1A1B1B1C1D1D1E1E1F2046
:1007000020212222232424252626272829292A2B92
:100710002C2D2D2E2F3031323233343536373839B7
:100720003A3B3C3D3E3F40414243444546474849B1
:100730004A4C4D4E4F50515354555658595A5B5D83
:100740005E5F616264656668696B6C6D6F70727321
:100750007577787A7B7D7E8082838587888A8C8E88
:100760008F91939596989A9C9EA0A2A3A5A7A9ABBA
:10077000ADAFB1B3B5B7BABCBEC0C2C4C6C9CBCDAC
:10078000CFD1D4D6D8DBDDDFE2E4E7E9EBEEF0F35E
:10079000F5F8FAFDFF00DA0281FFD9F1DB20A4A60B
:1007A0002EAF00A0C0D30000A1C8D30000AED580FA
:1007B000A81F408D14200000000000000000000071
:1007C0000000000000000000000000000000000029
:1007D00000000000000000000000007E0F00D4FFB9
:1007E000FFFFC70000007800000000000000002AA2
:1007F0002B280000000000000000000000000000A6
:10080000000029000000002C1E3420212224342660
:1008100027252E362D3738271E1F20212223242559
:10082000263333362E37381F0405060708090A0B0E
:100830000C0D0E0F101112131415161718191A1B80
:100840001C1D2F3130232D350405060708090A0B1E
:100850000C0D0E0F101112131415161718191A1B60
:100860001C1D2F3130354C616263646566676869B1
:100870006A6B6C6D6E6F7071727374757677787960
:100880007A31323334353637383930524542545F55
:100890002D3D5B5D5C233B27602C2E2F11241FBE5A
:1008A000CFEFDAE0DEBFCDBF11E0A0E0B1E0EAE9D2
:1008B000F0E502C005900D92AE39B107D9F724E0FA
:1008C000AEE9B1E001C01D92AB3FB207E1F70E9473
:1008D000F51D0C9417280C940000F894E82FE2956D
:1008E000EF70F0E041A18F7021E030E0B90102C06B
:1008F000660F771F8A95E2F7CB01962F9095942388
:1009000091A392A1892B82A378940895F894E82F5B
:10091000E295EF70F0E041A18F7021E030E0B90185
:1009200002C0660F771F8A95E2F7CB01942F982BB0
:1009300091A392A18095892382A378940895982FFA
:1009400082958F70882311F0982F84E0292F2695A7
:100950002695222311F08E5F922F969591118F5F2D
:1009600008958093B40408958093B504089521E018
:1009700030E001C0220F8A95EAF78091B504822BFE
:100980000E94B404089521E030E0A90102C0440FA0
:10099000551F8A95E2F7CA0180959091B504892385
:1009A0000E94B40408959B01677091E001C0990F03
:1009B0006A95EAF763E0369527956A95E1F7B901FC
:1009C000660F771F260F371FFA01E20FF31F40E073
:1009D00050E0682F70E08191DF0111979B01042E98
:1009E00002C0369527950A94E2F7217021952827B1
:1009F000292328272C934F5F5F4F4330510559F728
:100A000008959C01A82FA77083E0369527958A95B5
:100A1000E1F7C901880F991F820F931FFB01E80FAF
:100A2000F91F40E050E080E0219130E00A2E02C042
:100A3000369527950A94E2F721703327042E01C0DA
:100A4000220F0A94EAF7822B4F5F5F4F4330510524
:100A500059F70895282F862F943070F42A3058F4CF
:100A6000622F70E02AE0929F600D711D11244AE907
:100A700054E00E94D30408959C5F9230E0F7622F07
:100A800070E047E954E0F5CF292F943068F48A30BC
:100A900090F490E06AE974E03AE0239F800D911DA4
:100AA00011240E94010508952C5F223020F467E98B
:100AB00074E090E0F6CF80E008959091B50421E0D5
:100AC00030E0F90101C0EE0F8A95EAF7D90102C0C2
:100AD000AA0FBB1F6A95E2F7EA2B01C0220F4A95C5
:100AE000EAF7892F8E23E81305C0892F822B0E94F5
:100AF000B40408952095822F8923F9CF8091BB04F7
:100B00009091BA04981301C008958F5F8770FACF4F
:100B10009091B604809589238093B604282F27707E
:100B200021110DC0891759F09091B80492FF07C0A8
:100B30008695869586950E94C3041092B604089502
:100B4000982F90958091B10489238093B1040895E2
:100B5000803E9105D1F1C8F48133910509F47FC03D
:100B600048F48932910509F46FC08A32910509F47D
:100B70007DC0089589339105E1F082389105C9F06F
:100B80008533910509F45BC00895843E9105D1F148
:100B900048F4823E910531F1833E910541F181EEA9
:100BA00090E00895863E9105C1F1873E9105E1F1FF
:100BB00008952091B7042370211165C02091B804D5
:100BC00023FF14C089E290E008952091B70420FD2E
:100BD00043C03091B80430FF09C024FF4EC080E00C
:100BE00090E008952091B70422FDF7CF0895209159
:100BF000B70422FD45C03091B80430FD44C024FF45
:100C0000F5CFEDCF2091B80421FFF0CF8091B7044C
:100C100084FDE5CF87EE90E008952091B70423FF8F
:100C2000E5CF24FDDCCFF6CF2091B70423FD2EC005
:100C30003091B80431FFE3CF84EE90E00895209125
:100C4000B70425FFD3CFBECF2091B70425FD21C027
:100C50002091B80423FFCACF89E390E00895209142
:100C6000B70426FFC3CF8AE290E008952091B7042D
:100C700026FFBCCF81E390E0089583EE90E00895D5
:100C800082EE90E0089580EE90E0089586EE90E088
:100C9000089585E390E0AACF9091B70492FF10C029
:100CA00041E0282F2471243009F040E031E0282F62
:100CB0002871283009F030E0431711F02CE082272A
:100CC00093FF10C041E0282F2471243109F040E047
:100CD00031E0282F2871283109F030E0431711F056
:100CE0002CE082273091B80430FF10C051E0282F4B
:100CF0002171213009F050E041E0282F287128307F
:100D000009F040E0541711F029E0822731FF10C0AC
:100D100041E0282F2171213109F040E031E0282FF6
:100D20002871283109F030E0431711F029E08227BB
:100D300094FD877E08951F93CF93DF930E94A805AB
:100D4000EC01811522E5920708F053C0811540E5BA
:100D5000940708F0DDC0803E9105F8F48D3C9105C4
:100D600008F0AEC0883A910580F4853A910508F004
:100D700099C08130910521F00497813A910550F492
:100D8000CE01DF91CF911F910895885A91094B9719
:100D900008F48BC0C0E0D0E0F3CF811550E4950794
:100DA000F8F4C11580E2D80708F0CBC0C83ED105E1
:100DB00038F3CE019A9581159F4160F78D2F0E94DF
:100DC0004C06182FCE0199270E94A805212F30E04C
:100DD000322F2227E901CC27DF71C82BD92BD0CFA6
:100DE00099270E94A805CC27DF70C82BD92BD06A81
:100DF000C7CF803842E59407C8F5803652E595079D
:100E000008F067C0C03482E5D807B0F08C2F869513
:100E10008695877020E2829FC0011124C37021E073
:100E200030E0A90102C0440F551FCA95E2F7EA015C
:100E3000C82BD92BDC68A4CFC03252E5D50708F007
:100E400041C08C2F8695869520E2829FC001112497
:100E5000C37021E030E0A90102C0440F551FCA95BC
:100E6000E2F7EA01C82BD92BDD688ACF803C52E536
:100E7000950760F48F71C03AD24508F03FC090E00A
:100E8000982F8827EC01C46FD06A7ACF805C924596
:100E9000809708F07FCFDC2FCC27CC27DF71C06F85
:100EA000D06A6ECFA497D0646BCFC85AD0E0CC0F75
:100EB000DD1FC959DE4F0990D881C02DD46460CFA1
:100EC000D0655ECFCF71D0E0DC2FCC27C16FD06A68
:100ED00057CF86958695877020E2829FC0011124A6
:100EE000C37021E030E0A90102C0440F551FCA952C
:100EF000E2F7EA01C82BD92BDA6842CF0E944C06F0
:100F0000C82FD0E0DC2FCC27CC27DF71D06238CFC0
:100F10008F710E944C0665E0D695C7956A95E1F7FA
:100F2000CF70D0E0DC2FCC27282F30E084FF05C025
:100F300054E0220F331F5A95E1F7C22BD32BD0690F
:100F40001FCF8D2F8F710E944C06182FCE0199272D
:100F50000E94A805212F30E0322F222722273F713F
:100F6000282B392BE901D2CF80E00895A0E0B0E032
:100F7000ECEBF7E00C941727E901E42FF0E0EB56D7
:100F8000F94F61110BC0E4919E2F8E2F8983E88366
:100F90009A83CDB7DEB7EAE00C943327282F30E0F0
:100FA000062F10E0F491EF2F86E0829F6001839F6F
:100FB000D00C1124EE24EA94F12CC601B7010E9452
:100FC000FB26220F331F45E5469FC001479F900D2A
:100FD0001124281B390B822F880F280FC701801B73
:100FE000910BF89FA001F99F500D1124952F209F80
:100FF0005001219FB00C1124AB2CBB24D701AA199E
:10100000BB095D01FA9DD001FB9DB00D11248B2F12
:101010005701A21AB1089501209F5001219FB00CE1
:10102000309FB00C1124AB2CBB24EA18FB08FE9DAA
:101030009001FF9D300D112463307105C9F01CEF44
:10104000C11613E0D10650F46130710509F49ECF4A
:101050006230710589F08E2FE32F98CF64307105CF
:1010600071F066307105B9F3E52F9B2F8F2F8ECF6E
:10107000EB2F852F9F2F8ACF852F932F87CF832FFD
:10108000E52FF8CF8091A904843060F483708460E8
:101090008093A9048091AC04893718F088E7809385
:1010A000AC0408958033B0F383708C62F1CF8091EB
:1010B000A90480FD0AC0EEEEF1E0118210821282D6
:1010C000339682E0EE34F807C1F760E270E08EEE0E
:1010D00091E00E94BA0A0895FA01882311F0099557
:1010E0000895FB01FCCF90E06623E9F0885C9E4FF9
:1010F000FC0180818F3FB1F0E82FE295EF70F0E0C6
:1011000041A18F7021E030E0B90102C0660F771F66
:101110008A95E2F7CB01962F9095942391A392A103
:10112000892B82A308958B5C9E4FE2CF90E06623CB
:10113000A9F0885C9E4FFC0120812F3F91F0E22FA7
:10114000E295EF70E05EF0E0808190E02F7002C0E9
:10115000959587952A95E2F7817008958B5C9E4F4F
:10116000EACF80E00895539A0895E0918D04F091BC
:101170008E04309729F00190F081E02D09950895B3
:1011800080E00895A3E0B0E0E8ECF8E00C941F27BD
:101190009C018091CC019091CD0182179307A1F021
:1011A0003093CD012093CC01E0918D04F0918E0419
:1011B000309751F083E089833B832A830084F18553
:1011C000E02DCE01019609952396E2E00C943B2791
:1011D000A3E0B0E0EEEEF8E00C941F279C018091B4
:1011E000CA019091CB0182179307A1F03093CB01F4
:1011F0002093CA01E0918D04F0918E04309751F054
:1012000084E089833B832A830084F185E02DCE012D
:10121000019609952396E2E00C943B27A4E0B0E008
:10122000E4E1F9E00C941F278FB7F8942091C601F0
:101230003091C7014091C8015091C90129833A8377
:101240004B835C838FBF69817A818B819C812496DB
:10125000E2E00C943B2787E797E79093010880939F
:10126000000888E19AE00FB6F894A8958093600092
:101270000FBE90936000FFCF8091C501089508953F
:101280000895FC019B018091BB019091BC018617E0
:10129000970740F0672B29F48091E8008E778093C0
:1012A000E800C90140E0009741F4411106C0809177
:1012B000E80082FF2FC080E0089520918A04222355
:1012C000A9F12530A9F12091E80023FD2DC020913E
:1012D000E80022FDECCF2091E80020FFE4CF309120
:1012E000F3002091F200009719F02830310558F0F2
:1012F00041E02830310509F040E02091E8002E77E8
:101300002093E800D0CF41914093F10001972F5FE7
:101310003F4FE9CF80918A04882341F0853041F026
:101320008091E80083FFC3CF81E0089582E00895B3
:1013300083E008958091B50187FF13C08091E80094
:1013400082FF06C08091E8008B778093E80004C09C
:1013500080918A048111F2CF089580918A048823B4
:10136000D9F38091E80080FFF8CF8091E8008E7774
:10137000ECCF2091E4003091E50095E6A901809141
:10138000EC008170882331F08091E80080FF06C076
:1013900080E008952091E80022FD1BC080918A041E
:1013A000882391F0853091F08091EB0085FD10C08D
:1013B0002091E4003091E5004217530701F391506A
:1013C0009111DCCF84E0089582E0089583E00895D0
:1013D00081E00895E8EDF0E080818E7F80831092B7
:1013E000E2001092DA001092E100A0EEB0E08C91E1
:1013F00081608C9380818F77808319BCA7EDB0E0EA
:101400008C918E7F8C9380818F7E80831092B4012B
:101410000895982FE42FE2709093E900891308C093
:10142000762F242F50E0E11111C091E0980FF4CFF6
:101430007091EC002091ED005091F00021FD06C06C
:101440009F5F973049F78093E90008953091EB0052
:101450003E7F3093EB003091ED003D7F3093ED0007
:101460003091EB0031603093EB007093EC002093EF
:10147000ED005093F0002091EE0027FDE1CF08959C
:10148000A0E0B0E0E6E4FAE00C941927C8EDD0E063
:1014900088818F7E8883E7EDF0E0808181608083A2
:1014A00084E082BF81E08093B40188818E7F88834D
:1014B00002EE10E0F80110821092DA0081EEC82EE0
:1014C000D12CF601108288818F778883888180688B
:1014D000888388818F7D888319BC10928A0410923A
:1014E000B301109267041092B20190EEE92EF12C34
:1014F000F70180818B7F808388818160888342E0CF
:1015000060E080E00E94090AF60180818E7F80837E
:10151000F801808181608083808188608083F70109
:1015200080818E7F8083888180618883CDB7DEB79C
:10153000E8E00C943527E091BB049091BA0427E0D1
:10154000E91302C080E00895AE2FB0E02E9FF001B5
:101550001124E454FB4F3181361306C03081381317
:1015600003C03581341304C0FD013196E770E8CF24
:1015700081E008959C01AB016BB1677F7BB178601E
:10158000EFB7F894CA01880F991F840F951F820F37
:10159000931F8217930741F4EFBF8FE594E0019703
:1015A000F1F700C000000895D9014D919D0158E068
:1015B0007BB9000000C047FF6BB9440F000000C0BA
:1015C00000C000C06BB900C05A9591F7E2CF0F93ED
:1015D0001F93CF93DF93EB018A0190918A0494309B
:1015E00079F58093E9008FEF9091E80095FD07C0B1
:1015F00095ED9A95F1F7000081508111F5CF80911A
:10160000E80085FF1DC00E94B909811114C08091B6
:10161000E80085FD06C08091E8008E778093E800A1
:10162000F2CF88818093F100015011090115110555
:1016300011F02196ECCF8091E8008E778093E8003E
:10164000DF91CF911F910F910895CF93DF93D82F02
:10165000C92F48E050E0682F792F81E00E94E70A07
:1016600088E0ED2FFC2FADEBB1E001900D928A9553
:10167000E1F7DF91CF910895BC0143E050E084E0B1
:101680000E94E70A08959091B80492FB222720F95E
:10169000281779F080FB92F99093B8046091B70411
:1016A0007091B80484E090E00E94012882E00E94DA
:1016B000880508950F931F93CF93DF93833030F500
:1016C000643020F54A3010F5C42FD0E0CC0FDD1F78
:1016D00024E1629FC00DD11D112430E5839FC00D10
:1016E000D11D1124CE0188960E94BF27082F10E03B
:1016F000102F0027CE0189960E94BF279801282B22
:10170000C901DF91CF911F910F91089580E090E082
:10171000F8CF0F931F93CF93DF93833070F563302F
:1017200060F524E0629F800111243CE0839F000D5E
:10173000111D1124085E1E4FC8014423A1F00E9410
:10174000BF27C82FD0E0DC2FCC2781E090E0800FAE
:10175000911F0E94BF279E01282BC901DF91CF91C5
:101760001F910F91089502960E94BF27C82FD0E0C5
:10177000DC2FCC2783E090E0EACF80E090E0EECF52
:10178000743048F46A3070F4833060F4462F672F69
:101790000E945A0B08957D3F41F4633018F441E0F4
:1017A000833050F080E090E008957C3FD9F76330BB
:1017B000C8F78330B8F740E00E94890B0895A0E095
:1017C000B0E0E5EEFBE00C941A277C010091B50433
:1017D0008091B404082BC2E0D0E010E0C8010C2EC8
:1017E00002C0959587950A94E2F780FD09C021977C
:1017F000A8F7D12C8D2DCDB7DEB7E7E00C943627B6
:10180000DC2EB7018C2F0E94C00B0E949B06019713
:1018100071F3F0CF0F931F93CF93FC01858100816B
:101820001181882391F0662381F0C8010E94DF0BAB
:10183000C82F682FC8010E942A05B8018C2F0E946A
:10184000C00BCF911F910F910895C8010E944405CC
:10185000C82FF3CFCF93DF93D82FC92F0E94DF0B70
:101860006D2F7C2F0E94C00B0E949B06DF91CF91B1
:101870000895FC0184818823A1F0808191810E94D8
:101880002A0C282F92959F70963091F060F4925F09
:101890009F70923030F481E0203F79F030F4283EA0
:1018A00030F080E004C09A5FF3CF243FD1F7089571
:1018B00081E0283E18F0213FF9CF0895089584E291
:1018C00090E00E94BF27843289F485E290E00E9474
:1018D000BF27893059F486E290E00E94BF2791E04B
:1018E000823009F090E0892F8170089580E0FCCF6C
:1018F0008091B1049091B904892B4091B2044423A2
:1019000089F090E022EA31E0F90150812F5F3F4FEA
:1019100051119F5F51E0283A3507B1F791111092AC
:10192000B204842B8093A00148E050E06FE874E09B
:1019300080EA91E00E94B227892BA9F088E0E0EAD2
:10194000F1E0AFE8B4E001900D928A95E1F7E09103
:101950008D04F0918E04309731F00280F381E02DF8
:1019600080EA91E0099508951092B104E2EAF1E06D
:1019700086E0DF011D928A95E9F780E090E00E9401
:10198000C20880E090E00E94E8081092B9040E942A
:10199000780C08950E94B40C2FEF84E39CE0215052
:1019A00080409040E1F700C0000088E19AE00FB667
:1019B000F894A895809360000FBE90936000FFCFCD
:1019C000AAE2B0E0E6EEFCE00C941E2785EB91E085
:1019D000FC0101962091F100208321E08D3B9207CC
:1019E000B9F78091B601893009F456C0C8F4823045
:1019F00009F4B3C0833009F482C0813071F1809161
:101A0000E80083FFE7C08091B5019091B6019A305C
:101A100008F0E0C0E92FF0E0E75EF74D0C94662790
:101A20008A3009F489C08B3051F78091B501813239
:101A300031F78091B9019091BA01892B01F780911A
:101A4000E800877F8093E8000E949A098091B7019F
:101A5000809300010E94B40CD2CF8091B501813AED
:101A600071F68091E800877F8093E8008091B9014A
:101A70009091BA01892B61F060E080E090E070E025
:101A80000E9441098091E8008B778093E800B7CFEE
:101A900068E08DEB91E0F3CF8091B501813209F0E0
:101AA000AECF8091B9019091BA018D7F892B09F059
:101AB000A6CF8091E800877F8093E8008091E800BE
:101AC00082FF18C09091F3008091F200029731F4E8
:101AD0008091F100813011F0863021F48091F10085
:101AE0008093C5018091E8008B778093E8000E9485
:101AF0009A0985CF80918A048111E0CF80CF8091AF
:101B0000B501813A09F07BCF8091B9019091BA017A
:101B1000892B09F074CF8091E800877F8093E800DB
:101B20008091E80080FFFCCF809100018093F1005C
:101B30008091E8008E77D9CF8091B501813209F08C
:101B40005ECF8091E800877F8093E8000E949A0929
:101B50008091B8018093B10152CF8091B501813A53
:101B600009F04DCF8091E800877F8093E800809155
:101B7000E80080FFFCCF8091B101D8CF803889F098
:101B8000823841F58091B9018F70873018F58093C4
:101B9000E9008091EB0085FB882780F91092E9002D
:101BA00006C08091B201909167049111826090917A
:101BB000E800977F9093E8008093F1001092F10085
:101BC0008091E8008E7723C0811116C08091B70103
:101BD000813011F18091E80083FF0AC08091E80014
:101BE000877F8093E8008091EB0080628093EB0018
:101BF000AA96E3E00C943A27823061F78091B7010E
:101C0000882389F01092E9008091E800877F809313
:101C1000E8000E949A09DECF81E0933009F080E06D
:101C200080936704EFCF8091B9018F702FEF280F59
:101C3000263080F68093E9002091EB0020FFE2CF70
:101C4000933031F48091EB0080628093EB00DACF27
:101C50009091EB0090619093EB0021E030E0A901BE
:101C600002C0440F551F8A95E2F74093EA00109294
:101C7000EA008091EB008860E8CF8111ABCF109132
:101C8000B7011F778091E3008078812B8093E30078
:101C90008091E800877F8093E8000E949A098091F4
:101CA000E80080FFFCCF8091E30080688093E30030
:101CB00083E0111101C082E080938A048BCF8058A9
:101CC000823008F087CF4091B7015091B8014C3D68
:101CD00083E0580799F583E08A838AE289834FB7C6
:101CE000F894DE01139620E03EE051E2E32FF0E0AD
:101CF00050935700849120FF03C082958F703F5FFF
:101D00008F708A30C8F0895C90E08D939D932F5F2F
:101D1000243161F74FBF8091E800877F8093E8000E
:101D20006AE270E0CE0101960E9441098091E800CC
:101D30008B778093E8004ECF805DE6CF8091B9012C
:101D40009091BA01252F33272330310509F44AC079
:101D500078F52130310509F479C08BE590E0E8EAA7
:101D6000F4E02230310509F035CF2091E800277FDB
:101D70002093E8002091BB013091BC0182179307AA
:101D800008F49C0140E02115310509F064C04111BF
:101D900062C08091E80082FDC9CF80918A048823C7
:101DA00029F2853019F28091E80083FFF2CFBECF8F
:101DB0002132310509F43BC02232310509F00ACF46
:101DC0008330910508F006CFFC01EE0FFF1FE75DA1
:101DD000FE4F0190F081E02D8A5D9E4FDC018C91D9
:101DE00090E011C0CA019927413089F082309105F5
:101DF000B1F0892B09F0EECEEBE5F5E0E4918E2F02
:101E000090E0EBE5F5E0009709F4E4CEAECFE7E330
:101E1000F5E0E4918E2F90E0E7E3F5E0F4CFE5E123
:101E2000F5E0E4918E2F90E0E5E1F5E0ECCF833032
:101E3000910508F0CFCEFC01EE0FFF1FE15DFE4FD4
:101E40000190F081E02D89E090E08FCF82E190E079
:101E5000E3E0F5E08ACF80918A04882309F466CF15
:101E6000853009F463CF8091E80083FD5FCF8091D6
:101E7000E80082FD8ECF8091E80080FF84CF9091B2
:101E8000F3008091F2002115310519F08830910599
:101E900050F041E0089709F040E08091E8008E772B
:101EA0008093E80070CF44914093F1003196215027
:101EB00031090196E8CF803809F08CCE8091E80096
:101EC000877F8093E8008091B3018093F10078CE02
:101ED000811180CE1091B701123008F07BCE809135
:101EE000E800877F8093E8001093B3010E949A096D
:101EF0001123D1F084E080938A0442E061EC81E018
:101F00000E94090A42E261EC84E00E94090A42E26E
:101F100061EC82E00E94090A42E260EC83E00E94E8
:101F2000090A80918A0456CE8091E30087FDE2CFB2
:101F300081E0E1CF0F931F93CF93C82F882339F10E
:101F40008CEF8C0F813AB0F502EA11E0F801819133
:101F5000C81709F121E0E83AF207C9F7EFEF80E08E
:101F6000D8019D918D01C91781F0EF3F19F49111AE
:101F700001C0E82F8F5F863099F7EF3F31F00E2ECA
:101F8000000CFF0BE056FE4FC2830E94780CCF91ED
:101F90001F910F910895E2EAF1E08191C81303C007
:101FA000DF0111971C9231E0E83AF307B1F70E9484
:101FB000780CD4CF80E28C0F883068F4C77081E051
:101FC00090E001C0880FCA95EAF7C091B104C82B10
:101FD000C093B104DACF8BE58C0F833038F42C2F0B
:101FE0002452330BC9010E94C208D1CFC85ACB3149
:101FF00070F6EC2FF0E0EE0FFF1FE959FE4F8081E5
:1020000091810E94E808C3CF882389F19CEF980F43
:10201000913A78F4E2EAF1E09191891303C0DF018B
:1020200011971C9291E0E83AF907B1F70E94780CF9
:10203000089590E2980F983050F4877091E001C0B5
:10204000990F8A95EAF7892F0E94A005EFCF9BE5AB
:10205000980F933028F480E090E00E94C208089521
:10206000885A8B3120F480E090E00E94E8080895BF
:102070001F93CF93DF93182FEB010E949A0F2097A5
:1020800039F4812F0E940410DF91CF911F910895A0
:102090008FE99FE00197F1F700C000002197EFCF93
:1020A000882339F09091B104892B8093B1040E9468
:1020B000780C0895882321F00E94A0050E94780CD6
:1020C00008951F93CF93DF93962F122F632F8330A2
:1020D000D8F49430C8F44A30B8F4C42FD0E0CC0F10
:1020E000DD1F24E1929FC00DD11D112490E5899F31
:1020F000C00DD11D1124CE0188960E94E327612FC7
:10210000CE0189960E94E327DF91CF911F91089518
:102110001F93CF93DF93C62F122F632F8330C8F402
:10212000C330B8F494E0C99FE00111249CE0899F7A
:10213000C00DD11D1124C85EDE4FCE01442369F0CD
:102140000E94E32781E090E0612F8C0F9D1F0E9489
:10215000E327DF91CF911F91089502960E94E32714
:1021600083E090E0F1CF8F929F92BF92CF92DF9267
:10217000EF92FF920F931F93CF93DF939FE4C92EAB
:1021800096E0D92EE12CF12CC0E04701D0E014C03C
:10219000F801259134914B2D6D2F8C2F0E946110E9
:1021A0000E5F1F4FB3948AE0B812F2CF8AE0880E18
:1021B000911CDF5FD43039F08401000F111F015AE8
:1021C0001A4FB12CE5CF8601D0E0F801259134916A
:1021D00041E06D2F8C2F0E948810F80132962591D6
:1021E000349140E06D2F8C2F0E9488100C5F1F4FA0
:1021F000DF5FD33051F78CE0C80ED11CCF5F88E28F
:10220000E80EF11CC33009F0C0CFDF91CF911F91D0
:102210000F91FF90EF90DF90CF90BF909F908F90A5
:102220000895CF93DF93CCE3D1E060E0CE010E942C
:10223000E3272196C11584E0D807B9F7DF91CF9144
:102240000895882381F064E284E290E00E94E3270D
:1022500069E085E290E00E94E32762E086E290E098
:102260000E94E32708956FEF84E290E00E94E32745
:102270006FEF85E290E00E94E3276FEFEFCF80E001
:102280000E94211160E087E290E00E94E3270E9413
:10229000B3100E94111181E00E9421110895A0E065
:1022A000B0E0E5E5F1E10C9419278901D42FC52FA1
:1022B0006B017C010E944208A8016D2F7C2F88E0F1
:1022C00090E00E94F52798014D2F5C2FB601C701C1
:1022D00000E20E948E27622F83E290E00E94E327B3
:1022E000CDB7DEB7E8E00C9435278091AD0483309C
:1022F00018F48F5F8093AD042091A9043091AA0453
:102300004091AB045091AC046091AD047091AE0467
:102310008091AF049091B0040E944F110895809174
:10232000AD04882319F081508093AD042091A90455
:102330003091AA044091AB045091AC046091AD047B
:102340007091AE048091AF049091B0040E944F113F
:102350000895A3E0B0E0EFEAF1E10C941427E82E31
:10236000D62EF42E722E8091A90480FF40C0982FA3
:1023700096959695E92FF0E0ED5BFE4F20818C7FDE
:102380008430C9F528E7241708F448E79E012F5F39
:102390003F4F6D2D8E2D0E94B6078091A90480FFBE
:1023A0000FC08B8199812A81EEEEF1E02183908329
:1023B0008283339632E0EE34F307C1F70E94570868
:1023C000E092AA04D092AB04F092AC04772079F0AA
:1023D0002091A9046091AD047091AE043E2D4D2D65
:1023E0005F2D8091AF049091B0040E944F1123960D
:1023F000EDE00C943027223019F7EEEFE90F9170E1
:10240000C92EE695F0E0E057F94FE4910E2F10E069
:102410003EEEA32E31E0B32E812C912CC40125E099
:10242000969587952A95E1F7C11015C08E0D4F2D11
:1024300038E73F1508F448E795016D2D0E94B6076F
:10244000800E911E83E0A80EB11C9EE4A91692E0B6
:10245000B90621F7B3CF2E2D281B822FE8CF9091FC
:10246000A90490FF29C0882341F18C3040F58F7377
:10247000282F220F220F8091A9048370282B2093EC
:10248000A904662381F03091AA044091AB045091D5
:10249000AC046091AD047091AE048091AF04909152
:1024A000B0040E944F1120E04091AC046091AB0455
:1024B0008091AA040E94A911089581E0D9CF8BE0F0
:1024C000D7CF8091A904869586958F5F8C3008F0D0
:1024D00081E061E00E942F1208959091A9049695E1
:1024E00096958FEF890F913009F48BE061E00E949F
:1024F0002F120895E9EAF4E080818160808360E032
:10250000869586950E942F1208958091A90480FFD8
:1025100009C086958695825C8F73893018F40E9475
:102520006112089561E082E00E942F120895A8E0F0
:10253000B0E0EDE9F2E10C9412276C01DC01149695
:102540008C91882309F4B5C061E0C6010E940A0C91
:102550009C01F6019581992309F455C1A9015757AA
:102560004038510508F0F2C1122F203108F090C018
:102570008FEF93E00E94BF2781118AC04CE3E42EC5
:10258000FF24F394111153C01A821982FE0133966D
:1025900086E0DF011D928A95E9F75701BFEFAB1A7C
:1025A000BB0AC7010E94BF2789831A82882309F4C6
:1025B0006FC0813009F081C087010E5F1F4FC501D8
:1025C0000E94BF278A83882309F462C09FEF980F77
:1025D0009330E0F5E3E0EE0EF11CC8010E94BF2746
:1025E0008B83882309F454C01C828E010F5F1F4F18
:1025F000D8018C91882389F2813009F0A1C011960D
:102600008C911197813009F05AC05801B2E0AB0E9D
:10261000B11CF801828160E070E0893311F460E55B
:1026200070E00E94381085010F5F1F4FE1CFE11469
:10263000F4E0FF0669F1C7010E94BF2797012F5FF1
:102640003F4F79018111F3CF11509CCF8430B9F401
:1026500032E0E32EF12CC8010F5F1F4F0E94BF270D
:10266000E1E0F0E0EC0FFD1FEE0DFF1D80838823FD
:1026700079F08C3731F4FE01EE0DFF1D12827801E6
:10268000B4CFFFEFEF1AFF0A27E0E216F10419F7C3
:102690008091B6048770882361F0D60115968C91DD
:1026A000882339F08091B80482FF03C082E00E9441
:1026B00088052896EFE00C942E27750196CF82307E
:1026C00049F45801F2E0AF0EB11C12968C910E94B1
:1026D0009A0FA9CF833049F45801B2E0AB0EB11C78
:1026E000F80182810E9404109ECF843019F00F5FA0
:1026F0001F4F9ACF12962C910E5F1F4F80E090E0F3
:102700006AE0A8014F5F5F4F2053330B2A30310539
:1027100058F0009709F488CFAFE9BFE01197F1F7BF
:1027200000C000000197F5CF689FF001699FF00D90
:102730001124C9018E0F9F1FF80121818A01E1CF69
:10274000E82FF0E0E951F84F6490282F2695269560
:10275000269530E0F901E952F84FA4908770782E61
:10276000B12C082E02C0B594A7940A94E2F7B1E008
:10277000AB22BB24F901E953F84F8490912C02C09D
:10278000959487948A95E2F7E1E08E229924F901E5
:10279000E954F84F5490A114B104C1F48114910488
:1027A00021F560E070E0862D0E943810E52DF0E004
:1027B000072C02C0F595E7950A94E2F7E0FF34CFC5
:1027C00060E070E08CE20E9438102ECF81EE0E9413
:1027D0009A0F8114910449F460E070E0862D0E9404
:1027E000381081EE0E940410E1CF86EE0E949A0F0D
:1027F00060E070E0862D0E94381086EE0E94041082
:10280000AB28A1F2EECF30931C0120931B01408135
:10281000518150931E0140931D01F9013497E53316
:10282000F10508F0B0C0E959F74FE4918FE5AFE149
:10283000B1E040E050E06D916E139DC0455E5E4F8B
:10284000DA0114968C93D60115968C918823A9F001
:102850002A35BCE73B0709F44AC108F021C1213001
:10286000FCE73F0709F441C123308CE7380709F43E
:1028700036C121153C4709F425C1F6018581E08068
:10288000F180882309F437C1C7010E94DF0B182F9C
:10289000682FC7010E942A05B701812F0E94C00B33
:1028A0000E949B068C01D6011596BC901597169632
:1028B000AC90A2942FE0A2228091B6048770882366
:1028C00001F1EB2CBB20F1F0812F807F803461F08F
:1028D00080E2800F8830A8F0812F807E803221F442
:1028E000023078F0AA2069F08091B80482FF09C014
:1028F00082E00E9488058091B6048770EE24E394FC
:102900008111E12C812F82958F70883009F4E7C105
:1029100008F016C1843008F0F3C0B12FBF70FB2E51
:10292000823008F41EC1107F103219F0F29480EF4B
:10293000F822002309F44CC1013009F495C1BB20F1
:1029400009F4A1C1AA2009F461C121C130931C017D
:1029500020931B014081518150931E0140931D0122
:10296000F9013497E533F10508F079C0E959F74FDB
:102970008491EFE55CCF4F5F5F4F4630510509F022
:102980005ACF91116CC08091B1048272F901E0526A
:10299000F847E531F10508F075C0ED5DF74D0C9491
:1029A00066278091A90480FF17C0282F2E7F2093CF
:1029B000A9043091AA044091AB045091AC046091F9
:1029C000AD047091AE048091AF049091B0040E9468
:1029D0004F110E9457085CCE81608093A90461E08A
:1029E000869586950E942F1253CE4DE652E161E600
:1029F00072E10E946C084CCE41E652E16DE672E154
:102A0000F8CF4AE759E160E779E1F3CF40E759E1D0
:102A10006AE779E1EECF41E959E164E879E1E9CF8C
:102A200044E859E161E979E1E4CF4BEA59E16EE923
:102A300079E1DFCF4EE959E16BEA79E1DACF4FE88E
:102A400051E165E771E1D5CF45E751E16FE871E10B
:102A5000D0CF61E081E0C6CF0E94851219CE81E01F
:102A60002737BCE73B0731F082E02837ECE73E0729
:102A700009F0E9CE0E94B70443E062E081E00E94E1
:102A80005D0506CE81E02737FCE73F0731F02837A8
:102A90008CE7380709F0D7CE82E00E94C304ECCF60
:102AA0002B35ACE73A0729F12C353C4709F0E5CE48
:102AB0008091B80482FB882780F991E089270E94E1
:102AC000430BDBCE0E94B40CEFEFF4E32CE0E150BB
:102AD000F0402040E1F700C000000E942B096FEF9A
:102AE0007FEF80E090E00E9401280E94CA0C81E004
:102AF000E6CF80E0E4CFC7010E944405182FCCCE7A
:102B0000843009F4D1C0EE20B1F08091B60480FD8C
:102B100012C0D60115961C928695869586950E94C0
:102B2000B704C6010E9497128091B60486958695D7
:102B300086950E94C30460E0C6010E940A0CB9CDCC
:102B4000893009F43BC18A5F8F708230E0F6023F22
:102B500009F045C1812F8F71B1103EC10E94B704A9
:102B6000EBC0103118F0F29490EFF922BB20B9F0CD
:102B7000FF2069F080E2800F883010F0011109C059
:102B80008091B1048F298093B1040E94780C802F2A
:102B90002FC08091B9048F298093B904F6CF802F7C
:102BA0000E940410FF2009F4AECF80E2800F88302D
:102BB00010F0011104C08F2D0E94A00506C0F094F2
:102BC0008091B9048F218093B9040E94780C9BCF27
:102BD0008091B80482FD16C0BB2069F0FF2039F057
:102BE0008091B1048F298093B1040E94780C80E019
:102BF0000E949A0F88CF80E00E940410FF2009F401
:102C000082CFD9CFBB20A1F0A11004C08F2D0E948C
:102C1000501079CFE1E0AE1276CF8091B2049F2DB3
:102C20009823F91609F46FCF8F298093B2046BCFE4
:102C3000A11069CF8F2D0E945A109091B2048F2D50
:102C40008923882329F08F2D809589238093B204CE
:102C50008091B3049F2D9823992309F454CFF094C5
:102C6000F822F092B3044FCFBB2029F0F5E0FA151B
:102C700008F449CFCBCF24E02A1508F444CF8F2D98
:102C80000E945A1040CFAA20D1F3093349F43FEFF4
:102C900087EE93E0315080409040E1F700C00000A3
:102CA000802F0E9404102FCF812F869586958370E8
:102CB000882361F0813009F026CFC8019370B110EC
:102CC00002C080E090E00E94E8081DCFC801937028
:102CD000B11002C080E090E00E94C20814CF812FA2
:102CE0008370811134C0B11027C0402F42954695A2
:102CF0004770440F440F802F8F70042E01C0880F3F
:102D00000A94EAF70071002341F02FE030E001C09F
:102D1000220F4A95EAF7022F009516951695137023
:102D2000123081F0133061F02091B404113039F089
:102D3000802B82230E94B1040E94B508E4CE822B2E
:102D4000802BF8CF802B9091B4048927F3CFBB2040
:102D500051F110FFF1CF402F429546954770440F37
:102D6000440F802F8F70042E01C0880F0A94EAF759
:102D70000071002341F02FE030E001C0220F4A959E
:102D8000EAF7022F0095169516951370123089F008
:102D9000133069F02091B504113041F0802B82236B
:102DA0000E94B404C9CF823038F2D5CF822B802B59
:102DB000F7CF802B9091B5048927F2CF1F70BB20ED
:102DC00039F0812F0E94B704802F0E945010B4CF99
:102DD000802F0E945A10812F0E94C304ADCF033F61
:102DE00070F4003FB9F0013FB9F1BB2009F456C0BF
:102DF000AA2009F450C0802F0E949A0F9DCF033F54
:102E0000D9F0043F29F1B110F3CFA11055C0812FA3
:102E10008F71E2CFBB2069F0A4E0AA1508F48CCF33
:102E20001F7181E090E0012E01C0880F0A94EAF73B
:102E3000C1CFB5E0AB16F2CF80E0BB2009F4B0CF34
:102E40001F7181E0012E01C0880F0A94EAF7A8CF14
:102E50009091B80492FD06C0812F8F71BB2009F4B8
:102E6000BBCF7CCEBB2061F0812F8F7192FF76CEDD
:102E7000E8E08E9F9001112423602093B6046ECE6B
:102E800081E00E948805F1E0FA1508F055CF82E054
:102E90000E94880551CF812F8F7160CEAA2009F43E
:102EA000B6CF093349F42FEF37EE83E0215030409D
:102EB0008040E1F700C00000802F0E9404103CCF4A
:102EC0008091FA04803178F48091F904882359F0D4
:102ED000E091BB042091BA043091F5044091F404D0
:102EE00057E02E1301C008956E2F70E05E9FF00131
:102EF0001124DF01A454BB4F14968C91149788239E
:102F000061F111968C911197831327C08C918413D2
:102F100024C015968C91159781111FC012968D9122
:102F20009C91A091F604B091F7048A1B9B0B883CFE
:102F3000910598F48091FA048F7080618093FA046F
:102F4000EE53FB4F80818F708061808384EF94E02B
:102F50000E9497120E947E050895FB013196E7704A
:102F6000C0CFADE0B0E0E7EBF7E10C9413278C01A4
:102F700086E0F801DE01189601900D928A95E1F73E
:102F8000F8017080F580A280B380848194EF892E4F
:102F900094E0992E6090F804611018C0882399F08D
:102FA000FF2009F413C1C8010E94390C882309F4D9
:102FB0000DC187E0F801A4EFB4E001900D928A956D
:102FC000E1F70E946017FF24F39453C0D090F904F6
:102FD0002091F6043091F704A501421B530BDD202C
:102FE00009F4C4C0483C510508F07AC0882359F35D
:102FF0008091F504C180E090FA04FFE0FE1508F42A
:1030000059C0C81215C08091F404871111C0F11085
:103010004BC08E2D8F7080618093FA0484EF94E012
:103020000E9497128091FA04F8018683F12C21C046
:10303000F1103AC040E06C2D872D0E949B0A40E0C1
:103040006C2D872D0E949B0AF82E8111EFCF888569
:1030500099850E942A0C292F22952F70903470F4A4
:103060009F702230A0F09923B1F0F8019681903141
:1030700090F48F2D2D96EEE00C942F272A5F2F7061
:10308000223068F0C8010E949712FD2CF2CF9923DC
:1030900011F0882371F3805E883058F3F3CF803FBE
:1030A00040F3815F8230F9CF8091FA048160809390
:1030B000FA04BCCFC8123CC08091F404871138C018
:1030C000F11036C0F801E682C8010E94971287E02D
:1030D000F801A4EFB4E001900D928A95E1F773CF67
:1030E000E090FA04FFE0FE1550F084EF94E00E94B7
:1030F000971287E0F40111928A95E9F797CF882318
:1031000009F461CF9091F504F8018181981310C002
:103110008091F40487110CC0F1100AC0E682C80146
:103120000E94971287E0F40111928A95E9F74BCF3C
:10313000C8010E94390C882309F448C0FF2009F413
:1031400045C08091FA04803208F433CF8091F404B2
:103150009091F5049A838983BC82AB826D821E8232
:10316000EF82CE0101960E94971223CF483C510571
:1031700008F0BFCF882309F426CFFF2039F19091C2
:10318000F5048181981318C08091F404871114C04C
:103190008091FA0480FD9BCF803108F498CF86831C
:1031A000807F803F09F490CF8681982F907F905F39
:1031B0008F70892B868388CFC8010E94390C8111BA
:1031C000F8CE8091FA0481608093FA04C8010E94CD
:1031D0009712F9CEABE1B0E0E0EFF8E10C941E27D6
:1031E0004E8B5F8B688F798F8A8F9B8F9111109296
:1031F000B9041D8A86E0FE017696DE011F960190D5
:103200000D928A95E1F78B89882329F061E0CE0140
:103210000F960E940A0C87E0FE013F96DE01189689
:1032200001900D928A95E1F7CE0108960E94B117A0
:1032300081112BC087E0FE013896DE0111960190C6
:103240000D928A95E1F72091BA044091BB048C85D8
:103250008823D9F030E0C90101968770992750E0A2
:1032600084179507E9F097E0929FD001939FB00DE6
:103270001124A454BB4FFE01319601900D929A95F2
:10328000E1F78093BA040E947E0517E08091BB04A9
:103290009091BA04891312C06B96E3E00C943A271C
:1032A0000E94B40C1092BA041092BB0487E0E4EFC1
:1032B000F4E0DF011D928A95E9F7E7CF189FC0017E
:1032C000112484549B4F0E94B117882329F38091C5
:1032D000BB0490E00196877099278093BB04D6CFFA
:1032E000E9EAF4E0818121E0438162818F5E0E94FE
:1032F000A9110895E9EAF4E0818121E04381628126
:1033000081510E94A9110895E9EAF4E0628121E166
:10331000620F08F46FEF21E0438181810E94A911BF
:103320000895E9EAF4E0628121E1621B08F460E0BB
:1033300021E0438181810E94A9110895E9EAF4E026
:1033400043812CE0420F08F44FEF21E0628181813C
:103350000E94A9110895E9EAF4E043812CE0421BA0
:1033600008F440E021E0628181810E94A911089562
:10337000AB0124E630E0BC0188E70E945C269C019A
:1033800081E0232B09F080E0089580915C0488237C
:1033900069F080915B04882349F062E070E086E484
:1033A00091E00E94B819811110925B040895A4E085
:1033B000B0E0EDEDF9E10C941F2780915C048823C7
:1033C000F9F00E940E09DC01CB01805A9541AF4F04
:1033D000BF4F80935D0490935E04A0935F04B0930D
:1033E000600480915B0481110BC062E070E084E4B2
:1033F00091E00E94B819882319F081E080935B0462
:103400002496E2E00C943B27CF93DF93282F81E0B2
:103410002A3019F02D3031F480E00E948A1ADF91B1
:10342000CF910895809158029091590236E0FC01A5
:10343000ABEAB1E001900D923A95E1F730EE320F30
:10344000303908F458C026E0FC0111922A95E9F7BA
:10345000C0915802D091590246E050E0BE018BEA7B
:1034600091E00E94B2279E012A553240892B41F1FA
:10347000C90145E0969587954A95E1F741E050E00E
:10348000BA0102C0660F771F8A95E2F7CB016091FF
:10349000560270915702862B972BB9016B5F7F4FB5
:1034A000E5E076956795EA95E1F702C0440F551F70
:1034B0006A95E2F7842B952B9093570280935602DE
:1034C0002A5F3F4F40916104642F70E0C9010E9460
:1034D000FB26481B463010F4240F311D211572E0E5
:1034E000370710F020E030E0265A3D4F3093590264
:1034F0002093580294CF2052330B46E0429FB001F4
:10350000439F700D1124685B7E4F46E050E00E949F
:10351000A9279ECFCF93382FE0915802F0915902FE
:10352000EA55F24020916104622F70E0CF010E94C1
:10353000FB26281B822F332361F066E00E9446277A
:10354000C82FC15010F4CF91089580E20E94041A50
:10355000F8CF9F01280F311D2115324018F080E06F
:10356000E0E0F0E08E0F9F2F911D865A9D4F9093C3
:10357000590280935802E7CFCF93DF93C0E8D5E09C
:10358000DC0F8C2FCF5F0E94041ADC13FACFD439E2
:1035900011F0CD2FF4CF80E00E948A1ADF91CF91F5
:1035A0000895CF93DF93EC01FE018491811103C054
:1035B000DF91CF9108950E94041A2196F5CF2F92A2
:1035C0003F925F926F927F928F929F92AF92BF9243
:1035D000CF92DF92EF92FF920F931F93CF93DF93DF
:1035E00000D000D000D0CDB7DEB780915C04882336
:1035F00009F4C6C08AE592E090935902809358027C
:103600000E94BC1A8091610425E0829FC0011124B0
:10361000811532E0930714F080E090E0865A9D4FC8
:10362000909359028093580282E896E00E94D11A42
:1036300080911B0190911C0154E0969587955A95B5
:10364000E1F78F708A3008F0B3C0805D0E94041AE1
:1036500080911B018F708A3008F0ACC0805D0E94A1
:10366000041A80E896E00E94D11A81E00E948A1A2A
:103670008AE796E00E94D11A80911E018F708A30ED
:1036800008F09AC0805D0E94041A88E796E00E94C4
:10369000D11A80911D018F708A3008F08FC0805D33
:1036A0000E94041A85E796E00E94D11AAFE1B1E0CA
:1036B0000D900020E9F71197BA83A9830FE111E07B
:1036C00029813A810217130708F47AC083E796E04C
:1036D0000E94D11A81E00E948A1A8AE896E00E942C
:1036E000D11A81E00E948A1A8091B5040E949F0439
:1036F000805D0E94041A88E896E00E94D11A81E059
:103700000E948A1A8091560290915702892BA9F043
:1037100080915C04882389F080915A0481110DC046
:103720000E94D719209156023091570280E061E043
:1037300070E02115310509F04AC080915B048823AF
:10374000F9F00E940E0969837A838B839C838091B0
:103750005D0490915E04A0915F04B09160042981A2
:103760003A814B815C81281B390B4A0B5B0BDA01D8
:10377000C9018F3F9F4FAF4FBF4710F40E94C5193B
:103780000F900F900F900F900F900F90DF91CF91AF
:103790001F910F91FF90EF90DF90CF90BF90AF906F
:1037A0009F908F907F906F905F903F902F900895A3
:1037B000895A4CCF895A53CF895A65CF895A70CFCD
:1037C000F80181918F010E94041A7ACF8F5F082F30
:1037D00010E01B01082E02C0220C331C0A94E2F7F1
:1037E000A10142235323452B89F39091620490FD5C
:1037F00044C098013695279536952795922F829546
:10380000880F80763FE1380F8093030120930601F3
:10381000309304019093070124E630E047E050E044
:1038200061E071E088E70E941126892B09F085CFBD
:10383000A80125E0440F551F2A95E1F78091620405
:1038400080FD23C0465A5D4F04E610E020E230E0E0
:1038500060E488E70E94A926892B09F06ECFA101B8
:1038600040955095809156029091570248235923D4
:10387000509357024093560260CF880F880F880FED
:1038800037E0380F20E093E0BFCFEEECF1E080E2CC
:10389000DF011D928A95E9F7EFE3F1E0FE83ED8306
:1038A0000BE311E083E4C82E81E0D82E97E0592E77
:1038B00077247394AD81BE818D91BE83AD83F80171
:1038C00021918F01240F352F311D265A3D4FE82FAE
:1038D000F0E0E253FE4F80E090E0652C681A872C00
:1038E000082E01C0880C0A94EAF77901A12CD701AF
:1038F000BD907D01B820662D6A19677070E0BB2D00
:10390000062E01C0BB0F0A94EAF79B2E71956195B4
:1039100071096770772701C0B6946A95EAF79B280A
:103920006081962A9082A39468E0A612E0CF019667
:1039300031968830910589F68D819E81C816D90609
:1039400009F0B8CF04E610E020E230E04EEC51E0A0
:103950007FCF1F921FB61F9211248F939F93AF9317
:10396000BF9380916404811113C08091C60190912E
:10397000C701A091C801B091C9014196A11DB11D17
:103980008093C6019093C701A093C801B093C90169
:10399000BF91AF919F918F911F901FBE1F9018955F
:1039A0002FB7F8948091C6019091C701A091C801EA
:1039B000B091C9012FBF0895A6E0B0E0E2EEFCE1AE
:1039C0000C941D270E94D01C8C0180918B04909137
:1039D0008C048017910779F019821A820E94D01CFA
:1039E000BC0149815A8180E090E00E94EA1810935E
:1039F0008C0400938B042696E4E00C9439279C01F8
:103A00004FB7F8948091C6019091C701A091C80169
:103A1000B091C9014FBF821B930B0895A8E0B0E09D
:103A2000E4E1FDE10C9413278E010F5F1F4F88E046
:103A3000D8011D928A95E9F74801580138E0C32E54
:103A400031E0D32E66246394712CF60181916F01CD
:103A50008F3F11F00E94860400C02CE0E22E21E08E
:103A6000F22EF70120E030E041914F3FF9F0A42F12
:103A7000A295AF70A05EB0E08C9190E04F7002C054
:103A8000959587954A95E2F7817081110FC0D50110
:103A90008D919C911197A301022E02C0440F551FD6
:103AA0000A94E2F7842B952B8D939C932F5F3F4FC5
:103AB00025303105C9F6F601319780818F3F11F02D
:103AC0000E946D04B0EABA95F1F7E2E0AE0EB11CC7
:103AD000FCE0CF16F1E0DF0609F0B7CF90E2C92E87
:103AE000D12CD7018D917D018F3F11F00E9486046A
:103AF00000C0F80148E051E0DA012D91AD012F3FFF
:103B0000B9F0822F82958F70805E90E0DC018C91FD
:103B100090E02F7002C0959587952A95E2F7817005
:103B2000811106C0808191818C299D299183808398
:103B30003296B1E04C305B07F9F6F701319780819E
:103B40008F3F11F00E946D04E0EAEA95F1F7CC0C8A
:103B5000DD1CF1E1EF16F1E0FF0619F6EEE4F2E00C
:103B6000085F1F4F80E0D4012D913D914D0141919F
:103B700051912417350729F0DF0112972D933C93BB
:103B800081E08016910679F7882369F081E08093BF
:103B9000AA010E94D01C9093A9018093A8012896A5
:103BA000EEE00C942F278091AA018823C1F3809125
:103BB000A8019091A9010E94FF1C059780F348E09D
:103BC00050E06EE472E082E894E00E94B227892B14
:103BD00049F088E0EEE4F2E0A2E8B4E001900D9252
:103BE0008A95E1F71092AA01DACFCDB7DEB7E09758
:103BF0000FB6F894DEBF0FBECDBF85B7806885BF16
:103C000085B7806885BF84B7877F84BF0FB6F89477
:103C1000A895809160008861809360001092600098
:103C20000FBE80E890E00FB6F89480936100909307
:103C300061000FBE84EB97E090939F0180939E01FB
:103C40000E94EA090E94400A8091E2008460809309
:103C5000E200789480918A04882399F08091E900A9
:103C60001091EC001795112717958F70182B109253
:103C7000E9008091E80083FD0E94E00C1F70109322
:103C8000E90082E084BD93E095BD9AEF97BD8093F3
:103C90006E000E945F0C811102C00E943F11E8E794
:103CA000F4E088E0DF011D928A95E9F783E08093D4
:103CB000770410E060E0812F0E94730861E0812F9B
:103CC0000E9473081F5F1330A9F7EFE8F1E0319706
:103CD000F1F700C0000010E080917704181708F495
:103CE000D2C00CE011E0D8018D918D018F3F11F011
:103CF0000E946D04B1E001311B07A9F708E011E053
:103D00009CE0E92E91E0F92EF80181918F018F3F1F
:103D100011F00E946D04E016F106B1F710924F0207
:103D200010924E021092830410928204109251025B
:103D30001092500210928504109284041092530243
:103D4000109252021092870410928604109255022B
:103D500010925402109289041092880480E090E03E
:103D60000E94CD27853E9E4F21F40E945F0C811159
:103D700063C065EE7EEF80E090E00E94012860E085
:103D800082E090E00E94E32781E08093B40461E048
:103D900083E090E00E94E32760E074E184E090E03B
:103DA0000E94012860E086E090E00E94E32760E046
:103DB00087E090E00E94E32740E050E0BA0188E00D
:103DC00090E00E94F52760E083E290E00E94E32704
:103DD00060E08CE090E00E94E32760E08DE090E0FE
:103DE0000E94E32719821A821B821C821D821E8276
:103DF0001F82188648E050E067E170E0CE0101962E
:103E00000E94D32740E050E0BA018FE190E00E9489
:103E1000F52780E00E9421110E943F1140E050E010
:103E2000BA018FE090E00E94F52740E050E0BA012F
:103E300083E190E00E94F52782E090E00E94BF2796
:103E40008093680484E090E00E94CD279093B804AA
:103E50008093B7040E940E1D2FEF36E761E02150DA
:103E600030406040E1F700C000000E940E1D8091CC
:103E7000820481FF1AC06FEF7FEF80E090E00E9424
:103E800001280E942B0960E0812F0E949608082FCC
:103E900061E0812F0E949608E12FF0E0EC58FB4F83
:103EA000880F802B80831F5F17CF83E090E00E94F4
:103EB000BF270E94B10483E08093620480E2809374
:103EC00061040E94DB256BE070E08CEA97E00E94C1
:103ED000B819882309F443C08091620465E070E05A
:103EE00081FD61C187EA97E00E94B8198823B9F182
:103EF0006DE070E085E997E00E94B819882379F1B8
:103F00000E940E096DA77EA78FA798ABDC01CB019D
:103F1000805A9541AF4FBF4F80935D0490935E04EC
:103F2000A0935F04B0936004EAE5F2E080E092E0E1
:103F3000DF019C011D9221503040E1F7F0935902BE
:103F4000E09358028FEF9FEF9093570280935602B1
:103F500081E080935C0480935B0410925A0480910A
:103F60006304811197C088E090E00E94C7276B012D
:103F70007C0183E290E00E94BF27282F30E040E0E0
:103F800050E060E070E080E090E000E20E94732783
:103F9000F22FA32EB42EB52FA62FE72F970186015F
:103FA00040E050E0BA01FC29A12AB22AB32BA42B8D
:103FB000E52B862B972BF093A904A092AA04B0922C
:103FC000AB04B093AC04A093AD04E093AE04809333
:103FD000AF049093B004F43008F04CC025E0209377
:103FE000A9041092AA042FEF2093AB0428E7209392
:103FF000AC041092AD0425E030E04FEF58E760E0EC
:104000007E2F0E944F1188E090E00E94C7276B012D
:104010007C0183E290E00E94BF27282F30E040E03F
:1040200050E060E070E080E090E000E20E947327E2
:104030005901B42FA52FF62FE72F9701860140E0F5
:1040400050E0BA01AC28B12AB22BA32BF42BE52BFC
:10405000862B972BA092A904B092AA04B093AB042C
:10406000A093AC04F093AD04E093AE048093AF044E
:104070009093B0040E9442080E94B3088091A90462
:1040800080FF05C060E0869586950E942F1281E032
:104090008093630481E191E090938E0480938D047A
:1040A00088E1482E512C80918A04853081F48091DA
:1040B0008A04853009F47AC00E94B40C0E94B508C5
:1040C000109266048091650481110E947A120E9408
:1040D0000E1DB9E6AB2EB4E0BB2E12E8812E14E023
:1040E000912E0FE5602E01E0702E8301A401F501F1
:1040F00021913191DA018D919D91AD01D8016D91A0
:104100007D918D0186239723B4E0E137FB0709F405
:10411000B8C02817390761F3312CF40101911191CE
:104120004F01D3018D919D913D0108231923F50184
:10413000C190D1905F01C016D10661F1C026D12691
:10414000212CEE24E394F12CC7018C219D21892B95
:10415000B9F029823A820E94D01C9C838B83F1E0C3
:10416000FD8391E0970120233123232B09F490E074
:104170009E8349815A816B817C818D810E94EA18DE
:104180002394EE0CFF1C2AE02212DECFF5013297B9
:1041900011830083339434E03312BFCF0E940E09A1
:1041A000CC24C39475C082EA97E09ECE80918A04A5
:1041B000843009F436C08091660481110EC031E06C
:1041C000309366048091A904982F917090936504B0
:1041D0008E7F8093A9040E9457080E94C5191092EF
:1041E000640460E40FB6F894A895409260000FBE96
:1041F0006093600083B7817F846083BF83B78160F1
:1042000083BF7894889583B78E7F83BF0FB6F89469
:10421000A895809160008861809360001092600092
:104220000FBE80916704882309F441CF0E940E1DC0
:10423000E2E8F4E0AFE5B1E0819191912D913D91FB
:1042400082239323892B29F484E0EA38F807A1F725
:104250002ECF80E189BD82E189BD09B400FEFDCF8A
:104260008091D8008F7D8093D8008091E00082609B
:104270008093E0008091E00081FDFCCF0E94B40CAF
:1042800016CF2817390709F047CF0E94DC1CC12C34
:1042900080918004882351F080917A0410928004E8
:1042A00080937B04809178048093790400E0E2E0BD
:1042B000EE2EF12C4EC061E0802F0E949608B82EA1
:1042C00060E0802F0E949608BB0C8B29E02FF0E065
:1042D0009F012C583B4FD9014C91942F9370891713
:1042E000B9F1A42FAA0FAA0F8A2BD9018C93A82F5A
:1042F000AF70B0E0A15BBE4FEF58FB4F8C91908147
:10430000890F808382300CF46BC0412F50E02D2D3B
:1043100030E0BA016F5F7F4F63707727261737074A
:1043200081F048585B4F902F9F77DA0114969C9349
:104330001F5F137010937A04909178049F5F90939D
:104340007804082E000C990BB7010E945227808335
:104350000F5FD0907B0410917A0480917704081746
:1043600008F4A9CF90E01CEF63E0F62E0DEF72E0A9
:10437000E72E80917B0420917A04281709F474C0F9
:10438000E82FF0E0E458FB4F9081D92EE894D7F85D
:104390008F5F837080937B04809179048F5F80931B
:1043A000790497FD32C0D9A21AA30E94D01CBC0187
:1043B0008BA39CA3FDA2F1E0FEA349A15AA183E037
:1043C00091E00E94EA188FE39CE90197F1F700C0A1
:1043D0000000DFA218A70E94D01C282F83E031C064
:1043E0008F3F0CF0AECF412F50E02D2D30E0BA01C1
:1043F0006F5F7F4F637077272617370709F4A1CFC8
:1044000048585B4F902F906890CFD9A20AA30E9482
:10441000D01CBC018BA39CA3EDA2B1E0BEA349A11B
:104420005AA182E091E00E94EA18EFE3FCE931979B
:10443000F1F700C00000DFA208A70E94D01C282FBF
:1044400082E0622F792F29A79AA78BA71CA64FA1DC
:1044500058A590E00E94EA18AFE3BCE91197F1F784
:1044600000C0000091E085CF992339F00E940E0929
:104470000E94DF1A0E94D71904C00E94DF1AC110DF
:10448000F9CF0E94B50890918104891721F080939B
:1044900081040E940E0980918A04843009F003CEC1
:1044A00083E08093E9008091E80082FFFCCD809159
:1044B000E80085FD06C08091E8008B778093E800D6
:1044C000F2CD0E94B90950E2E52EF12C8E010F5F6A
:1044D0001F4F8823D9F08091E8008B778093E80004
:1044E0008981EFEFE80FE53158F5F0E0E85CF74D32
:1044F0000C9466278091F100F8018083F1E0EF1AB7
:10450000F108E114F10439F30F5F1F4F8091E800C7
:1045100085FDF0CF8091E8008B778093E8000E94C2
:10452000B909882399F3D7CF1A828CE08B831AC0FC
:104530008A81833049F138F4813061F08230D9F0DA
:104540008FEF89830FC08430D9F71B821C821D82B4
:104550001E8208C00E940E090E946C276B837C8318
:104560008D839E8340E250E0BE016F5F7F4F82E00B
:104570000E94E70A98CD87E290E00E94BF271B8245
:104580001C821D828E83EECF8B8190E0FE013196DE
:1045900032968430910534F79C013327220F331F64
:1045A000D901AE57BB4F215A3E4F4D915C91D90175
:1045B0002D913C9124233523318322830196E8CF2A
:1045C0008A81823079F0853009F0BACF8091A904D0
:1045D00080FF19C08091A9048E7F8093A9040E9456
:1045E0005708C0CF8B819C81AD81BE818DA79EA7CE
:1045F000AFA7B8ABBC01CD010E946C2787E290E069
:104600000E94E327AFCF0E947A12ACCF4C816B811E
:104610008A810E945A0B9827892798279E838D8329
:10462000A1CF2D813E813227232732274C816B81F8
:104630008A810E94611096CF0E94B31093CF9A8115
:10464000923009F07DCF8830B1F1893009F45FC034
:104650008B81833061F180F48130B9F0823009F0D0
:1046600081CF8C81882309F4B5CF0E947A1260E053
:104670008C810E942F1276CF843009F073CF20E016
:104680004091AC046D818C810FC08C81A8E78A9F1A
:10469000C00111246FEF70E00E94FB26462F20E03E
:1046A0006091AB048091AA040E94A9115BCF8C8118
:1046B0008093AD0457CF8B81833031F168F4813022
:1046C000A9F0823009F04ECF8091A90480FF1AC072
:1046D000869586958C8346CF843009F043CF8091B0
:1046E000AA048C838091AB048D833CCF8091AC0471
:1046F000BFEF8B9FC001112468E770E00E94FB268A
:104700006C8330CF80E0E6CF8091AD04E3CF209181
:10471000A9043091AA044091AB045091AC0460917B
:10472000AD047091AE048091AF049091B0040E94EA
:104730004F1118CF80E18A8315CF82E08A8384EC01
:10474000F5CE0A811B811027012710278C81680173
:10475000C80ED11C7E01E5E0EE0EF11CC016D1069C
:1047600009F400CF80E0043CF2E01F0728F4C80100
:10477000845C9E4F0E94BF27D7018D937D010F5F00
:104780001F4FECCF0A811B81102701271027FE0144
:1047900031967F01CC80CE0EDF2ED11CCE14DF04EB
:1047A00009F4E0CE043CF2E01F0740F4D701149670
:1047B0006C91C801845C9E4F0E94E3270F5F1F4FDE
:1047C000BFEFEB1AFB0AEACF0E941111CBCE83E0B8
:1047D000B2CF0A811B811027012710278C81680125
:1047E000C80ED11C7E01E5E0EE0EF11C0C151D0576
:1047F00009F4B8CE80E0003F110520F4C801889686
:104800000E94BF27D7018D937D010F5F1F4FEECF11
:104810000A811B81102701271027FE0131967F0195
:10482000CC80CE0EDF2ED11CEC14FD0409F49ACE00
:10483000003F110538F4D70114966C91C801889691
:104840000E94E3270F5F1F4FBFEFEB1AFB0AECCF6D
:1048500041E08C81811101C040E06B818A810E941E
:10486000890BD9CE2D813E8132272327322741E083
:104870008C81811101C040E06B818A810E94881087
:1048800071CE78941F921FB61F9211248F939F931D
:10489000AF93BF938091C6019091C701A091C801C9
:1048A000B091C9010196A11DB11D8093C6019093DD
:1048B000C701A093C801B093C901BF91AF919F9167
:1048C0008F911F901FBE1F9018951F920F920FB6C9
:1048D0000F9211242F933F934F935F936F937F9386
:1048E0008F939F93AF93BF93EF93FF938091E100DA
:1048F00082FF09C08091E20082FF05C08091E10043
:104900008B7F8093E1008091DA0080FF24C080914A
:10491000D80080FF20C08091DA008E7F8093DA007B
:104920008091D90080FF9BC080E189BD82E189BD73
:1049300009B400FEFDCF81E080938A048091B40128
:10494000811109C00E94EA090E94400A8091E20098
:1049500084608093E2008091E10080FF17C0809125
:10496000E20080FF13C08091E2008E7F8093E2001E
:104970008091E20080618093E2008091D8008062A3
:104980008093D80019BC85E080938A048091E1006F
:1049900084FF29C08091E20084FF25C080E189BDA9
:1049A00082E189BD09B400FEFDCF8091D8008F7DE2
:1049B0008093D8008091E1008F7E8093E100809108
:1049C000E2008F7E8093E2008091E200816080931C
:1049D000E2008091B301882309F447C084E080930A
:1049E0008A0480918A048091E10083FF27C080912E
:1049F000E20083FF23C08091E100877F8093E10084
:104A000082E080938A041092B3018091E1008E7F4E
:104A10008093E1008091E2008E7F8093E20080919C
:104A2000E20080618093E20042E060E080E00E946A
:104A3000090A8091F00088608093F000FF91EF9167
:104A4000BF91AF919F918F917F916F915F914F91A6
:104A50003F912F910F900FBE0F901F90189519BC8A
:104A600010928A041092B40176CF8091E30087FF00
:104A700002C083E0B4CF81E0B2CF1F920F920FB695
:104A80000F921124FF920F931F932F933F934F93F5
:104A90005F936F937F938F939F93AF93BF93CF93C6
:104AA000DF93EF93FF9309EE10E0F8018081C0914E
:104AB000EC00C795CC27C7958F70FC2EF82A108282
:104AC000C0EFD0E08881877F888378940E94E00CD3
:104AD000F8011082888188608883CF2DCF70C083D1
:104AE000FF91EF91DF91CF91BF91AF919F918F9106
:104AF0007F916F915F914F913F912F911F910F91F6
:104B0000FF900F900FBE0F901F901895FF920F937C
:104B10001F93CF93DF93182FEB011092BC0084EA10
:104B20008093BC000E94D01C082FF92E8091BC00FD
:104B300087FF28C08091B900887F883029F0809154
:104B4000B900887F8031A1F51093BB0084E8809381
:104B5000BC000E94D01C182F092F8091BC0087FF39
:104B60001FC02091B900287F80E090E0283199F0A3
:104B700081E090E0203411F480E090E091958195FF
:104B8000910909C0802F9F2D0E94FF1CC817D907CB
:104B900068F68EEF9FEFCDB7DEB7E5E00C943827CF
:104BA000812F902F0E94FF1CC817D907B0F6F1CFB4
:104BB0008FEF9FEFF0CF1092B9008CE08093B80098
:104BC00008950F931F93CF93DF93EB018093BB0066
:104BD00084E88093BC000E94D01C182F092F80917C
:104BE000BC0087FF11C02091B900287F81E090E0D0
:104BF000283211F480E090E0919581959109DF9140
:104C0000CF911F910F910895CF3FDC0741F3812F82
:104C1000902F0E94FF1CC817D90708F78EEF9FEF4F
:104C2000EECFA0E0B0E0E7E1F6E20C941427782E96
:104C30005B016A0189010E94D01C4C0104311105FD
:104C400060F10F3F100769F1C80164E170E00E9454
:104C5000FB26F62EE72E6F2D7E2D872D0E948625B2
:104C6000EC0197FF09C00F3F1007A9F3C4010E9490
:104C7000FF1C0817190778F77501CA0CDB1CEC1428
:104C8000FD0411F0D7FF10C084E98093BC00CE0171
:104C9000CDB7DEB7EDE00C943027FF24F394E12C80
:104CA000DACF85E0F82EFBCFB801F70181917F01C3
:104CB0000E94E125EC01E3CFA0E0B0E0E2E6F6E2FD
:104CC0000C941427782E5B016A0189010E94D01C84
:104CD0004C010431110560F10F3F100769F1C80163
:104CE00064E170E00E94FB26F62EE72E6F2D7E2DEC
:104CF000872D0E948625EC0197FF09C00F3F100702
:104D0000A9F3C4010E94FF1C0817190778F7750161
:104D1000CA0CDB1CEC14FD0411F0D7FF10C084E9B1
:104D20008093BC00CE01CDB7DEB7EDE00C94302708
:104D3000FF24F394E12CDACF85E0F82EFBCFF701C6
:104D40008491B8010E94E125EC01FFEFEF1AFF0A00
:104D5000E1CFA0E0B0E0EFEAF6E20C941327682E72
:104D6000962E5A01690178010E94D01C782E892E56
:104D70000431110530F10F3F100731F1C80164E132
:104D800070E00E94FB26162F072F612F702F862DB3
:104D90000E948625EC0197FF19C0FFEFEF16FF0672
:104DA000A1F3872D982D0E94FF1CE816F90668F7DD
:104DB00084E98093BC00CE01CDB7DEB7EEE00C9461
:104DC0002F2711E000E0E1CF15E0FCCFB701892DDE
:104DD0000E94E125EC018501CA0CDB1C0C151D05A8
:104DE00039F3D7FDE5CFB701F80181918F010E941A
:104DF000E125EC01F3CFAA1BBB1B51E107C0AA1FA1
:104E0000BB1FA617B70710F0A61BB70B881F991F6B
:104E10005A95A9F780959095BC01CD0108952F92E0
:104E20003F924F925F926F927F928F929F92AF923A
:104E3000BF92CF92DF92EF92FF920F931F93CF9387
:104E4000DF93CDB7DEB7CA1BDB0B0FB6F894DEBF1E
:104E50000FBECDBF09942A88398848885F846E8444
:104E60007D848C849B84AA84B984C884DF80EE808E
:104E7000FD800C811B81AA81B981CE0FD11D0FB697
:104E8000F894DEBF0FBECDBFED010895991B79E008
:104E900004C0991F961708F0961B881F7A95C9F7CA
:104EA0008095089597FB072E16F4009407D077FDA0
:104EB00009D00E94FB2607FC05D03EF49095819511
:104EC0009F4F0895709561957F4F0895EE0FFF1FD6
:104ED0000590F491E02D0994692796276927782792
:104EE000872778270895002E083090F0982F872F75
:104EF000762F652F542F432F322F22270850F4CFBF
:104F0000220F331F441F551F661F771F881F991FCD
:104F10000A95B2F7002D089597FD1094002E0830E1
:104F200098F00850232F342F452F562F672F782FB6
:104F3000892F912DF4CF159497958795779567953F
:104F400057954795379527950A95AAF71124002D6F
:104F50000895FB01DC0102C005900D9241505040C4
:104F6000D8F70895FB01DC0104C08D9101908019F0
:104F700021F441505040C8F7881B990B0895F999C6
:104F8000FECF92BD81BDF89A992780B50895A6E11C
:104F9000B0E044E050E00C940928A8E1B0E042E021
:104FA00050E00C940928DC01A40FB51F415050407B
:104FB00048F0CB01840F951F2E910E94E4274150A9
:104FC0005040D0F70895262FF999FECF92BD81BDAC
:104FD000F89A019700B4021639F01FBA20BD0FB637
:104FE000F894FA9AF99A0FBE08950396272F0E9413
:104FF000E4270E94E327252F0E94E427242F0C9406
:10500000E4270196272F0E94E4270C94E327DC0174
:10501000CB01FC01F999FECF06C0F2BDE1BDF89AC3
:10502000319600B40D9241505040B8F70895F8946D
:10503000FFCFBE0DE40DEA0DE40DEA0D3D0E5F0E4F
:10504000EA0D5B0F680FD114F514FC140115061559
:105050000B15101515151A151F15241529154813AC
:10506000481348134813481348132C154813481382
:1050700094229822E022062311231C231F231F239E
:105080001F23A022A0229A239D23A123C223E4232D
:0A509000E723E92308242824322432
:10509A00010021007F22000392946697F4F5F6F747
:1050AA00313C09250B3F0940093C0B000000005F19
:1050BA005F5F5F5F00004422320001DE00AC00BA8D
:1050CA0004D304F304C635323436330008101818F2
:1050DA001008000001020202020202020202020099
:1050EA00FF0100010000FFFF0000010001FF00EFC7
:1050FA0003EE03EF03EF03E200E900EA00B500B6AE
:10510A0000B700CD008301CC008A019201940121ED
:10511A0002230224022502260227022A02B300B42D
:0E512A00006F0070009F01CB019F02A00200E9
:00000001FF
