:100000000C94D5030C94F2030C94F2030C94F203B9
:100010000C94F2030C94F2030C94F2030C94F2038C
:100020000C94F2030C94F2030C94D51E0C94AD1FA7
:100030000C9436190C94F2030C94F2030C94F20312
:100040000C94F2030C94F2030C94F2030C94F2035C
:100050000C94F2030C94B11E0C94F2030C94F20372
:100060000C94F2030C94F2030C94F2030C94F2033C
:100070000C94F2030C94F2030C94F2030C94F2032C
:100080000C94F2030C94F2030C94F2030C94F2031C
:100090000C94F2030C94F2030C94F2030C94F2030C
:1000A0000C94F2030C94F2030C94F20300AF00AE34
:1000B00000000000000000002F0000000007000703
:1000C0000000123F123F1200242A7F2A1200360934
:1000D0001E241B001826291228000000070000001B
:1000E000001E214000000040211E000014083E08B0
:1000F000140008083E0808000000307000000808DE
:100100000808080000003030000020100C02010038
:100110001E2925231E0000223F200000223129290C
:100120002600122125251A001814123F1000172549
:10013000252518001E252525180001310905030075
:100140001A2525251A00062929291E000000333307
:10015000000000003373000008141422220014145D
:1001600014141400222214140800020129050200AC
:100170003E59555D3E003816111638003F2525259D
:100180001A001E21212112003F2121211E003F259E
:10019000252521003F09090901001E2121291A00F6
:1001A0003F0404043F0000213F21000010202020D4
:1001B0001F003F040C1221003F20202020003F029E
:1001C00004023F003F020C103F001E2121211E00AF
:1001D0003F09090906001E2129112E003F090919AE
:1001E000260012252529120001013F0101001F20D0
:1001F00020201F000718201807000F300C300F00B8
:1002000021120C1221000304380403003129252394
:100210002100007F4141000001020C10200000413C
:10022000417F0000040201020400404040404000C1
:10023000000103040000102A2A2A3C003F24222245
:100240001C001C22222224001C2222243F001C2AE3
:100250002A2A0C0000043E0505000C5252543E00B0
:100260003F080404380000003D0000002040403DED
:1002700000003F080814220000013F2000003E0259
:100280003C023C003E0402023C001C2222221C00D4
:100290007E1422221C001C2222147E003E04020234
:1002A0000400242A2A2A120000021F2200001E2015
:1002B00020103E000618201806000E300C300E00EC
:1002C0002214081422000E5050483E0022322A26E2
:1002D000220008087741410000007F0000004141F2
:1002E00077080800180408100C0000000000000047
:1002F0000000381C0CCCCCCCFC3800180C8CCC7C0E
:1003000038000080C0404040404040C0800000C0F5
:1003100047CF4C4C4C4C4743404E4F49484848C04F
:1003200040FF0001FD0101FD0100FF0000FF007F13
:10033000808080808080808080808080807F00FFBF
:100340000000FF0000FF0000FF00000F0A0908087E
:100350000808080808080808080808090A0D02041F
:100360000404040404020100000000000000000076
:10037000000000000000000000000000000000007D
:10038000000000000000000000000000000000006D
:10039000000000000000000000000000000000005D
:1003A000000000000000000000000000000000004D
:1003B000000000000000000000000000000000003D
:1003C000000000000000000000000000000000002D
:1003D000000000000000000000000000000000001D
:1003E000000000000000000000000000000000000D
:1003F00000000000000000000000000000000000FD
:1004000000000000000000000000000000000000EC
:1004100005010980A101850319012AB700150126EC
:10042000B700950175108100C0050C0901A1018577
:100430000419012AA002150126A002950175108158
:1004400000C005010906A101050719E029E715000B
:10045000250195087501810295017508810105073F
:10046000190029FF150026FF009506750881000573
:1004700008190129051500250195057501910295B9
:100480000175039101C009023B00020100A0FA09B5
:1004900004000001030101000921110100012244AF
:1004A00000070581030800010904010001030000A1
:1004B00000092111010001223200070582032000FA
:1004C0000112010002000000083288328800010198
:1004D000020001200366007200650065006100648F
:1004E0000072007300330032005F006B006E006F1B
:1004F00000620000002203540061006B006100688C
:1005000000690072006F0020004E006100740073EB
:100510000075006D00650000000403090420002040
:100520002000200052204320200020004B6579202D
:10053000200020004C6179657200FFAA7F554000C1
:100540000101010101010101010202020202020294
:100550000202030303030303030304040404040467
:10056000040505050505060606060607070707072D
:1005700008080808090909090A0A0A0B0B0B0C0CE0
:100580000C0D0D0D0E0E0E0F0F0F1010111111127C
:100590001213131414151516161717181819191AFB
:1005A0001A1B1B1C1D1D1E1E1F202021222223245E
:1005B00024252626272829292A2B2C2D2D2E2F309D
:1005C000313232333435363738393A3B3C3D3E3FB1
:1005D000404142434445464748494A4C4D4E4F509E
:1005E000515354555658595A5B5D5E5F616264655C
:1005F0006668696B6C6D6F7072737577787A7B7DE6
:100600007E8082838587888A8C8E8F919395969839
:100610009A9C9EA0A2A3A5A7A9ABADAFB1B3B5B755
:10062000BABCBEC0C2C4C6C9CBCDCFD1D4D6D8DB2C
:10063000DDDFE2E4E7E9EBEEF0F3F5F8FAFDFF00C9
:10064000DA0281FFD9F1DB20A4A62EAF00A0C0D32F
:100650000000A1C8D30000AED580A81F408D142093
:100660000029001E001F002000000021002200239E
:100670000024002500000014001A000800000015E6
:100680000017001C0018000C001E00E100040016FA
:10069000000000070009000A000B000D001E00E228
:1006A000001D001B00000006001900215210002848
:1006B0000029021E021F0220020000210222022342
:1006C0000224022502000014021A0208020000158A
:1006D0000217021C0218020C021E02E1000402169C
:1006E000020000070209020A020B020D021E02E2CA
:1006F000001D021B020000060219022152104228AE
:1007000000010001000100010000000100010001E2
:1007100000010001000000010001000100000001D3
:1007200000010001000100010001000100010001C1
:1007300000000001000100010001000100010001B2
:1007400000010001000000010001000100010001A2
:10075000004E004B00510052004F0050004E004B25
:1007600000510052004F0050004E004B005100520B
:10077000004F0050006162636465666768696A6B78
:100780006C6D6E6F707172737475767778797A317B
:10079000323334353637383930524542545F2D3D87
:1007A0005B5D5C233B27602C2E2F11241FBECFEFF7
:1007B000DAE0DEBFCDBF11E0A0E0B1E0E0E8FAE4AE
:1007C00002C005900D92A239B107D9F724E0A2E941
:1007D000B1E001C01D92AF3EB207E1F70E94881A56
:1007E0000C941F250C940000F894E82FE295EF700C
:1007F000F0E041A18F7021E030E0B90102C0660F46
:10080000771F8A95E2F7CB01962F9095942391A3B9
:1008100092A1892B82A378940895F894E82FE29509
:10082000EF70F0E041A18F7021E030E0B90102C02B
:10083000660F771F8A95E2F7CB01942F982B91A32F
:1008400092A18095892382A378940895982F829508
:100850008F70882311F0982F84E0292F26952695F4
:10086000222311F08E5F922F969591118F5F08953C
:100870008093A80408958093A904089521E030E0AE
:1008800001C0220F8A95EAF78091A904822B0E9469
:100890003B04089521E030E0A90102C0440F551F38
:1008A0008A95E2F7CA0180959091A90489230E9454
:1008B0003B0408959B01677091E001C0990F6A9510
:1008C000EAF763E0369527956A95E1F7B901660F77
:1008D000771F260F371FFA01E20FF31F40E050E0A9
:1008E000682F70E08191DF0111979B01042E02C0F7
:1008F000369527950A94E2F7217021952827292318
:1009000028272C934F5F5F4F4330510559F70895C7
:100910009C01A82FA77083E0369527958A95E1F76B
:10092000C901880F991F820F931FFB01E80FF91F60
:1009300040E050E080E0219130E00A2E02C0369580
:1009400027950A94E2F721703327042E01C0220F65
:100950000A94EAF7822B4F5F5F4F4330510559F7F6
:100960000895282F862F943070F42A3058F4622F7F
:1009700070E02AE0929F600D711D11244EE854E052
:100980000E945A0408959C5F9230E0F7622F70E055
:100990004BE854E0F5CF292F943068F48A3090F476
:1009A00090E06EE874E03AE0239F800D911D1124E1
:1009B0000E94880408952C5F223020F46BE874E0D4
:1009C00090E0F6CF80E008958091AF049091AE045E
:1009D000981301C008958F5F8770FACF9091AA0491
:1009E000809589238093AA04282F277021110DC098
:1009F000891759F09091AC0492FF07C086958695AF
:100A000086950E944A041092AA040895982F909502
:100A10008091A50489238093A50408957430C8F4B7
:100A20006A3008F040C0833008F040C0E62FF0E0A4
:100A30009AE0799FE00DF11D112498E2899FE00D65
:100A4000F11D1124EE0FFF1FEF59F94F859194917D
:100A500008957D3F99F4633030F5833038F590E0A8
:100A6000FC01EE0FFF1FE80FF91FE60FF11DEE0F5F
:100A7000FF1FEE0FFF1FEF5AF84FE8CF7C3F99F4AE
:100A8000633088F4833090F490E0FC01EE0FFF1F98
:100A9000E80FF91FE60FF11DEE0FFF1FEE0FFF1F0E
:100AA000ED5AF84FD3CF80E090E0089581E0FCCF7D
:100AB000803E9105D1F1C8F48133910509F47FC0DE
:100AC00048F48932910509F46FC08A32910509F41E
:100AD0007DC0089589339105E1F082389105C9F010
:100AE0008533910509F45BC00895843E9105D1F1E9
:100AF00048F4823E910531F1833E910541F181EE4A
:100B000090E00895863E9105C1F1873E9105E1F19F
:100B100008952091AB042370211165C02091AC048D
:100B200023FF14C089E290E008952091AB0420FDDA
:100B300043C03091AC0430FF09C024FF4EC080E0B8
:100B400090E008952091AB0422FDF7CF0895209105
:100B5000AB0422FD45C03091AC0430FD44C024FFFD
:100B6000F5CFEDCF2091AC0421FFF0CF8091AB0405
:100B700084FDE5CF87EE90E008952091AB0423FF3C
:100B8000E5CF24FDDCCFF6CF2091AB0423FD2EC0B2
:100B90003091AC0431FFE3CF84EE90E008952091D2
:100BA000AB0425FFD3CFBECF2091AB0425FD21C0E0
:100BB0002091AC0423FFCACF89E390E008952091EF
:100BC000AB0426FFC3CF8AE290E008952091AB04E6
:100BD00026FFBCCF81E390E0089583EE90E0089576
:100BE00082EE90E0089580EE90E0089586EE90E029
:100BF000089585E390E0AACF9091AB0492FF10C0D6
:100C000041E0282F2471243009F040E031E0282F02
:100C10002871283009F030E0431711F02CE08227CA
:100C200093FF10C041E0282F2471243109F040E0E7
:100C300031E0282F2871283109F030E0431711F0F6
:100C40002CE082273091AC0430FF10C051E0282FF7
:100C50002171213009F050E041E0282F287128301F
:100C600009F040E0541711F029E0822731FF10C04D
:100C700041E0282F2171213109F040E031E0282F97
:100C80002871283109F030E0431711F029E082275C
:100C900094FD877E08951F93CF93DF930E9458059C
:100CA000EC01811522E5920708F053C0811540E55B
:100CB000940708F0DDC0803E9105F8F48D3C910565
:100CC00008F0AEC0883A910580F4853A910508F0A5
:100CD00099C08130910521F00497813A910550F433
:100CE000CE01DF91CF911F910895885A91094B97BA
:100CF00008F48BC0C0E0D0E0F3CF811550E4950735
:100D0000F8F4C11580E2D80708F0CBC0C83ED10581
:100D100038F3CE019A9581159F4160F78D2F0E947F
:100D2000FC05182FCE0199270E945805212F30E08D
:100D3000322F2227E901CC27DF71C82BD92BD0CF46
:100D400099270E945805CC27DF70C82BD92BD06A71
:100D5000C7CF803842E59407C8F5803652E595073D
:100D600008F067C0C03482E5D807B0F08C2F8695B4
:100D70008695877020E2829FC0011124C37021E014
:100D800030E0A90102C0440F551FCA95E2F7EA01FD
:100D9000C82BD92BDC68A4CFC03252E5D50708F0A8
:100DA00041C08C2F8695869520E2829FC001112438
:100DB000C37021E030E0A90102C0440F551FCA955D
:100DC000E2F7EA01C82BD92BDD688ACF803C52E5D7
:100DD000950760F48F71C03AD24508F03FC090E0AB
:100DE000982F8827EC01C46FD06A7ACF805C924537
:100DF000809708F07FCFDC2FCC27CC27DF71C06F26
:100E0000D06A6ECFA497D0646BCFC85AD0E0CC0F15
:100E1000DD1FC55ADE4F0990D881C02DD46460CF44
:100E2000D0655ECFCF71D0E0DC2FCC27C16FD06A08
:100E300057CF86958695877020E2829FC001112446
:100E4000C37021E030E0A90102C0440F551FCA95CC
:100E5000E2F7EA01C82BD92BDA6842CF0E94FC05E1
:100E6000C82FD0E0DC2FCC27CC27DF71D06238CF61
:100E70008F710E94FC0565E0D695C7956A95E1F7EC
:100E8000CF70D0E0DC2FCC27282F30E084FF05C0C6
:100E900054E0220F331F5A95E1F7C22BD32BD069B0
:100EA0001FCF8D2F8F710E94FC05182FCE0199271F
:100EB0000E945805212F30E0322F222722273F7130
:100EC000282B392BE901D2CFA0E0B0E0EAE6F7E029
:100ED0000C948A217C010091A9048091A804082B1C
:100EE000C7E0D0E010E0C8010C2E02C095958795B0
:100EF0000A94E2F780FD09C02197A8F7D12C8D2D27
:100F0000CDB7DEB7E7E00C94A621DC2EB7018C2F1D
:100F10000E940E050E944B06019771F3F0CF0F93CC
:100F20001F93CF93FC01858100811181882391F06B
:100F3000662381F0C8010E946407C82F682FC8018A
:100F40000E94B104B8018C2F0E940E05CF911F9111
:100F50000F910895C8010E94CB04C82FF3CFCF93FF
:100F6000DF93D82FC92F0E9464076D2F7C2F0E941A
:100F70000E050E944B06DF91CF910895FC018481FC
:100F80008823A1F0808191810E94AF07282F92953C
:100F90009F70963091F060F4925F9F70923030F4C1
:100FA00081E0203F79F030F4283E30F080E004C04A
:100FB0009A5FF3CF243FD1F7089581E0283E18F0DF
:100FC000213FF9CF0895089580E00895A0E0B0E0B2
:100FD000ECEEF7E00C948721E901E42FF0E0E15C0E
:100FE000FA4F61110BC0E4919E2F8E2F8983E88305
:100FF0009A83CDB7DEB7EAE00C94A321282F30E026
:10100000062F10E0F491EF2F86E0829F6001839F0E
:10101000D00C1124EE24EA94F12CC601B7010E94F1
:101020006B21220F331F45E5469FC001479F900D5E
:101030001124281B390B822F880F280FC701801B12
:10104000910BF89FA001F99F500D1124952F209F1F
:101050005001219FB00C1124AB2CBB24D701AA193D
:10106000BB095D01FA9DD001FB9DB00D11248B2FB2
:101070005701A21AB1089501209F5001219FB00C81
:10108000309FB00C1124AB2CBB24EA18FB08FE9D4A
:101090009001FF9D300D112463307105C9F01CEFE4
:1010A000C11613E0D10650F46130710509F49ECFEA
:1010B0006230710589F08E2FE32F98CF643071056F
:1010C00071F066307105B9F3E52F9B2F8F2F8ECF0E
:1010D000EB2F852F9F2F8ACF852F932F87CF832F9D
:1010E000E52FF8CF80919D04843060F48370846094
:1010F00080939D048091A004893718F088E780933D
:10110000A00408958033B0F383708C62F1CF809196
:101110009D0480FD0AC0E6EEF3E011821082128287
:10112000339684E0E634F807C1F760E270E086EEBB
:1011300093E00E94D90A0895FA01882311F00995D5
:101140000895FB01FCCF90E06623E9F0845D9E4F9B
:10115000FC0180818F3FB1F0E82FE295EF70F0E065
:1011600041A18F7021E030E0B90102C0660F771F06
:101170008A95E2F7CB01962F9095942391A392A1A3
:10118000892B82A30895875D9E4FE2CF90E066236E
:10119000A9F0845D9E4FFC0120812F3F91F0E22F4A
:1011A000E295EF70E05EF0E0808190E02F7002C089
:1011B000959587952A95E2F781700895875D9E4FF2
:1011C000EACF80E00895539A0895E0918104F09168
:1011D0008204309729F00190F081E02D099508955F
:1011E00080E00895A3E0B0E0E8EFF8E00C948F21F0
:1011F0009C018091C0019091C10182179307A1F0D9
:101200003093C1012093C001E0918104F0918204E8
:10121000309751F083E089833B832A830084F185F2
:10122000E02DCE01019609952396E2E00C94AB21C6
:10123000A3E0B0E0EEE1F9E00C948F219C018091F5
:10124000BE019091BF0182179307A1F03093BF01B7
:101250002093BE01E0918104F0918204309751F017
:1012600084E089833B832A830084F185E02DCE01CD
:10127000019609952396E2E00C94AB21A4E0B0E03E
:10128000E4E4F9E00C948F218FB7F8942091BA012F
:101290003091BB014091BC015091BD0129833A833B
:1012A0004B835C838FBF69817A818B819C8124967B
:1012B000E2E00C94AB218091B9010895089508955E
:1012C000FC019B018091AF019091B00186179707B7
:1012D00040F0672B29F48091E8008E778093E80036
:1012E000C90140E0009741F4411106C08091E80037
:1012F00082FF2FC080E0089520915C042223A9F191
:101300002530A9F12091E80023FD2DC02091E800AF
:1013100022FDECCF2091E80020FFE4CF3091F300D4
:101320002091F200009719F02830310558F041E083
:101330002830310509F040E02091E8002E77209315
:10134000E800D0CF41914093F10001972F5F3F4FCC
:10135000E9CF80915C04882341F0853041F0809191
:10136000E80083FFC3CF81E0089582E0089583E021
:1013700008958091A90187FF13C08091E80082FF42
:1013800006C08091E8008B778093E80004C08091CC
:101390005C048111F2CF089580915C048823D9F315
:1013A0008091E80080FFF8CF8091E8008E77ECCF45
:1013B0002091E4003091E50095E6A9018091EC00D0
:1013C0008170882331F08091E80080FF06C080E0C2
:1013D00008952091E80022FD1BC080915C048823C1
:1013E00091F0853091F08091EB0085FD10C0209147
:1013F000E4003091E5004217530701F39150911139
:10140000DCCF84E0089582E0089583E0089581E0D0
:101410000895E8EDF0E080818E7F80831092E200F5
:101420001092DA001092E100A0EEB0E08C918160A1
:101430008C9380818F77808319BCA7EDB0E08C916D
:101440008E7F8C9380818F7E80831092A801089577
:10145000982FE42FE2709093E900891308C0762F4B
:10146000242F50E0E11111C091E0980FF4CF70915A
:10147000EC002091ED005091F00021FD06C09F5F2F
:10148000973049F78093E90008953091EB003E7F53
:101490003093EB003091ED003D7F3093ED003091C3
:1014A000EB0031603093EB007093EC002093ED0083
:1014B0005093F0002091EE0027FDE1CF0895A0E0C9
:1014C000B0E0E5E6FAE00C948921C8EDD0E088812F
:1014D0008F7E8883E7EDF0E080818160808384E007
:1014E00082BF81E08093A80188818E7F888302EE8D
:1014F00010E0F80110821092DA0081EEC82ED12C93
:10150000F601108288818F7788838881806888833C
:1015100088818F7D888319BC10925C041092A7018A
:1015200010925B041092A60190EEE92EF12CF701C7
:1015300080818B7F808388818160888342E060E046
:1015400080E00E94280AF60180818E7F8083F80166
:10155000808181608083808188608083F7018081C1
:101560008E7F8083888180618883CDB7DEB7E8E095
:101570000C94A521E091AF049091AE0427E0E9130B
:1015800002C080E00895AE2FB0E02E9FF00111243C
:10159000E055FB4F3181361306C03081381303C04C
:1015A0003581341304C0FD013196E770E8CF81E046
:1015B00008959C01AB016BB1677F7BB17860EFB799
:1015C000F894CA01880F991F840F951F820F931FEB
:1015D0008217930741F4EFBF8FE594E00197F1F78D
:1015E00000C000000895D9014D919D0158E07BB9DC
:1015F000000000C047FF6BB9440F000000C000C0EE
:1016000000C06BB900C05A9591F7E2CF0F931F93BA
:10161000CF93DF93EB018A0190915C04943079F5CC
:101620008093E9008FEF9091E80095FD07C095ED5C
:101630009A95F1F7000081508111F5CF8091E80073
:1016400085FF1DC00E94D809811114C08091E80057
:1016500085FD06C08091E8008E778093E800F2CF88
:1016600088818093F100015011090115110511F0D5
:101670002196ECCF8091E8008E778093E800DF918F
:10168000CF911F910F910895CF93DF93D82FC92F3A
:1016900048E050E0682F792F81E00E94060B88E037
:1016A000ED2FFC2FA1EBB1E001900D928A95E1F7AF
:1016B000DF91CF910895BC0143E050E082E00E94A9
:1016C000060B08959091AC0492FB222720F928176D
:1016D00079F080FB92F99093AC046091AB04709127
:1016E000AC0484E090E00E94092582E00E94EE04B0
:1016F0000895E6EEF1E080E092E0DF019C011D92AA
:1017000021503040E1F7F093E501E093E4018FEFE1
:101710009FEF9093E3018093E20108958091A504E7
:101720009091AD04892B4091A604442389F090E068
:1017300026E931E0F90150812F5F3F4F51119F5F42
:1017400051E02C393507B1F791111092A604842B82
:101750008093940148E050E063E874E084E991E00C
:101760000E941B22892BA9F088E0E4E9F1E0A3E8BC
:10177000B4E001900D928A95E1F7E0918104F09137
:101780008204309731F00280F381E02D84E991E00A
:10179000099508951092A504E6E9F1E086E0DF01DD
:1017A0001D928A95E9F780E090E00E94F20880E0BF
:1017B00090E00E9418091092AD040E948E0B0895CB
:1017C0000E94CA0B2FEF84E39CE0215080409040A0
:1017D000E1F700C0000088E19AE00FB6F894A89500
:1017E000809360000FBE90936000FFCFAAE2B0E04C
:1017F000ECEFFBE00C948E2189EA91E0FC0101966C
:101800002091F100208321E0813B9207B9F780917C
:10181000AA01893009F456C0C8F4823009F4B2C074
:10182000833009F481C0813071F18091E80083FF39
:10183000E6C08091A9019091AA019A3008F0DFC01A
:10184000E92FF0E0EF5DFA4D0C94D6218A3009F4CF
:1018500088C08B3051F78091A901813231F7809196
:10186000AD019091AE01892B01F78091E800877F4F
:101870008093E8000E94B9098091AB018093000138
:101880000E94CA0BD2CF8091A901813A71F6809152
:10189000E800877F8093E8008091AD019091AE01D0
:1018A000892B61F060E080E090E070E00E946009C8
:1018B0008091E8008B778093E800B7CF68E081EBF8
:1018C00091E0F3CF8091A901813209F0AECF8091F0
:1018D000AD019091AE01029708F0A7CF8091E8008A
:1018E000877F8093E8008091E80082FF18C0909184
:1018F000F3008091F200029731F48091F100813081
:1019000011F0863021F48091F1008093B90180912B
:10191000E8008B778093E8000E94B90986CF809118
:101920005C048111E0CF81CF8091A901813A09F057
:101930007CCF8091AD019091AE01892B09F075CFDC
:101940008091E800877F8093E8008091E80080FF25
:10195000FCCF809100018093F1008091E8008E77A8
:10196000D9CF8091A901813209F05FCF8091E80041
:10197000877F8093E8000E94B9098091AC01809331
:10198000A50153CF8091A901813A09F04ECF8091F2
:10199000E800877F8093E8008091E80080FFFCCF1B
:1019A0008091A501D8CF803889F0823841F58091A7
:1019B000AD018F70873018F58093E9008091EB00BE
:1019C00085FB882780F91092E90006C08091A60166
:1019D00090915B04911182609091E800977F9093C1
:1019E000E8008093F1001092F1008091E8008E777A
:1019F00023C0811116C08091AB01813011F180911B
:101A0000E80083FF0AC08091E800877F8093E800A8
:101A10008091EB0080628093EB00AA96E3E00C9447
:101A2000AA21823061F78091AB01882389F010925E
:101A3000E9008091E800877F8093E8000E94B9095F
:101A4000DECF81E0933009F080E080935B04EFCF3C
:101A50008091AD018F702FEF280F263080F6809394
:101A6000E9002091EB0020FFE2CF933031F4809128
:101A7000EB0080628093EB00DACF9091EB009061F5
:101A80009093EB0021E030E0A90102C0440F551F04
:101A90008A95E2F74093EA001092EA008091EB0009
:101AA0008860E8CF8111ABCF1091AB011F77809197
:101AB000E3008078812B8093E3008091E800877FAA
:101AC0008093E8000E94B9098091E80080FFFCCF74
:101AD0008091E30080688093E30083E0111101C0EE
:101AE00082E080935C048BCF8058823008F087CFEF
:101AF0004091AB015091AC014C3D83E0580799F502
:101B000083E08A838AE289834FB7F894DE011396D3
:101B100020E03EE051E2E32FF0E050935700849143
:101B200020FF03C082958F703F5F8F708A30C8F0AE
:101B3000895C90E08D939D932F5F243161F74FBFB7
:101B40008091E800877F8093E8006AE270E0CE0130
:101B500001960E9460098091E8008B778093E800ED
:101B60004ECF805DE6CF2091AD013091AE01852F43
:101B700099278330910509F160F48130910509F4CA
:101B800072C0029709F03BCF8BE390E0E6E8F4E007
:101B900029C08132910509F45AC0829709F02FCFEC
:101BA0002115310509F469C02130310509F027CF2D
:101BB00082E390E0E0E1F4E015C0CA0199274130EA
:101BC000B1F18230910509F43AC0892B09F017CFA1
:101BD000E9E1F5E0E4918E2F90E0E9E1F5E000978E
:101BE00009F40DCF2091E800277F2093E800209191
:101BF000AF013091B0018217930708F49C0140E0D7
:101C00002115310509F03EC041113CC08091E8002A
:101C100082FDA1CF80915C04882309F49CCF85309C
:101C200009F499CF8091E80083FFF0CF94CFE5EFDE
:101C3000F4E0E4918E2F90E0E5EFF4E0D0CFE3ED17
:101C4000F4E0E4918E2F90E0E3EDF4E0C8CF2115AD
:101C5000310571F02130310509F0D1CE89E090E0F5
:101C6000E1EBF4E0BFCF82E190E0E1ECF4E0BACF49
:101C700089E090E0E8E9F4E0B5CF84E490E0E2E4C4
:101C8000F4E0B0CF80915C04882309F464CF853000
:101C900009F461CF8091E80083FD5DCF8091E80079
:101CA00082FDB4CF8091E80080FFAACF9091F3002D
:101CB0008091F2002115310519F08830910550F01E
:101CC00041E0089709F040E08091E8008E7780932A
:101CD000E80096CF44914093F100319621503109AC
:101CE0000196E8CF803809F08ACE8091E800877F9E
:101CF0008093E8008091A7018093F10076CE811156
:101D00007ECE1091AB01123008F079CE8091E800C0
:101D1000877F8093E8001093A7010E94B9091123DF
:101D200081F084E080935C0442E061EC81E00E94F9
:101D3000280A42E261EC82E00E94280A80915C0459
:101D40005ECE8091E30087FDECCF81E0EBCF0F9377
:101D50001F93CF93C82F882339F18CEF8C0F813AD2
:101D6000B0F506E911E0F8018191C81709F121E009
:101D7000EC39F207C9F7EFEF80E0D8019D918D01B2
:101D8000C91781F0EF3F19F4911101C0E82F8F5F5F
:101D9000863099F7EF3F31F00E2E000CFF0BEC561A
:101DA000FE4FC2830E948E0BCF911F910F91089519
:101DB000E6E9F1E08191C81303C0DF0111971C929D
:101DC00031E0EC39F307B1F70E948E0BD4CF80E2FB
:101DD0008C0F883068F4C77081E090E001C0880FF4
:101DE000CA95EAF7C091A504C82BC093A504DACF21
:101DF0008BE58C0F833038F42C2F2452330BC90120
:101E00000E94F208D1CFC85ACB3170F6EC2FF0E027
:101E1000EE0FFF1FE55AFE4F808191810E94180945
:101E2000C3CF882389F19CEF980F913A78F4E6E9C3
:101E3000F1E09191891303C0DF0111971C9291E0A9
:101E4000EC39F907B1F70E948E0B089590E2980FD4
:101E5000983050F4877091E001C0990F8A95EAF7A5
:101E6000892F0E940605EFCF9BE5980F933028F449
:101E700080E090E00E94F2080895885A8B3120F4A7
:101E800080E090E00E9418090895882339F090912D
:101E9000A504892B8093A5040E948E0B08958823A6
:101EA00021F00E9406050E948E0B0895A0E0B0E08C
:101EB000ECE5FFE00C9489218901D42FC52F6B013B
:101EC0007C010E947208A8016D2F7C2F88E090E0B1
:101ED0000E94FD2498014D2F5C2FB601C70100E23E
:101EE0000E94F721622F83E290E00E94EB24CDB79D
:101EF000DEB7E8E00C94A5218091A104833018F4AA
:101F00008F5F8093A10420919D0430919E044091A5
:101F10009F045091A0046091A1047091A20480914B
:101F2000A3049091A4040E94560F08958091A104E7
:101F3000882319F081508093A10420919D04309151
:101F40009E0440919F045091A0046091A10470915F
:101F5000A2048091A3049091A4040E94560F0895B6
:101F6000A3E0B0E0E6EBFFE00C948421E82ED62E4F
:101F7000F42E722E80919D0480FF40C0982F96957C
:101F80009695E92FF0E0E95CFE4F20818C7F84304C
:101F9000C9F528E7241708F448E79E012F5F3F4F53
:101FA0006D2D8E2D0E94E60780919D0480FF0FC04D
:101FB0008B8199812A81E6EEF3E0218390838283ED
:101FC000339634E0E634F307C1F70E948708E092C5
:101FD0009E04D0929F04F092A004772079F0209183
:101FE0009D046091A1047091A2043E2D4D2D5F2DA2
:101FF0008091A3049091A4040E94560F2396EDE0D3
:102000000C94A021223019F7EEEFE90F9170C92E40
:10201000E695F0E0E65CFA4FE4910E2F10E036EE24
:10202000A32E33E0B32E812C912CC40125E096958C
:1020300087952A95E1F7C11015C08E0D4F2D38E711
:102040003F1508F448E795016D2D0E94E607800EC4
:10205000911E83E0A80EB11C96E4A91694E0B9067F
:1020600021F7B3CF2E2D281B822FE8CF90919D040E
:1020700090FF29C0882341F18C3040F58F73282FC1
:10208000220F220F80919D048370282B20939D04A2
:10209000662381F030919E0440919F045091A004EA
:1020A0006091A1047091A2048091A3049091A40472
:1020B0000E94560F20E04091A00460919F048091FF
:1020C0009E040E94B00F089581E0D9CF8BE0D7CF56
:1020D00080919D04869586958F5F8C3008F081E015
:1020E00061E00E943610089590919D049695969512
:1020F0008FEF890F913009F48BE061E00E94361078
:10210000089580919D0480FF09C086958695825C24
:102110008F73893018F40E946810089561E082E09E
:102120000E9436100895A0E0B0E0E9E9F0E10C94D7
:1021300089217C01FC018481882309F403C161E0C9
:10214000C7010E948F079C01F701458190931C01F4
:1021500080931B018081918190931E0180931D01CA
:10216000F9013497E533F10508F0B2C0EB58F84FA8
:10217000E4915FE5442311F05E2FEFE5AFE1B1E0BC
:1021800080E090E06D916E136CC0855E9E4FFC0107
:102190005483F7018581811176C0F7018581008123
:1021A0001181882309F439C1C8010E946407C82F2E
:1021B000682FC8010E94B104B8018C2F0E940E053F
:1021C0000E944B06D82FC92FF701C58006810295C2
:1021D0000F708091AA048770882301F1DC2CCC2039
:1021E000F1F0892F807F803461F080E28D0F88309C
:1021F000A8F0892F807E803221F4D23078F000233D
:1022000069F08091AC0482FF09C082E00E94EE0474
:102210008091AA048770DD24D3948111D12C8C2F56
:1022200082958F70883009F4EAC108F01AC18430B1
:1022300008F0F8C01C2F1F70823008F423C1C07F43
:10224000C03211F01295107FDD2309F451C1D13055
:1022500009F49AC1CC2009F4A4C1002309F466C191
:1022600026C101968630910509F08CCF442309F4EC
:1022700094CF2B358CE7380708F0B3C021309CE7AA
:10228000390709F4C6C02330ECE73E0709F4BBC0A8
:1022900021153C4709F081CF0E94CA0BEFEFF4E310
:1022A0002CE0E150F0402040E1F700C0000087E75B
:1022B00097E7909301088093000888E19AE00FB6B1
:1022C000F894A895809360000FBE90936000FFCFB4
:1022D000411180C08091A5048272F901E052F84753
:1022E000E531F10508F059CFE55DFA4D0C94D621A2
:1022F00080919D0480FF2BC0282F2E7F20939D046A
:1023000030919E0440919F045091A0046091A104DB
:102310007091A2048091A3049091A4040E94560F8E
:102320000E9487088091AA048770882359F0F701DA
:102330008581882339F08091AC0482FF03C082E05C
:102340000E94EE04CDB7DEB7E8E00C94A5218160D1
:1023500080939D0461E0869586950E943610E2CFB9
:1023600044E750E168E670E10E949C08DBCF48E654
:1023700050E164E770E1F8CF4FE056E165E076E1C7
:10238000F3CF45E056E16FE076E1EECF46E256E16D
:1023900069E176E1E9CF49E156E166E276E1E4CF31
:1023A00040E456E163E376E1DFCF43E356E160E4E6
:1023B00076E1DACF46E95FE06CE77FE0D5CF4CE726
:1023C0005FE066E97FE0D0CF61E081E0C6CF0E94A8
:1023D0008110A8CF2A35FCE73F0709F04ACF81E0FA
:1023E0000FC02B358CE73807B1F02C353C4709F08E
:1023F000D4CE8091AC0482FB882780F991E08927B4
:102400000E94620BCACE6FEF7FEF80E090E00E94E7
:1024100009250E94E00B80E0F3CFC8010E94CB04A5
:10242000C82FCACE843009F4CDC0DD20A9F0809138
:10243000AA0480FD11C0F7011582869586958695C0
:102440000E943E04C7010E9493108091AA048695C1
:10245000869586950E944A0460E0C7010E948F0716
:1024600071CF893009F43AC18A5F8F708230E8F603
:10247000D23F09F044C18C2F8F71C1103DC10E9421
:102480003E04EAC0C03110F01295107FCC20B9F0A4
:10249000112369F080E28D0F883010F0D11109C04E
:1024A0008091A504812B8093A5040E948E0B8D2F13
:1024B0002FC08091AD04812B8093AD04F6CF8D2F7A
:1024C0000E94110F112309F4B0CF80E28D0F8830E4
:1024D00010F0D11104C0812F0E94060506C010958E
:1024E0008091AD0481238093AD040E948E0B9DCF1B
:1024F0008091AC0482FD16C0CC2069F0112339F024
:102500008091A504812B8093A5040E948E0B80E00E
:102510000E94A70E8ACF80E00E94110F112309F4B8
:1025200084CFD9CFCC20A1F0011104C0812F0E940B
:10253000450F7BCF013009F078CF8091A604912F11
:102540009823191709F471CF812B8093A6046DCFBE
:1025500001116BCF812F0E944F0F9091A604812F04
:102560008923882329F0812F809589238093A604CD
:102570008091A704912F9823992309F456CF1095A1
:1025800018231093A70451CFCC2021F0063008F077
:102590004CCFCCCF053008F048CF812F0E944F0F91
:1025A00044CF0023D1F3D93349F4FFEF27EE33E0D2
:1025B000F15020403040E1F700C000008D2F0E9414
:1025C000110F33CF8C2F869586958370882369F001
:1025D000813009F02ACF8D2F9C2F9370C11002C03B
:1025E00080E090E00E94180920CF8D2F9C2F9370DF
:1025F000C11002C080E090E00E94F20816CF8C2F3C
:102600008370811134C0C11027C04D2F429546956B
:102610004770440F440F8D2F8F70042E01C0880F18
:102620000A94EAF7D071DD2341F02FE030E001C0D9
:10263000220F4A95EAF7D22FD095C695C695C3705A
:10264000C23081F0C33061F02091A804C13039F06C
:102650008D2B82230E9438040E94E508E6CE822B4F
:102660008D2BF8CF8D2B9091A8048927F3CFCC2008
:1026700051F1C0FFF1CF4D2F429546954770440F61
:10268000440F8D2F8F70042E01C0880F0A94EAF733
:10269000D071DD2341F02FE030E001C0220F4A95D8
:1026A000EAF7D22FD095C695C695C370C23089F08F
:1026B000C33069F02091A904C13041F08D2B8223F1
:1026C0000E943B04C9CF823038F2D5CF822B8D2BAC
:1026D000F7CF8D2B9091A9048927F2CFCF70CC2012
:1026E00039F08C2F0E943E048D2F0E94450FB4CFED
:1026F0008D2F0E944F0F8C2F0E944A04ADCFD33FE5
:1027000070F4D03FB9F0D13FB9F1CC2009F455C0F5
:10271000002309F44FC08D2F0E94A70E9DCFD33FF9
:10272000E1F0D43F29F1C110F3CF011154C08C2F37
:102730008F71E2CFCC2079F0053008F08DCFCF71CA
:1027400081E090E0FC0101C0EE0FCA95EAF78091AC
:10275000A9048E27B5CF0530F0CF80E0CC2009F456
:10276000AFCFCF7181E001C0880FCA95EAF7A8CF3B
:102770009091AC0492FD06C08C2F8F71CC2009F48F
:10278000BBCF7DCECC2061F08C2F8F7192FF77CEA6
:10279000F8E08F9F9001112423602093AA046FCE4C
:1027A00081E00E94EE04023008F456CF82E00E94DD
:1027B000EE0452CF8C2F8F7162CE002309F4B7CF75
:1027C000D93349F42FEF37EE83E021503040804079
:1027D000E1F700C000008D2F0E94110F3DCF8091C6
:1027E000EE04803178F48091ED04882359F0E09173
:1027F000AF042091AE043091E9044091E80457E021
:102800002E1301C008956E2F70E05E9FF001112419
:10281000DF01A055BB4F14968C911497882361F16A
:1028200011968C911197831327C08C91841324C027
:1028300015968C91159781111FC012968D919C91C0
:10284000A091EA04B091EB048A1B9B0B883C910594
:1028500098F48091EE048F7080618093EE04EA54C6
:10286000FB4F80818F708061808388EE94E00E94AE
:1028700093100E94E4040895FB013196E770C0CFE5
:10288000ADE0B0E0E6E4F4E10C9484218C0186E054
:10289000F801DE01189601900D928A95E1F7F80192
:1028A000E080F580A280B380C48088EE882E84E02A
:1028B000982E7090EC04711020C0CC20D9F0FF202D
:1028C00009F419C1C8010E94BE07882309F413C185
:1028D00087E0F801D40101900D928A95E1F7F1E0CB
:1028E000CF1206C08091E8049091E9040E94AF07DE
:1028F0000E94EF13FF24F39451C0D090ED04809117
:10290000EA049091EB049501281B390BDD2009F4B2
:10291000BAC0283C310508F090C0CC2059F3909102
:10292000E904C1808091EE04803108F058C0C912DA
:1029300014C09091E8049E1110C0F1104AC08F702D
:1029400080618093EE0488EE94E00E949310809161
:10295000EE04F8018683F12C21C0F1103AC040E06A
:102960006C2D8E2D0E94BA0A40E06C2D8E2D0E9497
:10297000BA0AF82E8111EFCF888599850E94AF079A
:10298000292F22952F70903470F49F702230A0F080
:102990009923B1F0F8019681903190F48F2D2D9606
:1029A000EDE00C94A0212A5F2F70223068F0C8015E
:1029B0000E949310FD2CF2CF992311F0882371F31C
:1029C000805E883058F3F3CF803F40F3815F8230E0
:1029D000F9CF8091EE0481608093EE04BCCFC912E0
:1029E00007C09091E8049E1103C0FF2009F46CC059
:1029F000C8010E94BE07882309F47DC0FF2009F4A6
:102A00007AC08091EE04803278F02091E804309111
:102A1000E9043A832983BC82AB827D821E828F8344
:102A2000CE0101960E94931087E0F801A8EEB4E071
:102A300001900D928A95E1F75BCF8091EE04803191
:102A400050F488EE94E00E94931087E0F401119214
:102A50008A95E9F780CFCC2009F44CCF2091E90486
:102A600091812913C5CF9091E8049E11C1CFF11037
:102A7000BFCF8683C8010E94931087E0F4011192B2
:102A80008A95E9F737CF283C3105F8F6CC2009F4D0
:102A900031CFFF2081F19091E9048181981321C009
:102AA0008091E8048E111DC08091EE0480FD10C05D
:102AB000803170F08683807F803F39F08681982F47
:102AC000907F905F8F70892B8683C8010E9493103E
:102AD00087E0F801A8EEB4E001900D928A95E1F745
:102AE00009CFC8010E94BE0781119ECF8091EE04DC
:102AF00081608093EE04C8010E949310FBCEABE18D
:102B0000B0E0E5E8F5E10C948E214E8B5F8B688F89
:102B1000798F8A8F9B8F91111092AD041D8A86E068
:102B2000FE017696DE011F9601900D928A95E1F7DF
:102B30008B89882329F061E0CE010F960E948F07D0
:102B400087E0FE013F96DE01189601900D928A956E
:102B5000E1F7CE0108960E94401481112BC087E056
:102B6000FE013896DE01119601900D928A95E1F7EB
:102B70002091AE044091AF048C858823D9F030E0D9
:102B8000C90101968770992750E084179507E9F0ED
:102B900097E0929FD001939FB00D1124A055BB4F99
:102BA000FE01319601900D929A95E1F78093AE0463
:102BB0000E94E40417E08091AF049091AE04891361
:102BC00012C06B96E3E00C94AA210E94CA0B1092EB
:102BD000AE041092AF0487E0E8EEF4E0DF011D924E
:102BE0008A95E9F7E7CF189FC001112480559B4FC4
:102BF0000E944014882329F38091AF0490E001964D
:102C0000877099278093AF04D6CFEDE9F4E08181F6
:102C100021E0438162818F5E0E94B00F0895EDE94B
:102C2000F4E0818121E04381628181510E94B00FF3
:102C30000895EDE9F4E0628121E1620F08F46FEF9D
:102C400021E0438181810E94B00F0895EDE9F4E015
:102C5000628121E1621B08F460E021E0438181810F
:102C60000E94B00F0895EDE9F4E043812CE0420F9B
:102C700008F44FEF21E0628181810E94B00F089536
:102C8000EDE9F4E043812CE0421B08F440E021E050
:102C9000628181810E94B00F0895AB0124E630E08B
:102CA000BC0188E70E94CC209C0181E0232B09F025
:102CB00080E0089580915004882369F080914F044A
:102CC000882349F062E070E08EEA90E00E944D16A1
:102CD000811110924F040895A4E0B0E0E2E7F6E11C
:102CE0000C948F21809150048823F9F00E943E09B2
:102CF000DC01CB01805A9541AF4FBF4F8093510407
:102D000090935204A0935304B093540480914F04C1
:102D100081110BC062E070E08CEA90E00E944D16D9
:102D2000882319F081E080934F042496E2E00C940C
:102D3000AB21CF93DF93282F81E02A3019F02D307B
:102D400031F480E00E941F17DF91CF9108958091A8
:102D5000E4019091E50136E0FC01AFE9B1E00190BA
:102D60000D923A95E1F730EE320F303908F458C041
:102D700026E0FC0111922A95E9F7C091E401D09177
:102D8000E50146E050E0BE018FE991E00E941B2280
:102D90009E01265E3140892B41F1C90145E096959F
:102DA00087954A95E1F741E050E0BA0102C0660F0D
:102DB000771F8A95E2F7CB016091E2017091E30100
:102DC000862B972BB9016B5F7F4FE5E07695679572
:102DD000EA95E1F702C0440F551F6A95E2F7842B8C
:102DE000952B9093E3018093E2012A5F3F4F40913E
:102DF0005504642F70E0C9010E946B21481B4630C6
:102E000010F4240F311D211572E0370710F020E077
:102E100030E02A513E4F3093E5012093E40194CFF6
:102E20002052330B46E0429FB001439F700D1124A6
:102E300060557F4F46E050E00E9412229ECFCF9314
:102E4000382FE091E401F091E501E65EF140209138
:102E50005504622F70E0CF010E946B21281B822F46
:102E6000332361F066E00E94B621C82FC15010F4F0
:102E7000CF91089580E20E949916F8CF9F01280F04
:102E8000311D2115324018F080E0E0E0F0E08E0FB7
:102E90009F2F911D8A519E4F9093E5018093E401ED
:102EA000E7CFCF93DF93C0E8D5E0DC0F8C2FCF5F67
:102EB0000E949916DC13FACFD43911F0CD2FF4CF3C
:102EC00080E00E941F17DF91CF9108950F931F9309
:102ED000CF93DF93EC01FC0101900020E9F78F0113
:102EE00001501109C017D10728F0DF91CF911F9130
:102EF0000F91089589910E949916F4CFCF93DF9393
:102F0000EC01FE018491811103C0DF91CF910895FE
:102F10000E9499162196F5CFA0E1B0E0E2E9F7E131
:102F20000C94802180915004882309F4D1C086EE4E
:102F300091E09093E5018093E4010E945117809104
:102F4000550425E0829FC0011124811532E09307CA
:102F500014F080E090E08A519E4F9093E5018093B9
:102F6000E4018CE295E00E947E1780911B01909114
:102F70001C0154E0969587955A95E1F78F708A3039
:102F800008F0AAC0805D0E94991680911B018F7085
:102F90008A3008F0A3C0805D0E9499168AE295E00D
:102FA0000E947E1781E00E941F1784E295E00E9434
:102FB0007E1780911E018F708A3008F091C0805D6D
:102FC0000E94991682E295E00E947E1780911D0171
:102FD0008F708A3008F086C0805D0E9499168FE15C
:102FE00095E00E947E178FE191E00E9466178DE1C7
:102FF00095E00E947E1781E00E941F1784E395E010
:103000000E947E1781E00E941F178091A9040E94F0
:1030100026041F928F9386E291E09F938F931F92D5
:103020008CE08F938E010F5F1F4F1F930F930E94B1
:103030002822C8010E94661781E00E941F1782E3C0
:1030400095E00E947E1781E00E941F170FB6F8944A
:10305000DEBF0FBECDBF8091E2019091E301892BCD
:10306000A1F080915004882381F080914E04811159
:103070000CC00E946C162091E2013091E30180E0C7
:1030800061E070E02115310581F580914F048823BE
:10309000F9F00E943E096D877E878F87988B80911B
:1030A000510490915204A0915304B09154042D8581
:1030B0003E854F855889281B390B4A0B5B0BDA017B
:1030C000C9018F3F9F4FAF4FBF4710F40E945A1660
:1030D0006096E1E10C949C21895A55CF895A5CCFC6
:1030E000895A6ECF895A79CF8F5F082F10E07B0104
:1030F000082E02C0EE0CFF1C0A94E2F7A70142233F
:103100005323452B89F39091560490FD43C09801B9
:103110003695279536952795922F8295880F80763C
:103120003FE1380F8093030120930601309304019F
:103130009093070124E630E047E050E061E071E061
:1031400088E70E948120892B09F09FCFA80125E004
:10315000440F551F2A95E1F78091560480FD22C047
:103160004A515E4F04E610E020E230E060E488E778
:103170000E941921892B09F088CFE094F094809166
:10318000E2019091E301E822F922F092E301E0925A
:10319000E2017BCF880F880F880F37E0380F20E0DF
:1031A00093E0C0CFE2ECF1E080E2DF011D928A956E
:1031B000E9F7E3E3F1E0FE87ED870FE211E087E353
:1031C000A82E81E0B82E97E0392E44244394AD8593
:1031D000BE858D91BE87AD87F80121918F01240FA7
:1031E000352F311D2A513E4FE82FF0E0EE53FE4FB0
:1031F00080E090E0632C681A742C082E01C0770CD4
:103200000A94EAF76901812CD6019D906D019720FF
:10321000662D6819677070E0B92D062E01C0BB0FCE
:103220000A94EAF75B2E71956195710967707727AB
:1032300001C096946A95EAF759286081562A50820F
:10324000839468E08612E0CF01963196883091052C
:1032500089F68D859E85A816B90609F0B8CF04E6D3
:1032600010E020E230E042EC51E080CF1F921FB628
:103270001F9211248F939F93AF93BF938091580413
:10328000811113C08091BA019091BB01A091BC0142
:10329000B091BD014196A11DB11D8093BA019093DB
:1032A000BB01A093BC01B093BD01BF91AF919F91B1
:1032B0008F911F901FBE1F9018952FB7F894809183
:1032C000BA019091BB01A091BC01B091BD012FBF8B
:1032D0000895A6E0B0E0EFE6F9E10C948D210E949C
:1032E0005D198C0180917F04909180048017910773
:1032F00079F019821A820E945D19BC0149815A81B4
:1033000080E090E00E947F151093800400937F047A
:103310002696E4E00C94A9219C014FB7F894809183
:10332000BA019091BB01A091BC01B091BD014FBF0A
:10333000821B930B0895A8E0B0E0E1EAF9E10C9458
:103340008121CE0101967C0188E0D7011D928A95EA
:10335000E9F73701570128E0C22E21E0D22E44249C
:103360004394512CF60181916F018F3F11F00E941F
:103370000D0400C09CE0892E91E0992EF40100E03C
:1033800010E021912F3FF9F0A22FA295AF70A05E1F
:10339000B0E08C9190E02F7002C0959587952A95AA
:1033A000E2F7817081110FC0D5018D919C91119729
:1033B0009201002E02C0220F331F0A94E2F7822BE3
:1033C000932B8D939C930F5F1F4F05301105C9F60A
:1033D000F601319780818F3F11F00E94F403B0EA2B
:1033E000BA95F1F7E2E0AE0EB11CFCE0CF16F1E0C9
:1033F000DF0609F0B7CFCC24C394D12CD4018D9132
:103400004D018F3F11F00E940D0400C09601002E67
:1034100002C0220F331F0A94E2F7F70168E071E05F
:10342000DB014D91BD014F3FB9F0842F82958F7024
:10343000805E90E0DC018C9190E04F7002C0959529
:1034400087954A95E2F78170811106C0808191814C
:10345000822B932B918380833296B1E06C307B0773
:10346000F9F6F401319780818F3F11F00E94F40347
:10347000E0EAEA95F1F70F5F1F4F0A30110509F0F6
:10348000BDCFE6E4F4E0C701089620E0D3014D91FA
:103490005D913D01619171914617570729F0DF0158
:1034A00012974D935C9321E06816790679F72223F1
:1034B00069F081E080939E010E945D1990939D01C7
:1034C00080939C012896E0E10C949D2180919E01BF
:1034D0008823C1F380919C0190919D010E948C19D9
:1034E000059780F348E050E066E474E08DE594E0F1
:1034F0000E941B22892B49F088E0E6E4F4E0ADE568
:10350000B4E001900D928A95E1F710929E01DACF16
:10351000CDB7DEB76A970FB6F894DEBF0FBECDBF4A
:1035200085B7806885BF85B7806885BF84B7877F8A
:1035300084BF0FB6F894A89580916000886180934D
:103540006000109260000FBE80E890E00FB6F89423
:1035500080936100909361000FBE84EE97E090939A
:103560009301809392010E94090A0E945F0A809150
:10357000E20084608093E200789480915C04882368
:1035800099F08091E9001091EC001795112717959B
:103590008F70182B1092E9008091E80083FD0E9443
:1035A000F60B1F701093E90092E094BD83E085BD97
:1035B0002AEF27BD90936E00E5E7F4E098E0DF0185
:1035C0001D929A95E9F78093740410E060E0812FD2
:1035D0000E94A30861E0812F0E94A3081F5F13309F
:1035E000A9F7EFE8F1E03197F1F700C0000010E033
:1035F00080917404181708F430C20CE011E071E1F6
:10360000E72E71E0F72ED8018D918D018F3F11F0DB
:103610000E94F403E016F106B1F708E011E0F801AA
:1036200081918F018F3F11F00E94F403F1E00C3083
:103630001F07A9F7109247041092460410925E04E7
:1036400010925D0410924904109248041092600494
:1036500010925F0410924B0410924A04109262047C
:103660001092610410924D0410924C041092640464
:103670001092630480E090E00E94D524853E9E4F26
:1036800009F45EC065EE7EEF80E090E00E940925BF
:1036900060E082E090E00E94EB2481E08093A80447
:1036A00061E083E090E00E94EB2460E074E184E05C
:1036B00090E00E94092560E086E090E00E94EB2403
:1036C00060E087E090E00E94EB2440E050E0BA0127
:1036D00088E090E00E94FD2460E083E290E00E9498
:1036E000EB2460E08CE090E00E94EB2460E08DE051
:1036F00090E00E94EB2419821A821B821C821D8298
:103700001E821F82188648E050E067E170E0CE011B
:1037100001960E94DB2440E050E0BA018FE190E086
:103720000E94FD2440E050E0BA018FE090E00E944A
:10373000FD2440E050E0BA0183E190E00E94FD24C6
:1037400082E090E00E94C7248093650484E090E0CA
:103750000E94D5249093AC048093AB0483E090E066
:103760000E94C7240E94380483E08093560480E2BC
:10377000809355040E944B206BE070E086E596E054
:103780000E944D16882389F18091560465E070E00F
:1037900081FD75C181E596E00E944D16882329F1CF
:1037A0006DE070E08FE396E00E944D168823E9F00B
:1037B0000E943E096D8B7E8B8F8B988FDC01CB0135
:1037C000805A9541AF4FBF4F80935104909352045C
:1037D000A0935304B09354040E94790B81E080932A
:1037E000500480934F0410924E048091570481112D
:1037F00097C088E090E00E94CF246B017C0183E2B7
:1038000090E00E94C724282F30E040E050E060E0C4
:1038100070E080E090E000E20E94DC21F22FA32E15
:10382000B42EB52FA62FE72F9701860140E050E078
:10383000BA01FC29A12AB22AB32BA42BE52B862B93
:10384000972BF0939D04A0929E04B0929F04B09396
:10385000A004A093A104E093A2048093A3049093F6
:10386000A404F43008F04CC025E020939D0410928D
:103870009E042FEF20939F0428E72093A00410922A
:10388000A10425E030E04FEF58E760E07E2F0E9472
:10389000560F88E090E00E94CF246B017C0183E208
:1038A00090E00E94C724282F30E040E050E060E024
:1038B00070E080E090E000E20E94DC215901B42F2A
:1038C000A52FF62FE72F9701860140E050E0BA01BF
:1038D000AC28B12AB22BA32BF42BE52B862B972BEC
:1038E000A0929D04B0929E04B0939F04A093A00464
:1038F000F093A104E093A2048093A3049093A40402
:103900000E9472080E94E30880919D0480FF05C018
:1039100060E0869586950E94361081E0809357047A
:1039200081E191E090938204809381045EE6A52E6C
:1039300054E0B52EFF24F39460E4762E3CEFE32EA2
:103940004DEFD42E80915C048530C9F480915C04E5
:10395000853009F497C00E94CA0B0E94E5081092B6
:103960005A0480915904882351F080919D0481600C
:1039700080939D0460E0869586950E9436100E9493
:103980009B1926E6422E24E0522EADE5B4E0BA8F14
:10399000A98FE3E4F1E0FE8BED8BAF018D01F20125
:1039A00021913191D8018D919D918D01DA016D9117
:1039B0007D91AD0186239723AE16BF0609F4CDC0D5
:1039C0002817390769F3C12CE98DFA8D01911191FE
:1039D000FA8FE98FAD89BE898D919D91BE8BAD8B9C
:1039E00008231923F201219031902F01201631066E
:1039F00059F120263126612C88248394912CC10111
:103A000088219921892BB1F06F86C88A0E945D199F
:103A10009A8B898BFB8A91E0980128213921232BED
:103A200009F490E09C8B4F85588969897A898B8944
:103A30000E947F156394880C991CFAE06F12DFCF07
:103A4000F201329711830083C39424E0C212BCCFE9
:103A50000E943E09CC24C39487C060E0812F0E945D
:103A6000C608082F61E0812F0E94C608E12FF0E010
:103A7000EF58FB4F880F802B80831F5FB9CD8CE4FC
:103A800096E08ACE80915C04843009F436C080913F
:103A90005A0481110DC0F0925A0480919D04982F10
:103AA0009170909359048E7F80939D040E948708A3
:103AB0000E945A161092580488E190E00FB6F894CC
:103AC000A895809360000FBE7092600083B7817FDD
:103AD000846083BF83B7816083BF7894889583B700
:103AE0008E7F83BF0FB6F894A8958091600088619F
:103AF00080936000109260000FBE80915B04882369
:103B000009F424CF0E949B19EDE5F4E0A3E4B1E0B1
:103B1000819191912D913D9182239323892B29F4B9
:103B200094E0E536F907A1F711CF80E189BD82E184
:103B300089BD09B400FEFDCF8091D8008F7D8093B0
:103B4000D8008091E00082608093E0008091E000E6
:103B500081FDFCCF0E94CA0BF9CE2817390709F066
:103B600032CF0E946919C12C80917D04882351F0C5
:103B70008091770410927D0480937804809175047D
:103B80008093760400E050C061E0802F0E94C60858
:103B9000882E60E0802F0E94C608880C882AE02FBB
:103BA000F0E09F012F583B4FD9019C91892F8370E2
:103BB0008816C9F1A92FAA0FAA0F8A2F8829D9011F
:103BC0008C93A82FAF70B0E0A55BBE4FE259FB4FBE
:103BD0008C919081890F808382300CF465C0412FD5
:103BE00050E0292D30E0BA016F5F7F4F6370772777
:103BF0002617370781F04B585B4F902F9F77DA01DC
:103C000014969C931F5F1370109377049091750422
:103C10009F5F90937504082E000C990B62E070E092
:103C20000E94C22180830F5F9090780410917704E6
:103C300080917404081708F4A7CF90E0809178046D
:103C400020917704281709F473C0E82FF0E0E758B3
:103C5000FB4F9081192F1F778F5F837080937804BB
:103C6000809176048F5F8093760497FD32C019832C
:103C7000EA820E945D19BC018B839C83F3E0FD8383
:103C8000FE8249815A8183E091E00E947F158FE393
:103C90009CE90197F1F700C000001987EA860E94AD
:103CA0005D19282F83E031C08F3F0CF0B4CF412F36
:103CB00050E0292D30E0BA016F5F7F4F63707727A6
:103CC0002617370709F4A7CF4B585B4F902F906802
:103CD00096CF1983DA820E945D19BC018B839C8385
:103CE000B2E0BD83FE8249815A8182E091E00E9468
:103CF0007F15EFE3FCE93197F1F700C00000198769
:103D0000DA860E945D19282F82E0622F792F2B8797
:103D10009C878D871E8649855A8590E00E947F1575
:103D2000AFE3BCE91197F1F700C0000091E086CF46
:103D3000992339F00E943E090E948C170E946C164C
:103D400004C00E948C17C110F9CF0E94E508909121
:103D50007E04891709F4F6CD80937E040E943E0903
:103D6000EDCD78941F921FB61F9211248F939F93CD
:103D7000AF93BF938091BA019091BB01A091BC0118
:103D8000B091BD010196A11DB11D8093BA01909320
:103D9000BB01A093BC01B093BD01BF91AF919F91B6
:103DA0008F911F901FBE1F9018951F920F920FB6F4
:103DB0000F9211242F933F934F935F936F937F93B1
:103DC0008F939F93AF93BF93EF93FF938091E10005
:103DD00082FF09C08091E20082FF05C08091E1006E
:103DE0008B7F8093E1008091DA0080FF24C0809176
:103DF000D80080FF20C08091DA008E7F8093DA00A7
:103E00008091D90080FF9BC080E189BD82E189BD9E
:103E100009B400FEFDCF81E080935C048091A8018D
:103E2000811109C00E94090A0E945F0A8091E20084
:103E300084608093E2008091E10080FF17C0809150
:103E4000E20080FF13C08091E2008E7F8093E20049
:103E50008091E20080618093E2008091D8008062CE
:103E60008093D80019BC85E080935C048091E100C8
:103E700084FF29C08091E20084FF25C080E189BDD4
:103E800082E189BD09B400FEFDCF8091D8008F7D0D
:103E90008093D8008091E1008F7E8093E100809133
:103EA000E2008F7E8093E2008091E2008160809347
:103EB000E2008091A701882309F447C084E0809341
:103EC0005C0480915C048091E10083FF27C08091B5
:103ED000E20083FF23C08091E100877F8093E100AF
:103EE00082E080935C041092A7018091E1008E7FB4
:103EF0008093E1008091E2008E7F8093E2008091C8
:103F0000E20080618093E20042E060E080E00E9495
:103F1000280A8091F00088608093F000FF91EF9173
:103F2000BF91AF919F918F917F916F915F914F91D1
:103F30003F912F910F900FBE0F901F90189519BCB5
:103F400010925C041092A80176CF8091E30087FF65
:103F500002C083E0B4CF81E0B2CF1F920F920FB6C0
:103F60000F921124FF920F931F932F933F934F9320
:103F70005F936F937F938F939F93AF93BF93CF93F1
:103F8000DF93EF93FF9309EE10E0F8018081C09179
:103F9000EC00C795CC27C7958F70FC2EF82A1082AD
:103FA000C0EFD0E08881877F888378940E94F60BE9
:103FB000F8011082888188608883CF2DCF70C083FC
:103FC000FF91EF91DF91CF91BF91AF919F918F9131
:103FD0007F916F915F914F913F912F911F910F9121
:103FE000FF900F900FBE0F901F901895FF920F93A8
:103FF0001F93CF93DF93182FEB011092BC0084EA3C
:104000008093BC000E945D19082FF92E8091BC009E
:1040100087FF28C08091B900887F883029F080917F
:10402000B900887F8031A1F51093BB0084E88093AC
:10403000BC000E945D19182F092F8091BC0087FFDA
:104040001FC02091B900287F80E090E0283199F0CE
:1040500081E090E0203411F480E090E0919581952A
:10406000910909C0802F9F2D0E948C19C817D9076C
:1040700068F68EEF9FEFCDB7DEB7E5E00C94A82190
:10408000812F902F0E948C19C817D907B0F6F1CF55
:104090008FEF9FEFF0CF1092B9008CE08093B800C3
:1040A00008950F931F93CF93DF93EB018093BB0091
:1040B00084E88093BC000E945D19182F092F80911D
:1040C000BC0087FF11C02091B900287F81E090E0FB
:1040D000283211F480E090E0919581959109DF916B
:1040E000CF911F910F910895CF3FDC0741F3812FAE
:1040F000902F0E948C19C817D90708F78EEF9FEFF1
:10410000EECFA0E0B0E0E7E8F0E20C948421782E56
:104110005B016A0189010E945D194C01043111059E
:1041200060F10F3F100769F1C80164E170E00E947F
:104130006B21F62EE72E6F2D7E2D872D0E94F61F08
:10414000EC0197FF09C00F3F1007A9F3C4010E94BB
:104150008C190817190778F77501CA0CDB1CEC14C9
:10416000FD0411F0D7FF10C084E98093BC00CE019C
:10417000CDB7DEB7EDE00C94A021FF24F394E12C41
:10418000DACF85E0F82EFBCFB801F70181917F01EE
:104190000E945120EC01E3CFA0E0B0E0E2EDF0E2BC
:1041A0000C948421782E5B016A0189010E945D19BB
:1041B0004C010431110560F10F3F100769F1C8018E
:1041C00064E170E00E946B21F62EE72E6F2D7E2DAC
:1041D000872D0E94F61FEC0197FF09C00F3F1007C3
:1041E000A9F3C4010E948C190817190778F7750103
:1041F000CA0CDB1CEC14FD0411F0D7FF10C084E9DD
:104200008093BC00CE01CDB7DEB7EDE00C94A021C9
:10421000FF24F394E12CDACF85E0F82EFBCFF701F1
:104220008491B8010E945120EC01FFEFEF1AFF0AC0
:10423000E1CFA0E0B0E0EFE1F1E20C948321682E41
:10424000962E5A01690178010E945D19782E892EF7
:104250000431110530F10F3F100731F1C80164E15D
:1042600070E00E946B21162F072F612F702F862D73
:104270000E94F61FEC0197FF19C0FFEFEF16FF0633
:10428000A1F3872D982D0E948C19E816F90668F77E
:1042900084E98093BC00CE01CDB7DEB7EEE00C948C
:1042A0009F2111E000E0E1CF15E0FCCFB701892D9F
:1042B0000E945120EC018501CA0CDB1C0C151D0568
:1042C00039F3D7FDE5CFB701F80181918F010E9445
:1042D0005120EC01F3CFAA1BBB1B51E107C0AA1F61
:1042E000BB1FA617B70710F0A61BB70B881F991F97
:1042F0005A95A9F780959095BC01CD0108952F920C
:104300003F924F925F926F927F928F929F92AF9265
:10431000BF92CF92DF92EF92FF920F931F93CF93B2
:10432000DF93CDB7DEB7CA1BDB0B0FB6F894DEBF49
:104330000FBECDBF09942A88398848885F846E846F
:104340007D848C849B84AA84B984C884DF80EE80B9
:10435000FD800C811B81AA81B981CE0FD11D0FB6C2
:10436000F894DEBF0FBECDBFED010895991B79E033
:1043700004C0991F961708F0961B881F7A95C9F7F5
:104380008095089597FB072E16F4009407D077FDCB
:1043900009D00E946B2107FC05D03EF490958195D1
:1043A0009F4F0895709561957F4F0895EE0FFF1F01
:1043B0000590F491E02D0994002E083090F0982F8C
:1043C000872F762F652F542F432F322F2227085007
:1043D000F4CF220F331F441F551F661F771F881FFE
:1043E000991F0A95B2F7002D089597FD1094002E9D
:1043F000083098F00850232F342F452F562F672F61
:10440000782F892F912DF4CF1594979587957795CF
:10441000679557954795379527950A95AAF71124DB
:10442000002D0895FB01DC0102C005900D92415062
:104430005040D8F70895FB01DC0104C08D91019034
:10444000801921F441505040C8F7881B990B0895FA
:10445000AEE0B0E0EEE2F2E20C948D210D891E890F
:104460008F89988D26E02C831A83098397FF02C0D9
:1044700080E090E801979E838D83AE01455E5F4F9B
:10448000698D7A8DCE0101960E9458224D815E8100
:1044900057FD0AC02F813885421753070CF49A0143
:1044A000020F131FF80110822E96E4E00C94A9214C
:1044B000ABE0B0E0EEE5F2E20C947F217C013B0141
:1044C0008A01FC0117821682838181FFB9C19AE0BB
:1044D000292ECE0101965C01F7019381F30193FD32
:1044E000859193FF81913F01882309F446C185326C
:1044F00039F493FD859193FF81913F01853229F431
:10450000B70190E00E943924E7CF912C412C512C27
:10451000FFE1F51538F08B3209F188F4803201F1B2
:10452000833221F157FC3AC020ED280F2A3040F5A4
:1045300056FE1FC0929C200D1124922E06C08D3273
:1045400091F0803379F7689450F8F30193FD8591E9
:1045500093FF81913F018111DBCF20C0689451F816
:10456000689452F8F2CF689453F8EFCF689454F8F7
:10457000ECCF429C200D1124422E689455F8E5CFD3
:104580008E3229F456FCF9C0689456F8DECF8C368A
:1045900019F4689457F8D9CF8836B9F2982F9F7DCF
:1045A00095549330C0F08336A1F18337C1F1833540
:1045B00009F05BC0F801C190D1908F01692D70E0C6
:1045C00056FC02C06FEF7FEFC6010E9423244C010E
:1045D000689457F80AC00C5F1F4F2FE32983882483
:1045E0008394912C6501E89457F853FC04C0481457
:1045F000190409F018F5342C8114910431F5332095
:1046000009F46ACFB70180E290E00E9439243A941D
:10461000F6CFF801808189830E5F1F4FE0CFF8014C
:10462000C190D1908F01692D70E056FC02C06FEFF0
:104630007FEFC6010E942E244C01D5CFB70180E246
:1046400090E00E9439244A94D2CFF60157FC85911C
:1046500057FE81916F01B70190E00E94392431101B
:104660003A94F1E08F1A9108C7CF843619F0893651
:1046700009F074C0F80157FE6AC06191719181918F
:1046800091918F01252D2F76D22E97FF09C09095FD
:104690008095709561957F4F8F4F9F4F6894D7F8A5
:1046A0002AE030E0A5010E946924C82ECA188C2C8B
:1046B0005D2CD6FE0CC0E89450F8C91440F4D4FE2A
:1046C00005C0D2FC03C0FD2DFE7E5F2E892C54FE5A
:1046D0008FC0FE01EC0DF11D8081803309F081C097
:1046E000252D297E522E852D8870382E53FC8FC0A3
:1046F00050FE89C09C2C841418F44C0C942C9818EF
:1047000054FE8BC0B70180E390E00E94392452FE32
:1047100009C088E790E051FE02C088E590E0B7014B
:104720000E943924C91408F484C0CA94D12C9FEF84
:10473000C91AD90ACA0CDB1CF60182916F01B701B4
:1047400090E00E943924AC14BD04B1F758CF6191B8
:104750007191072E000C880B990B93CFD52CE89400
:10476000D4F82AE030E0853739F1952D997FD92E9C
:104770008F3601F148F48835A9F0F70186819781D9
:104780002B96E2E10C949B21803749F08837A9F7FA
:10479000D4FE02C06894D2F820E130E00DC06894E5
:1047A000D4F8F6CF54FE03C0E92FE660DE2E20E1F8
:1047B00032E002C028E030E0F801D7FE0DC0619180
:1047C0007191819191918F01A5010E946924C82E58
:1047D000CA18E894D7F86BCF6191719190E080E0AE
:1047E000F2CF52FC02C083947ECF839483947BCF1C
:1047F000852D867809F477CFF6CFB70180E290E077
:104800000E94392483948414C0F3312C79CF342C42
:104810003818841408F474CFF8CF852D867809F4FD
:1048200081CF8BE251FE80E257FC8DE2B70190E030
:1048300077CFB70180E390E00E9439249A9472CF39
:104840008FEF9FEF9DCFFC010590615070400110EC
:10485000D8F7809590958E0F9F1F0895FC016150A9
:10486000704001900110D8F7809590958E0F9F1F92
:1048700008950F931F93CF93DF93182F092FEB0108
:104880008B8181FD09C01FEF0FEF812F902FDF91EA
:10489000CF911F910F91089582FF14C02E813F8107
:1048A0008C819D81281739073CF4E881F981CF017B
:1048B00001969983888310838E819F8101969F83BF
:1048C0008E83E3CFE885F985812F0995892BA1F3A4
:1048D000DACFFA01AA27283051F1203181F1E8948A
:1048E0006F936E7F6E5F7F4F8F4F9F4FAF4FB1E0E3
:1048F0003ED0B4E03CD0670F781F891F9A1FA11DDE
:10490000680F791F8A1F911DA11D6A0F711D811DDE
:10491000911DA11D20D009F468943F912AE0269FA3
:1049200011243019305D3193DEF6CF010895462F02
:104930004770405D4193B3E00FD0C9F7F6CF462FE3
:104940004F70405D4A3318F0495D31FD405241934C
:1049500002D0A9F7EACFB4E0A69597958795779509
:104960006795BA95C9F700976105710508959B0190
:10497000AC010A2E06945795479537952795BA9519
:10498000C9F7620F731F841F951FA01D0895F99921
:10499000FECF92BD81BDF89A992780B50895A6E112
:1049A000B0E044E050E00C941125A8E1B0E042E012
:1049B00050E00C941125DC01A40FB51F415050406C
:1049C00048F0CB01840F951F2E910E94EC2441509A
:1049D0005040D0F70895262FF999FECF92BD81BDA2
:1049E000F89A019700B4021639F01FBA20BD0FB62D
:1049F000F894FA9AF99A0FBE08950396272F0E9409
:104A0000EC240E94EB24252F0E94EC24242F0C94EC
:104A1000EC240196272F0E94EC240C94EB24DC015B
:104A2000CB01FC01F999FECF06C0F2BDE1BDF89AB9
:104A3000319600B40D9241505040B8F70895F89463
:104A4000FFCFD30CF90CFF0CF90CFF0C520D740DB9
:104A5000FF0C720E7F0E7811B011B711BC11C1118D
:104A6000C611CB11D011D511DA11DF11E411921159
:104A700092119211921192119211E71192119211C9
:104A8000010021007F22000392946697F4F5F6F767
:104A9000315B09440B5E095F095B0B000000005F9E
:104AA0005F5F5F5F0000256400C635323436330037
:104AB0000810181810080000010202020202020287
:104AC000020202EF03EE03EF03EF0300FF01000118
:104AD0000000FFFF0000010001FF00E200E900EA22
:104AE00000B500B600B700CD008301CC008A01926A
:104AF0000194012102230224022502260227022A10
:104B000002B300B4006F0070009F01CB019F02A0B0
:024B10000200A1
:00000001FF
