:100000000C947A030C9497030C9497030C94970325
:100010000C9497030C9497030C9497030C949703F8
:100020000C9497030C9497030C94241F0C94FC1FBE
:100030000C942A130C9497030C9497030C94970335
:100040000C9497030C9497030C9497030C949703C8
:100050000C9497030C94001F0C9497030C94970333
:100060000C9497030C9497030C9497030C949703A8
:100070000C9497030C9497030C9497030C94970398
:100080000C9497030C9497030C9497030C94970388
:100090000C9497030C9497030C9497030C94970378
:1000A0000C9497030C9497030C94970300AF00AE45
:1000B00000000000000000002F0000000007000703
:1000C0000000123F123F1200242A7F2A1200360934
:1000D0001E241B001826291228000000070000001B
:1000E000001E214000000040211E000014083E08B0
:1000F000140008083E0808000000307000000808DE
:100100000808080000003030000020100C02010038
:100110001E2925231E0000223F200000223129290C
:100120002600122125251A001814123F1000172549
:10013000252518001E252525180001310905030075
:100140001A2525251A00062929291E000000333307
:10015000000000003373000008141422220014145D
:1001600014141400222214140800020129050200AC
:100170003E59555D3E003816111638003F2525259D
:100180001A001E21212112003F2121211E003F259E
:10019000252521003F09090901001E2121291A00F6
:1001A0003F0404043F0000213F21000010202020D4
:1001B0001F003F040C1221003F20202020003F029E
:1001C00004023F003F020C103F001E2121211E00AF
:1001D0003F09090906001E2129112E003F090919AE
:1001E000260012252529120001013F0101001F20D0
:1001F00020201F000718201807000F300C300F00B8
:1002000021120C1221000304380403003129252394
:100210002100007F4141000001020C10200000413C
:10022000417F0000040201020400404040404000C1
:10023000000103040000102A2A2A3C003F24222245
:100240001C001C22222224001C2222243F001C2AE3
:100250002A2A0C0000043E0505000C5252543E00B0
:100260003F080404380000003D0000002040403DED
:1002700000003F080814220000013F2000003E0259
:100280003C023C003E0402023C001C2222221C00D4
:100290007E1422221C001C2222147E003E04020234
:1002A0000400242A2A2A120000021F2200001E2015
:1002B00020103E000618201806000E300C300E00EC
:1002C0002214081422000E5050483E0022322A26E2
:1002D000220008087741410000007F0000004141F2
:1002E00077080800180408100C0000000000000047
:1002F0000000381C0CCCCCCCFC3800180C8CCC7C0E
:1003000038000080C0404040404040C0800000C0F5
:1003100047CF4C4C4C4C4743404E4F49484848C04F
:1003200040FF0001FD0101FD0100FF0000FF007F13
:10033000808080808080808080808080807F00FFBF
:100340000000FF0000FF0000FF00000F0A0908087E
:100350000808080808080808080808090A0D02041F
:100360000404040404020100000000000000000076
:10037000000000000000000000000000000000007D
:10038000000000000000000000000000000000006D
:10039000000000000000000000000000000000005D
:1003A000000000000000000000000000000000004D
:1003B000000000000000000000000000000000003D
:1003C000000000000000000000000000000000002D
:1003D000000000000000000000000000000000001D
:1003E000000000000000000000000000000000000D
:1003F00000000000000000000000000000000000FD
:1004000000000000000000000000000000000000EC
:1004100005010980A101850319012AB700150126EC
:10042000B700950175108100C0050C0901A1018577
:100430000419012AA002150126A002950175108158
:1004400000C005010906A101050719E029E715000B
:10045000250195087501810295017508810105073F
:10046000190029FF150026FF009506750881000573
:1004700008190129051500250195057501910295B9
:100480000175039101C009023B00020100A0FA09B5
:1004900004000001030101000921110100012244AF
:1004A00000070581030800010904010001030000A1
:1004B00000092111010001223200070582032000FA
:1004C0000112010002000000083288328800010198
:1004D000020001200366007200650065006100648F
:1004E0000072007300330032005F006B006E006F1B
:1004F00000620000002203540061006B006100688C
:1005000000690072006F0020004E006100740073EB
:100510000075006D00650000000403090420002040
:100520002000200052204320200020004B6579202D
:10053000200020004C6179657200FFAA7F554000C1
:100540000101010101010101010202020202020294
:100550000202030303030303030304040404040467
:10056000040505050505060606060607070707072D
:1005700008080808090909090A0A0A0B0B0B0C0CE0
:100580000C0D0D0D0E0E0E0F0F0F1010111111127C
:100590001213131414151516161717181819191AFB
:1005A0001A1B1B1C1D1D1E1E1F202021222223245E
:1005B00024252626272829292A2B2C2D2D2E2F309D
:1005C000313232333435363738393A3B3C3D3E3FB1
:1005D000404142434445464748494A4C4D4E4F509E
:1005E000515354555658595A5B5D5E5F616264655C
:1005F0006668696B6C6D6F7072737577787A7B7DE6
:100600007E8082838587888A8C8E8F919395969839
:100610009A9C9EA0A2A3A5A7A9ABADAFB1B3B5B755
:10062000BABCBEC0C2C4C6C9CBCDCFD1D4D6D8DB2C
:10063000DDDFE2E4E7E9EBEEF0F3F5F8FAFDFF00C9
:10064000DA0281FFD9F1DB20A4A62EAF00A0C0D32F
:100650000000A1C8D30000AED580A81F408D142093
:1006600000000429001E001F0020000000210022BD
:1006700000230024002500000014001A00080000D8
:1006800000150017001C0018000C001E00E10004FB
:100690000016000000070009000A000B000D001EF4
:1006A00000E2001D001B00000006001900050011FB
:1006B0000028004E004B00510052004F00500061D6
:1006C00062636465666768696A6B6C6D6E6F707192
:1006D00072737475767778797A3132333435363788
:1006E000383930524542545F2D3D5B5D5C233B27DA
:1006F000602C2E2F11241FBECFEFDAE0DEBFCDBF5E
:1007000011E0A0E0B1E0EAEFF5E402C005900D923F
:10071000AA39B107D9F725E0AAE9B1E001C01D92D5
:10072000A030B207E1F70E94761A0C94DC220C94F8
:100730000000F894E82FE295EF70F0E041A18F708F
:1007400021E030E0B90102C0660F771F8A95E2F719
:10075000CB01962F9095942391A392A1892B82A3EC
:1007600078940895F894E82FE295EF70F0E041A1B5
:100770008F7021E030E0B90102C0660F771F8A95C3
:10078000E2F7CB01942F982B91A392A18095892316
:1007900082A378940895982F82958F70882311F002
:1007A000982F84E0292F26952695222311F08E5F1D
:1007B000922F969591118F5F08958093B9040895B3
:1007C0008093BA04089521E030E001C0220F8A9599
:1007D000EAF78091BA04822B0E94E003089521E099
:1007E00030E0A90102C0440F551F8A95E2F7CA0103
:1007F00080959091BA0489230E94E00308959B019B
:10080000677091E001C0990F6A95EAF763E0369549
:1008100027956A95E1F7B901660F771F260F371FF5
:10082000FA01E20FF31F40E050E0682F70E0819181
:10083000DF0111979B01042E02C0369527950A947B
:10084000E2F7217021952827292328272C934F5F31
:100850005F4F4330510559F708959C01A82FA770A9
:1008600083E0369527958A95E1F7C901880F991F8E
:10087000820F931FFB01E80FF91F40E050E080E07A
:10088000219130E00A2E02C0369527950A94E2F7AE
:1008900021703327042E01C0220F0A94EAF7822B1D
:1008A0004F5F5F4F4330510559F70895282F862F2A
:1008B000943070F42A3058F4622F70E02AE0929F4E
:1008C000600D711D11244DE954E00E94FF0308954D
:1008D0009C5F9230E0F7622F70E04AE954E0F5CF78
:1008E000292F943068F48A3090F490E06DE974E038
:1008F0003AE0239F800D911D11240E942D0408953C
:100900002C5F223020F46AE974E090E0F6CF80E0BA
:1009100008958091C0049091BF04981301C0089578
:100920008F5F8770FACF9091BB0480958923809365
:10093000BB04282F277021110DC0891759F0909101
:10094000BD0492FF07C08695869586950E94EF03A9
:100950001092BB040895982F90958091B604892336
:100960008093B6040895E62F743088F46A3048F511
:1009700081112AC0F0E08AE0789FE00DF11D11247A
:10098000EE0FFF1FED59F94F8591949108957D3F2A
:1009900059F46330B0F4811117C084E0689FF0010E
:1009A0001124ED54F94FF0CF7C3F59F4633048F4F3
:1009B00081110AC084E0689FF0011124EB54F94FC3
:1009C000E3CF80E090E0089581E0FCCF803E910588
:1009D000D1F1C8F48133910509F47FC048F489321C
:1009E000910509F46FC08A32910509F47DC008951C
:1009F00089339105E1F082389105C9F0853391057D
:100A000009F45BC00895843E9105D1F148F4823E1B
:100A1000910531F1833E910541F181EE90E0089519
:100A2000863E9105C1F1873E9105E1F1089520913F
:100A3000BC042370211165C02091BD0423FF14C0A4
:100A400089E290E008952091BC0420FD43C03091DC
:100A5000BD0430FF09C024FF4EC080E090E008953F
:100A60002091BC0422FDF7CF08952091BC0422FD03
:100A700045C03091BD0430FD44C024FFF5CFEDCF1B
:100A80002091BD0421FFF0CF8091BC0484FDE5CF0F
:100A900087EE90E008952091BC0423FFE5CF24FD6C
:100AA000DCCFF6CF2091BC0423FD2EC03091BD04D5
:100AB00031FFE3CF84EE90E008952091BC0425FF40
:100AC000D3CFBECF2091BC0425FD21C02091BD0411
:100AD00023FFCACF89E390E008952091BC0426FF4C
:100AE000C3CF8AE290E008952091BC0426FFBCCFDA
:100AF00081E390E0089583EE90E0089582EE90E027
:100B0000089580EE90E0089586EE90E0089585E3E4
:100B100090E0AACF9091BC0492FF10C041E0282F32
:100B20002471243009F040E031E0282F287128306A
:100B300009F030E0431711F02CE0822793FF10C03A
:100B400041E0282F2471243109F040E031E0282FC2
:100B50002871283109F030E0431711F02CE082278A
:100B60003091BD0430FF10C051E0282F2171213099
:100B700009F050E041E0282F2871283009F040E0CA
:100B8000541711F029E0822731FF10C041E0282FCF
:100B90002171213109F040E031E0282F28712831FE
:100BA00009F030E0431711F029E0822794FD877E99
:100BB00008951F93CF93DF930E94E604EC01811503
:100BC00022E5920708F053C0811540E5940708F02C
:100BD000DDC0803E9105F8F48D3C910508F0AEC073
:100BE000883A910580F4853A910508F099C08130E2
:100BF000910521F00497813A910550F4CE01DF91DF
:100C0000CF911F910895885A91094B9708F48BC092
:100C1000C0E0D0E0F3CF811550E49507F8F4C1159A
:100C200080E2D80708F0CBC0C83ED10538F3CE012A
:100C30009A9581159F4160F78D2F0E948A05182F84
:100C4000CE0199270E94E604212F30E0322F22277F
:100C5000E901CC27DF71C82BD92BD0CF99270E946F
:100C6000E604CC27DF70C82BD92BD06AC7CF8038D9
:100C700042E59407C8F5803652E5950708F067C04D
:100C8000C03482E5D807B0F08C2F869586958770A2
:100C900020E2829FC0011124C37021E030E0A9014D
:100CA00002C0440F551FCA95E2F7EA01C82BD92BA1
:100CB000DC68A4CFC03252E5D50708F041C08C2FC4
:100CC0008695869520E2829FC0011124C37021E0A1
:100CD00030E0A90102C0440F551FCA95E2F7EA01AE
:100CE000C82BD92BDD688ACF803C52E5950760F48C
:100CF0008F71C03AD24508F03FC090E0982F882706
:100D0000EC01C46FD06A7ACF805C9245809708F07E
:100D10007FCFDC2FCC27CC27DF71C06FD06A6ECF9E
:100D2000A497D0646BCFC85AD0E0CC0FDD1FCC594C
:100D3000DE4F0990D881C02DD46460CFD0655ECFDE
:100D4000CF71D0E0DC2FCC27C16FD06A57CF86950A
:100D50008695877020E2829FC0011124C37021E034
:100D600030E0A90102C0440F551FCA95E2F7EA011D
:100D7000C82BD92BDA6842CF0E948A05C82FD0E051
:100D8000DC2FCC27CC27DF71D06238CF8F710E9447
:100D90008A0565E0D695C7956A95E1F7CF70D0E0F2
:100DA000DC2FCC27282F30E084FF05C054E0220F31
:100DB000331F5A95E1F7C22BD32BD0691FCF8D2F4C
:100DC0008F710E948A05182FCE0199270E94E60490
:100DD000212F30E0322F222722273F71282B392B59
:100DE000E901D2CFA0E0B0E0E8EFF6E00C94D92121
:100DF0007C010091BA048091B904082BC7E0D0E0CF
:100E000010E0C8010C2E02C0959587950A94E2F770
:100E100080FD09C02197A8F7D12C8D2DCDB7DEB765
:100E2000E7E00C94F521DC2EB7018C2F0E94B3046F
:100E30000E94D905019771F3F0CF0F931F93CF93C1
:100E4000FC01858100811181882391F0662381F066
:100E5000C8010E94F206C82F682FC8010E945604DC
:100E6000B8018C2F0E94B304CF911F910F91089568
:100E7000C8010E947004C82FF3CFCF93DF93D82FFF
:100E8000C92F0E94F2066D2F7C2F0E94B3040E948E
:100E9000D905DF91CF910895FC0184818823A1F0C9
:100EA000808191810E943D07282F92959F709630F6
:100EB00091F060F4925F9F70923030F481E0203FB7
:100EC00079F030F4283E30F080E004C09A5FF3CF30
:100ED000243FD1F7089581E0283E18F0213FF9CF53
:100EE0000895089580E008950895A0E0B0E0EBE74C
:100EF000F7E00C94D621E901E42FF0E0E15CFA4F31
:100F000061110BC0E4919E2F8E2F8983E8839A8311
:100F1000CDB7DEB7EAE00C94F221282F30E0062F9F
:100F200010E0F491EF2F86E0829F6001839FD00C48
:100F30001124EE24EA94F12CC601B7010E94BA21D3
:100F4000220F331F45E5469FC001479F900D112496
:100F5000281B390B822F880F280FC701801B910B8C
:100F6000F89FA001F99F500D1124952F209F50014B
:100F7000219FB00C1124AB2CBB24D701AA19BB09AB
:100F80005D01FA9DD001FB9DB00D11248B2F5701FF
:100F9000A21AB1089501209F5001219FB00C309FEB
:100FA000B00C1124AB2CBB24EA18FB08FE9D900169
:100FB000FF9D300D112463307105C9F01CEFC1167F
:100FC00013E0D10650F46130710509F49ECF623010
:100FD000710589F08E2FE32F98CF6430710571F081
:100FE00066307105B9F3E52F9B2F8F2F8ECFEB2F36
:100FF000852F9F2F8ACF852F932F87CF832FE52F84
:10100000F8CF8091AE04843060F483708460809364
:10101000AE048091B104893718F088E78093B10459
:1010200008958433B0F383708063F1CF8091AE0470
:1010300080FD0AC0EBEEF1E011821082128233963D
:1010400082E0EB34F807C1F760E270E08BEE91E0EC
:101050000E94B30A08959091AE0490FF0CC0EBEE8D
:10106000F1E0818360834283339692E0EB34F907A9
:10107000C1F70E9416080895A3E0B0E0E2E4F8E0AA
:101080000C94DC218C018091EA0181110AC09E013F
:101090002F5F3F4F48E76FEF0E9475078A8180936B
:1010A000EA01F8016481613049F06230D1F0809149
:1010B000EA0140E0662331F040E015C06091EA01AA
:1010C00040E080E00E942B08F801848190E00196C6
:1010D00063E070E00E94112284832396E4E00C9484
:1010E000F8214091EA0180E060E0ECCFFA0188232A
:1010F00011F009950895FB01FCCF90E06623E9F01B
:101100008C5C9E4FFC0180818F3FB1F0E82FE2950F
:10111000EF70F0E041A18F7021E030E0B90102C032
:10112000660F771F8A95E2F7CB01962F909594234F
:1011300091A392A1892B82A308958F5C9E4FE2CF49
:1011400090E06623A9F08C5C9E4FFC0120812F3F2C
:1011500091F0E22FE295EF70E05EF0E0808190E0A8
:101160002F7002C0959587952A95E2F781700895B2
:101170008F5C9E4FEACF80E00895539A0895E091E6
:101180009004F0919104309729F00190F081E02DC6
:101190000995089580E00895A3E0B0E0E2EDF8E05D
:1011A0000C94DE219C018091C8019091C9018217A5
:1011B0009307A1F03093C9012093C801E0919004F6
:1011C000F0919104309751F083E089833B832A8327
:1011D0000084F185E02DCE01019609952396E2E089
:1011E0000C94FA21A3E0B0E0E8EFF8E00C94DE21E3
:1011F0009C018091C6019091C70182179307A1F0CD
:101200003093C7012093C601E0919004F0919104BE
:10121000309751F084E089833B832A830084F185F1
:10122000E02DCE01019609952396E2E00C94FA2177
:10123000A4E0B0E0EEE1F9E00C94DE218FB7F89481
:101240002091C2013091C3014091C4015091C50168
:1012500029833A834B835C838FBF69817A818B8139
:101260009C812496E2E00C94FA218091C1010895BA
:1012700008950895FC019B018091B7019091B801F8
:101280008617970740F0672B29F48091E8008E7746
:101290008093E800C90140E0009741F4411106C085
:1012A0008091E80082FF2FC080E0089520916504BE
:1012B0002223A9F12530A9F12091E80023FD2DC0BA
:1012C0002091E80022FDECCF2091E80020FFE4CF40
:1012D0003091F3002091F200009719F02830310589
:1012E00058F041E02830310509F040E02091E80055
:1012F0002E772093E800D0CF41914093F1000197E1
:101300002F5F3F4FE9CF80916504882341F08530FE
:1013100041F08091E80083FFC3CF81E0089582E02F
:10132000089583E008958091B10187FF13C08091F3
:10133000E80082FF06C08091E8008B778093E80088
:1013400004C0809165048111F2CF089580916504F5
:101350008823D9F38091E80080FFF8CF8091E800DE
:101360008E77ECCF2091E4003091E50095E6A9015D
:101370008091EC008170882331F08091E80080FF3B
:1013800006C080E008952091E80022FD1BC08091F6
:101390006504882391F0853091F08091EB0085FD04
:1013A00010C02091E4003091E5004217530701F38B
:1013B00091509111DCCF84E0089582E0089583E09C
:1013C000089581E00895E8EDF0E080818E7F8083CC
:1013D0001092E2001092DA001092E100A0EEB0E06C
:1013E0008C9181608C9380818F77808319BCA7ED6D
:1013F000B0E08C918E7F8C9380818F7E8083109261
:10140000B0010895982FE42FE2709093E9008913BA
:1014100008C0762F242F50E0E11111C091E0980F01
:10142000F4CF7091EC002091ED005091F00021FD7F
:1014300006C09F5F973049F78093E9000895309187
:10144000EB003E7F3093EB003091ED003D7F309319
:10145000ED003091EB0031603093EB007093EC00C5
:101460002093ED005093F0002091EE0027FDE1CF96
:101470000895A0E0B0E0EFE3FAE00C94D821C8EDC5
:10148000D0E088818F7E8883E7EDF0E08081816005
:10149000808384E082BF81E08093B00188818E7F69
:1014A000888302EE10E0F80110821092DA0081EEDB
:1014B000C82ED12CF601108288818F77888388818D
:1014C0008068888388818F7D888319BC1092650429
:1014D0001092AF01109264041092AE0190EEE92ECA
:1014E000F12CF70180818B7F8083888181608883E4
:1014F00042E060E080E00E94020AF60180818E7F77
:101500008083F8018081816080838081886080830E
:10151000F70180818E7F8083888180618883CDB749
:10152000DEB7E8E00C94F421E091C0049091BF0490
:1015300027E0E91302C080E00895AE2FB0E02E9FAF
:10154000F0011124EF53FB4F3181361306C0308177
:10155000381303C03581341304C0FD013196E770A0
:10156000E8CF81E008959C01AB016BB1677F7BB14F
:101570007860EFB7F894CA01880F991F840F951F00
:10158000820F931F8217930741F4EFBF8FE594E01A
:101590000197F1F700C000000895D9014D919D0118
:1015A00058E07BB9000000C047FF6BB9440F000052
:1015B00000C000C000C06BB900C05A9591F7E2CFDF
:1015C0000F931F93CF93DF93EB018A0190916504F2
:1015D000943079F58093E9008FEF9091E80095FDC4
:1015E00007C095ED9A95F1F7000081508111F5CF74
:1015F0008091E80085FF1DC00E94B209811114C0CE
:101600008091E80085FD06C08091E8008E77809388
:10161000E800F2CF88818093F10001501109011593
:10162000110511F02196ECCF8091E8008E77809320
:10163000E800DF91CF911F910F910895CF93DF9331
:10164000D82FC92F48E050E0682F792F81E00E9401
:10165000E00A88E0ED2FFC2FA9EBB1E001900D929C
:101660008A95E1F7DF91CF910895BC0143E050E006
:1016700082E00E94E00A08959091BD0492FB222727
:1016800020F9281779F080FB92F99093BD046091BE
:10169000BC047091BD0484E090E00E94C62282E008
:1016A0000E94930408958091B6049091BE04892B02
:1016B0004091B704442389F090E02EE931E0F9012C
:1016C00050812F5F3F4F51119F5F51E0243A350702
:1016D000B1F791111092B704842B80939C0148E0DC
:1016E00050E062E974E08CE991E00E947722892B56
:1016F000A9F088E0ECE9F1E0A2E9B4E001900D92F4
:101700008A95E1F7E0919004F0919104309731F0DF
:101710000280F381E02D8CE991E009950895109203
:10172000B604EEE9F1E086E0DF011D928A95E9F763
:1017300080E090E00E94CC0880E090E00E94F208F7
:101740001092BE040E94530B08950E948F0B2FEF3E
:1017500084E39CE0215080409040E1F700C000000D
:1017600088E19AE00FB6F894A895809360000FBEC8
:1017700090936000FFCFAAE2B0E0E1ECFBE00C94B4
:10178000DD2181EB91E0FC0101962091F1002083A5
:1017900021E0893B9207B9F78091B201893009F4C1
:1017A00056C0C8F4823009F4B2C0833009F481C055
:1017B000813071F18091E80083FFE6C08091B10132
:1017C0009091B2019A3008F0DFC0E92FF0E0E252C8
:1017D000FD4D0C9425228A3009F488C08B3051F7D6
:1017E0008091B101813231F78091B5019091B601BC
:1017F000892B01F78091E800877F8093E8000E94A1
:1018000093098091B301809300010E948F0BD2CF86
:101810008091B101813A71F68091E800877F8093D1
:10182000E8008091B5019091B601892B61F060E0EC
:1018300080E090E070E00E943A098091E8008B77A8
:101840008093E800B7CF68E089EB91E0F3CF809117
:10185000B101813209F0AECF8091B5019091B6010E
:10186000029708F0A7CF8091E800877F8093E80077
:101870008091E80082FF18C09091F3008091F200FF
:10188000029731F48091F100813011F0863021F41B
:101890008091F1008093C1018091E8008B77809363
:1018A000E8000E94930986CF809165048111E0CF02
:1018B00081CF8091B101813A09F07CCF8091B5014F
:1018C0009091B601892B09F075CF8091E800877F50
:1018D0008093E8008091E80080FFFCCF80910001B8
:1018E0008093F1008091E8008E77D9CF8091B1018B
:1018F000813209F05FCF8091E800877F8093E80014
:101900000E9493098091B4018093AD0153CF8091DF
:10191000B101813A09F04ECF8091E800877F809332
:10192000E8008091E80080FFFCCF8091AD01D8CF26
:10193000803889F0823841F58091B5018F70873009
:1019400018F58093E9008091EB0085FB882780F9EA
:101950001092E90006C08091AE019091640491114B
:1019600082609091E800977F9093E8008093F10067
:101970001092F1008091E8008E7723C0811116C08B
:101980008091B301813011F18091E80083FF0AC09A
:101990008091E800877F8093E8008091EB0080626F
:1019A0008093EB00AA96E3E00C94F921823061F772
:1019B0008091B301882389F01092E9008091E800BA
:1019C000877F8093E8000E949309DECF81E0933007
:1019D00009F080E080936404EFCF8091B5018F70AF
:1019E0002FEF280F263080F68093E9002091EB003E
:1019F00020FFE2CF933031F48091EB00806280933E
:101A0000EB00DACF9091EB0090619093EB0021E036
:101A100030E0A90102C0440F551F8A95E2F74093B8
:101A2000EA001092EA008091EB008860E8CF811113
:101A3000ABCF1091B3011F778091E3008078812BA9
:101A40008093E3008091E800877F8093E8000E9404
:101A500093098091E80080FFFCCF8091E3008068CB
:101A60008093E30083E0111101C082E0809365045C
:101A70008BCF8058823008F087CF4091B3015091CE
:101A8000B4014C3D83E0580799F583E08A838AE2EC
:101A900089834FB7F894DE01139620E03EE051E2CF
:101AA000E32FF0E050935700849120FF03C082950C
:101AB0008F703F5F8F708A30C8F0895C90E08D93A3
:101AC0009D932F5F243161F74FBF8091E800877F9E
:101AD0008093E8006AE270E0CE0101960E943A0924
:101AE0008091E8008B778093E8004ECF805DE6CF51
:101AF0002091B5013091B601852F9927833091054A
:101B000009F160F48130910509F472C0029709F07F
:101B10003BCF8BE390E0E6E8F4E029C08132910509
:101B200009F45AC0829709F02FCF2115310509F425
:101B300069C02130310509F027CF82E390E0E0E170
:101B4000F4E015C0CA0199274130B1F18230910506
:101B500009F43AC0892B09F017CFE9E1F5E0E491E7
:101B60008E2F90E0E9E1F5E0009709F40DCF209188
:101B7000E800277F2093E8002091B7013091B80159
:101B80008217930708F49C0140E02115310509F004
:101B90003EC041113CC08091E80082FDA1CF809100
:101BA0006504882309F49CCF853009F499CF80918E
:101BB000E80083FFF0CF94CFE5EFF4E0E4918E2FBF
:101BC00090E0E5EFF4E0D0CFE3EDF4E0E4918E2F88
:101BD00090E0E3EDF4E0C8CF2115310571F021303C
:101BE000310509F0D1CE89E090E0E1EBF4E0BFCF20
:101BF00082E190E0E1ECF4E0BACF89E090E0E8E93E
:101C0000F4E0B5CF84E490E0E2E4F4E0B0CF80917A
:101C10006504882309F464CF853009F461CF80918D
:101C2000E80083FD5DCF8091E80082FDB4CF809114
:101C3000E80080FFAACF9091F3008091F200211577
:101C4000310519F08830910550F041E0089709F00E
:101C500040E08091E8008E778093E80096CF449131
:101C60004093F1003196215031090196E8CF803838
:101C700009F08ACE8091E800877F8093E800809108
:101C8000AF018093F10076CE81117ECE1091B30129
:101C9000123008F079CE8091E800877F8093E800C9
:101CA0001093AF010E949309112381F084E0809387
:101CB000650442E061EC81E00E94020A42E261ECCC
:101CC00082E00E94020A809165045ECE8091E3006A
:101CD00087FDECCF81E0EBCF0F931F93CF93C82FFD
:101CE000882339F18CEF8C0F813AB0F50EE911E0C1
:101CF000F8018191C81709F121E0E43AF207C9F728
:101D0000EFEF80E0D8019D918D01C91781F0EF3F81
:101D100019F4911101C0E82F8F5F863099F7EF3FDA
:101D200031F00E2E000CFF0BE456FE4FC2830E94D2
:101D3000530BCF911F910F910895EEE9F1E081913E
:101D4000C81303C0DF0111971C9231E0E43AF30796
:101D5000B1F70E94530BD4CF80E28C0F883068F427
:101D6000C77081E090E001C0880FCA95EAF7C09182
:101D7000B604C82BC093B604DACF8BE58C0F833042
:101D800038F42C2F2452330BC9010E94CC08D1CF38
:101D9000C85ACB3170F6EC2FF0E0EE0FFF1FEC5974
:101DA000FE4F808191810E94F208C3CF882389F180
:101DB0009CEF980F913A78F4EEE9F1E09191891354
:101DC00003C0DF0111971C9291E0E43AF907B1F7E3
:101DD0000E94530B089590E2980F983050F487704A
:101DE00091E001C0990F8A95EAF7892F0E94AB0410
:101DF000EFCF9BE5980F933028F480E090E00E94AD
:101E0000CC080895885A8B3120F480E090E00E943D
:101E1000F2080895882339F09091B604892B8093B5
:101E2000B6040E94530B0895882321F00E94AB044E
:101E30000E94530B0895A0E0B0E0E1E2FFE00C94B3
:101E4000D8218901D42FC52F6B017C010E94010884
:101E5000A8016D2F7C2F88E090E00E94BA229801A3
:101E60004D2F5C2FB601C70100E20E944622622F6F
:101E700083E290E00E94A822CDB7DEB7E8E00C94A0
:101E8000F4218091B204833018F48F5F8093B20400
:101E90002091AE043091AF044091B0045091B10450
:101EA0006091B2047091B3048091B4049091B50430
:101EB0000E941B0F08958091B204882319F081506D
:101EC0008093B2042091AE043091AF044091B004ED
:101ED0005091B1046091B2047091B3048091B40444
:101EE0009091B5040E941B0F0895A3E0B0E0EBE7CA
:101EF000FFE00C94D321E82ED62EF42E722E809182
:101F0000AE0480FF34C0982F96959695E92FF0E0A7
:101F1000E15CFE4F20812093AC048C7F843059F526
:101F200028E7241708F448E79E012F5F3F4F6D2DE7
:101F30008E2D0E9475074B8169818A810E942B0832
:101F4000E092AF04D092B004F092B104772079F01F
:101F50002091AE046091B2047091B3043E2D4D2DDA
:101F60005F2D8091B4049091B5040E941B0F2396BD
:101F7000EDE00C94EF21223019F7EEEFE90F9170AC
:101F8000C92EE695F0E0E65CFA4FE4910E2F10E0E2
:101F90003BEEA32E31E0B32E812C912CC40125E021
:101FA000969587952A95E1F7C11017C08E0D4F2D94
:101FB00098E79F1508F448E795016D2D0E94750775
:101FC000800E911E23E0A20EB11C8BE4A81682E0C5
:101FD000B80621F70E941608B3CF2E2D281B822F9A
:101FE000E6CFEEEAF4E0818121E0438162818F5EF9
:101FF0000E94750F0895EEEAF4E0818121E04381AB
:10200000628181510E94750F0895EEEAF4E06281C9
:1020100021E1620F08F46FEF21E0438181810E948A
:10202000750F0895EEEAF4E0628121E1621B08F485
:1020300060E021E0438181810E94750F0895EEEAFE
:10204000F4E043812CE0420F08F44FEF21E062817D
:1020500081810E94750F0895EEEAF4E043812CE03F
:10206000421B08F440E021E0628181810E94750FEB
:102070000895AB0124E630E0BC0188E70E941B21F3
:102080009C0181E0232B09F080E0089580915904A0
:10209000882369F080915804882349F062E070E059
:1020A0008EEA90E00E943910811110925804089530
:1020B000A4E0B0E0EEE5F0E10C94DE21809159045B
:1020C0008823F9F00E941809DC01CB01805A954160
:1020D000AF4FBF4F80935A0490935B04A0935C046E
:1020E000B0935D048091580481110BC062E070E0F0
:1020F0008CEA90E00E943910882319F081E08093E7
:1021000058042496E2E00C94FA21CF93DF93282F11
:1021100081E02A3019F02D3031F480E00E940B115B
:10212000DF91CF910895809155029091560236E04B
:10213000FC01A7EAB1E001900D923A95E1F730EE8B
:10214000320F303908F458C026E0FC0111922A956C
:10215000E9F7C0915502D091560246E050E0BE0129
:1021600087EA91E00E9477229E0127553240892B11
:1021700041F1C90145E0969587954A95E1F741E01F
:1021800050E0BA0102C0660F771F8A95E2F7CB01D3
:102190006091530270915402862B972BB9016B5FAB
:1021A0007F4FE5E076956795EA95E1F702C0440F29
:1021B000551F6A95E2F7842B952B909354028093D8
:1021C00053022A5F3F4F40915E04642F70E0C901C3
:1021D0000E94BA21481B463010F4240F311D2115EE
:1021E00072E0370710F020E030E0295A3D4F30937D
:1021F00056022093550294CF2052330B46E0429F63
:10220000B001439F700D112460557F4F46E050E0B0
:102210000E9461229ECFCF93382FE0915502F0911A
:102220005602E755F24020915E04622F70E0CF0124
:102230000E94BA21281B822F332361F066E00E949E
:102240000522C82FC15010F4CF91089580E20E945A
:102250008510F8CF9F01280F311D2115324018F04D
:1022600080E0E0E0F0E08E0F9F2F911D895A9D4F96
:102270009093560280935502E7CFCF93DF93C0E847
:10228000D5E0DC0F8C2FCF5F0E948510DC13FACFD6
:10229000D43911F0CD2FF4CF80E00E940B11DF91E3
:1022A000CF910895CF93DF93EC01FE0184918111CA
:1022B00003C0DF91CF9108950E9485102196F5CF3C
:1022C0002F923F925F926F927F928F929F92AF92E6
:1022D000BF92CF92DF92EF92FF920F931F93CF9313
:1022E000DF9300D000D000D0CDB7DEB78091590485
:1022F000882309F4C6C087E592E090935602809344
:1023000055020E943D1180915E0425E0829FC0012C
:102310001124811532E0930714F080E090E0895A8F
:102320009D4F90935602809355028CE295E00E9457
:102330005211809126019091270154E0969587953E
:102340005A95E1F78F708A3008F0B3C0805D0E9423
:102350008510809126018F708A3008F0ACC0805DB6
:102360000E9485108AE295E00E94521181E00E944D
:102370000B1184E295E00E945211809129018F7027
:102380008A3008F09AC0805D0E94851082E295E054
:102390000E945211809128018F708A3008F08FC0FE
:1023A000805D0E9485108FE195E00E945211AAE2A3
:1023B000B1E00D900020E9F71197BA83A9830AE2F2
:1023C00011E029813A810217130708F47AC08DE1E0
:1023D00095E00E94521181E00E940B1184E395E088
:1023E0000E94521181E00E940B118091BA040E9458
:1023F000CB03805D0E94851082E395E00E9452111C
:1024000081E00E940B118091530290915402892B1C
:10241000A9F080915904882389F080915704811193
:102420000DC00E945810209153023091540280E058
:1024300061E070E02115310509F04AC0809158042F
:102440008823F9F00E94180969837A838B839C831F
:1024500080915A0490915B04A0915C04B0915D045A
:1024600029813A814B815C81281B390B4A0B5B0B1C
:10247000DA01C9018F3F9F4FAF4FBF4710F40E9451
:1024800046100F900F900F900F900F900F90DF91CC
:10249000CF911F910F91FF90EF90DF90CF90BF9061
:1024A000AF909F908F907F906F905F903F902F9014
:1024B0000895895A4CCF895A53CF895A65CF895A82
:1024C00070CFF80181918F010E9485107ACF8F5FC4
:1024D000082F10E01B01082E02C0220C331C0A94A6
:1024E000E2F7A10142235323452B89F390915F0426
:1024F00090FD44C098013695279536952795922FE3
:102500008295880F80763FE1380F809303012093F6
:102510000601309304019093070124E630E047E080
:1025200050E061E071E088E70E94D020892B09F03B
:1025300085CFA80125E0440F551F2A95E1F780912A
:102540005F0480FD23C0495A5D4F04E610E020E29D
:1025500030E060E488E70E946821892B09F06ECFA3
:10256000A1014095509580915302909154024823C7
:102570005923509354024093530260CF880F880F21
:10258000880F37E0380F20E093E0BFCFEAECF1E0AE
:1025900080E2DF011D928A95E9F7EBE3F1E0FE832B
:1025A000ED8307E311E08FE3C82E81E0D82E97E09A
:1025B000592E77247394AD81BE818D91BE83AD83F6
:1025C000F80121918F01240F352F311D295A3D4FDC
:1025D000E82FF0E0E653FE4F80E090E0652C681AAB
:1025E000872C082E01C0880C0A94EAF77901A12CE7
:1025F000D701BD907D01B820662D6A19677070E023
:10260000BB2D062E01C0BB0F0A94EAF79B2E7195D5
:10261000619571096770772701C0B6946A95EAF7EA
:102620009B286081962A9082A39468E0A612E0CF4E
:10263000019631968830910589F68D819E81C81664
:10264000D90609F0B8CF04E610E020E230E04AEC09
:1026500051E07FCF1F921FB61F9211248F939F933B
:10266000AF93BF9380916104811113C08091C20127
:102670009091C301A091C401B091C5014196A11DE3
:10268000B11D8093C2019093C301A093C401B09384
:10269000C501BF91AF919F918F911F901FBE1F9059
:1026A00018952FB7F8948091C2019091C301A09121
:1026B000C401B091C5012FBF08956091AE04669525
:1026C000669570E04BE050E088E091E00E946A225D
:1026D000892B19F481E08093AD040E9451139093EB
:1026E00078048093770408959091AE0490FF3BC0E6
:1026F0008823D1F18D30D0F58F73282F220F220F30
:102700008091AE048370282B2093AE04662381F061
:102710003091AF044091B0045091B1046091B20483
:102720007091B3048091B4049091B5040E941B0F82
:102730006091AE046695669570E04BE050E088E0ED
:1027400091E00E946A22892B99F01092AD0481E0F9
:1027500080937A0420E04091B1046091B0048091AC
:10276000AF040E94750F089581E0C7CF8CE0C5CFFC
:102770000E945D13ECCF8091AE04869586958F5FA5
:102780008D3008F081E061E00E947413089590910B
:10279000AE04969596958FEF890F913009F48CE0F1
:1027A00061E00E94741308958091AE0480FF09C017
:1027B00086958695825C8F73893018F40E94BB13CE
:1027C000089561E082E00E9474130895A0E0B0E0F3
:1027D000ECEEF3E10C94D8217C01FC018481882388
:1027E00009F405C161E0C7010E941D079C01F701C2
:1027F0004581909327018093260180819181909358
:10280000290180932801F9013497E533F10508F097
:10281000B2C0E154F94FE4915FE5442311F05E2F1B
:10282000EFE5AAE2B1E080E090E06D916E136CC03C
:102830008A5D9E4FFC015483F7018581811176C02A
:10284000F701858100811181882309F43EC1C80107
:102850000E94F206C82F682FC8010E945604B801D2
:102860008C2F0E94B3040E94D905D82FC92FF701DD
:10287000C580068102950F708091BB048770882304
:1028800001F1DC2CCC20F1F0892F807F803461F0C5
:1028900080E28D0F8830A8F0892F807E803221F46D
:1028A000D23078F0002369F08091BD0482FF09C026
:1028B00082E00E9493048091BB048770DD24D3944E
:1028C0008111D12C8C2F82958F70883009F4EFC143
:1028D00008F01FC1843008F0FDC01C2F1F7082302B
:1028E00008F428C1C07FC03211F01295107FDD239B
:1028F00009F456C1D13009F49FC1CC2009F4A9C113
:10290000002309F46BC12BC101968630910509F0B3
:102910008CCF442309F494CF2B358CE7380708F08B
:10292000B8C021309CE7390709F4CBC02330ECE76D
:102930003E0709F4C0C021153C4709F081CF0E9431
:102940008F0BEFEFF4E32CE0E150F0402040E1F793
:1029500000C0000087E797E7909301088093000884
:1029600088E19AE00FB6F894A895809360000FBEB6
:1029700090936000FFCF411185C08091B6048272B0
:10298000F901E052F847E531F10508F059CFE85177
:10299000FD4D0C9425228091AE0480FF2DC0282F80
:1029A0002E7F2093AE043091AF044091B00450913B
:1029B000B1046091B2047091B3048091B404909119
:1029C000B5040E941B0F1092AD040E94160880915E
:1029D000BB048770882359F0F7018581882339F07B
:1029E0008091BD0482FF03C082E00E949304CDB7B2
:1029F000DEB7E8E00C94F42181608093AE0461E0DE
:102A0000869586950E947413E2CF47EC53E16BEBF9
:102A100073E10E947608DBCF4BEB53E167EC73E187
:102A2000F8CF4BEF5FE061EF7FE0F3CF41EF5FE086
:102A30006BEF7FE0EECF42E150E165E070E1E9CF7E
:102A400045E050E162E170E1E4CF4CE250E16FE13A
:102A500070E1DFCF4FE150E16CE270E1DACF4BE59E
:102A60005FE061E47FE0D5CF41E45FE06BE57FE0CC
:102A7000D0CF61E081E0C6CF0E94D413A8CF61E03F
:102A80008CE0C0CF2A35FCE73F0709F045CF81E055
:102A90000FC02B358CE73807B1F02C353C4709F0D7
:102AA000CFCE8091BD0482FB882780F991E08927F1
:102AB0000E943C0BC5CE6FEF7FEF80E090E00E945C
:102AC000C6220E94A50B80E0F3CFC8010E947004CB
:102AD000C82FC5CE843009F4CDC0DD20A9F0809187
:102AE000BB0480FD11C0F7011582869586958695F9
:102AF0000E94E303C7010E94E6138091BB04869500
:102B0000869586950E94EF0360E0C7010E941D072D
:102B10006ECF893009F43AC18A5F8F708230E8F64F
:102B2000D23F09F044C18C2F8F71C1103DC10E946A
:102B3000E303EAC0C03110F01295107FCC20B9F049
:102B4000112369F080E28D0F883010F0D11109C097
:102B50008091B604812B8093B6040E94530B8D2F75
:102B60002FC08091BE04812B8093BE04F6CF8D2FA1
:102B70000E94D60E112309F4B0CF80E28D0F883069
:102B800010F0D11104C0812F0E94AB0406C0109533
:102B90008091BE0481238093BE040E94530B9DCF7D
:102BA0008091BD0482FD16C0CC2069F0112339F05C
:102BB0008091B604812B8093B6040E94530B80E071
:102BC0000E946C0E8ACF80E00E94D60E112309F479
:102BD00084CFD9CFCC20A1F0011104C0812F0E9455
:102BE0000A0F7BCF013009F078CF8091B704912F85
:102BF0009823191709F471CF812B8093B7046DCFF7
:102C000001116BCF812F0E94140F9091B704812F77
:102C10008923882329F0812F809589238093B70405
:102C20008091B804912F9823992309F456CF1095D9
:102C300018231093B80451CFCC2021F0063008F0AF
:102C40004CCFCCCF053008F048CF812F0E94140F15
:102C500044CF0023D1F3D93349F4FFEF27EE33E01B
:102C6000F15020403040E1F700C000008D2F0E945D
:102C7000D60E33CF8C2F869586958370882369F086
:102C8000813009F02ACF8D2F9C2F9370C11002C084
:102C900080E090E00E94F20820CF8D2F9C2F93704F
:102CA000C11002C080E090E00E94CC0816CF8C2FAB
:102CB0008370811134C0C11027C04D2F42954695B5
:102CC0004770440F440F8D2F8F70042E01C0880F62
:102CD0000A94EAF7D071DD2341F02FE030E001C023
:102CE000220F4A95EAF7D22FD095C695C695C370A4
:102CF000C23081F0C33061F02091B904C13039F0A5
:102D00008D2B82230E94DD030E94BF08E6CE822B1A
:102D10008D2BF8CF8D2B9091B9048927F3CFCC2040
:102D200051F1C0FFF1CF4D2F429546954770440FAA
:102D3000440F8D2F8F70042E01C0880F0A94EAF77C
:102D4000D071DD2341F02FE030E001C0220F4A9521
:102D5000EAF7D22FD095C695C695C370C23089F0D8
:102D6000C33069F02091BA04C13041F08D2B822329
:102D70000E94E003C9CF823038F2D5CF822B8D2B51
:102D8000F7CF8D2B9091BA048927F2CFCF70CC204A
:102D900039F08C2F0E94E3038D2F0E940A0FB4CFCD
:102DA0008D2F0E94140F8C2F0E94EF03ADCFD33FC5
:102DB00070F4D03FB9F0D13FB9F1CC2009F455C03F
:102DC000002309F44FC08D2F0E946C0E9DCFD33F7E
:102DD000E1F0D43F29F1C110F3CF011154C08C2F81
:102DE0008F71E2CFCC2079F0053008F08DCFCF7114
:102DF00081E090E0FC0101C0EE0FCA95EAF78091F6
:102E0000BA048E27B5CF0530F0CF80E0CC2009F48E
:102E1000AFCFCF7181E001C0880FCA95EAF7A8CF84
:102E20009091BD0492FD06C08C2F8F71CC2009F4C7
:102E3000BBCF7DCECC2061F08C2F8F7192FF77CEEF
:102E4000F8E08F9F9001112423602093BB046FCE84
:102E500081E00E949304023008F456CF82E00E9481
:102E6000930452CF8C2F8F7162CE002309F4B7CF19
:102E7000D93349F42FEF37EE83E0215030408040C2
:102E8000E1F700C000008D2F0E94D60E3DCF80914B
:102E9000FF04803178F48091FE04882359F0E0919A
:102EA000C0042091BF043091FA044091F90457E026
:102EB0002E1301C008956E2F70E05E9FF001112463
:102EC000DF01AF53BB4F14968C911497882361F1A7
:102ED00011968C911197831327C08C91841324C071
:102EE00015968C91159781111FC012968D919C910A
:102EF000A091FB04B091FC048A1B9B0B883C9105BC
:102F000098F48091FF048F7080618093FF04E953EF
:102F1000FB4F80818F708061808389EF94E00E94F5
:102F2000E6130E9489040895FB013196E770C0CF33
:102F3000ADE0B0E0EEE9F7E10C94D3218C0186E03E
:102F4000F801DE01189601900D928A95E1F7F801DB
:102F5000E080F580A280B380C48089EF882E84E071
:102F6000982E7090FD04711020C0CC20D9F0FF2065
:102F700009F419C1C8010E944C07882309F413C140
:102F800087E0F801D40101900D928A95E1F7F1E014
:102F9000CF1206C08091F9049091FA040E943D0777
:102FA0000E944717FF24F39451C0D090FE048091F3
:102FB000FB049091FC049501281B390BDD2009F4DA
:102FC000BAC0283C310508F090C0CC2059F390914C
:102FD000FA04C1808091FF04803108F058C0C91202
:102FE00014C09091F9049E1110C0F1104AC08F7066
:102FF00080618093FF0489EF94E00E94E613809142
:10300000FF04F8018683F12C21C0F1103AC040E0A2
:103010006C2D8E2D0E94940A40E06C2D8E2D0E9406
:10302000940AF82E8111EFCF888599850E943D077B
:10303000292F22952F70903470F49F702230A0F0C9
:103040009923B1F0F8019681903190F48F2D2D964F
:10305000EDE00C94EF212A5F2F70223068F0C80158
:103060000E94E613FD2CF2CF992311F0882371F30F
:10307000805E883058F3F3CF803F40F3815F823029
:10308000F9CF8091FF0481608093FF04BCCFC91207
:1030900007C09091F9049E1103C0FF2009F46CC091
:1030A000C8010E944C07882309F47DC0FF2009F461
:1030B0007AC08091FF04803278F02091F904309139
:1030C000FA043A832983BC82AB827D821E828F837D
:1030D000CE0101960E94E61387E0F801A9EFB4E063
:1030E00001900D928A95E1F75BCF8091FF048031CA
:1030F00050F489EF94E00E94E61387E0F401119206
:103100008A95E9F780CFCC2009F44CCF2091FA04BE
:1031100091812913C5CF9091F9049E11C1CFF1106F
:10312000BFCF8683C8010E94E61387E0F4011192A5
:103130008A95E9F737CF283C3105F8F6CC2009F419
:1031400031CFFF2081F19091FA048181981321C041
:103150008091F9048E111DC08091FF0480FD10C084
:10316000803170F08683807F803F39F08681982F90
:10317000907F905F8F70892B8683C8010E94E61331
:1031800087E0F801A9EFB4E001900D928A95E1F78C
:1031900009CFC8010E944C0781119ECF8091FF0486
:1031A00081608093FF04C8010E94E613FBCEABE16F
:1031B000B0E0EDEDF8E10C94DD214E8B5F8B688F74
:1031C000798F8A8F9B8F91111092BE041D8A86E0A1
:1031D000FE017696DE011F9601900D928A95E1F729
:1031E0008B89882329F061E0CE010F960E941D078C
:1031F00087E0FE013F96DE01189601900D928A95B8
:10320000E1F7CE0108960E94981781112BC087E044
:10321000FE013896DE01119601900D928A95E1F734
:103220002091BF044091C0048C858823D9F030E000
:10323000C90101968770992750E084179507E9F036
:1032400097E0929FD001939FB00D1124AF53BB4FD5
:10325000FE01319601900D929A95E1F78093BF049B
:103260000E94890417E08091C0049091BF048913E3
:1032700012C06B96E3E00C94F9210E948F0B109220
:10328000BF041092C00487E0E9EFF4E0DF011D9273
:103290008A95E9F7E7CF189FC00111248F539B4F00
:1032A0000E949817882329F38091C00490E001962A
:1032B000877099278093C004D6CFA6E0B0E0E3E6FC
:1032C000F9E10C94DC210E9451138C0180918E0451
:1032D00090918F048017910779F019821A820E94C9
:1032E0005113BC0149815A8180E090E00E94D718B7
:1032F00010938F0400938E042696E4E00C94F8213A
:103300009C014FB7F8948091C2019091C301A091A4
:10331000C401B091C5014FBF821B930B0895A8E073
:10332000B0E0E5E9F9E10C94D2218E010F5F1F4F67
:1033300088E0D8011D928A95E9F74801580133E1E8
:10334000C32E31E0D32E66246394712CF601819153
:103350006F018F3F11F00E94B20300C027E1E22EFF
:1033600021E0F22EF70120E030E041914F3FF9F0EB
:10337000A42FA295AF70A05EB0E08C9190E04F704A
:1033800002C0959587954A95E2F7817081110FC02B
:10339000D5018D919C911197A301022E02C0440F7B
:1033A000551F0A94E2F7842B952B8D939C932F5FE6
:1033B0003F4F25303105C9F6F601319780818F3FA7
:1033C00011F00E949903B0EABA95F1F7E2E0AE0E6F
:1033D000B11CF7E1CF16F1E0DF0609F0B7CF90E2BC
:1033E000C92ED12CD7018D917D018F3F11F00E9404
:1033F000B20300C0F80143E151E0DA012D91AD01C3
:103400002F3FB9F0822F82958F70805E90E0DC01B3
:103410008C9190E02F7002C0959587952A95E2F7E0
:103420008170811106C0808191818C299D299183B1
:1034300080833296B1E047315B07F9F6F7013197A7
:1034400080818F3F11F00E949903E0EAEA95F1F73D
:10345000CC0CDD1CFCE1EF16F1E0FF0619F6EBE405
:10346000F2E0085F1F4F80E0D4012D913D914D01A6
:10347000419151912417350729F0DF0112972D93BF
:103480003C9381E08016910679F7882369F081E00A
:103490008093A6010E9451139093A5018093A401EB
:1034A0002896EEE00C94EE218091A6018823C1F3CA
:1034B0008091A4019091A5010E948019059780F345
:1034C00048E050E06BE472E086E694E00E947722E8
:1034D000892B49F088E0EBE4F2E0A6E6B4E0019045
:1034E0000D928A95E1F71092A601DACFCDB7DEB73B
:1034F00068970FB6F894DEBF0FBECDBF85B7806862
:1035000085BF85B7806885BF84B7877F84BF0FB6C6
:10351000F894A89580916000886180936000109273
:1035200060000FBE80E890E00FB6F89480936100D1
:10353000909361000FBE82E797E090939B01809388
:103540009A010E94E3090E94390A8091E200846096
:103550008093E200789480916504882399F08091AB
:10356000E9001091EC001795112717958F70182B13
:103570001092E9008091E80083FD0E94BB0B1F7050
:103580001093E90092E094BD83E085BD2AEF27BD4A
:1035900090936E00E4E8F4E098E0DF011D929A95C4
:1035A000E9F78093830410E060E0812F0E947D089A
:1035B00061E0812F0E947D081F5F1330A9F7EFE8BB
:1035C000F1E03197F1F700C0000010E08091830432
:1035D000181708F44AC207E111E0ECE1EE2EE1E031
:1035E000FE2ED8018D918D018F3F11F00E9499031D
:1035F000E016F106B1F703E111E0F80181918F01C6
:103600008F3F11F00E949903F1E007311F07A9F7DE
:1036100010924C0210924B021092670410926604B2
:1036200010924E0210924D0210926904109268049A
:103630001092500210924F0210926B0410926A0482
:10364000109252021092510210926D0410926C046A
:1036500080E090E00E949222853E9E4F09F45EC079
:1036600065EE7EEF80E090E00E94C62260E082E09E
:1036700090E00E94A82281E08093B90461E083E099
:1036800090E00E94A82260E074E184E090E00E9453
:10369000C62260E086E090E00E94A82260E087E019
:1036A00090E00E94A82240E050E0BA0188E090E05B
:1036B0000E94BA2260E083E290E00E94A82260E0CB
:1036C0008CE090E00E94A82260E08DE090E00E94F3
:1036D000A82219821A821B821C821D821E821F82CE
:1036E000188648E050E067E170E0CE0101960E9444
:1036F000982240E050E0BA018FE190E00E94BA22A7
:1037000040E050E0BA018FE090E00E94BA2240E031
:1037100050E0BA0183E190E00E94BA2282E090E09A
:103720000E94842280936E0484E090E00E949222A2
:103730009093BD048093BC0483E090E00E948422B7
:103740000E94DD0383E080935F0480E280935E0447
:103750000E949A206BE070E086E596E00E943910A6
:10376000882309F443C080915F0465E070E081FD27
:103770008EC181E596E00E9439108823B9F16DE091
:1037800070E08FE396E00E943910882379F10E945F
:1037900018096D8B7E8B8F8B988FDC01CB01805A43
:1037A0009541AF4FBF4F80935A0490935B04A09311
:1037B0005C04B0935D04E7E5F2E080E092E0DF01B5
:1037C0009C011D9221503040E1F7F0935602E093A6
:1037D00055028FEF9FEF909354028093530281E044
:1037E0008093590480935804109257048091600488
:1037F000811199C088E090E00E948C226B017C01CD
:1038000083E290E00E948422282F30E040E050E0E4
:1038100060E070E080E090E000E20E942B22F22F56
:10382000A32EB42EB52FA62FE72F9701860140E0D7
:1038300050E0BA01FC29A12AB22AB32BA42BE52B14
:10384000862B972BF093AE04A092AF04B092B004F5
:10385000B093B104A093B204E093B3048093B40492
:103860009093B504F43008F04CC025E02093AE04EA
:103870001092AF042FEF2093B00428E72093B104F7
:103880001092B20425E030E04FEF58E760E07E2F61
:103890000E941B0F88E090E00E948C226B017C014B
:1038A00083E290E00E948422282F30E040E050E044
:1038B00060E070E080E090E000E20E942B2259017D
:1038C000B42FA52FF62FE72F9701860140E050E097
:1038D000BA01AC28B12AB22BA32BF42BE52B862BF3
:1038E000972BA092AE04B092AF04B093B004A09313
:1038F000B104F093B204E093B3048093B4049093C2
:10390000B5040E9401081092AD040E94BD08809188
:10391000AE0480FF05C060E0869586950E94741312
:1039200081E0809360048091AE0481608093AE0456
:1039300060E0869586950E94741360E08CE00E949A
:1039400074138CE191E0909391048093900444244B
:1039500043947DEF272E809165048530D9F48091C2
:103960006504853009F496C00E948F0B0E94BF0841
:103970001092630480916204882351F08091AE0418
:1039800081608093AE0460E0869586950E947413F2
:103990000E945D130E948F194FE6A42E44E0B42EBE
:1039A00056E6852E54E0952E6CE4662E61E0762E68
:1039B000A3018401F50121913191D8018D919D914F
:1039C0008D01DA016D917D91AD0186239723B4E0DD
:1039D000E737FB0709F4CCC02817390761F3512CEE
:1039E000F401019111914F01D3018D919D913D0100
:1039F00008231923F501C190D1905F01C016D106AB
:103A000059F1C026D126312CEE24E394F12CC701C4
:103A10008C219D21892BB1F03F86588A0E94511339
:103A20009A8B898B4B8A91E0970120233123232B9A
:103A300009F490E09C8B4F85588969897A898B8934
:103A40000E94D7183394EE0CFF1CFAE03F12DFCF30
:103A5000F501329711830083539424E05212C0CFB2
:103A60000E941809DD24D3948AC060E0812F0E944F
:103A7000A008082F61E0812F0E94A008E12FF0E04C
:103A8000E058FB4F880F802B80831F5F9FCD8CE415
:103A900096E071CE80916504843009F439C01092AB
:103AA000AD048091630481110DC040926304809144
:103AB000AE04982F9170909362048E7F8093AE0431
:103AC0000E9416080E9446101092610488E190E05E
:103AD000A0E40FB6F894A895809360000FBEA09361
:103AE000600083B7817F846083BF83B7816083BFB9
:103AF0007894889583B78E7F83BF0FB6F894A89586
:103B000080916000886180936000109260000FBE19
:103B100080916404882309F422CF0E948F19E6E67D
:103B2000F4E0ACE4B1E0819191912D913D9182233B
:103B30009323892B29F424E0EE36F207A1F70FCF67
:103B400080E189BD82E189BD09B400FEFDCF80918D
:103B5000D8008F7D8093D8008091E00082608093B0
:103B6000E0008091E00081FDFCCF0E948F0BF7CE3A
:103B70002817390709F033CF0E945D19D12C8091A5
:103B8000AD04882309F43EC09091AC048091AE044A
:103B900086958695891B8093790400ED17E084E76C
:103BA000E82E87E0F82E9C3041F4E1E6F6E005913E
:103BB00014919CE3E92E98E0F92E80917A048823F1
:103BC00061F010927A040E945113909378048093CC
:103BD000770410927C0410927B040E945113209170
:103BE000770430917804821B930B8F3F9F4750F4EA
:103BF000200F311F309378042093770487E794E0F7
:103C0000F701099580918C04882351F080918604F6
:103C100010928C048093870480918404809385049F
:103C200000E04FC061E0802F0E94A008E82E60E015
:103C3000802F0E94A008EE0C8E29E02FF0E09F015B
:103C400020583B4FD9014C91942F93708917C1F1A3
:103C5000A42FAA0FAA0F8A2BD9018C93A82FAF707B
:103C6000B0E0AC5ABE4FE358FB4F8C919081890F66
:103C7000808382300CF467C0412F50E02F2D30E05C
:103C8000BA016F5F7F4F637077272617370781F080
:103C90004C575B4F902F9F77DA0114969C931F5FD0
:103CA000137010938604909184049F5F9093840412
:103CB000082E000C990B62E070E00E9411228083B4
:103CC0000F5FF09087041091860480918304081799
:103CD00008F4A8CF90E080918704209186042817EB
:103CE00009F475C0E82FF0E0E857FB4F9081192FD9
:103CF0001F778F5F837080938704809185048F5F27
:103D00008093850497FD34C01983FCEFFA830E94E9
:103D10005113BC018B839C8323E02D834E82498108
:103D20005A8183E091E00E94D7188FE39CE90197C4
:103D3000F1F700C0000019879CEF9A870E94511389
:103D4000282F83E031C08F3F0CF0B2CF412F50E0DD
:103D50002F2D30E0BA016F5F7F4F637077272617F2
:103D6000370709F4A5CF4C575B4F902F906894CF3D
:103D700019832A820E945113BC018B839C83B2E079
:103D8000BD834E8249815A8182E091E00E94D7181A
:103D9000EFE3FCE93197F1F700C0000019872A86AC
:103DA0000E945113282F82E0622F792F2B879C8746
:103DB0008D871E8649855A8590E00E94D718AFE30B
:103DC000BCE91197F1F700C0000091E084CF99237E
:103DD00039F00E9418090E9460110E94581004C016
:103DE0000E946011D110F9CF0E94BF0890918D04FC
:103DF000891709F4B0CD80938D040E941809A9CDCC
:103E000078941F921FB61F9211248F939F93AF93A4
:103E1000BF938091C2019091C301A091C401B09160
:103E2000C5010196A11DB11D8093C2019093C301EC
:103E3000A093C401B093C501BF91AF919F918F91A1
:103E40001F901FBE1F9018951F920F920FB60F92D2
:103E500011242F933F934F935F936F937F938F938F
:103E60009F93AF93BF93EF93FF938091E10082FF05
:103E700009C08091E20082FF05C08091E1008B7F44
:103E80008093E1008091DA0080FF24C08091D80007
:103E900080FF20C08091DA008E7F8093DA008091CD
:103EA000D90080FF9BC080E189BD82E189BD09B452
:103EB00000FEFDCF81E0809365048091B001811107
:103EC00009C00E94E3090E94390A8091E2008460DF
:103ED0008093E2008091E10080FF17C08091E200B2
:103EE00080FF13C08091E2008E7F8093E20080917A
:103EF000E20080618093E2008091D800806280932C
:103F0000D80019BC85E0809365048091E10084FFAE
:103F100029C08091E20084FF25C080E189BD82E153
:103F200089BD09B400FEFDCF8091D8008F7D8093BC
:103F3000D8008091E1008F7E8093E1008091E200C3
:103F40008F7E8093E2008091E20081608093E200A6
:103F50008091AF01882309F447C084E08093650411
:103F6000809165048091E10083FF27C08091E20089
:103F700083FF23C08091E100877F8093E10082E08E
:103F8000809365041092AF018091E1008E7F809351
:103F9000E1008091E2008E7F8093E2008091E20058
:103FA00080618093E20042E060E080E00E94020ACB
:103FB0008091F00088608093F000FF91EF91BF91B5
:103FC000AF919F918F917F916F915F914F913F91B1
:103FD0002F910F900FBE0F901F90189519BC109243
:103FE00065041092B00176CF8091E30087FF02C094
:103FF00083E0B4CF81E0B2CF1F920F920FB60F9241
:104000001124FF920F931F932F933F934F935F932E
:104010006F937F938F939F93AF93BF93CF93DF93D0
:10402000EF93FF9309EE10E0F8018081C091EC005E
:10403000C795CC27C7958F70FC2EF82A1082C0EF49
:10404000D0E08881877F888378940E94BB0BF80139
:104050001082888188608883CF2DCF70C083FF91C4
:10406000EF91DF91CF91BF91AF919F918F917F9110
:104070006F915F914F913F912F911F910F91FF9001
:104080000F900FBE0F901F901895FF920F931F93E4
:10409000CF93DF93182FEB011092BC0084EA80933A
:1040A000BC000E945113082FF92E8091BC0087FF9D
:1040B00028C08091B900887F883029F08091B900AC
:1040C000887F8031A1F51093BB0084E88093BC0009
:1040D0000E945113182F092F8091BC0087FF1FC029
:1040E0002091B900287F80E090E0283199F081E0AC
:1040F00090E0203411F480E090E091958195910951
:1041000009C0802F9F2D0E948019C817D90768F613
:104110008EEF9FEFCDB7DEB7E5E00C94F721812F4E
:10412000902F0E948019C817D907B0F6F1CF8FEFF2
:104130009FEFF0CF1092B9008CE08093B800089503
:104140000F931F93CF93DF93EB018093BB0084E821
:104150008093BC000E945113182F092F8091BC003E
:1041600087FF11C02091B900287F81E090E02832BC
:1041700011F480E090E0919581959109DF91CF91C4
:104180001F910F910895CF3FDC0741F3812F902FAE
:104190000E948019C817D90708F78EEF9FEFEECF5E
:1041A000A0E0B0E0E6EDF0E20C94D321782E5B01C4
:1041B0006A0189010E9451134C010431110560F11B
:1041C0000F3F100769F1C80164E170E00E94BA2155
:1041D000F62EE72E6F2D7E2D872D0E944520EC01B7
:1041E00097FF09C00F3F1007A9F3C4010E9480196F
:1041F0000817190778F77501CA0CDB1CEC14FD04CD
:1042000011F0D7FF10C084E98093BC00CE01CDB778
:10421000DEB7EDE00C94EF21FF24F394E12CDACF2C
:1042200085E0F82EFBCFB801F70181917F010E9454
:10423000A020EC01E3CFA0E0B0E0E1E2F1E20C94D9
:10424000D321782E5B016A0189010E9451134C0130
:104250000431110560F10F3F100769F1C80164E1F5
:1042600070E00E94BA21F62EE72E6F2D7E2D872D4D
:104270000E944520EC0197FF09C00F3F1007A9F3EA
:10428000C4010E9480190817190778F77501CA0C34
:10429000DB1CEC14FD0411F0D7FF10C084E98093FF
:1042A000BC00CE01CDB7DEB7EDE00C94EF21FF24CA
:1042B000F394E12CDACF85E0F82EFBCFF70184915F
:1042C000B8010E94A020EC01FFEFEF1AFF0AE1CF36
:1042D000A0E0B0E0EEE6F1E20C94D221682E962E3A
:1042E0005A01690178010E945113782E892E0431F8
:1042F000110530F10F3F100731F1C80164E170E0A2
:104300000E94BA21162F072F612F702F862D0E9431
:104310004520EC0197FF19C0FFEFEF16FF06A1F350
:10432000872D982D0E948019E816F90668F784E910
:104330008093BC00CE01CDB7DEB7EEE00C94EE2149
:1043400011E000E0E1CF15E0FCCFB701892D0E941C
:10435000A020EC018501CA0CDB1C0C151D0539F3EE
:10436000D7FDE5CFB701F80181918F010E94A02010
:10437000EC01F3CFAA1BBB1B51E107C0AA1FBB1F57
:10438000A617B70710F0A61BB70B881F991F5A95E1
:10439000A9F780959095BC01CD0108952F923F9289
:1043A0004F925F926F927F928F929F92AF92BF9245
:1043B000CF92DF92EF92FF920F931F93CF93DF93F1
:1043C000CDB7DEB7CA1BDB0B0FB6F894DEBF0FBE4E
:1043D000CDBF09942A88398848885F846E847D849B
:1043E0008C849B84AA84B984C884DF80EE80FD809D
:1043F0000C811B81AA81B981CE0FD11D0FB6F89413
:10440000DEBF0FBECDBFED010895991B79E004C05A
:10441000991F961708F0961B881F7A95C9F7809503
:10442000089597FB072E16F4009407D077FD09D066
:104430000E94BA2107FC05D03EF4909581959F4FCC
:104440000895709561957F4F0895EE0FFF1F0590B9
:10445000F491E02D0994002E083090F0982F872FCA
:10446000762F652F542F432F322F22270850F4CF59
:10447000220F331F441F551F661F771F881F991F68
:104480000A95B2F7002D089597FD1094002E08307C
:1044900098F00850232F342F452F562F672F782F51
:1044A000892F912DF4CF15949795879577956795DA
:1044B00057954795379527950A95AAF71124002D0A
:1044C0000895FB01DC0102C005900D92415050405F
:1044D000D8F70895FC014150504030F00190061685
:1044E000D1F73197CF010895882799270895FB01C7
:1044F000DC0104C08D910190801921F4415050409D
:10450000C8F7881B990B0895F999FECF92BD81BD1C
:10451000F89A992780B50895A6E1B0E044E050E00C
:104520000C94CE22A8E1B0E042E050E00C94CE2200
:10453000DC01A40FB51F4150504048F0CB01840F5F
:10454000951F2E910E94A92241505040D0F7089506
:10455000262FF999FECF92BD81BDF89A019700B43C
:10456000021639F01FBA20BD0FB6F894FA9AF99ADC
:104570000FBE08950396272F0E94A9220E94A82209
:10458000252F0E94A922242F0C94A9220196272FBF
:104590000E94A9220C94A822DC01CB01FC01F9990C
:1045A000FECF06C0F2BDE1BDF89A319600B40D927F
:1045B00041505040B8F70895F894FFCF980CBE0CC6
:1045C000C40CBE0CC40C170D390DC40C370E440EB0
:1045D000CB1405150C15111516151B1520152515D1
:1045E0002A152F1534153915E714E714E714E714C5
:0A45F000E714E7143C153F15E7142B
:1045FA00010021007F2200030102030405060708C7
:10460A00090A0B92946697F4F5F6F73135091E0BF1
:10461A0038093909350B000000005F5F5F5F5F00F2
:10462A0000C6353234363300081018181008000056
:10463A0001020202020202020202020CEF03EE036C
:10464A00EF03EF0300FF0100010000FFFF0000017C
:10465A000001FF00E200E900EA00B500B600B70079
:10466A00CD008301CC008A01920194012102230228
:10467A0024022502260227022A02B300B4006F0090
:0A468A0070009F01CB019F02A00207
:00000001FF
