:100000000C94D5030C94F2030C94F2030C94F203B9
:100010000C94F2030C94F2030C94F2030C94F2038C
:100020000C94F2030C94F2030C94D51E0C94AD1FA7
:100030000C9429190C94F2030C94F2030C94F2031F
:100040000C94F2030C94F2030C94F2030C94F2035C
:100050000C94F2030C94B11E0C94F2030C94F20372
:100060000C94F2030C94F2030C94F2030C94F2033C
:100070000C94F2030C94F2030C94F2030C94F2032C
:100080000C94F2030C94F2030C94F2030C94F2031C
:100090000C94F2030C94F2030C94F2030C94F2030C
:1000A0000C94F2030C94F2030C94F20300AF00AE34
:1000B00000000000000000002F0000000007000703
:1000C0000000123F123F1200242A7F2A1200360934
:1000D0001E241B001826291228000000070000001B
:1000E000001E214000000040211E000014083E08B0
:1000F000140008083E0808000000307000000808DE
:100100000808080000003030000020100C02010038
:100110001E2925231E0000223F200000223129290C
:100120002600122125251A001814123F1000172549
:10013000252518001E252525180001310905030075
:100140001A2525251A00062929291E000000333307
:10015000000000003373000008141422220014145D
:1001600014141400222214140800020129050200AC
:100170003E59555D3E003816111638003F2525259D
:100180001A001E21212112003F2121211E003F259E
:10019000252521003F09090901001E2121291A00F6
:1001A0003F0404043F0000213F21000010202020D4
:1001B0001F003F040C1221003F20202020003F029E
:1001C00004023F003F020C103F001E2121211E00AF
:1001D0003F09090906001E2129112E003F090919AE
:1001E000260012252529120001013F0101001F20D0
:1001F00020201F000718201807000F300C300F00B8
:1002000021120C1221000304380403003129252394
:100210002100007F4141000001020C10200000413C
:10022000417F0000040201020400404040404000C1
:10023000000103040000102A2A2A3C003F24222245
:100240001C001C22222224001C2222243F001C2AE3
:100250002A2A0C0000043E0505000C5252543E00B0
:100260003F080404380000003D0000002040403DED
:1002700000003F080814220000013F2000003E0259
:100280003C023C003E0402023C001C2222221C00D4
:100290007E1422221C001C2222147E003E04020234
:1002A0000400242A2A2A120000021F2200001E2015
:1002B00020103E000618201806000E300C300E00EC
:1002C0002214081422000E5050483E0022322A26E2
:1002D000220008087741410000007F0000004141F2
:1002E00077080800180408100C0000000000000047
:1002F0000000381C0CCCCCCCFC3800180C8CCC7C0E
:1003000038000080C0404040404040C0800000C0F5
:1003100047CF4C4C4C4C4743404E4F49484848C04F
:1003200040FF0001FD0101FD0100FF0000FF007F13
:10033000808080808080808080808080807F00FFBF
:100340000000FF0000FF0000FF00000F0A0908087E
:100350000808080808080808080808090A0D02041F
:100360000404040404020100000000000000000076
:10037000000000000000000000000000000000007D
:10038000000000000000000000000000000000006D
:10039000000000000000000000000000000000005D
:1003A000000000000000000000000000000000004D
:1003B000000000000000000000000000000000003D
:1003C000000000000000000000000000000000002D
:1003D000000000000000000000000000000000001D
:1003E000000000000000000000000000000000000D
:1003F00000000000000000000000000000000000FD
:1004000000000000000000000000000000000000EC
:1004100005010980A101850319012AB700150126EC
:10042000B700950175108100C0050C0901A1018577
:100430000419012AA002150126A002950175108158
:1004400000C005010906A101050719E029E715000B
:10045000250195087501810295017508810105073F
:10046000190029FF150026FF009506750881000573
:1004700008190129051500250195057501910295B9
:100480000175039101C009023B00020100A0FA09B5
:1004900004000001030101000921110100012244AF
:1004A00000070581030800010904010001030000A1
:1004B00000092111010001223200070582032000FA
:1004C0000112010002000000083288328800010198
:1004D000020001200366007200650065006100648F
:1004E0000072007300330032005F006B006E006F1B
:1004F00000620000002203540061006B006100688C
:1005000000690072006F0020004E006100740073EB
:100510000075006D00650000000403090420002040
:100520002000200052204320200020004B6579202D
:10053000200020004C6179657200FFAA7F554000C1
:100540000101010101010101010202020202020294
:100550000202030303030303030304040404040467
:10056000040505050505060606060607070707072D
:1005700008080808090909090A0A0A0B0B0B0C0CE0
:100580000C0D0D0D0E0E0E0F0F0F1010111111127C
:100590001213131414151516161717181819191AFB
:1005A0001A1B1B1C1D1D1E1E1F202021222223245E
:1005B00024252626272829292A2B2C2D2D2E2F309D
:1005C000313232333435363738393A3B3C3D3E3FB1
:1005D000404142434445464748494A4C4D4E4F509E
:1005E000515354555658595A5B5D5E5F616264655C
:1005F0006668696B6C6D6F7072737577787A7B7DE6
:100600007E8082838587888A8C8E8F919395969839
:100610009A9C9EA0A2A3A5A7A9ABADAFB1B3B5B755
:10062000BABCBEC0C2C4C6C9CBCDCFD1D4D6D8DB2C
:10063000DDDFE2E4E7E9EBEEF0F3F5F8FAFDFF00C9
:10064000DA0281FFD9F1DB20A4A62EAF00A0C0D32F
:100650000000A1C8D30000AED580A81F408D142093
:100660000029001E001F002000000021002200239E
:100670000024002500000014001A000800000015E6
:100680000017001C0018000C001E00E100040016FA
:10069000000000070009000A000B000D001E00E228
:1006A000001D001B00000006001900215210002848
:1006B0000029021E021F0220020000210222022342
:1006C0000224022502000014021A0208020000158A
:1006D0000217021C0218020C021E02E1000402169C
:1006E000020000070209020A020B020D021E02E2CA
:1006F000001D021B020000060219022152104228AE
:1007000000010001000100010000000100010001E2
:1007100000010001000000010001000100000001D3
:1007200000010001000100010001000100010001C1
:1007300000000001000100010001000100010001B2
:1007400000010001000000010001000100010001A2
:10075000004E004B00510052004F005000010001BC
:100760000001000100010001000100010001000181
:1007700000010001006162636465666768696A6B15
:100780006C6D6E6F707172737475767778797A317B
:10079000323334353637383930524542545F2D3D87
:1007A0005B5D5C233B27602C2E2F11241FBECFEFF7
:1007B000DAE0DEBFCDBF11E0A0E0B1E0E2E4F5E4B5
:1007C00002C005900D92AE38B107D9F724E0AEE82B
:1007D000B1E001C01D92AB3EB207E1F70E94751A6D
:1007E0000C9480220C940000F894E82FE295EF70AE
:1007F000F0E041A18F7021E030E0B90102C0660F46
:10080000771F8A95E2F7CB01962F9095942391A3B9
:1008100092A1892B82A378940895F894E82FE29509
:10082000EF70F0E041A18F7021E030E0B90102C02B
:10083000660F771F8A95E2F7CB01942F982B91A32F
:1008400092A18095892382A378940895982F829508
:100850008F70882311F0982F84E0292F26952695F4
:10086000222311F08E5F922F969591118F5F08953C
:100870008093A40408958093A504089521E030E0B6
:1008800001C0220F8A95EAF78091A504822B0E946D
:100890003B04089521E030E0A90102C0440F551F38
:1008A0008A95E2F7CA0180959091A50489230E9458
:1008B0003B0408959B01677091E001C0990F6A9510
:1008C000EAF763E0369527956A95E1F7B901660F77
:1008D000771F260F371FFA01E20FF31F40E050E0A9
:1008E000682F70E08191DF0111979B01042E02C0F7
:1008F000369527950A94E2F7217021952827292318
:1009000028272C934F5F5F4F4330510559F70895C7
:100910009C01A82FA77083E0369527958A95E1F76B
:10092000C901880F991F820F931FFB01E80FF91F60
:1009300040E050E080E0219130E00A2E02C0369580
:1009400027950A94E2F721703327042E01C0220F65
:100950000A94EAF7822B4F5F5F4F4330510559F7F6
:100960000895282F862F943070F42A3058F4622F7F
:1009700070E02AE0929F600D711D11244AE854E056
:100980000E945A0408959C5F9230E0F7622F70E055
:1009900047E854E0F5CF292F943068F48A3090F47A
:1009A00090E06AE874E03AE0239F800D911D1124E5
:1009B0000E94880408952C5F223020F467E874E0D8
:1009C00090E0F6CF80E008958091AB049091AA0466
:1009D000981301C008958F5F8770FACF9091A60495
:1009E000809589238093A604282F277021110DC09C
:1009F000891759F09091A80492FF07C086958695B3
:100A000086950E944A041092A6040895982F909506
:100A10008091A10489238093A10408957430C8F4BF
:100A20006A3008F040C0833008F040C0E62FF0E0A4
:100A30009AE0799FE00DF11D112498E2899FE00D65
:100A4000F11D1124EE0FFF1FEF59F94F859194917D
:100A500008957D3F99F4633030F5833038F590E0A8
:100A6000FC01EE0FFF1FE80FF91FE60FF11DEE0F5F
:100A7000FF1FEE0FFF1FEF5AF84FE8CF7C3F99F4AE
:100A8000633088F4833090F490E0FC01EE0FFF1F98
:100A9000E80FF91FE60FF11DEE0FFF1FEE0FFF1F0E
:100AA000ED5AF84FD3CF80E090E0089581E0FCCF7D
:100AB000803E9105D1F1C8F48133910509F47FC0DE
:100AC00048F48932910509F46FC08A32910509F41E
:100AD0007DC0089589339105E1F082389105C9F010
:100AE0008533910509F45BC00895843E9105D1F1E9
:100AF00048F4823E910531F1833E910541F181EE4A
:100B000090E00895863E9105C1F1873E9105E1F19F
:100B100008952091A7042370211165C02091A80495
:100B200023FF14C089E290E008952091A70420FDDE
:100B300043C03091A80430FF09C024FF4EC080E0BC
:100B400090E008952091A70422FDF7CF0895209109
:100B5000A70422FD45C03091A80430FD44C024FF05
:100B6000F5CFEDCF2091A80421FFF0CF8091A7040D
:100B700084FDE5CF87EE90E008952091A70423FF40
:100B8000E5CF24FDDCCFF6CF2091A70423FD2EC0B6
:100B90003091A80431FFE3CF84EE90E008952091D6
:100BA000A70425FFD3CFBECF2091A70425FD21C0E8
:100BB0002091A80423FFCACF89E390E008952091F3
:100BC000A70426FFC3CF8AE290E008952091A704EE
:100BD00026FFBCCF81E390E0089583EE90E0089576
:100BE00082EE90E0089580EE90E0089586EE90E029
:100BF000089585E390E0AACF9091A70492FF10C0DA
:100C000041E0282F2471243009F040E031E0282F02
:100C10002871283009F030E0431711F02CE08227CA
:100C200093FF10C041E0282F2471243109F040E0E7
:100C300031E0282F2871283109F030E0431711F0F6
:100C40002CE082273091A80430FF10C051E0282FFB
:100C50002171213009F050E041E0282F287128301F
:100C600009F040E0541711F029E0822731FF10C04D
:100C700041E0282F2171213109F040E031E0282F97
:100C80002871283109F030E0431711F029E082275C
:100C900094FD877E08951F93CF93DF930E9458059C
:100CA000EC01811522E5920708F053C0811540E55B
:100CB000940708F0DDC0803E9105F8F48D3C910565
:100CC00008F0AEC0883A910580F4853A910508F0A5
:100CD00099C08130910521F00497813A910550F433
:100CE000CE01DF91CF911F910895885A91094B97BA
:100CF00008F48BC0C0E0D0E0F3CF811550E4950735
:100D0000F8F4C11580E2D80708F0CBC0C83ED10581
:100D100038F3CE019A9581159F4160F78D2F0E947F
:100D2000FC05182FCE0199270E945805212F30E08D
:100D3000322F2227E901CC27DF71C82BD92BD0CF46
:100D400099270E945805CC27DF70C82BD92BD06A71
:100D5000C7CF803842E59407C8F5803652E595073D
:100D600008F067C0C03482E5D807B0F08C2F8695B4
:100D70008695877020E2829FC0011124C37021E014
:100D800030E0A90102C0440F551FCA95E2F7EA01FD
:100D9000C82BD92BDC68A4CFC03252E5D50708F0A8
:100DA00041C08C2F8695869520E2829FC001112438
:100DB000C37021E030E0A90102C0440F551FCA955D
:100DC000E2F7EA01C82BD92BDD688ACF803C52E5D7
:100DD000950760F48F71C03AD24508F03FC090E0AB
:100DE000982F8827EC01C46FD06A7ACF805C924537
:100DF000809708F07FCFDC2FCC27CC27DF71C06F26
:100E0000D06A6ECFA497D0646BCFC85AD0E0CC0F15
:100E1000DD1FC85ADE4F0990D881C02DD46460CF41
:100E2000D0655ECFCF71D0E0DC2FCC27C16FD06A08
:100E300057CF86958695877020E2829FC001112446
:100E4000C37021E030E0A90102C0440F551FCA95CC
:100E5000E2F7EA01C82BD92BDA6842CF0E94FC05E1
:100E6000C82FD0E0DC2FCC27CC27DF71D06238CF61
:100E70008F710E94FC0565E0D695C7956A95E1F7EC
:100E8000CF70D0E0DC2FCC27282F30E084FF05C0C6
:100E900054E0220F331F5A95E1F7C22BD32BD069B0
:100EA0001FCF8D2F8F710E94FC05182FCE0199271F
:100EB0000E945805212F30E0322F222722273F7130
:100EC000282B392BE901D2CFA0E0B0E0EAE6F7E029
:100ED0000C948A217C010091A5048091A404082B24
:100EE000C7E0D0E010E0C8010C2E02C095958795B0
:100EF0000A94E2F780FD09C02197A8F7D12C8D2D27
:100F0000CDB7DEB7E7E00C94A621DC2EB7018C2F1D
:100F10000E940E050E944B06019771F3F0CF0F93CC
:100F20001F93CF93FC01858100811181882391F06B
:100F3000662381F0C8010E946407C82F682FC8018A
:100F40000E94B104B8018C2F0E940E05CF911F9111
:100F50000F910895C8010E94CB04C82FF3CFCF93FF
:100F6000DF93D82FC92F0E9464076D2F7C2F0E941A
:100F70000E050E944B06DF91CF910895FC018481FC
:100F80008823A1F0808191810E94AF07282F92953C
:100F90009F70963091F060F4925F9F70923030F4C1
:100FA00081E0203F79F030F4283E30F080E004C04A
:100FB0009A5FF3CF243FD1F7089581E0283E18F0DF
:100FC000213FF9CF0895089580E00895A0E0B0E0B2
:100FD000ECEEF7E00C948721E901E42FF0E0E15C0E
:100FE000FA4F61110BC0E4919E2F8E2F8983E88305
:100FF0009A83CDB7DEB7EAE00C94A321282F30E026
:10100000062F10E0F491EF2F86E0829F6001839F0E
:10101000D00C1124EE24EA94F12CC601B7010E94F1
:101020006B21220F331F45E5469FC001479F900D5E
:101030001124281B390B822F880F280FC701801B12
:10104000910BF89FA001F99F500D1124952F209F1F
:101050005001219FB00C1124AB2CBB24D701AA193D
:10106000BB095D01FA9DD001FB9DB00D11248B2FB2
:101070005701A21AB1089501209F5001219FB00C81
:10108000309FB00C1124AB2CBB24EA18FB08FE9D4A
:101090009001FF9D300D112463307105C9F01CEFE4
:1010A000C11613E0D10650F46130710509F49ECFEA
:1010B0006230710589F08E2FE32F98CF643071056F
:1010C00071F066307105B9F3E52F9B2F8F2F8ECF0E
:1010D000EB2F852F9F2F8ACF852F932F87CF832F9D
:1010E000E52FF8CF80919904843060F48370846098
:1010F0008093990480919C04893718F088E7809345
:101100009C0408958033B0F383708C62F1CF80919A
:10111000990480FD0AC0EEEDF1E011821082128286
:10112000339682E0EE33F807C1F760E270E08EEDAF
:1011300091E00E94D90A0895FA01882311F00995D7
:101140000895FB01FCCF90E06623E9F0875D9E4F98
:10115000FC0180818F3FB1F0E82FE295EF70F0E065
:1011600041A18F7021E030E0B90102C0660F771F06
:101170008A95E2F7CB01962F9095942391A392A1A3
:10118000892B82A308958A5D9E4FE2CF90E066236B
:10119000A9F0875D9E4FFC0120812F3F91F0E22F47
:1011A000E295EF70E05EF0E0808190E02F7002C089
:1011B000959587952A95E2F7817008958A5D9E4FEF
:1011C000EACF80E00895539A0895E0917D04F0916C
:1011D0007E04309729F00190F081E02D0995089563
:1011E00080E00895A3E0B0E0E8EFF8E00C948F21F0
:1011F0009C018091BC019091BD0182179307A1F0E1
:101200003093BD012093BC01E0917D04F0917E04F8
:10121000309751F083E089833B832A830084F185F2
:10122000E02DCE01019609952396E2E00C94AB21C6
:10123000A3E0B0E0EEE1F9E00C948F219C018091F5
:10124000BA019091BB0182179307A1F03093BB01C3
:101250002093BA01E0917D04F0917E04309751F023
:1012600084E089833B832A830084F185E02DCE01CD
:10127000019609952396E2E00C94AB21A4E0B0E03E
:10128000E4E4F9E00C948F218FB7F8942091B60133
:101290003091B7014091B8015091B90129833A8347
:1012A0004B835C838FBF69817A818B819C8124967B
:1012B000E2E00C94AB218091B50108950895089562
:1012C000FC019B018091AB019091AC0186179707BF
:1012D00040F0672B29F48091E8008E778093E80036
:1012E000C90140E0009741F4411106C08091E80037
:1012F00082FF2FC080E00895209158042223A9F195
:101300002530A9F12091E80023FD2DC02091E800AF
:1013100022FDECCF2091E80020FFE4CF3091F300D4
:101320002091F200009719F02830310558F041E083
:101330002830310509F040E02091E8002E77209315
:10134000E800D0CF41914093F10001972F5F3F4FCC
:10135000E9CF80915804882341F0853041F0809195
:10136000E80083FFC3CF81E0089582E0089583E021
:1013700008958091A50187FF13C08091E80082FF46
:1013800006C08091E8008B778093E80004C08091CC
:1013900058048111F2CF0895809158048823D9F31D
:1013A0008091E80080FFF8CF8091E8008E77ECCF45
:1013B0002091E4003091E50095E6A9018091EC00D0
:1013C0008170882331F08091E80080FF06C080E0C2
:1013D00008952091E80022FD1BC0809158048823C5
:1013E00091F0853091F08091EB0085FD10C0209147
:1013F000E4003091E5004217530701F39150911139
:10140000DCCF84E0089582E0089583E0089581E0D0
:101410000895E8EDF0E080818E7F80831092E200F5
:101420001092DA001092E100A0EEB0E08C918160A1
:101430008C9380818F77808319BCA7EDB0E08C916D
:101440008E7F8C9380818F7E80831092A40108957B
:10145000982FE42FE2709093E900891308C0762F4B
:10146000242F50E0E11111C091E0980FF4CF70915A
:10147000EC002091ED005091F00021FD06C09F5F2F
:10148000973049F78093E90008953091EB003E7F53
:101490003093EB003091ED003D7F3093ED003091C3
:1014A000EB0031603093EB007093EC002093ED0083
:1014B0005093F0002091EE0027FDE1CF0895A0E0C9
:1014C000B0E0E5E6FAE00C948921C8EDD0E088812F
:1014D0008F7E8883E7EDF0E080818160808384E007
:1014E00082BF81E08093A40188818E7F888302EE91
:1014F00010E0F80110821092DA0081EEC82ED12C93
:10150000F601108288818F7788838881806888833C
:1015100088818F7D888319BC109258041092A30192
:10152000109257041092A20190EEE92EF12CF701CF
:1015300080818B7F808388818160888342E060E046
:1015400080E00E94280AF60180818E7F8083F80166
:10155000808181608083808188608083F7018081C1
:101560008E7F8083888180618883CDB7DEB7E8E095
:101570000C94A521E091AB049091AA0427E0E91313
:1015800002C080E00895AE2FB0E02E9FF00111243C
:10159000E455FB4F3181361306C03081381303C048
:1015A0003581341304C0FD013196E770E8CF81E046
:1015B00008959C01AB016BB1677F7BB17860EFB799
:1015C000F894CA01880F991F840F951F820F931FEB
:1015D0008217930741F4EFBF8FE594E00197F1F78D
:1015E00000C000000895D9014D919D0158E07BB9DC
:1015F000000000C047FF6BB9440F000000C000C0EE
:1016000000C06BB900C05A9591F7E2CF0F931F93BA
:10161000CF93DF93EB018A0190915804943079F5D0
:101620008093E9008FEF9091E80095FD07C095ED5C
:101630009A95F1F7000081508111F5CF8091E80073
:1016400085FF1DC00E94D809811114C08091E80057
:1016500085FD06C08091E8008E778093E800F2CF88
:1016600088818093F100015011090115110511F0D5
:101670002196ECCF8091E8008E778093E800DF918F
:10168000CF911F910F910895CF93DF93D82FC92F3A
:1016900048E050E0682F792F81E00E94060B88E037
:1016A000ED2FFC2FADEAB1E001900D928A95E1F7A4
:1016B000DF91CF910895BC0143E050E082E00E94A9
:1016C000060B08959091A80492FB222720F9281771
:1016D00079F080FB92F99093A8046091A70470912F
:1016E000A80484E090E00E946A2282E00E94EE0456
:1016F00008958091A1049091A904892B4091A2049E
:10170000442389F090E022E931E0F90150812F5F14
:101710003F4F51119F5F51E028393507B1F79111C3
:101720001092A204842B8093900148E050E06FE770
:1017300074E080E991E00E941B22892BA9F088E0E7
:10174000E0E9F1E0AFE7B4E001900D928A95E1F7AE
:10175000E0917D04F0917E04309731F00280F381B6
:10176000E02D80E991E0099508951092A104E2E945
:10177000F1E086E0DF011D928A95E9F780E090E0D4
:101780000E94F20880E090E00E9418091092A904DB
:101790000E94790B08950E94B50B2FEF84E39CE023
:1017A000215080409040E1F700C0000088E19AE0BD
:1017B0000FB6F894A895809360000FBE90936000D8
:1017C000FFCFAAE2B0E0E7EEFBE00C948E2185EAC1
:1017D00091E0FC0101962091F100208321E08D3AF7
:1017E0009207B9F78091A601893009F456C0C8F470
:1017F000823009F4B2C0833009F481C0813071F1C4
:101800008091E80083FFE6C08091A5019091A60138
:101810009A3008F0DFC0E92FF0E0EE57FD4D0C9450
:10182000D6218A3009F488C08B3051F78091A50108
:10183000813231F78091A9019091AA01892B01F79A
:101840008091E800877F8093E8000E94B909809129
:10185000A701809300010E94B50BD2CF8091A50112
:10186000813A71F68091E800877F8093E80080914B
:10187000A9019091AA01892B61F060E080E090E0DD
:1018800070E00E9460098091E8008B778093E80007
:10189000B7CF68E08DEA91E0F3CF8091A501813266
:1018A00009F0AECF8091A9019091AA01029708F0AA
:1018B000A7CF8091E800877F8093E8008091E800BF
:1018C00082FF18C09091F3008091F200029731F4EA
:1018D0008091F100813011F0863021F48091F10087
:1018E0008093B5018091E8008B778093E8000E9497
:1018F000B90986CF809158048111E0CF81CF8091C2
:10190000A501813A09F07CCF8091A9019091AA01AB
:10191000892B09F075CF8091E800877F8093E800DC
:101920008091E80080FFFCCF809100018093F1005E
:101930008091E8008E77D9CF8091A501813209F09E
:101940005FCF8091E800877F8093E8000E94B9090B
:101950008091A8018093A10153CF8091A501813A84
:1019600009F04ECF8091E800877F8093E800809156
:10197000E80080FFFCCF8091A101D8CF803889F0AA
:10198000823841F58091A9018F70873018F58093D6
:10199000E9008091EB0085FB882780F91092E9002F
:1019A00006C08091A201909157049111826090919C
:1019B000E800977F9093E8008093F1001092F10087
:1019C0008091E8008E7723C0811116C08091A70115
:1019D000813011F18091E80083FF0AC08091E80016
:1019E000877F8093E8008091EB0080628093EB001A
:1019F000AA96E3E00C94AA21823061F78091A701B6
:101A0000882389F01092E9008091E800877F809315
:101A1000E8000E94B909DECF81E0933009F080E050
:101A200080935704EFCF8091A9018F702FEF280F7B
:101A3000263080F68093E9002091EB0020FFE2CF72
:101A4000933031F48091EB0080628093EB00DACF29
:101A50009091EB0090619093EB0021E030E0A901C0
:101A600002C0440F551F8A95E2F74093EA00109296
:101A7000EA008091EB008860E8CF8111ABCF109134
:101A8000A7011F778091E3008078812B8093E3008A
:101A90008091E800877F8093E8000E94B9098091D7
:101AA000E80080FFFCCF8091E30080688093E30032
:101AB00083E0111101C082E0809358048BCF8058DD
:101AC000823008F087CF4091A7015091A8014C3D8A
:101AD00083E0580799F583E08A838AE289834FB7C8
:101AE000F894DE01139620E03EE051E2E32FF0E0AF
:101AF00050935700849120FF03C082958F703F5F01
:101B00008F708A30C8F0895C90E08D939D932F5F31
:101B1000243161F74FBF8091E800877F8093E80010
:101B20006AE270E0CE0101960E9460098091E800AF
:101B30008B778093E8004ECF805DE6CF2091A9019E
:101B40003091AA01852F99278330910509F160F41E
:101B50008130910509F472C0029709F03BCF8BE305
:101B600090E0E6E8F4E029C08132910509F45AC01A
:101B7000829709F02FCF2115310509F469C0213072
:101B8000310509F027CF82E390E0E0E1F4E015C0F1
:101B9000CA0199274130B1F18230910509F43AC068
:101BA000892B09F017CFE9E1F5E0E4918E2F90E061
:101BB000E9E1F5E0009709F40DCF2091E800277FD7
:101BC0002093E8002091AB013091AC01821793077C
:101BD00008F49C0140E02115310509F03EC0411197
:101BE0003CC08091E80082FDA1CF809158048823F9
:101BF00009F49CCF853009F499CF8091E80083FFE8
:101C0000F0CF94CFE5EFF4E0E4918E2F90E0E5EF94
:101C1000F4E0D0CFE3EDF4E0E4918E2F90E0E3ED3B
:101C2000F4E0C8CF2115310571F02130310509F0FC
:101C3000D1CE89E090E0E1EBF4E0BFCF82E190E02B
:101C4000E1ECF4E0BACF89E090E0E8E9F4E0B5CF68
:101C500084E490E0E2E4F4E0B0CF8091580488237B
:101C600009F464CF853009F461CF8091E80083FDE9
:101C70005DCF8091E80082FDB4CF8091E80080FFC5
:101C8000AACF9091F3008091F2002115310519F04F
:101C90008830910550F041E0089709F040E08091CC
:101CA000E8008E778093E80096CF44914093F1004E
:101CB0003196215031090196E8CF803809F08ACE5B
:101CC0008091E800877F8093E8008091A301809352
:101CD000F10076CE81117ECE1091A701123008F06E
:101CE00079CE8091E800877F8093E8001093A3016C
:101CF0000E94B909112381F084E08093580442E0E6
:101D000061EC81E00E94280A42E261EC82E00E94DC
:101D1000280A809158045ECE8091E30087FDECCFC5
:101D200081E0EBCF0F931F93CF93C82F882339F116
:101D30008CEF8C0F813AB0F502E911E0F801819146
:101D4000C81709F121E0E839F207C9F7EFEF80E0A1
:101D5000D8019D918D01C91781F0EF3F19F49111C0
:101D600001C0E82F8F5F863099F7EF3F31F00E2EDC
:101D7000000CFF0BE057FE4FC2830E94790BCF91FE
:101D80001F910F910895E2E9F1E08191C81303C01A
:101D9000DF0111971C9231E0E839F307B1F70E9497
:101DA000790BD4CF80E28C0F883068F4C77081E063
:101DB00090E001C0880FCA95EAF7C091A104C82B32
:101DC000C093A104DACF8BE58C0F833038F42C2F2D
:101DD0002452330BC9010E94F208D1CFC85ACB312B
:101DE00070F6EC2FF0E0EE0FFF1FE85AFE4F8081F7
:101DF00091810E941809C3CF882389F19CEF980F25
:101E0000913A78F4E2E9F1E09191891303C0DF019E
:101E100011971C9291E0E839F907B1F70E94790B0C
:101E2000089590E2980F983050F4877091E001C0C7
:101E3000990F8A95EAF7892F0E940605EFCF9BE557
:101E4000980F933028F480E090E00E94F208089503
:101E5000885A8B3120F480E090E00E9418090895A0
:101E6000882339F09091A104892B8093A1040E94CA
:101E7000790B0895882321F00E9406050E94790BB2
:101E80000895A0E0B0E0E7E4FFE00C948921890127
:101E9000D42FC52F6B017C010E947208A8016D2F01
:101EA0007C2F88E090E00E945E2298014D2F5C2FED
:101EB000B601C70100E20E94F721622F83E290E0A1
:101EC0000E944C22CDB7DEB7E8E00C94A5218091AA
:101ED0009D04833018F48F5F80939D0420919904B2
:101EE00030919A0440919B0450919C0460919D0410
:101EF00070919E0480919F049091A0040E94410FD4
:101F0000089580919D04882319F0815080939D0449
:101F10002091990430919A0440919B0450919C0423
:101F200060919D0470919E0480919F049091A00403
:101F30000E94410F0895A3E0B0E0E1EAFFE00C94B5
:101F40008421E82ED62EF42E722E8091990480FFE3
:101F500040C0982F96959695E92FF0E0EC5CFE4FE7
:101F600020818C7F8430C9F528E7241708F448E7DE
:101F70009E012F5F3F4F6D2D8E2D0E94E6078091B1
:101F8000990480FF0FC08B8199812A81EEEDF1E0E9
:101F9000218390838283339632E0EE33F307C1F7D7
:101FA0000E948708E0929A04D0929B04F0929C04CD
:101FB000772079F02091990460919D0470919E049E
:101FC0003E2D4D2D5F2D80919F049091A0040E9485
:101FD000410F2396EDE00C94A021223019F7EEEF8B
:101FE000E90F9170C92EE695F0E0E65CFA4FE491B6
:101FF0000E2F10E03EEDA32E31E0B32E812C912C5C
:10200000C40125E0969587952A95E1F7C11015C082
:102010008E0D4F2D38E73F1508F448E795016D2DDB
:102020000E94E607800E911E83E0A80EB11C9EE37D
:10203000A91692E0B90621F7B3CF2E2D281B822FC7
:10204000E8CF9091990490FF29C0882341F18C300A
:1020500040F58F73282F220F220F809199048370EF
:10206000282B20939904662381F030919A044091A3
:102070009B0450919C0460919D0470919E048091FA
:102080009F049091A0040E94410F20E040919C0485
:1020900060919B0480919A040E949B0F089581E0B7
:1020A000D9CF8BE0D7CF80919904869586958F5FA5
:1020B0008C3008F081E061E00E9421100895909139
:1020C0009904969596958FEF890F913009F48BE0DE
:1020D00061E00E94211008958091990480FF09C059
:1020E00086958695825C8F73893018F40E94531010
:1020F000089561E082E00E9421100895A0E0B0E020
:10210000E4E8F0E10C9489217C01FC0184818823BE
:1021100009F403C161E0C7010E948F079C01F70128
:10212000458190931C0180931B0180819181909344
:102130001E0180931D01F9013497E533F10508F084
:10214000B2C0EB58F84FE4915FE5442311F05E2FE5
:10215000EFE5AFE1B1E080E090E06D916E136CC00F
:10216000855E9E4FFC015483F7018581811176C005
:10217000F701858100811181882309F439C1C801E3
:102180000E946407C82F682FC8010E94B104B801DB
:102190008C2F0E940E050E944B06D82FC92FF701E5
:1021A000C580068102950F708091A60487708823F0
:1021B00001F1DC2CCC20F1F0892F807F803461F09C
:1021C00080E28D0F8830A8F0892F807E803221F444
:1021D000D23078F0002369F08091A80482FF09C012
:1021E00082E00E94EE048091A6048770DD24D394DF
:1021F0008111D12C8C2F82958F70883009F4EAC11F
:1022000008F01AC1843008F0F8C01C2F1F7082300B
:1022100008F423C1C07FC03211F01295107FDD2376
:1022200009F451C1D13009F49AC1CC2009F4A4C1F8
:10223000002309F466C126C101968630910509F094
:102240008CCF442309F494CF2B358CE7380708F062
:10225000B3C021309CE7390709F4C6C02330ECE74E
:102260003E0709F4BBC021153C4709F081CF0E940D
:10227000B50BEFEFF4E32CE0E150F0402040E1F744
:1022800000C0000087E797E790930108809300085B
:1022900088E19AE00FB6F894A895809360000FBE8D
:1022A00090936000FFCF411180C08091A1048272A1
:1022B000F901E052F847E531F10508F059CFE4574C
:1022C000FD4D0C94D6218091990480FF2BC0282FBE
:1022D0002E7F2093990430919A0440919B04509151
:1022E0009C0460919D0470919E0480919F04909144
:1022F000A0040E94410F0E9487088091A604877065
:10230000882359F0F7018581882339F08091A8044A
:1023100082FF03C082E00E94EE04CDB7DEB7E8E0A2
:102320000C94A52181608093990461E0869586953F
:102330000E942110E2CF4FE550E163E570E10E9479
:102340009C08DBCF43E550E16FE570E1F8CF4AEF41
:1023500055E160EF75E1F3CF40EF55E16AEF75E1CC
:10236000EECF41E156E164E076E1E9CF44E056E1A9
:1023700061E176E1E4CF4BE256E16EE176E1DFCF59
:102380004EE156E16BE276E1DACF41E85FE067E6E5
:102390007FE0D5CF47E65FE061E87FE0D0CF61E046
:1023A00081E0C6CF0E946C10A8CF2A35FCE73F071A
:1023B00009F04ACF81E00FC02B358CE73807B1F028
:1023C0002C353C4709F0D4CE8091A80482FB8827A5
:1023D00080F991E089270E94620BCACE6FEF7FEFF0
:1023E00080E090E00E946A220E94CB0B80E0F3CF55
:1023F000C8010E94CB04C82FCACE843009F4CDC0D6
:10240000DD20A9F08091A60480FD11C0F70115829E
:102410008695869586950E943E04C7010E947E108F
:102420008091A6048695869586950E944A0460E070
:10243000C7010E948F0771CF893009F43AC18A5FC2
:102440008F708230E8F6D23F09F044C18C2F8F7133
:10245000C1103DC10E943E04EAC0C03110F0129587
:10246000107FCC20B9F0112369F080E28D0F883005
:1024700010F0D11109C08091A104812B8093A10497
:102480000E94790B8D2F2FC08091A904812B8093FE
:10249000A904F6CF8D2F0E94FC0E112309F4B0CFB2
:1024A00080E28D0F883010F0D11104C0812F0E947E
:1024B000060506C010958091A90481238093A90484
:1024C0000E94790B9DCF8091A80482FD16C0CC207C
:1024D00069F0112339F08091A104812B8093A1042C
:1024E0000E94790B80E00E94920E8ACF80E00E94C9
:1024F000FC0E112309F484CFD9CFCC20A1F0011117
:1025000004C0812F0E94300F7BCF013009F078CFBB
:102510008091A204912F9823191709F471CF812B70
:102520008093A2046DCF01116BCF812F0E943A0FCF
:102530009091A204812F8923882329F0812F8095EF
:1025400089238093A2048091A304912F9823992337
:1025500009F456CF109518231093A30451CFCC2023
:1025600021F0063008F04CCFCCCF053008F048CF32
:10257000812F0E943A0F44CF0023D1F3D93349F47D
:10258000FFEF27EE33E0F15020403040E1F700C08C
:1025900000008D2F0E94FC0E33CF8C2F86958695E0
:1025A0008370882369F0813009F02ACF8D2F9C2F0A
:1025B0009370C11002C080E090E00E94180920CF03
:1025C0008D2F9C2F9370C11002C080E090E00E947C
:1025D000F20816CF8C2F8370811134C0C11027C030
:1025E0004D2F429546954770440F440F8D2F8F70A5
:1025F000042E01C0880F0A94EAF7D071DD2341F060
:102600002FE030E001C0220F4A95EAF7D22FD09593
:10261000C695C695C370C23081F0C33061F0209179
:10262000A404C13039F08D2B82230E9438040E940B
:10263000E508E6CE822B8D2BF8CF8D2B9091A4044C
:102640008927F3CFCC2051F1C0FFF1CF4D2F429518
:1026500046954770440F440F8D2F8F70042E01C094
:10266000880F0A94EAF7D071DD2341F02FE030E0C3
:1026700001C0220F4A95EAF7D22FD095C695C6958C
:10268000C370C23089F0C33069F02091A504C13015
:1026900041F08D2B82230E943B04C9CF823038F257
:1026A000D5CF822B8D2BF7CF8D2B9091A504892729
:1026B000F2CFCF70CC2039F08C2F0E943E048D2FAA
:1026C0000E94300FB4CF8D2F0E943A0F8C2F0E94A2
:1026D0004A04ADCFD33F70F4D03FB9F0D13FB9F148
:1026E000CC2009F455C0002309F44FC08D2F0E945F
:1026F000920E9DCFD33FE1F0D43F29F1C110F3CF2B
:10270000011154C08C2F8F71E2CFCC2079F00530AD
:1027100008F08DCFCF7181E090E0FC0101C0EE0F99
:10272000CA95EAF78091A5048E27B5CF0530F0CF82
:1027300080E0CC2009F4AFCFCF7181E001C0880FD9
:10274000CA95EAF7A8CF9091A80492FD06C08C2FF5
:102750008F71CC2009F4BBCF7DCECC2061F08C2FC3
:102760008F7192FF77CEF8E08F9F90011124236044
:102770002093A6046FCE81E00E94EE04023008F49C
:1027800056CF82E00E94EE0452CF8C2F8F7162CE22
:10279000002309F4B7CFD93349F42FEF37EE83E0A4
:1027A000215030408040E1F700C000008D2F0E9492
:1027B000FC0E3DCF8091EA04803178F48091E904E9
:1027C000882359F0E091AB042091AA043091E504EC
:1027D0004091E40457E02E1301C008956E2F70E07D
:1027E0005E9FF0011124DF01A455BB4F14968C911C
:1027F0001497882361F111968C911197831327C048
:102800008C91841324C015968C91159781111FC04B
:1028100012968D919C91A091E604B091E7048A1BD9
:102820009B0B883C910598F48091EA048F7080613D
:102830008093EA04EE54FB4F80818F708061808327
:1028400084EE94E00E947E100E94E4040895FB014F
:102850003196E770C0CFADE0B0E0E1E3F4E10C9475
:1028600084218C0186E0F801DE01189601900D921A
:102870008A95E1F7F801E080F580A280B380C480FA
:1028800084EE882E84E0982E7090E804711020C0A9
:10289000CC20D9F0FF2009F419C1C8010E94BE075D
:1028A000882309F413C187E0F801D40101900D9247
:1028B0008A95E1F7F1E0CF1206C08091E40490918F
:1028C000E5040E94AF070E94DA13FF24F39451C07D
:1028D000D090E9048091E6049091E7049501281BCB
:1028E000390BDD2009F4BAC0283C310508F090C04E
:1028F000CC2059F39091E504C1808091EA048031A5
:1029000008F058C0C91214C09091E4049E1110C080
:10291000F1104AC08F7080618093EA0484EE94E0E5
:102920000E947E108091EA04F8018683F12C21C078
:10293000F1103AC040E06C2D8E2D0E94BA0A40E0A2
:102940006C2D8E2D0E94BA0AF82E8111EFCF88854A
:1029500099850E94AF07292F22952F70903470F42B
:102960009F702230A0F09923B1F0F8019681903148
:1029700090F48F2D2D96EDE00C94A0212A5F2F70FE
:10298000223068F0C8010E947E10FD2CF2CF9923FE
:1029900011F0882371F3805E883058F3F3CF803FC5
:1029A00040F3815F8230F9CF8091EA0481608093A7
:1029B000EA04BCCFC91207C09091E4049E1103C081
:1029C000FF2009F46CC0C8010E94BE07882309F4E7
:1029D0007DC0FF2009F47AC08091EA04803278F04B
:1029E0002091E4043091E5043A832983BC82AB82D0
:1029F0007D821E828F83CE0101960E947E1087E029
:102A0000F801A4EEB4E001900D928A95E1F75BCF56
:102A10008091EA04803150F484EE94E00E947E10AC
:102A200087E0F40111928A95E9F780CFCC2009F470
:102A30004CCF2091E50491812913C5CF9091E404F6
:102A40009E11C1CFF110BFCF8683C8010E947E10B6
:102A500087E0F40111928A95E9F737CF283C3105D8
:102A6000F8F6CC2009F431CFFF2081F19091E504F4
:102A70008181981321C08091E4048E111DC0809142
:102A8000EA0480FD10C0803170F08683807F803F33
:102A900039F08681982F907F905F8F70892B868385
:102AA000C8010E947E1087E0F801A4EEB4E0019016
:102AB0000D928A95E1F709CFC8010E94BE078111E6
:102AC0009ECF8091EA0481608093EA04C8010E944D
:102AD0007E10FBCEABE1B0E0E0E7F5E10C948E2197
:102AE0004E8B5F8B688F798F8A8F9B8F911110929D
:102AF000A9041D8A86E0FE017696DE011F960190EC
:102B00000D928A95E1F78B89882329F061E0CE0147
:102B10000F960E948F0787E0FE013F96DE01189610
:102B200001900D928A95E1F7CE0108960E942B1430
:102B300081112BC087E0FE013896DE0111960190CD
:102B40000D928A95E1F72091AA044091AB048C85FF
:102B50008823D9F030E0C90101968770992750E0A9
:102B600084179507E9F097E0929FD001939FB00DED
:102B70001124A455BB4FFE01319601900D929A95F8
:102B8000E1F78093AA040E94E40417E08091AB046B
:102B90009091AA04891312C06B96E3E00C94AA21C9
:102BA0000E94B50B1092AA041092AB0487E0E4EEE9
:102BB000F4E0DF011D928A95E9F7E7CF189FC00185
:102BC000112484559B4F0E942B14882329F3809154
:102BD000AB0490E00196877099278093AB04D6CF21
:102BE000E9E9F4E0818121E0438162818F5E0E9406
:102BF0009B0F0895E9E9F4E0818121E0438162813E
:102C000081510E949B0F0895E9E9F4E0628121E17E
:102C1000620F08F46FEF21E0438181810E949B0FD6
:102C20000895E9E9F4E0628121E1621B08F460E0C3
:102C300021E0438181810E949B0F0895E9E9F4E03E
:102C400043812CE0420F08F44FEF21E06281818143
:102C50000E949B0F0895E9E9F4E043812CE0421BB8
:102C600008F440E021E0628181810E949B0F089579
:102C7000AB0124E630E0BC0188E70E94CC209C0137
:102C800081E0232B09F080E0089580914C04882393
:102C900069F080914B04882349F062E070E08EEA8D
:102CA00090E00E943816811110924B040895A4E020
:102CB000B0E0EDE5F6E10C948F2180914C0488237F
:102CC000F9F00E943E09DC01CB01805A9541AF4FDB
:102CD000BF4F80934D0490934E04A0934F04B09344
:102CE000500480914B0481110BC062E070E08CEACB
:102CF00090E00E943816882319F081E080934B04FD
:102D00002496E2E00C94AB21CF93DF93282F81E04F
:102D10002A3019F02D3031F480E00E940A17DF913B
:102D2000CF910895809148029091490236E0FC01CC
:102D3000ABE9B1E001900D923A95E1F730EE320F38
:102D4000303908F458C026E0FC0111922A95E9F7C1
:102D5000C0914802D091490246E050E0BE018BE9A3
:102D600091E00E941B229E012A543240892B41F19E
:102D7000C90145E0969587954A95E1F741E050E015
:102D8000BA0102C0660F771F8A95E2F7CB01609106
:102D9000460270914702862B972BB9016B5F7F4FDC
:102DA000E5E076956795EA95E1F702C0440F551F77
:102DB0006A95E2F7842B952B909347028093460205
:102DC0002A5F3F4F40915104642F70E0C9010E9477
:102DD0006B21481B463010F4240F311D211572E081
:102DE000370710F020E030E0265B3D4F309349027A
:102DF0002093480294CF2052330B46E0429FB0010B
:102E0000439F700D112460557F4F46E050E00E94B3
:102E100012229ECFCF93382FE0914802F0914902C1
:102E2000EA54F24020915104622F70E0CF010E94D9
:102E30006B21281B822F332361F066E00E94B621AC
:102E4000C82FC15010F4CF91089580E20E948416DB
:102E5000F8CF9F01280F311D2115324018F080E076
:102E6000E0E0F0E08E0F9F2F911D865B9D4F9093C9
:102E7000490280934802E7CFCF93DF93C0E8D5E0C3
:102E8000DC0F8C2FCF5F0E948416DC13FACFD4396D
:102E900011F0CD2FF4CF80E00E940A17DF91CF917F
:102EA0000895CF93DF93EC01FE018491811103C05B
:102EB000DF91CF9108950E9484162196F5CF2F922D
:102EC0003F925F926F927F928F929F92AF92BF924A
:102ED000CF92DF92EF92FF920F931F93CF93DF93E6
:102EE00000D000D000D0CDB7DEB780914C0488234D
:102EF00009F4C6C08AE492E09093490280934802A4
:102F00000E943C178091510425E0829FC00111244A
:102F1000811532E0930714F080E090E0865B9D4FCE
:102F200090934902809348028CE295E00E945117E9
:102F300080911B0190911C0154E0969587955A95BC
:102F4000E1F78F708A3008F0B3C0805D0E9484166C
:102F500080911B018F708A3008F0ACC0805D0E94A8
:102F600084168AE295E00E94511781E00E940A17B8
:102F700084E295E00E94511780911E018F708A3083
:102F800008F09AC0805D0E94841682E295E00E945B
:102F9000511780911D018F708A3008F08FC0805DBD
:102FA0000E9484168FE195E00E945117AFE1B1E0D5
:102FB0000D900020E9F71197BA83A9830FE111E082
:102FC00029813A810217130708F47AC08DE195E050
:102FD0000E94511781E00E940A1784E395E00E9445
:102FE000511781E00E940A178091A5040E942604CF
:102FF000805D0E94841682E395E00E94511781E073
:103000000E940A178091460290914702892BA9F0ED
:1030100080914C04882389F080914A0481110DC06D
:103020000E945716209146023091470280E061E0ED
:1030300070E02115310509F04AC080914B048823C6
:10304000F9F00E943E0969837A838B839C83809187
:103050004D0490914E04A0914F04B09150042981E9
:103060003A814B815C81281B390B4A0B5B0BDA01DF
:10307000C9018F3F9F4FAF4FBF4710F40E944516C5
:103080000F900F900F900F900F900F90DF91CF91B6
:103090001F910F91FF90EF90DF90CF90BF90AF9076
:1030A0009F908F907F906F905F903F902F900895AA
:1030B000895A4CCF895A53CF895A65CF895A70CFD4
:1030C000F80181918F010E9484167ACF8F5F082FBB
:1030D00010E01B01082E02C0220C331C0A94E2F7F8
:1030E000A10142235323452B89F39091520490FD73
:1030F00044C098013695279536952795922F82954D
:10310000880F80763FE1380F8093030120930601FA
:10311000309304019093070124E630E047E050E04B
:1031200061E071E088E70E948120892B09F085CF5A
:10313000A80125E0440F551F2A95E1F7809152041C
:1031400080FD23C0465B5D4F04E610E020E230E0E6
:1031500060E488E70E941921892B09F06ECFA10154
:1031600040955095809146029091470248235923FB
:10317000509347024093460260CF880F880F880F14
:1031800037E0380F20E093E0BFCFEEEBF1E080E2D4
:10319000DF011D928A95E9F7E0E3F1E0FE83ED831C
:1031A0000CE211E084E3C82E81E0D82E97E0592E7E
:1031B00077247394AD81BE818D91BE83AD83F80178
:1031C00021918F01240F352F311D265B3D4FE82FB4
:1031D000F0E0E254FE4F80E090E0652C681A872C06
:1031E000082E01C0880C0A94EAF77901A12CD701B6
:1031F000BD907D01B820662D6A19677070E0BB2D07
:10320000062E01C0BB0F0A94EAF79B2E71956195BB
:1032100071096770772701C0B6946A95EAF79B2811
:103220006081962A9082A39468E0A612E0CF01966E
:1032300031968830910589F68D819E81C816D90610
:1032400009F0B8CF04E610E020E230E04EEB51E0A8
:103250007FCF1F921FB61F9211248F939F93AF931E
:10326000BF9380915404811113C08091B601909155
:10327000B701A091B801B091B9014196A11DB11D4E
:103280008093B6019093B701A093B801B093B901B0
:10329000BF91AF919F918F911F901FBE1F90189566
:1032A0002FB7F8948091B6019091B701A091B80121
:1032B000B091B9012FBF0895A6E0B0E0E2E6F9E1D0
:1032C0000C948D210E9450198C0180917B04909167
:1032D0007C048017910779F019821A820E94501994
:1032E000BC0149815A8180E090E00E946A151093E8
:1032F0007C0400937B042696E4E00C94A9219C01B5
:103300004FB7F8948091B6019091B701A091B801A0
:10331000B091B9014FBF821B930B0895A8E0B0E0B4
:10332000E4E9F9E10C9483218E010F5F1F4F88E0DF
:10333000D8011D928A95E9F74801580138E0C32E5B
:1033400031E0D32E66246394712CF60181916F01D4
:103350008F3F11F00E940D0400C02CE0E22E21E00E
:10336000F22EF70120E030E041914F3FF9F0A42F19
:10337000A295AF70A05EB0E08C9190E04F7002C05B
:10338000959587954A95E2F7817081110FC0D50117
:103390008D919C911197A301022E02C0440F551FDD
:1033A0000A94E2F7842B952B8D939C932F5F3F4FCC
:1033B00025303105C9F6F601319780818F3F11F034
:1033C0000E94F403B0EABA95F1F7E2E0AE0EB11C48
:1033D000FCE0CF16F1E0DF0609F0B7CF90E2C92E8E
:1033E000D12CD7018D917D018F3F11F00E940D04EA
:1033F00000C0F80148E051E0DA012D91AD012F3F06
:10340000B9F0822F82958F70805E90E0DC018C9104
:1034100090E02F7002C0959587952A95E2F781700C
:10342000811106C0808191818C299D29918380839F
:103430003296B1E04C305B07F9F6F70131978081A5
:103440008F3F11F00E94F403E0EAEA95F1F7CC0C0B
:10345000DD1CF1E1EF16F1E0FF0619F6EEE3F2E014
:10346000085F1F4F80E0D4012D913D914D014191A6
:1034700051912417350729F0DF0112972D933C93C2
:1034800081E08016910679F7882369F081E08093C6
:103490009A010E945019909399018093980128965F
:1034A000EEE00C949F2180919A018823C1F38091D2
:1034B0009801909199010E947F19059780F348E047
:1034C00050E06EE372E089E594E00E941B22892BB4
:1034D00049F088E0EEE3F2E0A9E5B4E001900D9256
:1034E0008A95E1F710929A01DACFCDB7DEB76A97E5
:1034F0000FB6F894DEBF0FBECDBF85B7806885BF1D
:1035000085B7806885BF84B7877F84BF0FB6F8947E
:10351000A89580916000886180936000109260009F
:103520000FBE80E890E00FB6F8948093610090930E
:1035300061000FBE84EE97E090938F0180938E011F
:103540000E94090A0E945F0A8091E20084608093D1
:10355000E200789480915804882399F08091E900E2
:103560001091EC001795112717958F70182B10925A
:10357000E9008091E80083FD0E94E10B1F70109329
:10358000E90092E094BD83E085BD2AEF27BD9093CA
:103590006E00E1E7F4E098E0DF011D929A95E9F70B
:1035A0008093700410E060E0812F0E94A30861E026
:1035B000812F0E94A3081F5F1330A9F7EFE8F1E005
:1035C0003197F1F700C0000010E0809170041817E7
:1035D00008F443C20CE011E071E1E72E71E0F72E30
:1035E000D8018D918D018F3F11F00E94F403E016F8
:1035F000F106B1F708E011E0F80181918F018F3FEA
:1036000011F00E94F403F1E00C301F07A9F71092AB
:103610003F0210923E0210925A04109259041092E6
:1036200041021092400210925C0410925B041092CE
:1036300043021092420210925E0410925D041092B6
:103640004502109244021092600410925F0480E0E0
:1036500090E00E943622853E9E4F09F45EC065EEE2
:103660007EEF80E090E00E946A2260E082E090E0DD
:103670000E944C2281E08093A40461E083E090E00A
:103680000E944C2260E074E184E090E00E946A2293
:1036900060E086E090E00E944C2260E087E090E0ED
:1036A0000E944C2240E050E0BA0188E090E00E9485
:1036B0005E2260E083E290E00E944C2260E08CE0B9
:1036C00090E00E944C2260E08DE090E00E944C224D
:1036D00019821A821B821C821D821E821F821886FA
:1036E00048E050E067E170E0CE0101960E943C2284
:1036F00040E050E0BA018FE190E00E945E2240E09D
:1037000050E0BA018FE090E00E945E2240E050E07D
:10371000BA0183E190E00E945E2282E090E00E9484
:1037200028228093610484E090E00E9436229093E6
:10373000A8048093A70483E090E00E9428220E94BE
:10374000380483E08093520480E2809351040E9405
:103750004B206BE070E086E596E00E9438168823E7
:1037600009F443C08091520465E070E081FD87C197
:1037700081E596E00E9438168823B9F16DE070E08B
:103780008FE396E00E943816882379F10E943E0963
:103790006D8B7E8B8F8B988FDC01CB01805A95418E
:1037A000AF4FBF4F80934D0490934E04A0934F04AE
:1037B000B0935004EAE4F2E080E092E0DF019C0183
:1037C0001D9221503040E1F7F0934902E093480206
:1037D0008FEF9FEF909347028093460281E08093A2
:1037E0004C0480934B0410924A048091530481113D
:1037F00097C088E090E00E9430226B017C0183E258
:1038000090E00E942822282F30E040E050E060E065
:1038100070E080E090E000E20E94DC21F22FA32E15
:10382000B42EB52FA62FE72F9701860140E050E078
:10383000BA01FC29A12AB22AB32BA42BE52B862B93
:10384000972BF0939904A0929A04B0929B04B093A2
:103850009C04A0939D04E0939E0480939F04909306
:10386000A004F43008F04CC025E020939904109295
:103870009A042FEF20939B0428E720939C04109236
:103880009D0425E030E04FEF58E760E07E2F0E9476
:10389000410F88E090E00E9430226B017C0183E2BE
:1038A00090E00E942822282F30E040E050E060E0C5
:1038B00070E080E090E000E20E94DC215901B42F2A
:1038C000A52FF62FE72F9701860140E050E0BA01BF
:1038D000AC28B12AB22BA32BF42BE52B862B972BEC
:1038E000A0929904B0929A04B0939B04A0939C0474
:1038F000F0939D04E0939E0480939F049093A00412
:103900000E9472080E94E3088091990480FF05C01C
:1039100060E0869586950E94211081E08093530493
:1039200081E191E090937E0480937D045AE6A52E78
:1039300054E0B52EFF24F39460E4762E3CEFE32EA2
:103940004DEFD42E809158048530C9F480915804ED
:10395000853009F497C00E94B50B0E94E5081092CB
:10396000560480915504882351F080919904816018
:103970008093990460E0869586950E9421100E94AC
:103980008E1922E6422E24E0522EA9E5B4E0BA8F29
:10399000A98FE0E4F1E0FE8BED8BAF018D01F20128
:1039A00021913191D8018D919D918D01DA016D9117
:1039B0007D91AD0186239723AE16BF0609F4CDC0D5
:1039C0002817390769F3C12CE98DFA8D01911191FE
:1039D000FA8FE98FAD89BE898D919D91BE8BAD8B9C
:1039E00008231923F201219031902F01201631066E
:1039F00059F120263126612C88248394912CC10111
:103A000088219921892BB1F06F86C88A0E945019AC
:103A10009A8B898BFB8A91E0980128213921232BED
:103A200009F490E09C8B4F85588969897A898B8944
:103A30000E946A156394880C991CFAE06F12DFCF1C
:103A4000F201329711830083C39424E0C212BCCFE9
:103A50000E943E09CC24C39487C060E0812F0E945D
:103A6000C608082F61E0812F0E94C608E12FF0E010
:103A7000E359FB4F880F802B80831F5FA6CD8CE41A
:103A800096E078CE80915804843009F436C0809155
:103A9000560481110DC0F092560480919904982F1C
:103AA0009170909355048E7F809399040E948708AB
:103AB0000E9445161092540488E190E00FB6F894E5
:103AC000A895809360000FBE7092600083B7817FDD
:103AD000846083BF83B7816083BF7894889583B700
:103AE0008E7F83BF0FB6F894A8958091600088619F
:103AF00080936000109260000FBE8091570488236D
:103B000009F424CF0E948E19E9E5F4E0A0E4B1E0C5
:103B1000819191912D913D9182239323892B29F4B9
:103B200094E0E136F907A1F711CF80E189BD82E188
:103B300089BD09B400FEFDCF8091D8008F7D8093B0
:103B4000D8008091E00082608093E0008091E000E6
:103B500081FDFCCF0E94B50BF9CE2817390709F07B
:103B600032CF0E945C19C12C80917904882351F0D6
:103B7000809173041092790480937404809171048D
:103B80008093720400E050C061E0802F0E94C6085C
:103B9000882E60E0802F0E94C608880C882AE02FBB
:103BA000F0E09F0123593B4FD9019C91892F8370ED
:103BB0008816C9F1A92FAA0FAA0F8A2F8829D9011F
:103BC0008C93A82FAF70B0E0A85BBE4FE659FB4FB7
:103BD0008C919081890F808382300CF465C0412FD5
:103BE00050E0292D30E0BA016F5F7F4F6370772777
:103BF0002617370781F04F585B4F902F9F77DA01D8
:103C000014969C931F5F137010937304909171042A
:103C10009F5F90937104082E000C990B62E070E096
:103C20000E94C22180830F5F9090740410917304EE
:103C300080917004081708F4A7CF90E08091740475
:103C400020917304281709F473C0E82FF0E0EB58B3
:103C5000FB4F9081192F1F778F5F837080937404BF
:103C6000809172048F5F8093720497FD32C0198334
:103C7000EA820E945019BC018B839C83F3E0FD8390
:103C8000FE8249815A8183E091E00E946A158FE3A8
:103C90009CE90197F1F700C000001987EA860E94AD
:103CA0005019282F83E031C08F3F0CF0B4CF412F43
:103CB00050E0292D30E0BA016F5F7F4F63707727A6
:103CC0002617370709F4A7CF4F585B4F902F9068FE
:103CD00096CF1983DA820E945019BC018B839C8392
:103CE000B2E0BD83FE8249815A8182E091E00E9468
:103CF0006A15EFE3FCE93197F1F700C0000019877E
:103D0000DA860E945019282F82E0622F792F2B87A4
:103D10009C878D871E8649855A8590E00E946A158A
:103D2000AFE3BCE91197F1F700C0000091E086CF46
:103D3000992339F00E943E090E945F170E9457168E
:103D400004C00E945F17C110F9CF0E94E50890914E
:103D50007A04891709F4F6CD80937A040E943E090B
:103D6000EDCD78941F921FB61F9211248F939F93CD
:103D7000AF93BF938091B6019091B701A091B80124
:103D8000B091B9010196A11DB11D8093B601909328
:103D9000B701A093B801B093B901BF91AF919F91C2
:103DA0008F911F901FBE1F9018951F920F920FB6F4
:103DB0000F9211242F933F934F935F936F937F93B1
:103DC0008F939F93AF93BF93EF93FF938091E10005
:103DD00082FF09C08091E20082FF05C08091E1006E
:103DE0008B7F8093E1008091DA0080FF24C0809176
:103DF000D80080FF20C08091DA008E7F8093DA00A7
:103E00008091D90080FF9BC080E189BD82E189BD9E
:103E100009B400FEFDCF81E0809358048091A40195
:103E2000811109C00E94090A0E945F0A8091E20084
:103E300084608093E2008091E10080FF17C0809150
:103E4000E20080FF13C08091E2008E7F8093E20049
:103E50008091E20080618093E2008091D8008062CE
:103E60008093D80019BC85E0809358048091E100CC
:103E700084FF29C08091E20084FF25C080E189BDD4
:103E800082E189BD09B400FEFDCF8091D8008F7D0D
:103E90008093D8008091E1008F7E8093E100809133
:103EA000E2008F7E8093E2008091E2008160809347
:103EB000E2008091A301882309F447C084E0809345
:103EC0005804809158048091E10083FF27C08091BD
:103ED000E20083FF23C08091E100877F8093E100AF
:103EE00082E0809358041092A3018091E1008E7FBC
:103EF0008093E1008091E2008E7F8093E2008091C8
:103F0000E20080618093E20042E060E080E00E9495
:103F1000280A8091F00088608093F000FF91EF9173
:103F2000BF91AF919F918F917F916F915F914F91D1
:103F30003F912F910F900FBE0F901F90189519BCB5
:103F4000109258041092A40176CF8091E30087FF6D
:103F500002C083E0B4CF81E0B2CF1F920F920FB6C0
:103F60000F921124FF920F931F932F933F934F9320
:103F70005F936F937F938F939F93AF93BF93CF93F1
:103F8000DF93EF93FF9309EE10E0F8018081C09179
:103F9000EC00C795CC27C7958F70FC2EF82A1082AD
:103FA000C0EFD0E08881877F888378940E94E10BFE
:103FB000F8011082888188608883CF2DCF70C083FC
:103FC000FF91EF91DF91CF91BF91AF919F918F9131
:103FD0007F916F915F914F913F912F911F910F9121
:103FE000FF900F900FBE0F901F901895FF920F93A8
:103FF0001F93CF93DF93182FEB011092BC0084EA3C
:104000008093BC000E945019082FF92E8091BC00AB
:1040100087FF28C08091B900887F883029F080917F
:10402000B900887F8031A1F51093BB0084E88093AC
:10403000BC000E945019182F092F8091BC0087FFE7
:104040001FC02091B900287F80E090E0283199F0CE
:1040500081E090E0203411F480E090E0919581952A
:10406000910909C0802F9F2D0E947F19C817D90779
:1040700068F68EEF9FEFCDB7DEB7E5E00C94A82190
:10408000812F902F0E947F19C817D907B0F6F1CF62
:104090008FEF9FEFF0CF1092B9008CE08093B800C3
:1040A00008950F931F93CF93DF93EB018093BB0091
:1040B00084E88093BC000E945019182F092F80912A
:1040C000BC0087FF11C02091B900287F81E090E0FB
:1040D000283211F480E090E0919581959109DF916B
:1040E000CF911F910F910895CF3FDC0741F3812FAE
:1040F000902F0E947F19C817D90708F78EEF9FEFFE
:10410000EECFA0E0B0E0E7E8F0E20C948421782E56
:104110005B016A0189010E9450194C0104311105AB
:1041200060F10F3F100769F1C80164E170E00E947F
:104130006B21F62EE72E6F2D7E2D872D0E94F61F08
:10414000EC0197FF09C00F3F1007A9F3C4010E94BB
:104150007F190817190778F77501CA0CDB1CEC14D6
:10416000FD0411F0D7FF10C084E98093BC00CE019C
:10417000CDB7DEB7EDE00C94A021FF24F394E12C41
:10418000DACF85E0F82EFBCFB801F70181917F01EE
:104190000E945120EC01E3CFA0E0B0E0E2EDF0E2BC
:1041A0000C948421782E5B016A0189010E945019C8
:1041B0004C010431110560F10F3F100769F1C8018E
:1041C00064E170E00E946B21F62EE72E6F2D7E2DAC
:1041D000872D0E94F61FEC0197FF09C00F3F1007C3
:1041E000A9F3C4010E947F190817190778F7750110
:1041F000CA0CDB1CEC14FD0411F0D7FF10C084E9DD
:104200008093BC00CE01CDB7DEB7EDE00C94A021C9
:10421000FF24F394E12CDACF85E0F82EFBCFF701F1
:104220008491B8010E945120EC01FFEFEF1AFF0AC0
:10423000E1CFA0E0B0E0EFE1F1E20C948321682E41
:10424000962E5A01690178010E945019782E892E04
:104250000431110530F10F3F100731F1C80164E15D
:1042600070E00E946B21162F072F612F702F862D73
:104270000E94F61FEC0197FF19C0FFEFEF16FF0633
:10428000A1F3872D982D0E947F19E816F90668F78B
:1042900084E98093BC00CE01CDB7DEB7EEE00C948C
:1042A0009F2111E000E0E1CF15E0FCCFB701892D9F
:1042B0000E945120EC018501CA0CDB1C0C151D0568
:1042C00039F3D7FDE5CFB701F80181918F010E9445
:1042D0005120EC01F3CFAA1BBB1B51E107C0AA1F61
:1042E000BB1FA617B70710F0A61BB70B881F991F97
:1042F0005A95A9F780959095BC01CD0108952F920C
:104300003F924F925F926F927F928F929F92AF9265
:10431000BF92CF92DF92EF92FF920F931F93CF93B2
:10432000DF93CDB7DEB7CA1BDB0B0FB6F894DEBF49
:104330000FBECDBF09942A88398848885F846E846F
:104340007D848C849B84AA84B984C884DF80EE80B9
:10435000FD800C811B81AA81B981CE0FD11D0FB6C2
:10436000F894DEBF0FBECDBFED010895991B79E033
:1043700004C0991F961708F0961B881F7A95C9F7F5
:104380008095089597FB072E16F4009407D077FDCB
:1043900009D00E946B2107FC05D03EF490958195D1
:1043A0009F4F0895709561957F4F0895EE0FFF1F01
:1043B0000590F491E02D0994002E083090F0982F8C
:1043C000872F762F652F542F432F322F2227085007
:1043D000F4CF220F331F441F551F661F771F881FFE
:1043E000991F0A95B2F7002D089597FD1094002E9D
:1043F000083098F00850232F342F452F562F672F61
:10440000782F892F912DF4CF1594979587957795CF
:10441000679557954795379527950A95AAF71124DB
:10442000002D0895FB01DC0102C005900D92415062
:104430005040D8F70895FB01DC0104C08D91019034
:10444000801921F441505040C8F7881B990B0895FA
:10445000F999FECF92BD81BDF89A992780B508954C
:10446000A6E1B0E044E050E00C947222A8E1B0E094
:1044700042E050E00C947222DC01A40FB51F4150C1
:10448000504048F0CB01840F951F2E910E944D2281
:1044900041505040D0F70895262FF999FECF92BD94
:1044A00081BDF89A019700B4021639F01FBA20BDF9
:1044B0000FB6F894FA9AF99A0FBE08950396272F2B
:1044C0000E944D220E944C22252F0E944D22242F13
:1044D0000C944D220196272F0E944D220C944C22C1
:1044E000DC01CB01FC01F999FECF06C0F2BDE1BDB4
:1044F000F89A319600B40D9241505040B8F70895A3
:10450000F894FFCFBE0CE40CEA0CE40CEA0C3D0D71
:104510005F0DEA0C5D0E6A0E63119B11A211A711CB
:10452000AC11B111B611BB11C011C511CA11CF1117
:104530007D117D117D117D117D117D11D2117D11B6
:024540007D11EB
:10454200010021007F22000392946697F4F5F6F7AA
:10455200315B09440B5E095F095B0B000000005FE1
:104562005F5F5F5F0000C6353234363300081018D3
:1045720018100800000102020202020202020202F4
:10458200EF03EE03EF03EF0300FF0100010000FF62
:10459200FF0000010001FF00E200E900EA00B500AF
:1045A200B600B700CD008301CC008A0192019401CC
:1045B2002102230224022502260227022A02B30034
:0E45C200B4006F0070009F01CB019F02A002A9
:00000001FF
