:100000000C944E040C946B040C946B040C946B04D1
:100010000C946B040C946B040C946B040C946B04A4
:100020000C946B040C946B040C9451240C942925AF
:100030000C94B61C0C946B040C946B040C946B0421
:100040000C946B040C946B040C946B040C946B0474
:100050000C946B040C942D240C946B040C946B0482
:100060000C946B040C946B040C946B040C946B0454
:100070000C946B040C946B040C946B040C946B0444
:100080000C946B040C946B040C946B040C946B0434
:100090000C946B040C946B040C946B040C946B0424
:1000A0000C946B040C946B040C946B040501098094
:1000B000A101850319012AB700150126B700950192
:1000C00075108100C0050C0901A101850419012AE0
:1000D000A002150126A002950175108100C00660DE
:1000E000FF0961A1010962150026FF00952075082E
:1000F00081020963150026FF00952075089102C052
:1001000005010906A101050719E029E715002501E8
:10011000950875018102950175088101050719008F
:1001200029FF150026FF00950675088100050819AE
:1001300001290515002501950575019102950175A7
:10014000039101C000AF00AE0000000000000000FD
:100150002F000000000700070000123F123F1200AE
:10016000242A7F2A120036091E241B001826291271
:100170002800000007000000001E21400000004091
:10018000211E000014083E08140008083E0808005C
:100190000000307000000808080808000000303037
:1001A000000020100C0201001E2925231E00002241
:1001B0003F200000223129292600122125251A007E
:1001C0001814123F10001725252518001E25252577
:1001D00018000131090503001A2525251A000629F2
:1001E00029291E0000003333000000003373000093
:1001F00008141422220014141414140022221414BB
:1002000008000201290502003E59555D3E003816DE
:10021000111638003F2525251A001E212121120024
:100220003F2121211E003F25252521003F090909E5
:1002300001001E2121291A003F0404043F0000216F
:100240003F210000102020201F003F040C1221003D
:100250003F20202020003F0204023F003F020C10FC
:100260003F001E2121211E003F09090906001E2111
:1002700029112E003F0909192600122525291200EF
:1002800001013F0101001F2020201F000718201836
:1002900007000F300C300F0021120C122100030454
:1002A00038040300312925232100007F414100004B
:1002B00001020C1020000041417F000004020102F5
:1002C0000400404040404000000103040000102AA8
:1002D0002A2A3C003F2422221C001C222222240025
:1002E0001C2222243F001C2A2A2A0C0000043E055E
:1002F00005000C5252543E003F0804043800000030
:100300003D0000002040403D00003F08081422004E
:1003100000013F2000003E023C023C003E0402027D
:100320003C001C2222221C007E1422221C001C22C3
:1003300022147E003E0402020400242A2A2A12000B
:1003400000021F2200001E2020103E000618201868
:1003500006000E300C300E002214081422000E503D
:1003600050483E0022322A262200080877414100E8
:1003700000007F00000041417708080018040810C1
:100380000C000000000000000000381C0CCCCCCC9D
:10039000FC3800180C8CCC7C38000080C0404040F9
:1003A000404040C0800000C047CF4C4C4C4C4743BD
:1003B000404E4F49484848C040FF0001FD0101FD43
:1003C0000100FF0000FF007F8080808080808080AF
:1003D00080808080807F00FF0000FF0000FF000021
:1003E000FF00000F0A09080808080808080808089C
:1003F000080808090A0D02040404040404020100A8
:1004000000000000000000000000000000000000EC
:1004100000000000000000000000000000000000DC
:1004200000000000000000000000000000000000CC
:1004300000000000000000000000000000000000BC
:1004400000000000000000000000000000000000AC
:10045000000000000000000000000000000000009C
:10046000000000000000000000000000000000008C
:10047000000000000000000000000000000000007C
:10048000000000000000000000000000000000006C
:10049000000000000000000000000000000000005C
:1004A000000000000000000009025B00030100A042
:1004B000FA090400000103010100092111010001F2
:1004C000224400070581030800010904010002031A
:1004D000000000092111010001222200070582030A
:1004E00020000107050303200001090402000103A5
:1004F00000000009211101000122320007058403D8
:100500002000011201000200000008328832880039
:1005100001010200012003660072006500650061B0
:1005200000640072007300330032005F006B006EE5
:10053000006F00620000002203540061006B006144
:10054000006800690072006F0020004E00610074B6
:1005500000730075006D0065000000040309041EAF
:100560000029004402440000000B000C001200139C
:10057000004C00000014001A0008000000150017CD
:10058000001C0018002B001E0009020400160000C9
:1005900000070009000E000F00E3001E001D041BF1
:1005A00000060000000A00215210000D0028001E65
:1005B0000029024402440200000B020C0212021342
:1005C000024C02000014021A020802000015021771
:1005D000021C0218022B021E00090204021602006D
:1005E00000070209020E020F02E3021E001D041B97
:1005F00002060200000A02010010420D0228020158
:10060000000100010001000000010001002178222A
:1006100078007C00000100010001000000010001E1
:1006200000010001000100010001000100010000C3
:10063000000100010001000100017C010001000136
:100640000001000000010001000100010001004E56
:10065000004B00510052004F0050000100010023E8
:100660007824782778287801000100010001000132
:100670000001002000202000200052204320200004
:1006800020004B657920200020004C6179657200C4
:10069000FFAA7F5540000101010101010101010292
:1006A0000202020202020202030303030303030322
:1006B00004040404040404050505050506060606ED
:1006C00006070707070708080808090909090A0AA9
:1006D0000A0B0B0B0C0C0C0D0D0D0E0E0E0F0F0F4D
:1006E00010101111111212131314141515161617D8
:1006F00017181819191A1A1B1B1C1D1D1E1E1F2046
:1007000020212222232424252626272829292A2B92
:100710002C2D2D2E2F3031323233343536373839B7
:100720003A3B3C3D3E3F40414243444546474849B1
:100730004A4C4D4E4F50515354555658595A5B5D83
:100740005E5F616264656668696B6C6D6F70727321
:100750007577787A7B7D7E8082838587888A8C8E88
:100760008F91939596989A9C9EA0A2A3A5A7A9ABBA
:10077000ADAFB1B3B5B7BABCBEC0C2C4C6C9CBCDAC
:10078000CFD1D4D6D8DBDDDFE2E4E7E9EBEEF0F35E
:10079000F5F8FAFDFF00DA0281FFD9F1DB20A4A60B
:1007A0002EAF00A0C0D30000A1C8D30000AED580FA
:1007B000A81F408D14200000000000000000000071
:1007C0000000000000000000000000000000000029
:1007D00000000000000000000000007E0F00D4FFB9
:1007E000FFFFC70000007800000000000000002AA2
:1007F0002B280000000000000000000000000000A6
:10080000000029000000002C1E3420212224342660
:1008100027252E362D3738271E1F20212223242559
:10082000263333362E37381F0405060708090A0B0E
:100830000C0D0E0F101112131415161718191A1B80
:100840001C1D2F3130232D350405060708090A0B1E
:100850000C0D0E0F101112131415161718191A1B60
:100860001C1D2F3130354C616263646566676869B1
:100870006A6B6C6D6E6F7071727374757677787960
:100880007A31323334353637383930524542545F55
:100890002D3D5B5D5C233B27602C2E2F11241FBE5A
:1008A000CFEFDAE0DEBFCDBF11E0A0E0B1E0E0EBDA
:1008B000F5E502C005900D92A03AB107D9F724E002
:1008C000A0EAB1E001C01D92AD3FB207E1F70E947E
:1008D000FB1D0C94A22A0C940000F894E82FE295DA
:1008E000EF70F0E041A18F7021E030E0B90102C06B
:1008F000660F771F8A95E2F7CB01962F9095942388
:1009000091A392A1892B82A378940895F894E82F5B
:10091000E295EF70F0E041A18F7021E030E0B90185
:1009200002C0660F771F8A95E2F7CB01942F982BB0
:1009300091A392A18095892382A378940895982FFA
:1009400082958F70882311F0982F84E0292F2695A7
:100950002695222311F08E5F922F969591118F5F2D
:1009600008958093B60408958093B704089521E014
:1009700030E001C0220F8A95EAF78091B704822BFC
:100980000E94B404089521E030E0A90102C0440FA0
:10099000551F8A95E2F7CA0180959091B704892383
:1009A0000E94B40408959B01677091E001C0990F03
:1009B0006A95EAF763E0369527956A95E1F7B901FC
:1009C000660F771F260F371FFA01E20FF31F40E073
:1009D00050E0682F70E08191DF0111979B01042E98
:1009E00002C0369527950A94E2F7217021952827B1
:1009F000292328272C934F5F5F4F4330510559F728
:100A000008959C01A82FA77083E0369527958A95B5
:100A1000E1F7C901880F991F820F931FFB01E80FAF
:100A2000F91F40E050E080E0219130E00A2E02C042
:100A3000369527950A94E2F721703327042E01C0DA
:100A4000220F0A94EAF7822B4F5F5F4F4330510524
:100A500059F70895282F862F943070F42A3058F4CF
:100A6000622F70E02AE0929F600D711D11244CE905
:100A700054E00E94D30408959C5F9230E0F7622F07
:100A800070E049E954E0F5CF292F943068F48A30BA
:100A900090F490E06CE974E03AE0239F800D911DA2
:100AA00011240E94010508952C5F223020F469E989
:100AB00074E090E0F6CF80E008959091B70421E0D3
:100AC00030E0F90101C0EE0F8A95EAF7D90102C0C2
:100AD000AA0FBB1F6A95E2F7EA2B01C0220F4A95C5
:100AE000EAF7892F8E23E81305C0892F822B0E94F5
:100AF000B40408952095822F8923F9CF8091BD04F5
:100B00009091BC04981301C008958F5F8770FACF4D
:100B10009091B804809589238093B804282F27707A
:100B200021110DC0891759F09091BA0492FF07C0A6
:100B30008695869586950E94C3041092B804089500
:100B4000982F90958091B30489238093B3040895DE
:100B5000803E9105D1F1C8F48133910509F47FC03D
:100B600048F48932910509F46FC08A32910509F47D
:100B70007DC0089589339105E1F082389105C9F06F
:100B80008533910509F45BC00895843E9105D1F148
:100B900048F4823E910531F1833E910541F181EEA9
:100BA00090E00895863E9105C1F1873E9105E1F1FF
:100BB00008952091B9042370211165C02091BA04D1
:100BC00023FF14C089E290E008952091B90420FD2C
:100BD00043C03091BA0430FF09C024FF4EC080E00A
:100BE00090E008952091B90422FDF7CF0895209157
:100BF000B90422FD45C03091BA0430FD44C024FF41
:100C0000F5CFEDCF2091BA0421FFF0CF8091B90448
:100C100084FDE5CF87EE90E008952091B90423FF8D
:100C2000E5CF24FDDCCFF6CF2091B90423FD2EC003
:100C30003091BA0431FFE3CF84EE90E00895209123
:100C4000B90425FFD3CFBECF2091B90425FD21C023
:100C50002091BA0423FFCACF89E390E00895209140
:100C6000B90426FFC3CF8AE290E008952091B90429
:100C700026FFBCCF81E390E0089583EE90E00895D5
:100C800082EE90E0089580EE90E0089586EE90E088
:100C9000089585E390E0AACF9091B90492FF10C027
:100CA00041E0282F2471243009F040E031E0282F62
:100CB0002871283009F030E0431711F02CE082272A
:100CC00093FF10C041E0282F2471243109F040E047
:100CD00031E0282F2871283109F030E0431711F056
:100CE0002CE082273091BA0430FF10C051E0282F49
:100CF0002171213009F050E041E0282F287128307F
:100D000009F040E0541711F029E0822731FF10C0AC
:100D100041E0282F2171213109F040E031E0282FF6
:100D20002871283109F030E0431711F029E08227BB
:100D300094FD877E08951F93CF93DF930E94A805AB
:100D4000EC01811522E5920708F053C0811540E5BA
:100D5000940708F0DDC0803E9105F8F48D3C9105C4
:100D600008F0AEC0883A910580F4853A910508F004
:100D700099C08130910521F00497813A910550F492
:100D8000CE01DF91CF911F910895885A91094B9719
:100D900008F48BC0C0E0D0E0F3CF811550E4950794
:100DA000F8F4C11580E2D80708F0CBC0C83ED105E1
:100DB00038F3CE019A9581159F4160F78D2F0E94DF
:100DC0004C06182FCE0199270E94A805212F30E04C
:100DD000322F2227E901CC27DF71C82BD92BD0CFA6
:100DE00099270E94A805CC27DF70C82BD92BD06A81
:100DF000C7CF803842E59407C8F5803652E595079D
:100E000008F067C0C03482E5D807B0F08C2F869513
:100E10008695877020E2829FC0011124C37021E073
:100E200030E0A90102C0440F551FCA95E2F7EA015C
:100E3000C82BD92BDC68A4CFC03252E5D50708F007
:100E400041C08C2F8695869520E2829FC001112497
:100E5000C37021E030E0A90102C0440F551FCA95BC
:100E6000E2F7EA01C82BD92BDD688ACF803C52E536
:100E7000950760F48F71C03AD24508F03FC090E00A
:100E8000982F8827EC01C46FD06A7ACF805C924596
:100E9000809708F07FCFDC2FCC27CC27DF71C06F85
:100EA000D06A6ECFA497D0646BCFC85AD0E0CC0F75
:100EB000DD1FC659DE4F0990D881C02DD46460CFA4
:100EC000D0655ECFCF71D0E0DC2FCC27C16FD06A68
:100ED00057CF86958695877020E2829FC0011124A6
:100EE000C37021E030E0A90102C0440F551FCA952C
:100EF000E2F7EA01C82BD92BDA6842CF0E944C06F0
:100F0000C82FD0E0DC2FCC27CC27DF71D06238CFC0
:100F10008F710E944C0665E0D695C7956A95E1F7FA
:100F2000CF70D0E0DC2FCC27282F30E084FF05C025
:100F300054E0220F331F5A95E1F7C22BD32BD0690F
:100F40001FCF8D2F8F710E944C06182FCE0199272D
:100F50000E94A805212F30E0322F222722273F713F
:100F6000282B392BE901D2CF80E00895A0E0B0E032
:100F7000ECEBF7E00C940327E901E42FF0E0EB56EB
:100F8000F94F61110BC0E4919E2F8E2F8983E88366
:100F90009A83CDB7DEB7EAE00C941F27282F30E004
:100FA000062F10E0F491EF2F86E0829F6001839F6F
:100FB000D00C1124EE24EA94F12CC601B7010E9452
:100FC000E726220F331F45E5469FC001479F900D3E
:100FD0001124281B390B822F880F280FC701801B73
:100FE000910BF89FA001F99F500D1124952F209F80
:100FF0005001219FB00C1124AB2CBB24D701AA199E
:10100000BB095D01FA9DD001FB9DB00D11248B2F12
:101010005701A21AB1089501209F5001219FB00CE1
:10102000309FB00C1124AB2CBB24EA18FB08FE9DAA
:101030009001FF9D300D112463307105C9F01CEF44
:10104000C11613E0D10650F46130710509F49ECF4A
:101050006230710589F08E2FE32F98CF64307105CF
:1010600071F066307105B9F3E52F9B2F8F2F8ECF6E
:10107000EB2F852F9F2F8ACF852F932F87CF832FFD
:10108000E52FF8CF8091AB04843060F483708460E6
:101090008093AB048091AE04893718F088E7809381
:1010A000AE0408958033B0F383708C62F1CF8091E9
:1010B000AB0480FD0AC0E4EFF3E0118210821282DB
:1010C000339684E0E435F807C1F760E270E084EF1E
:1010D00093E00E94BA0A0895FA01882311F0099555
:1010E0000895FB01FCCF90E06623E9F0855C9E4FFC
:1010F000FC0180818F3FB1F0E82FE295EF70F0E0C6
:1011000041A18F7021E030E0B90102C0660F771F66
:101110008A95E2F7CB01962F9095942391A392A103
:10112000892B82A30895885C9E4FE2CF90E06623CE
:10113000A9F0855C9E4FFC0120812F3F91F0E22FAA
:10114000E295EF70E05EF0E0808190E02F7002C0E9
:10115000959587952A95E2F781700895885C9E4F52
:10116000EACF80E00895539A0895E0918F04F091BA
:101170009004309729F00190F081E02D09950895B1
:1011800080E00895A3E0B0E0E8ECF8E00C940B27D1
:101190009C018091CE019091CF0182179307A1F01D
:1011A0003093CF012093CE01E0918F04F091900411
:1011B000309751F083E089833B832A830084F18553
:1011C000E02DCE01019609952396E2E00C942727A5
:1011D000A3E0B0E0EEEEF8E00C940B279C018091C8
:1011E000CC019091CD0182179307A1F03093CD01EE
:1011F0002093CC01E0918F04F0919004309751F04E
:1012000084E089833B832A830084F185E02DCE012D
:10121000019609952396E2E00C942727A4E0B0E01C
:10122000E4E1F9E00C940B278FB7F8942091C80102
:101230003091C9014091CA015091CB0129833A8371
:101240004B835C838FBF69817A818B819C812496DB
:10125000E2E00C94272787E797E7909301088093B3
:10126000000888E19AE00FB6F894A8958093600092
:101270000FBE90936000FFCF8091C701089508953D
:101280000895FC019B018091BD019091BE018617DC
:10129000970740F0672B29F48091E8008E778093C0
:1012A000E800C90140E0009741F4411106C0809177
:1012B000E80082FF2FC080E0089520918C04222353
:1012C000A9F12530A9F12091E80023FD2DC020913E
:1012D000E80022FDECCF2091E80020FFE4CF309120
:1012E000F3002091F200009719F02830310558F0F2
:1012F00041E02830310509F040E02091E8002E77E8
:101300002093E800D0CF41914093F10001972F5FE7
:101310003F4FE9CF80918C04882341F0853041F024
:101320008091E80083FFC3CF81E0089582E00895B3
:1013300083E008958091B70187FF13C08091E80092
:1013400082FF06C08091E8008B778093E80004C09C
:1013500080918C048111F2CF089580918C048823B0
:10136000D9F38091E80080FFF8CF8091E8008E7774
:10137000ECCF2091E4003091E50095E6A901809141
:10138000EC008170882331F08091E80080FF06C076
:1013900080E008952091E80022FD1BC080918C041C
:1013A000882391F0853091F08091EB0085FD10C08D
:1013B0002091E4003091E5004217530701F391506A
:1013C0009111DCCF84E0089582E0089583E00895D0
:1013D00081E00895E8EDF0E080818E7F80831092B7
:1013E000E2001092DA001092E100A0EEB0E08C91E1
:1013F00081608C9380818F77808319BCA7EDB0E0EA
:101400008C918E7F8C9380818F7E80831092B60129
:101410000895982FE42FE2709093E900891308C093
:10142000762F242F50E0E11111C091E0980FF4CFF6
:101430007091EC002091ED005091F00021FD06C06C
:101440009F5F973049F78093E90008953091EB0052
:101450003E7F3093EB003091ED003D7F3093ED0007
:101460003091EB0031603093EB007093EC002093EF
:10147000ED005093F0002091EE0027FDE1CF08959C
:10148000A0E0B0E0E6E4FAE00C940527C8EDD0E077
:1014900088818F7E8883E7EDF0E0808181608083A2
:1014A00084E082BF81E08093B60188818E7F88834B
:1014B00002EE10E0F80110821092DA0081EEC82EE0
:1014C000D12CF601108288818F778883888180688B
:1014D000888388818F7D888319BC10928C04109238
:1014E000B501109269041092B40190EEE92EF12C2E
:1014F000F70180818B7F808388818160888342E0CF
:1015000060E080E00E94090AF60180818E7F80837E
:10151000F801808181608083808188608083F70109
:1015200080818E7F8083888180618883CDB7DEB79C
:10153000E8E00C942127E091BD049091BC0427E0E1
:10154000E91302C080E00895AE2FB0E02E9FF001B5
:101550001124E254FB4F3181361306C03081381319
:1015600003C03581341304C0FD013196E770E8CF24
:1015700081E008959C01AB016BB1677F7BB178601E
:10158000EFB7F894CA01880F991F840F951F820F37
:10159000931F8217930741F4EFBF8FE594E0019703
:1015A000F1F700C000000895D9014D919D0158E068
:1015B0007BB9000000C047FF6BB9440F000000C0BA
:1015C00000C000C06BB900C05A9591F7E2CF0F93ED
:1015D0001F93CF93DF93EB018A0190918C04943099
:1015E00079F58093E9008FEF9091E80095FD07C0B1
:1015F00095ED9A95F1F7000081508111F5CF80911A
:10160000E80085FF1DC00E94B909811114C08091B6
:10161000E80085FD06C08091E8008E778093E800A1
:10162000F2CF88818093F100015011090115110555
:1016300011F02196ECCF8091E8008E778093E8003E
:10164000DF91CF911F910F910895CF93DF93D82F02
:10165000C92F48E050E0682F792F81E00E94E70A07
:1016600088E0ED2FFC2FAFEBB1E001900D928A9551
:10167000E1F7DF91CF910895BC0143E050E084E0B1
:101680000E94E70A08959091BA0492FB222720F95C
:10169000281779F080FB92F99093BA046091B9040D
:1016A0007091BA0484E090E00E948C2A82E00E944B
:1016B000880508950F931F93CF93DF93833030F500
:1016C000643020F54A3010F5C42FD0E0CC0FDD1F78
:1016D00024E1629FC00DD11D112430E5839FC00D10
:1016E000D11D1124CE0188960E944A2A082F10E0AD
:1016F000102F0027CE0189960E944A2A9801282B94
:10170000C901DF91CF911F910F91089580E090E082
:10171000F8CF0F931F93CF93DF93833070F563302F
:1017200060F524E0629F800111243CE0839F000D5E
:10173000111D1124085E1E4FC8014423A1F00E9410
:101740004A2AC82FD0E0DC2FCC2781E090E0800F20
:10175000911F0E944A2A9E01282BC901DF91CF9137
:101760001F910F91089502960E944A2AC82FD0E037
:10177000DC2FCC2783E090E0EACF80E090E0EECF52
:10178000743048F46A3070F4833060F4462F672F69
:101790000E945A0B08957D3F41F4633018F441E0F4
:1017A000833050F080E090E008957C3FD9F76330BB
:1017B000C8F78330B8F740E00E94890B0895A0E095
:1017C000B0E0E5EEFBE00C9406277C010091B70445
:1017D0008091B604082BC2E0D0E010E0C8010C2EC6
:1017E00002C0959587950A94E2F780FD09C021977C
:1017F000A8F7D12C8D2DCDB7DEB7E7E00C942227CA
:10180000DC2EB7018C2F0E94C00B0E949B06019713
:1018100071F3F0CF0F931F93CF93FC01858100816B
:101820001181882391F0662381F0C8010E94DF0BAB
:10183000C82F682FC8010E942A05B8018C2F0E946A
:10184000C00BCF911F910F910895C8010E944405CC
:10185000C82FF3CFCF93DF93D82FC92F0E94DF0B70
:101860006D2F7C2F0E94C00B0E949B06DF91CF91B1
:101870000895FC0184818823A1F0808191810E94D8
:101880002A0C282F92959F70963091F060F4925F09
:101890009F70923030F481E0203F79F030F4283EA0
:1018A00030F080E004C09A5FF3CF243FD1F7089571
:1018B00081E0283E18F0213FF9CF0895089584E291
:1018C00090E00E944A2A843289F485E290E00E94E6
:1018D0004A2A873059F486E290E00E944A2A91E031
:1018E000803309F090E0892F8170089580E0FCCF6B
:1018F000E4EFF1E080E092E0DF019C011D922150D5
:101900003040E1F7F093F301E093F2018FEF9FEFA6
:101910009093F1018093F00108958091B304909128
:10192000BB04892B4091B404442389F090E024EA5D
:1019300031E0F90150812F5F3F4F51119F5F51E01E
:101940002A3A3507B1F791111092B404842B809391
:10195000A20148E050E061E974E082EA91E00E946F
:101960009E27892BA9F088E0E2EAF1E0A1E9B4E042
:1019700001900D928A95E1F7E0918F04F091900427
:10198000309731F00280F381E02D82EA91E00995F1
:1019900008951092B304E4EAF1E086E0DF011D92BD
:1019A0008A95E9F780E090E00E94C20880E090E02C
:1019B0000E94E8081092BB040E948D0C08950E94BA
:1019C000C90C2FEF84E39CE0215080409040E1F768
:1019D00000C0000088E19AE00FB6F894A8958093C3
:1019E00060000FBE90936000FFCFAAE2B0E0EBEF83
:1019F000FCE00C940A2787EB91E0FC010196209112
:101A0000F100208321E08F3B9207B9F78091B80164
:101A1000893009F456C0C8F4823009F4B3C0833069
:101A200009F482C0813071F18091E80083FFE7C042
:101A30008091B7019091B8019A3008F0E0C0E92F89
:101A4000F0E0EC55F54D0C9452278A3009F489C02A
:101A50008B3051F78091B701813231F78091BB0112
:101A60009091BC01892B01F78091E800877F8093DA
:101A7000E8000E949A098091B901809300010E94B8
:101A8000C90CD2CF8091B701813A71F68091E800FC
:101A9000877F8093E8008091BB019091BC01892BE6
:101AA00061F060E080E090E070E00E944109809188
:101AB000E8008B778093E800B7CF68E08FEB91E088
:101AC000F3CF8091B701813209F0AECF8091BB0195
:101AD0009091BC018D7F892B09F0A6CF8091E80001
:101AE000877F8093E8008091E80082FF18C0909182
:101AF000F3008091F200029731F48091F10081307F
:101B000011F0863021F48091F1008093C70180911B
:101B1000E8008B778093E8000E949A0985CF809136
:101B20008C048111E0CF80CF8091B701813A09F018
:101B30007BCF8091BB019091BC01892B09F074CFC0
:101B40008091E800877F8093E8008091E80080FF23
:101B5000FCCF809100018093F1008091E8008E77A6
:101B6000D9CF8091B701813209F05ECF8091E80032
:101B7000877F8093E8000E949A098091BA01809340
:101B8000B30152CF8091B701813A09F04DCF8091D6
:101B9000E800877F8093E8008091E80080FFFCCF19
:101BA0008091B301D8CF803889F0823841F5809197
:101BB000BB018F70873018F58093E9008091EB00AE
:101BC00085FB882780F91092E90006C08091B40156
:101BD00090916904911182609091E800977F9093B1
:101BE000E8008093F1001092F1008091E8008E7778
:101BF00023C0811116C08091B901813011F180910B
:101C0000E80083FF0AC08091E800877F8093E800A6
:101C10008091EB0080628093EB00AA96E3E00C9445
:101C20002627823061F78091B901882389F01092CC
:101C3000E9008091E800877F8093E8000E949A097C
:101C4000DECF81E0933009F080E080936904EFCF2C
:101C50008091BB018F702FEF280F263080F6809384
:101C6000E9002091EB0020FFE2CF933031F4809126
:101C7000EB0080628093EB00DACF9091EB009061F3
:101C80009093EB0021E030E0A90102C0440F551F02
:101C90008A95E2F74093EA001092EA008091EB0007
:101CA0008860E8CF8111ABCF1091B9011F77809187
:101CB000E3008078812B8093E3008091E800877FA8
:101CC0008093E8000E949A098091E80080FFFCCF91
:101CD0008091E30080688093E30083E0111101C0EC
:101CE00082E080938C048BCF8058823008F087CFBD
:101CF0004091B9015091BA014C3D83E0580799F5E4
:101D000083E08A838AE289834FB7F894DE011396D1
:101D100020E03EE051E2E32FF0E050935700849141
:101D200020FF03C082958F703F5F8F708A30C8F0AC
:101D3000895C90E08D939D932F5F243161F74FBFB5
:101D40008091E800877F8093E8006AE270E0CE012E
:101D500001960E9441098091E8008B778093E8000A
:101D60004ECF805DE6CF8091BB019091BC01252FC5
:101D700033272330310509F44AC078F52130310585
:101D800009F479C08BE590E0E8EAF4E0223031050F
:101D900009F035CF2091E800277F2093E8002091BB
:101DA000BD013091BE018217930708F49C0140E009
:101DB0002115310509F064C0411162C08091E8002D
:101DC00082FDC9CF80918C04882329F2853019F2D5
:101DD0008091E80083FFF2CFBECF2132310509F4B4
:101DE0003BC02232310509F00ACF8330910508F05B
:101DF00006CFFC01EE0FFF1FE45DFE4F0190F08166
:101E0000E02D875D9E4FDC018C9190E011C0CA01EE
:101E10009927413089F082309105B1F0892B09F082
:101E2000EECEEBE5F5E0E4918E2F90E0EBE5F5E00A
:101E3000009709F4E4CEAECFE7E3F5E0E4918E2F0E
:101E400090E0E7E3F5E0F4CFE5E1F5E0E4918E2FF3
:101E500090E0E5E1F5E0ECCF8330910508F0CFCEDE
:101E6000FC01EE0FFF1FEE5CFE4F0190F081E02DB4
:101E700089E090E08FCF82E190E0E3E0F5E08ACF67
:101E800080918C04882309F466CF853009F463CFF0
:101E90008091E80083FD5FCF8091E80082FD8ECFC6
:101EA0008091E80080FF84CF9091F3008091F20050
:101EB0002115310519F08830910550F041E008975F
:101EC00009F040E08091E8008E778093E80070CFC1
:101ED00044914093F1003196215031090196E8CFA9
:101EE000803809F08CCE8091E800877F8093E800ED
:101EF0008091B5018093F10078CE811180CE109150
:101F0000B901123008F07BCE8091E800877F809382
:101F1000E8001093B5010E949A091123D1F084E0E2
:101F200080938C0442E061EC81E00E94090A42E265
:101F300061EC84E00E94090A42E261EC82E00E94C6
:101F4000090A42E260EC83E00E94090A80918C0455
:101F500056CE8091E30087FDE2CF81E0E1CF0F9381
:101F60001F93CF93C82F882339F18CEF8C0F813AC0
:101F7000B0F504EA11E0F8018191C81709F121E0F8
:101F8000EA3AF207C9F7EFEF80E0D8019D918D01A1
:101F9000C91781F0EF3F19F4911101C0E82F8F5F4D
:101FA000863099F7EF3F31F00E2E000CFF0BEE5507
:101FB000FE4FC2830E948D0CCF911F910F91089507
:101FC000E4EAF1E08191C81303C0DF0111971C928C
:101FD00031E0EA3AF307B1F70E948D0CD4CF80E2EA
:101FE0008C0F883068F4C77081E090E001C0880FE2
:101FF000CA95EAF7C091B304C82BC093B304DACFF3
:102000008BE58C0F833038F42C2F2452330BC9010D
:102010000E94C208D1CFC85ACB3170F6EC2FF0E045
:10202000EE0FFF1FE659FE4F808191810E94E80864
:10203000C3CF882389F19CEF980F913A78F4E4EAB2
:10204000F1E09191891303C0DF0111971C9291E097
:10205000EA3AF907B1F70E948D0C089590E2980FC3
:10206000983050F4877091E001C0990F8A95EAF793
:10207000892F0E94A005EFCF9BE5980F933028F49D
:1020800080E090E00E94C2080895885A8B3120F4C5
:1020900080E090E00E94E80808951F93CF93DF93BB
:1020A000182FEB010E94AF0F209739F4812F0E9467
:1020B0001910DF91CF911F9108958FE99FE001974B
:1020C000F1F700C000002197EFCF882339F09091FD
:1020D000B304892B8093B3040E948D0C0895882348
:1020E00021F00E94A0050E948D0C08951F93CF93AC
:1020F000DF93962F122F632F8330D8F49430C8F4D7
:102100004A30B8F4C42FD0E0CC0FDD1F24E1929FF9
:10211000C00DD11D112490E5899FC00DD11D112442
:10212000CE0188960E946E2A612FCE0189960E9468
:102130006E2ADF91CF911F9108951F93CF93DF9364
:10214000C62F122F632F8330C8F4C330B8F494E045
:10215000C99FE00111249CE0899FC00DD11D11246D
:10216000C85EDE4FCE01442369F00E946E2A81E0F2
:1021700090E0612F8C0F9D1F0E946E2ADF91CF91FE
:102180001F91089502960E946E2A83E090E0F1CF9D
:102190008F929F92BF92CF92DF92EF92FF920F9316
:1021A0001F93CF93DF939FE4C92E96E0D92EE12CA5
:1021B000F12CC0E04701D0E014C0F8012591349122
:1021C0004B2D6D2F8C2F0E9476100E5F1F4FB394F6
:1021D0008AE0B812F2CF8AE0880E911CDF5FD4301B
:1021E00039F08401000F111F015A1A4FB12CE5CFAD
:1021F0008601D0E0F8012591349141E06D2F8C2FBC
:102200000E949D10F80132962591349140E06D2F87
:102210008C2F0E949D100C5F1F4FDF5FD33051F752
:102220008CE0C80ED11CCF5F88E2E80EF11CC330F1
:1022300009F0C0CFDF91CF911F910F91FF90EF90E8
:10224000DF90CF90BF909F908F900895CF93DF93B2
:10225000CCE3D1E060E0CE010E946E2A2196C11548
:1022600084E0D807B9F7DF91CF910895882381F0F2
:1022700064E284E290E00E946E2A67E085E290E0EA
:102280000E946E2A60E386E290E00E946E2A089522
:102290006FEF84E290E00E946E2A6FEF85E290E09B
:1022A0000E946E2A6FEFEFCF80E00E94361160E04F
:1022B00087E290E00E946E2A0E94C8100E942611B8
:1022C00081E00E9436110895A0E0B0E0EAE6F1E175
:1022D0000C9405278901D42FC52F6B017C010E9426
:1022E0004208A8016D2F7C2F88E090E00E94802A90
:1022F00098014D2F5C2FB601C70100E20E947A279A
:10230000622F83E290E00E946E2ACDB7DEB7E8E04C
:102310000C9421278091AF04833018F48F5F809351
:10232000AF042091AB043091AC044091AD045091C6
:10233000AE046091AF047091B0048091B1049091AB
:10234000B2040E94641108958091AF04882319F0AB
:1023500081508093AF042091AB043091AC04409144
:10236000AD045091AE046091AF047091B0048091BF
:10237000B1049091B2040E9464110895A3E0B0E00A
:10238000E4ECF1E10C940027E82ED62EF42E722E08
:102390008091AB0480FF40C0982F96959695E92FC9
:1023A000F0E0EA5BFE4F20818C7F8430C9F528E79E
:1023B000241708F448E79E012F5F3F4F6D2D8E2DA7
:1023C0000E94B6078091AB0480FF0FC08B8199817A
:1023D0002A81E4EFF3E0218390838283339634E013
:1023E000E435F307C1F70E945708E092AC04D0929D
:1023F000AD04F092AE04772079F02091AB046091A7
:10240000AF047091B0043E2D4D2D5F2D8091B1042D
:102410009091B2040E9464112396EDE00C941C2765
:10242000223019F7EEEFE90F9170C92EE695F0E032
:10243000E057F94FE4910E2F10E034EFA32E33E074
:10244000B32E812C912CC40125E0969587952A9571
:10245000E1F7C11015C08E0D4F2D38E73F1508F478
:1024600048E795016D2D0E94B607800E911E83E00E
:10247000A80EB11C94E5A91694E0B90621F7B3CFD4
:102480002E2D281B822FE8CF9091AB0490FF29C0FE
:10249000882341F18C3040F58F73282F220F220FB3
:1024A0008091AB048370282B2093AB04662381F0CA
:1024B0003091AC044091AD045091AE046091AF04F2
:1024C0007091B0048091B1049091B2040E946411A3
:1024D00020E04091AE046091AD048091AC040E9474
:1024E000BE11089581E0D9CF8BE0D7CF8091AB04A6
:1024F000869586958F5F8C3008F081E061E00E94C0
:10250000441208959091AB04969596958FEF890F9C
:10251000913009F48BE061E00E9444120895EBEAE7
:10252000F4E080818160808360E0869586950E94DA
:10253000441208958091AB0480FF09C0869586956A
:10254000825C8F73893018F40E947612089561E0DE
:1025500082E00E9444120895A8E0B0E0E2EBF2E1CC
:102560000C94FE266C01DC0114968C91882309F4EE
:10257000B5C061E0C6010E940A0C9C01F60195817C
:10258000992309F455C1A90157574038510508F05E
:10259000F2C1122F203108F090C08FEF93E00E941B
:1025A0004A2A81118AC04CE3E42EFF24F3941111CE
:1025B00053C01A821982FE01339686E0DF011D9214
:1025C0008A95E9F75701BFEFAB1ABB0AC7010E9412
:1025D0004A2A89831A82882309F46FC0813009F05E
:1025E00081C087010E5F1F4FC5010E944A2A8A835E
:1025F000882309F462C09FEF980F9330E0F5E3E081
:10260000EE0EF11CC8010E944A2A8B83882309F42C
:1026100054C01C828E010F5F1F4FD8018C918823FC
:1026200089F2813009F0A1C011968C911197813007
:1026300009F05AC05801B2E0AB0EB11CF80182811A
:1026400060E070E0893311F460E570E00E944D10A5
:1026500085010F5F1F4FE1CFE114F4E0FF0669F140
:10266000C7010E944A2A97012F5F3F4F79018111CC
:10267000F3CF11509CCF8430B9F432E0E32EF12C2B
:10268000C8010F5F1F4F0E944A2AE1E0F0E0EC0F03
:10269000FD1FEE0DFF1D8083882379F08C3731F408
:1026A000FE01EE0DFF1D12827801B4CFFFEFEF1A8D
:1026B000FF0A27E0E216F10419F78091B804877049
:1026C000882361F0D60115968C91882339F080918A
:1026D000BA0482FF03C082E00E9488052896EFE0DA
:1026E0000C941A27750196CF823049F45801F2E014
:1026F000AF0EB11C12968C910E94AF0FA9CF833000
:1027000049F45801B2E0AB0EB11CF80182810E947D
:1027100019109ECF843019F00F5F1F4F9ACF129679
:102720002C910E5F1F4F80E090E06AE0A8014F5FA0
:102730005F4F2053330B2A30310558F0009709F4CE
:1027400088CFAFE9BFE01197F1F700C00000019713
:10275000F5CF689FF001699FF00D1124C9018E0F1C
:102760009F1FF80121818A01E1CFE82FF0E0E951B4
:10277000F84F6490282F26952695269530E0F9018C
:10278000E952F84FA4908770782EB12C082E02C021
:10279000B594A7940A94E2F7B1E0AB22BB24F90107
:1027A000E953F84F8490912C02C0959487948A95B0
:1027B000E2F7E1E08E229924F901E954F84F5490B0
:1027C000A114B104C1F48114910421F560E070E01A
:1027D000862D0E944D10E52DF0E0072C02C0F595E6
:1027E000E7950A94E2F7E0FF34CF60E070E08CE216
:1027F0000E944D102ECF81EE0E94AF0F81149104E4
:1028000049F460E070E0862D0E944D1081EE0E9438
:102810001910E1CF86EE0E94AF0F60E070E0862DC8
:102820000E944D1086EE0E941910AB28A1F2EECF47
:1028300030931C0120931B014081518150931E0154
:1028400040931D01F9013497E533F10508F0B0C05C
:10285000E959F74FE4918FE5AFE1B1E040E050E096
:102860006D916E139DC0455E5E4FDA0114968C9398
:10287000D60115968C918823A9F02A35BCE73B0731
:1028800009F44AC108F021C12130FCE73F0709F4EF
:1028900041C123308CE7380709F436C121153C4784
:1028A00009F425C1F6018581E080F180882309F4CF
:1028B00037C1C7010E94DF0B182F682FC7010E9484
:1028C0002A05B701812F0E94C00B0E949B068C0134
:1028D000D6011596BC9015971696AC90A2942FE051
:1028E000A2228091B8048770882301F1EB2CBB20D1
:1028F000F1F0812F807F803461F080E2800F88309A
:10290000A8F0812F807E803221F4023078F0AA2056
:1029100069F08091BA0482FF09C082E00E948805B4
:102920008091B8048770EE24E3948111E12C812F0B
:1029300082958F70883009F4E7C108F016C18430A1
:1029400008F0F3C0B12FBF70FB2E823008F41EC117
:10295000107F103219F0F29480EFF822002309F46E
:102960004CC1013009F495C1BB2009F4A1C1AA20D2
:1029700009F461C121C130931C0120931B014081E6
:10298000518150931E0140931D01F9013497E533A5
:10299000F10508F079C0E959F74F8491EFE55CCF74
:1029A0004F5F5F4F4630510509F05ACF91116CC00F
:1029B0008091B3048272F901E052F847E531F105E4
:1029C00008F075C0E255F54D0C9452278091AB0488
:1029D00080FF17C0282F2E7F2093AB043091AC04CA
:1029E0004091AD045091AE046091AF047091B00479
:1029F0008091B1049091B2040E9464110E94570822
:102A00005CCE81608093AB0461E0869586950E94E0
:102A1000441253CE42E852E166E772E10E946C082C
:102A20004CCE46E752E162E872E1F8CF4FE859E157
:102A300065E879E1F3CF45E859E16FE879E1EECF58
:102A400046EA59E169E979E1E9CF49E959E166EAFC
:102A500079E1E4CF40EC59E163EB79E1DFCF43EB7F
:102A600059E160EC79E1DACF44EA51E16AE871E1D9
:102A7000D5CF4AE851E164EA71E1D0CF61E081E06D
:102A8000C6CF0E949A1219CE81E02737BCE73B07D8
:102A900031F082E02837ECE73E0709F0E9CE0E94EA
:102AA000B70443E062E081E00E945D0506CE81E06C
:102AB0002737FCE73F0731F028378CE7380709F064
:102AC000D7CE82E00E94C304ECCF2B35ACE73A07A7
:102AD00029F12C353C4709F0E5CE8091BA0482FB00
:102AE000882780F991E089270E94430BDBCE0E9462
:102AF000C90CEFEFF4E32CE0E150F0402040E1F7A7
:102B000000C000000E942B096FEF7FEF80E090E093
:102B10000E948C2A0E94DF0C81E0E6CF80E0E4CFA7
:102B2000C7010E944405182FCCCE843009F4D1C0CF
:102B3000EE20B1F08091B80480FD12C0D601159648
:102B40001C928695869586950E94B704C6010E94C0
:102B5000AC128091B8048695869586950E94C30430
:102B600060E0C6010E940A0CB9CD893009F43BC16E
:102B70008A5F8F708230E0F6023F09F045C1812FF5
:102B80008F71B1103EC10E94B704EBC0103118F034
:102B9000F29490EFF922BB20B9F0FF2069F080E2B7
:102BA000800F883010F0011109C08091B3048F2983
:102BB0008093B3040E948D0C802F2FC08091BB04A2
:102BC0008F298093BB04F6CF802F0E941910FF201D
:102BD00009F4AECF80E2800F883010F0011104C0FC
:102BE0008F2D0E94A00506C0F0948091BB048F2118
:102BF0008093BB040E948D0C9BCF8091BA0482FD10
:102C000016C0BB2069F0FF2039F08091B3048F29F2
:102C10008093B3040E948D0C80E00E94AF0F88CF98
:102C200080E00E941910FF2009F482CFD9CFBB2089
:102C3000A1F0A11004C08F2D0E94651079CFE1E0B2
:102C4000AE1276CF8091B4049F2D9823F91609F423
:102C50006FCF8F298093B4046BCFA11069CF8F2DD4
:102C60000E946F109091B4048F2D8923882329F03E
:102C70008F2D809589238093B4048091B5049F2D76
:102C80009823992309F454CFF094F822F092B504D4
:102C90004FCFBB2029F0F5E0FA1508F449CFCBCF90
:102CA00024E02A1508F444CF8F2D0E946F1040CFE6
:102CB000AA20D1F3093349F43FEF87EE93E0315076
:102CC00080409040E1F700C00000802F0E94191062
:102CD0002FCF812F869586958370882361F0813070
:102CE00009F026CFC8019370B11002C080E090E0D7
:102CF0000E94E8081DCFC8019370B11002C080E0A7
:102D000090E00E94C20814CF812F8370811134C0DB
:102D1000B11027C0402F429546954770440F440F8D
:102D2000802F8F70042E01C0880F0A94EAF700717B
:102D3000002341F02FE030E001C0220F4A95EAF76E
:102D4000022F0095169516951370123081F01330EE
:102D500061F02091B604113039F0802B82230E945B
:102D6000B1040E94B508E4CE822B802BF8CF802BD3
:102D70009091B6048927F3CFBB2051F110FFF1CF1A
:102D8000402F429546954770440F440F802F8F7017
:102D9000042E01C0880F0A94EAF70071002341F065
:102DA0002FE030E001C0220F4A95EAF7022F00958C
:102DB000169516951370123089F0133069F0209132
:102DC000B704113041F0802B82230E94B404C9CF94
:102DD000823038F2D5CF822B802BF7CF802B909189
:102DE000B7048927F2CF1F70BB2039F0812F0E94D2
:102DF000B704802F0E946510B4CF802F0E946F10FF
:102E0000812F0E94C304ADCF033F70F4003FB9F09F
:102E1000013FB9F1BB2009F456C0AA2009F450C003
:102E2000802F0E94AF0F9DCF033FD9F0043F29F1BF
:102E3000B110F3CFA11055C0812F8F71E2CFBB200D
:102E400069F0A4E0AA1508F48CCF1F7181E090E02E
:102E5000012E01C0880F0A94EAF7C1CFB5E0AB1686
:102E6000F2CF80E0BB2009F4B0CF1F7181E0012ECA
:102E700001C0880F0A94EAF7A8CF9091BA0492FD96
:102E800006C0812F8F71BB2009F4BBCF7CCEBB2045
:102E900061F0812F8F7192FF76CEE8E08E9F9001D6
:102EA000112423602093B8046ECE81E00E9488052F
:102EB000F1E0FA1508F055CF82E00E94880551CF65
:102EC000812F8F7160CEAA2009F4B6CF093349F45F
:102ED0002FEF37EE83E0215030408040E1F700C013
:102EE0000000802F0E9419103CCF8091FC0480319B
:102EF00078F48091FB04882359F0E091BD0420917F
:102F0000BC043091F7044091F60457E02E1301C041
:102F100008956E2F70E05E9FF0011124DF01A2542E
:102F2000BB4F14968C911497882361F111968C9164
:102F30001197831327C08C91841324C015968C910C
:102F4000159781111FC012968D919C91A091F80444
:102F5000B091F9048A1B9B0B883C910598F48091F1
:102F6000FC048F7080618093FC04EC53FB4F8081E4
:102F70008F708061808386EF94E00E94AC120E9483
:102F80007E050895FB013196E770C0CFADE0B0E05B
:102F9000ECECF7E10C94FF268C0186E0F801DE01F1
:102FA000189601900D928A95E1F7F8017080F580EE
:102FB000A280B380848196EF892E94E0992E609050
:102FC000FA04611018C0882399F0FF2009F413C196
:102FD000C8010E94390C882309F40DC187E0F8016B
:102FE000A6EFB4E001900D928A95E1F70E94751763
:102FF000FF24F39453C0D090FB042091F804309147
:10300000F904A501421B530BDD2009F4C4C0483C60
:10301000510508F07AC0882359F38091F704C180E4
:10302000E090FC04FFE0FE1508F459C0C81215C07A
:103030008091F604871111C0F1104BC08E2D8F7056
:1030400080618093FC0486EF94E00E94AC12809132
:10305000FC04F8018683F12C21C0F1103AC040E055
:103060006C2D872D0E949B0A40E06C2D872D0E94BD
:103070009B0AF82E8111EFCF888599850E942A0C32
:10308000292F22952F70903470F49F702230A0F079
:103090009923B1F0F8019681903190F48F2D2D96FF
:1030A000EEE00C941B272A5F2F70223068F0C801D5
:1030B0000E94AC12FD2CF2CF992311F0882371F3FA
:1030C000805E883058F3F3CF803F40F3815F8230D9
:1030D000F9CF8091FC0481608093FC04BCCFC812BE
:1030E0003CC08091F604871138C0F11036C0F80159
:1030F000E682C8010E94AC1287E0F801A6EFB4E0B6
:1031000001900D928A95E1F773CFE090FC04FFE007
:10311000FE1550F086EF94E00E94AC1287E0F401B7
:1031200011928A95E9F797CF882309F461CF90919E
:10313000F704F8018181981310C08091F60487117B
:103140000CC0F1100AC0E682C8010E94AC1287E0F0
:10315000F40111928A95E9F74BCFC8010E94390C0E
:10316000882309F448C0FF2009F445C08091FC047D
:10317000803208F433CF8091F6049091F7049A835B
:103180008983BC82AB826D821E82EF82CE01019662
:103190000E94AC1223CF483C510508F0BFCF8823D2
:1031A00009F426CFFF2039F19091F704818198131B
:1031B00018C08091F604871114C08091FC0480FD32
:1031C0009BCF803108F498CF8683807F803F09F4BD
:1031D00090CF8681982F907F905F8F70892B868308
:1031E00088CFC8010E94390C8111F8CE8091FC046F
:1031F00081608093FC04C8010E94AC12F9CEABE15F
:10320000B0E0E5E0F9E10C940A274E8B5F8B688F04
:10321000798F8A8F9B8F91111092BB041D8A86E053
:10322000FE017696DE011F9601900D928A95E1F7D8
:103230008B89882329F061E0CE010F960E940A0C49
:1032400087E0FE013F96DE01189601900D928A9567
:10325000E1F7CE0108960E94C61781112BC087E0C6
:10326000FE013896DE01119601900D928A95E1F7E4
:103270002091BC044091BD048C858823D9F030E0B6
:10328000C90101968770992750E084179507E9F0E6
:1032900097E0929FD001939FB00D1124A254BB4F91
:1032A000FE01319601900D929A95E1F78093BC044E
:1032B0000E947E0517E08091BD049091BC048913A3
:1032C00012C06B96E3E00C9426270E94C90C109262
:1032D000BC041092BD0487E0E6EFF4E0DF011D922C
:1032E0008A95E9F7E7CF189FC001112482549B4FBC
:1032F0000E94C617882329F38091BD0490E00196AF
:10330000877099278093BD04D6CFEBEAF4E08181E2
:1033100021E0438162818F5E0E94BE110895EBEA35
:10332000F4E0818121E04381628181510E94BE11DC
:103330000895EBEAF4E0628121E1620F08F46FEF97
:1033400021E0438181810E94BE110895EBEAF4E0FF
:10335000628121E1621B08F460E021E04381818108
:103360000E94BE110895EBEAF4E043812CE0420F85
:1033700008F44FEF21E0628181810E94BE1108951F
:10338000EBEAF4E043812CE0421B08F440E021E04A
:10339000628181810E94BE110895AB0124E630E074
:1033A000BC0188E70E9448269C0181E0232B09F09C
:1033B00080E0089580915E04882369F080915D0427
:1033C000882349F062E070E086E491E00E94CD1924
:1033D000811110925D040895A4E0B0E0E2EFF9E1FC
:1033E0000C940B2780915E048823F9F00E940E094B
:1033F000DC01CB01805A9541AF4FBF4F80935F04F2
:1034000090936004A0936104B093620480915D0482
:1034100081110BC062E070E084E491E00E94CD195C
:10342000882319F081E080935D042496E2E00C94F7
:103430002727CF93DF93282F81E02A3019F02D30F2
:1034400031F480E00E949F1ADF91CF91089580911E
:10345000F2019091F30136E0FC01ADEAB1E0019098
:103460000D923A95E1F730EE320F303908F458C03A
:1034700026E0FC0111922A95E9F7C091F201D09162
:10348000F30146E050E0BE018DEA91E00E949E27E4
:103490009E01245F3140892B41F1C90145E0969599
:1034A00087954A95E1F741E050E0BA0102C0660F06
:1034B000771F8A95E2F7CB016091F0017091F101DD
:1034C000862B972BB9016B5F7F4FE5E0769567956B
:1034D000EA95E1F702C0440F551F6A95E2F7842B85
:1034E000952B9093F1018093F0012A5F3F4F40911B
:1034F0006304642F70E0C9010E94E726481B463030
:1035000010F4240F311D211572E0370710F020E070
:1035100030E02C503E4F3093F3012093F20194CFD2
:103520002052330B46E0429FB001439F700D11249F
:10353000685B7E4F46E050E00E9495279ECFCF9378
:10354000382FE091F201F091F301E45FF140209116
:103550006304622F70E0CF010E94E726281B822FB0
:10356000332361F066E00E943227C82FC15010F467
:10357000CF91089580E20E94191AF8CF9F01280F79
:10358000311D2115324018F080E0E0E0F0E08E0FB0
:103590009F2F911D8C509E4F9093F3018093F201C9
:1035A000E7CFCF93DF93C0E8D5E0DC0F8C2FCF5F60
:1035B0000E94191ADC13FACFD43911F0CD2FF4CFB1
:1035C00080E00E949F1ADF91CF9108950F931F937F
:1035D000CF93DF93EC01FC0101900020E9F78F010C
:1035E00001501109C017D10728F0DF91CF911F9129
:1035F0000F91089589910E94191AF4CFCF93DF9308
:10360000EC01FE018491811103C0DF91CF910895F7
:103610000E94191A2196F5CFA0E1B0E0E2E1FBE1AA
:103620000C94FC2680915E04882309F4D1C084EFB9
:1036300091E09093F3018093F2010E94D11A80915E
:10364000630425E0829FC0011124811532E09307B5
:1036500014F080E090E08C509E4F9093F3018093A3
:10366000F20182E896E00E94FE1A80911B0190917F
:103670001C0154E0969587955A95E1F78F708A3032
:1036800008F0AAC0805D0E94191A80911B018F70FA
:103690008A3008F0A3C0805D0E94191A80E896E085
:1036A0000E94FE1A81E00E949F1A8AE796E00E941B
:1036B000FE1A80911E018F708A3008F091C0805DE3
:1036C0000E94191A88E796E00E94FE1A80911D0157
:1036D0008F708A3008F086C0805D0E94191A85E7D5
:1036E00096E00E94FE1A8FE191E00E94E61A83E7BD
:1036F00096E00E94FE1A81E00E949F1A8AE896E0F6
:103700000E94FE1A81E00E949F1A8091B7040E94D5
:103710009F041F928F9386E291E09F938F931F9255
:103720008CE08F938E010F5F1F4F1F930F930E94AA
:10373000AB27C8010E94E61A81E00E949F1A88E820
:1037400096E00E94FE1A81E00E949F1A0FB6F8943C
:10375000DEBF0FBECDBF8091F0019091F101892BAA
:10376000A1F080915E04882381F080915C04811136
:103770000CC00E94EC192091F0013091F10180E021
:1037800061E070E02115310581F580915D048823A9
:10379000F9F00E940E096D877E878F87988B809144
:1037A0005F0490916004A0916104B09162042D8542
:1037B0003E854F855889281B390B4A0B5B0BDA0174
:1037C000C9018F3F9F4FAF4FBF4710F40E94DA19D6
:1037D0006096E1E10C941827895A55CF895A5CCF3D
:1037E000895A6ECF895A79CF8F5F082F10E07B01FD
:1037F000082E02C0EE0CFF1C0A94E2F7A701422338
:103800005323452B89F39091640490FD43C09801A4
:103810003695279536952795922F8295880F807635
:103820003FE1380F80930301209306013093040198
:103830009093070124E630E047E050E061E071E05A
:1038400088E70E94FD25892B09F09FCFA80125E07C
:10385000440F551F2A95E1F78091640480FD22C032
:103860004C505E4F04E610E020E230E060E488E770
:103870000E949526892B09F088CFE094F0948091DE
:10388000F0019091F101E822F922F092F101E09229
:10389000F0017BCF880F880F880F37E0380F20E0CA
:1038A00093E0C0CFE0EDF1E080E2DF011D928A9568
:1038B000E9F7E2E4F1E0FE87ED870EE311E086E44C
:1038C000A82E81E0B82E97E0392E44244394AD858C
:1038D000BE858D91BE87AD87F80121918F01240FA0
:1038E000352F311D2C503E4FE82FF0E0E053FE4FB6
:1038F00080E090E0632C681A742C082E01C0770CCD
:103900000A94EAF76901812CD6019D906D019720F8
:10391000662D6819677070E0B92D062E01C0BB0FC7
:103920000A94EAF75B2E71956195710967707727A4
:1039300001C096946A95EAF759286081562A508208
:10394000839468E08612E0CF019631968830910525
:1039500089F68D859E85A816B90609F0B8CF04E6CC
:1039600010E020E230E040ED51E080CF1F921FB622
:103970001F9211248F939F93AF93BF9380916604FE
:10398000811113C08091C8019091C901A091CA0111
:10399000B091CB014196A11DB11D8093C8019093B8
:1039A000C901A093CA01B093CB01BF91AF919F9180
:1039B0008F911F901FBE1F9018952FB7F89480917C
:1039C000C8019091C901A091CA01B091CB012FBF4C
:1039D0000895A6E0B0E0EFEEFCE10C9409270E9408
:1039E000DD1C8C0180918D0490918E0480179107CD
:1039F00079F019821A820E94DD1CBC0149815A812A
:103A000080E090E00E94FF1810938E0400938D04D4
:103A10002696E4E00C9425279C014FB7F8948091FA
:103A2000C8019091C901A091CA01B091CB014FBFCB
:103A3000821B930B0895A8E0B0E0E1E2FDE10C9455
:103A4000FD26CE0101967C0188E0D7011D928A9562
:103A5000E9F73701570128E0C22E21E0D22E442495
:103A60004394512CF60181916F010E94860400C09D
:103A70009CE0892E91E0992EF40100E010E0219164
:103A8000A22FA295AF70A05EB0E08C9190E02F7055
:103A900002C0959587952A95E2F7817081110FC034
:103AA000D5018D919C9111979201002E02C0220F99
:103AB000331F0A94E2F7822B932B8D939C930F5F15
:103AC0001F4F05301105D9F6F601319780810E940C
:103AD0006D04B0EABA95F1F7E2E0AE0EB11CFCE07D
:103AE000CF16F1E0DF0609F0BDCFCC24C394D12C72
:103AF000D4018D914D010E94860400C09601002ED4
:103B000002C0220F331F0A94E2F7F70168E071E068
:103B1000DB014D91BD01842F82958F70805E90E016
:103B2000DC018C9190E04F7002C0959587954A9585
:103B3000E2F78170811106C080819181822B932BE5
:103B4000918380833296B1E06C307B0709F7F401F2
:103B5000319780810E946D04E0EAEA95F1F70F5FEA
:103B60001F4F0A30110521F6E4E5F4E0C70108967D
:103B700020E0D3014D915D913D0161917191461716
:103B8000570729F0DF0112974D935C9321E08615CA
:103B9000970579F7222369F081E08093AC010E94B8
:103BA000DD1C9093AB018093AA012896E0E10C9470
:103BB00019278091AC018823C1F38091AA019091CB
:103BC000AB010E940C1D059780F348E050E064E5CE
:103BD00074E084E894E00E949E27892B49F088E0F5
:103BE000E4E5F4E0A4E8B4E001900D928A95E1F7F1
:103BF0001092AC01DACFCDB7DEB7E0970FB6F894EC
:103C0000DEBF0FBECDBF85B7806885BF85B7806832
:103C100085BF84B7877F84BF0FB6F894A89580913D
:103C20006000886180936000109260000FBE80E8A1
:103C300090E00FB6F89480936100909361000FBEFE
:103C400084EB97E09093A1018093A0010E94EA0980
:103C50000E94400A8091E20084608093E2007894A0
:103C600080918C04882399F08091E9001091EC00F8
:103C70001795112717958F70182B1092E9008091D6
:103C8000E80083FD0E94F50C1F701093E90082E0AC
:103C900084BD93E095BD9AEF97BD80936E000E941E
:103CA0005F0C811102C00E945411EAE7F4E088E041
:103CB000DF011D928A95E9F783E08093790410E093
:103CC00060E0812F0E94730861E0812F0E947308D9
:103CD0001F5F1330A9F7EFE8F1E03197F1F700C06B
:103CE000000010E080917904181708F4CBC00CE0B4
:103CF00011E0D8018D918D010E946D04B1E0013178
:103D00001B07B9F708E011E0F80181918F010E94CB
:103D10006D04F1E00C301F07B9F7109255041092B2
:103D20005404109285041092840410925704109247
:103D3000560410928704109286041092590410922F
:103D40005804109289041092880410925B04109217
:103D50005A0410928B0410928A0480E090E00E9432
:103D6000582A853E9E4F21F40E945F0C811163C04A
:103D700065EE7EEF80E090E00E948C2A60E082E0B9
:103D800090E00E946E2A81E08093B60461E083E0B7
:103D900090E00E946E2A60E074E184E090E00E946E
:103DA0008C2A60E086E090E00E946E2A60E087E066
:103DB00090E00E946E2A40E050E0BA0188E090E076
:103DC0000E94802A60E083E290E00E946E2A60E018
:103DD0008CE090E00E946E2A60E08DE090E00E940E
:103DE0006E2A19821A821B821C821D821E821F82E9
:103DF000188648E050E067E170E0CE0101960E942D
:103E00005E2A40E050E0BA018FE190E00E94802AF3
:103E100080E00E9436110E94541140E050E0BA0147
:103E20008FE090E00E94802A40E050E0BA0183E1F8
:103E300090E00E94802A82E090E00E944A2A8093CB
:103E40006A0484E090E00E94582A9093BA04809318
:103E5000B9040E941B1D6FEF86E791E0615080401E
:103E60009040E1F700C000000E941B1D8091840477
:103E700081FF1AC06FEF7FEF80E090E00E948C2AF4
:103E80000E942B0960E0812F0E949608082F61E0B4
:103E9000812F0E949608E12FF0E0EA58FB4F880F2F
:103EA000802B80831F5F1ECF83E090E00E944A2A10
:103EB0000E94B10483E08093640480E280936304F1
:103EC0000E94C7256BE070E08CEA97E00E94CD1954
:103ED000882389F18091640465E070E081FD4FC121
:103EE00087EA97E00E94CD19882329F16DE070E000
:103EF00085E997E00E94CD198823E9F00E940E0918
:103F00006DA77EA78FA798ABDC01CB01805A9541A6
:103F1000AF4FBF4F80935F0490936004A093610400
:103F2000B09362040E94780C81E080935E048093D9
:103F30005D0410925C0480916504811197C088E053
:103F400090E00E94522A6B017C0183E290E00E9483
:103F50004A2A282F30E040E050E060E070E080E046
:103F600090E000E20E945F27F22FA32EB42EB52F1F
:103F7000A62FE72F9701860140E050E0BA01FC2907
:103F8000A12AB22AB32BA42BE52B862B972BF093D7
:103F9000AB04A092AC04B092AD04B093AE04A09375
:103FA000AF04E093B0048093B1049093B204F43072
:103FB00008F04CC025E02093AB041092AC042FEF26
:103FC0002093AD0428E72093AE041092AF0425E0BF
:103FD00030E04FEF58E760E07E2F0E94641188E0E8
:103FE00090E00E94522A6B017C0183E290E00E94E3
:103FF0004A2A282F30E040E050E060E070E080E0A6
:1040000090E000E20E945F275901B42FA52FF62F00
:10401000E72F9701860140E050E0BA01AC28B12AB1
:10402000B22BA32BF42BE52B862B972BA092AB0462
:10403000B092AC04B093AD04A093AE04F093AF047F
:10404000E093B0048093B1049093B2040E944208BC
:104050000E94B3088091AB0480FF05C060E08695A4
:1040600086950E94441281E08093650481E191E08D
:104070009093900480938F0488E1482E512C809176
:104080008C04853081F480918C04853009F47AC0E9
:104090000E94C90C0E94B5081092680480916704C0
:1040A00081110E948F120E941B1DBBE6AB2EB4E053
:1040B000BB2E14E8812E14E0912E02E6602E01E062
:1040C000702E8301A401F50121913191DA018D91C6
:1040D0009D91AD01D8016D917D918D01862397232E
:1040E000B4E0E337FB0709F4B8C02817390761F3D8
:1040F000312CF401019111914F01D3018D919D91CA
:104100003D0108231923F501C190D1905F01C0162C
:10411000D10661F1C026D126212CEE24E394F12CA6
:10412000C7018C219D21892BB9F029823A820E94F6
:10413000DD1C9C838B83F1E0FD8391E097012023BC
:104140003123232B09F490E09E8349815A816B81AE
:104150007C818D810E94FF182394EE0CFF1C2AE0C5
:104160002212DECFF501329711830083339464E08D
:104170003612BFCF0E940E09CC24C39475C082EAC8
:1041800097E0B0CE80918C04843009F436C08091E1
:10419000680481110EC0A1E0A09368048091AB0473
:1041A000982F9170909367048E7F8093AB040E9448
:1041B00057080E94DA1910926604B0E40FB6F8941A
:1041C000A895409260000FBEB093600083B7817FD6
:1041D000846083BF83B7816083BF7894889583B7F9
:1041E0008E7F83BF0FB6F894A89580916000886198
:1041F00080936000109260000FBE80916904882354
:1042000009F441CF0E941B1DE4E8F4E0A2E6B1E00E
:10421000819191912D913D9182239323892B29F4B2
:1042200024E0EC38F207A1F72ECF80E189BD82E1CE
:1042300089BD09B400FEFDCF8091D8008F7D8093A9
:10424000D8008091E00082608093E0008091E000DF
:1042500081FDFCCF0E94C90C16CF2817390709F041
:1042600047CF0E94E91CC12C80918204882351F021
:1042700080917C041092820480937D0480917A0462
:1042800080937B0400E0E2E0EE2EF12C4EC061E072
:10429000802F0E949608B82E60E0802F0E9496081A
:1042A000BB0C8B29E02FF0E09F012A583B4FD9012E
:1042B0004C91942F93708917B9F1A42FAA0FAA0FCC
:1042C0008A2BD9018C93A82FAF70B0E0AE5ABE4FA5
:1042D000ED58FB4F8C919081890F808382300CF4D4
:1042E0006BC0412F50E02D2D30E0BA016F5F7F4F42
:1042F000637077272617370781F046585B4F902F5A
:104300009F77DA0114969C931F5F137010937C04BF
:1043100090917A049F5F90937A04082E000C990B79
:10432000B7010E943E2780830F5FD0907D041091DB
:104330007C0480917904081708F4A9CF90E01CEF61
:1043400063E0F62E0DEF72E0E72E80917D04209160
:104350007C04281709F474C0E82FF0E0E258FB4F02
:104360009081D92EE894D7F88F5F837080937D0475
:1043700080917B048F5F80937B0497FD32C0D9A22C
:104380001AA30E94DD1CBC018BA39CA3FDA2F1E03B
:10439000FEA349A15AA183E091E00E94FF188FE398
:1043A0009CE90197F1F700C00000DFA218A70E9466
:1043B000DD1C282F83E031C08F3F0CF0AECF412FA2
:1043C00050E02D2D30E0BA016F5F7F4F637077278B
:1043D0002617370709F4A1CF46585B4F902F9068F6
:1043E00090CFD9A20AA30E94DD1CBC018BA39CA381
:1043F000EDA2B1E0BEA349A15AA182E091E00E94E2
:10440000FF18EFE3FCE93197F1F700C00000DFA2ED
:1044100008A70E94DD1C282F82E0622F792F29A790
:104420009AA78BA71CA64FA158A590E00E94FF1841
:10443000AFE3BCE91197F1F700C0000091E085CF30
:10444000992339F00E940E090E940C1B0E94EC195E
:1044500004C00E940C1BC110F9CF0E94B5089091B6
:104460008304891721F0809383040E940E098091B0
:104470008C04843009F003CE83E08093E9008091BE
:10448000E80082FFFCCD8091E80085FD06C08091A8
:10449000E8008B778093E800F2CD0E94B90950E2E2
:1044A000E52EF12C8E010F5F1F4F8823D9F08091EC
:1044B000E8008B778093E8008981EFEFE80FE53122
:1044C00058F5F0E0ED53F54D0C9452278091F10032
:1044D000F8018083F1E0EF1AF108E114F10439F3F7
:1044E0000F5F1F4F8091E80085FDF0CF8091E800BD
:1044F0008B778093E8000E94B909882399F3D7CF7E
:104500001A828CE08B831AC08A81833049F138F497
:10451000813061F08230D9F08FEF89830FC0843011
:10452000D9F71B821C821D821E8208C00E940E09C0
:104530000E9458276B837C838D839E8340E250E0EA
:10454000BE016F5F7F4F82E00E94E70A98CD87E24D
:1045500090E00E944A2A1B821C821D828E83EECF2D
:104560008B8190E0FE01319632968430910534F7CC
:104570009C013327220F331FD901AC57BB4F2E5953
:104580003E4F4D915C91D9012D913C9124233523CF
:10459000318322830196E8CF8A81823079F0853099
:1045A00009F0BACF8091AB0480FF19C08091AB04B1
:1045B0008E7F8093AB040E945708C0CF8B819C8173
:1045C000AD81BE818DA79EA7AFA7B8ABBC01CD01C1
:1045D0000E94582787E290E00E946E2AAFCF0E9487
:1045E0008F12ACCF4C816B818A810E945A0B982725
:1045F000892798279E838D83A1CF2D813E813227E5
:10460000232732274C816B818A810E94761096CFB6
:104610000E94C81093CF9A81923009F07DCF8830E4
:10462000B1F1893009F45FC08B81833061F180F48E
:104630008130B9F0823009F081CF8C81882309F470
:10464000B5CF0E948F1260E08C810E94441276CF19
:10465000843009F073CF20E04091AE046D818C81ED
:104660000FC08C81A8E78A9FC00111246FEF70E012
:104670000E94E726462F20E06091AD048091AC04B3
:104680000E94BE115BCF8C818093AF0457CF8B818A
:10469000833031F168F48130A9F0823009F04ECFD7
:1046A0008091AB0480FF1AC0869586958C8346CF97
:1046B000843009F043CF8091AC048C838091AD04A9
:1046C0008D833CCF8091AE04BFEF8B9FC00111243E
:1046D00068E770E00E94E7266C8330CF80E0E6CF89
:1046E0008091AF04E3CF2091AB043091AC044091B2
:1046F000AD045091AE046091AF047091B00480910C
:10470000B1049091B2040E94641118CF80E18A83B1
:1047100015CF82E08A8384ECF5CE0A811B811027B5
:10472000012710278C816801C80ED11C7E01E5E0AD
:10473000EE0EF11CC016D10609F400CF80E0043C57
:10474000F2E01F0728F4C801845C9E4F0E944A2AA9
:10475000D7018D937D010F5F1F4FECCF0A811B8125
:10476000102701271027FE0131967F01CC80CE0E45
:10477000DF2ED11CCE14DF0409F4E0CE043CF2E0BD
:104780001F0740F4D70114966C91C801845C9E4FBA
:104790000E946E2A0F5F1F4FBFEFEB1AFB0AEACF92
:1047A0000E942611CBCE83E0B2CF0A811B81102755
:1047B000012710278C816801C80ED11C7E01E5E01D
:1047C000EE0EF11C0C151D0509F4B8CE80E0003F7B
:1047D000110520F4C80188960E944A2AD7018D93BA
:1047E0007D010F5F1F4FEECF0A811B81102701272C
:1047F0001027FE0131967F01CC80CE0EDF2ED11C1A
:10480000EC14FD0409F49ACE003F110538F4D701E9
:1048100014966C91C80188960E946E2A0F5F1F4FF4
:10482000BFEFEB1AFB0AECCF41E08C81811101C094
:1048300040E06B818A810E94890BD9CE2D813E8117
:1048400032272327322741E08C81811101C040E0CB
:104850006B818A810E949D1071CE78941F921FB641
:104860001F9211248F939F93AF93BF938091C801A0
:104870009091C901A091CA01B091CB010196A11DEF
:10488000B11D8093C8019093C901A093CA01B09350
:10489000CB01BF91AF919F918F911F901FBE1F9031
:1048A00018951F920F920FB60F9211242F933F93DA
:1048B0004F935F936F937F938F939F93AF93BF9328
:1048C000EF93FF938091E10082FF09C08091E200A5
:1048D00082FF05C08091E1008B7F8093E100809191
:1048E000DA0080FF24C08091D80080FF20C0809132
:1048F000DA008E7F8093DA008091D90080FF9BC020
:1049000080E189BD82E189BD09B400FEFDCF81E06F
:1049100080938C048091B601811109C00E94EA093C
:104920000E94400A8091E20084608093E2008091BE
:10493000E10080FF17C08091E20080FF13C08091EA
:10494000E2008E7F8093E2008091E200806180939C
:10495000E2008091D80080628093D80019BC85E085
:1049600080938C048091E10084FF29C08091E20053
:1049700084FF25C080E189BD82E189BD09B400FEC4
:10498000FDCF8091D8008F7D8093D8008091E10089
:104990008F7E8093E1008091E2008F7E8093E20021
:1049A0008091E20081608093E2008091B5018823CC
:1049B00009F447C084E080938C0480918C0480913A
:1049C000E10083FF27C08091E20083FF23C0809134
:1049D000E100877F8093E10082E080938C04109255
:1049E000B5018091E1008E7F8093E1008091E2002B
:1049F0008E7F8093E2008091E20080618093E200EC
:104A000042E060E080E00E94090A8091F000886046
:104A10008093F000FF91EF91BF91AF919F918F91A3
:104A20007F916F915F914F913F912F910F900FBEAA
:104A30000F901F90189519BC10928C041092B6011B
:104A400076CF8091E30087FF02C083E0B4CF81E09E
:104A5000B2CF1F920F920FB60F921124FF920F93B5
:104A60001F932F933F934F935F936F937F938F93F6
:104A70009F93AF93BF93CF93DF93EF93FF9309EE91
:104A800010E0F8018081C091EC00C795CC27C79554
:104A90008F70FC2EF82A1082C0EFD0E08881877FCB
:104AA000888378940E94F50CF801108288818860D0
:104AB0008883CF2DCF70C083FF91EF91DF91CF918D
:104AC000BF91AF919F918F917F916F915F914F9126
:104AD0003F912F911F910F91FF900F900FBE0F905C
:104AE0001F901895FF920F931F93CF93DF93182F6A
:104AF000EB011092BC0084EA8093BC000E94DD1C94
:104B0000082FF92E8091BC0087FF28C08091B90042
:104B1000887F883029F08091B900887F8031A1F5A5
:104B20001093BB0084E88093BC000E94DD1C182F0A
:104B3000092F8091BC0087FF1FC02091B900287FFA
:104B400080E090E0283199F081E090E0203411F489
:104B500080E090E091958195910909C0802F9F2D6B
:104B60000E940C1DC817D90768F68EEF9FEFCDB7CE
:104B7000DEB7E5E00C942427812F902F0E940C1DB6
:104B8000C817D907B0F6F1CF8FEF9FEFF0CF109293
:104B9000B9008CE08093B80008950F931F93CF93D2
:104BA000DF93EB018093BB0084E88093BC000E94FC
:104BB000DD1C182F092F8091BC0087FF11C02091A8
:104BC000B900287F81E090E0283211F480E090E085
:104BD000919581959109DF91CF911F910F91089542
:104BE000CF3FDC0741F3812F902F0E940C1DC81787
:104BF000D90708F78EEF9FEFEECFA0E0B0E0E3E03B
:104C0000F6E20C940027782E5B016A0189010E946C
:104C1000DD1C4C010431110560F10F3F100769F1F3
:104C2000C80164E170E00E94E726F62EE72E6F2DA2
:104C30007E2D872D0E947225EC0197FF09C00F3F42
:104C40001007A9F3C4010E940C1D0817190778F773
:104C50007501CA0CDB1CEC14FD0411F0D7FF10C069
:104C600084E98093BC00CE01CDB7DEB7EDE00C94B3
:104C70001C27FF24F394E12CDACF85E0F82EFBCF3C
:104C8000B801F70181917F010E94CD25EC01E3CFAE
:104C9000A0E0B0E0EEE4F6E20C940027782E5B0191
:104CA0006A0189010E94DD1C4C010431110560F18B
:104CB0000F3F100769F1C80164E170E00E94E72628
:104CC000F62EE72E6F2D7E2D872D0E947225EC018A
:104CD00097FF09C00F3F1007A9F3C4010E940C1DE4
:104CE0000817190778F77501CA0CDB1CEC14FD04D2
:104CF00011F0D7FF10C084E98093BC00CE01CDB77E
:104D0000DEB7EDE00C941C27FF24F394E12CDACFFE
:104D100085E0F82EFBCFF7018491B8010E94CD25E4
:104D2000EC01FFEFEF1AFF0AE1CFA0E0B0E0EBE902
:104D3000F6E20C94FF26682E962E5A01690178013E
:104D40000E94DD1C782E892E0431110530F10F3FB1
:104D5000100731F1C80164E170E00E94E726162FC8
:104D6000072F612F702F862D0E947225EC0197FF6F
:104D700019C0FFEFEF16FF06A1F3872D982D0E94B3
:104D80000C1DE816F90668F784E98093BC00CE0193
:104D9000CDB7DEB7EEE00C941B2711E000E0E1CFC9
:104DA00015E0FCCFB701892D0E94CD25EC018501CE
:104DB000CA0CDB1C0C151D0539F3D7FDE5CFB70177
:104DC000F80181918F010E94CD25EC01F3CFAA1B40
:104DD000BB1B51E107C0AA1FBB1FA617B70710F0E6
:104DE000A61BB70B881F991F5A95A9F78095909518
:104DF000BC01CD0108952F923F924F925F926F9226
:104E00007F928F929F92AF92BF92CF92DF92EF925A
:104E1000FF920F931F93CF93DF93CDB7DEB7CA1BDB
:104E2000DB0B0FB6F894DEBF0FBECDBF09942A8806
:104E3000398848885F846E847D848C849B84AA84AE
:104E4000B984C884DF80EE80FD800C811B81AA813B
:104E5000B981CE0FD11D0FB6F894DEBF0FBECDBF06
:104E6000ED010895991B79E004C0991F961708F089
:104E7000961B881F7A95C9F78095089597FB072E92
:104E800016F4009407D077FD09D00E94E72607FCAE
:104E900005D03EF4909581959F4F0895709561954A
:104EA0007F4F0895EE0FFF1F0590F491E02D0994B8
:104EB0006927962769277827872778270895002E5E
:104EC000083090F0982F872F762F652F542F432F7F
:104ED000322F22270850F4CF220F331F441F551FB3
:104EE000661F771F881F991F0A95B2F7002D089536
:104EF00097FD1094002E083098F00850232F342F7F
:104F0000452F562F672F782F892F912DF4CF159489
:104F100097958795779567955795479537952795F1
:104F20000A95AAF71124002D0895FB01DC0102C0A7
:104F300005900D9241505040D8F70895FB01DC01D7
:104F400004C08D910190801921F441505040C8F760
:104F5000881B990B0895AEE0B0E0E1EBF7E20C940A
:104F600009270D891E898F89988D26E02C831A8345
:104F7000098397FF02C080E090E801979E838D83AC
:104F8000AE01455E5F4F698D7A8DCE0101960E941C
:104F9000DB274D815E8157FD0AC02F81388542177E
:104FA00053070CF49A01020F131FF80110822E967A
:104FB000E4E00C942527ABE0B0E0E1EEF7E20C94DE
:104FC000FB267C013B018A01FC011782168283814A
:104FD00081FFB9C19AE0292ECE0101965C01F7014B
:104FE0009381F30193FD859193FF81913F01882384
:104FF00009F446C1853239F493FD859193FF81917F
:105000003F01853229F4B70190E00E94BC29E7CF27
:10501000912C412C512CFFE1F51538F08B3209F120
:1050200088F4803201F1833221F157FC3AC020ED3F
:10503000280F2A3040F556FE1FC0929C200D1124E7
:10504000922E06C08D3291F0803379F7689450F833
:10505000F30193FD859193FF81913F018111DBCF96
:1050600020C0689451F8689452F8F2CF689453F8CD
:10507000EFCF689454F8ECCF429C200D1124422EBF
:10508000689455F8E5CF8E3229F456FCF9C068943F
:1050900056F8DECF8C3619F4689457F8D9CF883695
:1050A000B9F2982F9F7D95549330C0F08336A1F1CB
:1050B0008337C1F1833509F05BC0F801C190D1900D
:1050C0008F01692D70E056FC02C06FEF7FEFC601C3
:1050D0000E94A6294C01689457F80AC00C5F1F4F24
:1050E0002FE3298388248394912C6501E89457F851
:1050F00053FC04C04814190409F018F5342C811429
:10510000910431F5332009F46ACFB70180E290E0D1
:105110000E94BC293A94F6CFF801808189830E5F02
:105120001F4FE0CFF801C190D1908F01692D70E041
:1051300056FC02C06FEF7FEFC6010E94B1294C01FF
:10514000D5CFB70180E290E00E94BC294A94D2CF2B
:10515000F60157FC859157FE81916F01B70190E0F0
:105160000E94BC2931103A94F1E08F1A9108C7CF00
:10517000843619F0893609F074C0F80157FE6AC008
:1051800061917191819191918F01252D2F76D22E70
:1051900097FF09C090958095709561957F4F8F4FCF
:1051A0009F4F6894D7F82AE030E0A5010E94EC29CF
:1051B000C82ECA188C2C5D2CD6FE0CC0E89450F872
:1051C000C91440F4D4FE05C0D2FC03C0FD2DFE7E00
:1051D0005F2E892C54FE8FC0FE01EC0DF11D8081E5
:1051E000803309F081C0252D297E522E852D8870AF
:1051F000382E53FC8FC050FE89C09C2C841418F4A8
:105200004C0C942C981854FE8BC0B70180E390E0AE
:105210000E94BC2952FE09C088E790E051FE02C0FE
:1052200088E590E0B7010E94BC29C91408F484C045
:10523000CA94D12C9FEFC91AD90ACA0CDB1CF601FB
:1052400082916F01B70190E00E94BC29AC14BD04AB
:10525000B1F758CF61917191072E000C880B990B13
:1052600093CFD52CE894D4F82AE030E0853739F193
:10527000952D997FD92E8F3601F148F48835A9F004
:10528000F701868197812B96E2E10C9417278037EE
:1052900049F08837A9F7D4FE02C06894D2F820E11B
:1052A00030E00DC06894D4F8F6CF54FE03C0E92F67
:1052B000E660DE2E20E132E002C028E030E0F801B6
:1052C000D7FE0DC061917191819191918F01A501DE
:1052D0000E94EC29C82ECA18E894D7F86BCF6191C8
:1052E000719190E080E0F2CF52FC02C083947ECFB7
:1052F000839483947BCF852D867809F477CFF6CF7E
:10530000B70180E290E00E94BC2983948414C0F32A
:10531000312C79CF342C3818841408F474CFF8CF9A
:10532000852D867809F481CF8BE251FE80E257FC0F
:105330008DE2B70190E077CFB70180E390E00E9463
:10534000BC299A9472CF8FEF9FEF9DCFFC010590FF
:10535000615070400110D8F7809590958E0F9F1F77
:105360000895FC016150704001900110D8F78095BC
:1053700090958E0F9F1F08950F931F93CF93DF93E8
:10538000182F092FEB018B8181FD09C01FEF0FEF53
:10539000812F902FDF91CF911F910F91089582FF60
:1053A00014C02E813F818C819D81281739073CF4E0
:1053B000E881F981CF0101969983888310838E81DA
:1053C0009F8101969F838E83E3CFE885F985812FA6
:1053D0000995892BA1F3DACFFA01AA27283051F1D8
:1053E000203181F1E8946F936E7F6E5F7F4F8F4F16
:1053F0009F4FAF4FB1E03ED0B4E03CD0670F781F75
:10540000891F9A1FA11D680F791F8A1F911DA11D59
:105410006A0F711D811D911DA11D20D009F4689492
:105420003F912AE0269F11243019305D3193DEF63A
:10543000CF010895462F4770405D4193B3E00FD0F0
:10544000C9F7F6CF462F4F70405D4A3318F0495DDB
:1054500031FD4052419302D0A9F7EACFB4E0A695BE
:105460009795879577956795BA95C9F700976105E0
:10547000710508959B01AC010A2E06945795479536
:1054800037952795BA95C9F7620F731F841F951F2B
:10549000A01D0895F999FECF92BD81BDF89A992774
:1054A00080B50895A6E1B0E044E050E00C94942A61
:1054B000A8E1B0E042E050E00C94942ADC01A40F93
:1054C000B51F4150504048F0CB01840F951F2E91DD
:1054D0000E946F2A41505040D0F70895262FF99925
:1054E000FECF92BD81BDF89A019700B4021639F043
:1054F0001FBA20BD0FB6F894FA9AF99A0FBE089514
:105500000396272F0E946F2A0E946E2A252F0E9441
:105510006F2A242F0C946F2A0196272F0E946F2A3E
:105520000C946E2ADC01CB01FC01F999FECF06C078
:10553000F2BDE1BDF89A319600B40D924150504051
:10554000B8F70895F894FFCFD30DF90DFF0DF90DBD
:10555000FF0D520E740EFF0D700F7D0FE6140A152D
:10556000111516151B15201525152A152F1534157F
:1055700039153E155D135D135D135D135D135D13EA
:1055800041155D135D1380228422CC22F222FD227C
:1055900008230B230B230B238C228C2286238923A5
:1055A0008D23AE23D023D323D523F42314241E2408
:1055B000010021007F22000392946697F4F5F6F72C
:1055C000313C09250B3F0940093C0B000000005FFE
:1055D0005F5F5F5F00002564004422320001DE004F
:1055E000AC00BA04D304F304C635323436330008B1
:1055F0001018181008000001020202020202020242
:10560000020200FF0100010000FFFF000001000195
:10561000FF00EF03EE03EF03EF03E200E900EA000F
:10562000B500B600B700CD008301CC008A0192011D
:1056300094012102230224022502260227022A02C3
:10564000B300B4006F0070009F01CB019F02A00265
:00000001FF
