:100000000C9455030C9472030C9472030C947203B9
:100010000C9472030C9472030C9472030C9472038C
:100020000C9472030C9472030C94E51D0C94BC1E8A
:100030000C9450120C9472030C9472030C9472037F
:100040000C9472030C9472030C9472030C9472035C
:100050000C9472030C94C11D0C9472030C947203E3
:100060000C9472030C9472030C9472030C9472033C
:100070000C9472030C9472030C9472030C9472032C
:100080000C9472030C9472030C9472030C9472031C
:100090000C9472030C9472030C9472030C9472030C
:1000A0000C9472030C9472030C94720300AF00AEB4
:1000B00000000000000000002F0000000007000703
:1000C0000000123F123F1200242A7F2A1200360934
:1000D0001E241B001826291228000000070000001B
:1000E000001E214000000040211E000014083E08B0
:1000F000140008083E0808000000307000000808DE
:100100000808080000003030000020100C02010038
:100110001E2925231E0000223F200000223129290C
:100120002600122125251A001814123F1000172549
:10013000252518001E252525180001310905030075
:100140001A2525251A00062929291E000000333307
:10015000000000003373000008141422220014145D
:1001600014141400222214140800020129050200AC
:100170003E59555D3E003816111638003F2525259D
:100180001A001E21212112003F2121211E003F259E
:10019000252521003F09090901001E2121291A00F6
:1001A0003F0404043F0000213F21000010202020D4
:1001B0001F003F040C1221003F20202020003F029E
:1001C00004023F003F020C103F001E2121211E00AF
:1001D0003F09090906001E2129112E003F090919AE
:1001E000260012252529120001013F0101001F20D0
:1001F00020201F000718201807000F300C300F00B8
:1002000021120C1221000304380403003129252394
:100210002100007F4141000001020C10200000413C
:10022000417F0000040201020400404040404000C1
:10023000000103040000102A2A2A3C003F24222245
:100240001C001C22222224001C2222243F001C2AE3
:100250002A2A0C0000043E0505000C5252543E00B0
:100260003F080404380000003D0000002040403DED
:1002700000003F080814220000013F2000003E0259
:100280003C023C003E0402023C001C2222221C00D4
:100290007E1422221C001C2222147E003E04020234
:1002A0000400242A2A2A120000021F2200001E2015
:1002B00020103E000618201806000E300C300E00EC
:1002C0002214081422000E5050483E0022322A26E2
:1002D000220008087741410000007F0000004141F2
:1002E00077080800180408100C0000000000000047
:1002F0000000381C0CCCCCCCFC3800180C8CCC7C0E
:1003000038000080C0404040404040C0800000C0F5
:1003100047CF4C4C4C4C4743404E4F49484848C04F
:1003200040FF0001FD0101FD0100FF0000FF007F13
:10033000808080808080808080808080807F00FFBF
:100340000000FF0000FF0000FF00000F0A0908087E
:100350000808080808080808080808090A0D02041F
:100360000404040404020100000000000000000076
:10037000000000000000000000000000000000007D
:10038000000000000000000000000000000000006D
:10039000000000000000000000000000000000005D
:1003A000000000000000000000000000000000004D
:1003B000000000000000000000000000000000003D
:1003C000000000000000000000000000000000002D
:1003D000000000000000000000000000000000001D
:1003E000000000000000000000000000000000000D
:1003F00000000000000000000000000000000000FD
:1004000000000000000000000000000000000000EC
:1004100005010906A101050719E029E715002501D5
:10042000950875018102950175088101050719007C
:1004300029FF150026FF009506750881000508199B
:100440000129051500250195057501910295017594
:10045000039101C009022200010100A0FA09040071
:1004600000010301010009211101000122440007DC
:100470000581030800011201000200000008328813
:10048000328800010102000120036600720065004D
:1004900065006100640072007300330032005F0089
:1004A0006B006E006F0062000000220354006100C8
:1004B0006B0061006800690072006F0020004E0050
:1004C00061007400730075006D0065000000040396
:1004D000090420002020002000522043202000207A
:1004E000004B657920200020004C6179657200FF87
:1004F000AA7F554000010101010101010101020231
:1005000002020202020202030303030303030304C1
:10051000040404040404050505050506060606068C
:10052000070707070708080808090909090A0A0A46
:100530000B0B0B0C0C0C0D0D0D0E0E0E0F0F0F10E8
:100540001011111112121313141415151616171772
:10055000181819191A1A1B1B1C1D1D1E1E1F2020DE
:10056000212222232424252626272829292A2B2C28
:100570002D2D2E2F30313232333435363738393A4B
:100580003B3C3D3E3F404142434445464748494A43
:100590004C4D4E4F50515354555658595A5B5D5E11
:1005A0005F616264656668696B6C6D6F70727375AC
:1005B00077787A7B7D7E8082838587888A8C8E8F10
:1005C00091939596989A9C9EA0A2A3A5A7A9ABAD3E
:1005D000AFB1B3B5B7BABCBEC0C2C4C6C9CBCDCF2C
:1005E000D1D4D6D8DBDDDFE2E4E7E9EBEEF0F3F5DA
:1005F000F8FAFDFF00DA0281FFD9F1DB20A4A62E74
:10060000AF00A0C0D30000A1C8D30000AED580A821
:100610001F408D14200000041E0029001F00200030
:100620000000210022002300240025000000140007
:100630001A0008000000150017001C0018000C002C
:100640001E00E100040016000000070009000A0077
:100650000B000D001E00E2001D001B000000060044
:1006600019001100100028004E004B0051005200EC
:100670004F0050006162636465666768696A6B6C0D
:100680006D6E6F707172737475767778797A3132B6
:100690003334353637383930524542545F2D3D5B5F
:1006A0005D5C233B27602C2E2F0011241FBECFEF53
:1006B000DAE0DEBFCDBF11E0A0E0B1E0E8EBF8E4A6
:1006C00002C005900D92A836B107D9F724E0A8E63C
:1006D000B1E001C01D92A83CB207E1F70E946D197C
:1006E0000C943B240C940000E82FE295EF70F0E0AE
:1006F00041A18F7021E030E0B90102C0660F771F81
:100700008A95E2F7CB01962F9095942391A392A11D
:10071000892B82A30895E82FE295EF70F0E041A1C4
:100720008F7021E030E0B90102C0660F771F8A9513
:10073000E2F7CB01942F982B91A392A18095892366
:1007400082A30895982F82958F70882311F0982F97
:1007500084E0292F26952695222311F08E5F922F73
:10076000969591118F5F08958093810408958093E9
:100770008204089521E030E001C0220F8A95EAF753
:1007800080918204822B0E94B703089521E030E01B
:10079000A90102C0440F551F8A95E2F7CA0180954E
:1007A0009091820489230E94B70308959B0167708A
:1007B00091E001C0990F6A95EAF763E036952795B5
:1007C0006A95E1F7B901660F771F260F371FFA0107
:1007D000E20FF31F40E050E0682F70E08191DF01ED
:1007E00011979B01042E02C0369527950A94E2F7D3
:1007F000217021952827292328272C934F5F5F4FAD
:100800004330510559F708959C01A82FA77083E044
:10081000369527958A95E1F7C901880F991F820FB0
:10082000931FFB01E80FF91F40E050E080E02191A9
:1008300030E00A2E02C0369527950A94E2F721701F
:100840003327042E01C0220F0A94EAF7822B4F5F50
:100850005F4F4330510559F70895282F862F943064
:1008600070F42A3058F4622F70E02AE0929F600DF5
:10087000711D112445E654E00E94D60308959C5F43
:100880009230E0F7622F70E042E654E0F5CF292F76
:10089000943068F48A3090F490E065E674E03AE0D1
:1008A000239F800D911D11240E94040408952C5F44
:1008B000223020F462E674E090E0F6CF80E0089504
:1008C0008091880490918704981301C008958F5FE8
:1008D0008770FACF90918304809589238093830455
:1008E000282F277021110DC0891759F09091850488
:1008F00092FF07C08695869586950E94C603109242
:1009000083040895982F909580917E048923809385
:100910007E040895E62F743088F46A3048F581111A
:100920002AC0F0E08AE0789FE00DF11D1124EE0F5F
:10093000FF1FE85EF94F8591949108957D3F59F42A
:100940006330B0F4811117C084E0689FF001112476
:10095000E859F94FF0CF7C3F59F4633048F48111E6
:100960000AC084E0689FF0011124E659F94FE3CFF3
:1009700080E090E0089581E0FCCF803E9105D1F1C8
:10098000C8F48133910509F47FC048F48932910598
:1009900009F46FC08A32910509F47DC00895893346
:1009A0009105E1F082389105C9F08533910509F48C
:1009B0005BC00895843E9105D1F148F4823E9105D3
:1009C00031F1833E910541F181EE90E00895863E3C
:1009D0009105C1F1873E9105E1F1089520918404CC
:1009E0002370211165C02091850423FF14C089E282
:1009F00090E008952091840420FD43C03091850447
:100A000030FF09C024FF4EC080E090E0089520919F
:100A1000840422FDF7CF08952091840422FD45C06F
:100A20003091850430FD44C024FFF5CFEDCF2091F7
:100A3000850421FFF0CF8091840484FDE5CF87EE0B
:100A400090E008952091840423FFE5CF24FDDCCFBE
:100A5000F6CF2091840423FD2EC03091850431FF10
:100A6000E3CF84EE90E008952091840425FFD3CF56
:100A7000BECF2091840425FD21C02091850423FF51
:100A8000CACF89E390E008952091840426FFC3CF64
:100A90008AE290E008952091840426FFBCCF81E390
:100AA00090E0089583EE90E0089582EE90E008953E
:100AB00080EE90E0089586EE90E0089585E390E062
:100AC000AACF9091840492FF10C041E0282F247196
:100AD000243009F040E031E0282F2871283009F057
:100AE00030E0431711F02CE0822793FF10C041E063
:100AF000282F2471243109F040E031E0282F28719B
:100B0000283109F030E0431711F02CE082273091B2
:100B1000850430FF10C051E0282F2171213009F0E9
:100B200050E041E0282F2871283009F040E05417A8
:100B300011F029E0822731FF10C041E0282F2171F8
:100B4000213109F040E031E0282F2871283109F0E7
:100B500030E0431711F029E0822794FD877E089545
:100B60001F93CF93DF930E94BD04EC01811522E512
:100B7000920708F04DC0811540E5940708F0C5C004
:100B8000883E910588F0811550E4950728F1992752
:100B90000E94BD04CC27DF70C82BD92BD06ACE01B0
:100BA000DF91CF911F910895803E9105C0F7853A5E
:100BB000910550F4049798F781E0219709F080E0BF
:100BC000C82F80E0D82FEBCF8D5C9109D06543977B
:100BD00030F3C0E0D0E0E3CFC11590E2D90708F0D0
:100BE000ADC0CE019A9581159F4198F78D2F0E9437
:100BF0006105182FCE0199270E94BD04212F30E0F6
:100C0000322F2227E901CC27DF71C82BD92BC7CF80
:100C1000803842E59407C0F5803652E5950708F024
:100C200055C0C03482E5D807B0F08C2F86958695E4
:100C3000877020E2829FC0011124C37021E030E060
:100C4000A90102C0440F551FCA95E2F7EA01C82B5B
:100C5000D92BDC68A4CFC03252E5D50780F58C2FA4
:100C60008695869520E2829FC0011124C37021E001
:100C700030E0A90102C0440F551FCA95E2F7EA010E
:100C8000C82BD92BDD688BCF803C52E5950758F4F3
:100C90008F71C03AD24578F590E0982F8827EC0103
:100CA000C46FD06A7CCF805C9245809708F091CF6A
:100CB000DC2FCC27CC27DF71C06FD06A70CFCF710B
:100CC000D0E0DC2FCC27C16FD06A69CF869586959E
:100CD000877020E2829FC0011124C37021E030E0C0
:100CE000A90102C0440F551FCA95E2F7EA01C82BBB
:100CF000D92BDA6854CF0E946105C82FD0E0DC2FD1
:100D0000CC27CC27DF71D0624ACF8F710E9461055A
:100D100065E0D695C7956A95E1F7CF70D0E0DC2FF6
:100D2000CC27282F30E084FF05C054E0220F331F6A
:100D30005A95E1F7C22BD32BD06931CF8D2F8F710C
:100D40000E946105182FCE0199270E94BD04212F12
:100D500030E0322F222722273F71282B392BE9013F
:100D6000D2CFA0E0B0E0E7EBF6E00C9499207C0154
:100D70000091820480918104082BC7E0D0E010E04C
:100D8000C8010C2E02C0959587950A94E2F780FD64
:100D900009C02197A8F7D12C8D2DCDB7DEB7E7E09C
:100DA0000C94B520DC2EB7018C2F0E948A040E947F
:100DB000B005019771F3F0CF0F931F93CF93FC0110
:100DC000858100811181882391F0662381F0C8011B
:100DD0000E94B106C82F682FC8010E942D04B801D7
:100DE0008C2F0E948A04CF911F910F910895C80102
:100DF0000E944704C82FF3CFCF93DF93D82FC92F7A
:100E00000E94B1066D2F7C2F0E948A040E94B005BB
:100E1000DF91CF910895FC0184818823A1F0808126
:100E200091810E94FC06282F92959F70963091F038
:100E300060F4925F9F70923030F481E0203F79F04F
:100E400030F4283E30F080E004C09A5FF3CF243FB6
:100E5000D1F7089581E0283E18F0213FF9CF089599
:100E6000089580E008950895A0E0B0E0EAE3F7E097
:100E70000C949620E901E42FF0E0EC50FB4F611157
:100E80000BC0E4919E2F8E2F8983E8839A83CDB780
:100E9000DEB7EAE00C94B220282F30E0062F10E0F5
:100EA000F491EF2F86E0829F6001839FD00C112484
:100EB000EE24EA94F12CC601B7010E947A20220F99
:100EC000331F45E5469FC001479F900D1124281B05
:100ED000390B822F880F280FC701801B910BF89FB9
:100EE000A001F99F500D1124952F209F5001219FA3
:100EF000B00C1124AB2CBB24D701AA19BB095D018E
:100F0000FA9DD001FB9DB00D11248B2F5701A21A21
:100F1000B1089501209F5001219FB00C309FB00C6B
:100F20001124AB2CBB24EA18FB08FE9D9001FF9D09
:100F3000300D112463307105C9F01CEFC11613E0A8
:100F4000D10650F46130710509F49ECF623071050D
:100F500089F08E2FE32F98CF6430710571F06630E1
:100F60007105B9F3E52F9B2F8F2F8ECFEB2F852F98
:100F70009F2F8ACF852F932F87CF832FE52FF8CFF1
:100F800080917604843060F483708460809376046A
:100F900080917904893718F088E78093790408955F
:100FA0008433B0F383708063F1CF8091760480FD49
:100FB0000AC0E9EBF3E0118210821282339684E0DA
:100FC000E931F807C1F760E270E089EB93E00E9435
:100FD0001F0A08959091760490FF0CC0E9EBF3E0AE
:100FE000818360834283339694E0E931F907C1F746
:100FF0000E94D5070895A3E0B0E0E1E0F8E00C948A
:101000009C208C018091B80381110AC09E012F5F42
:101010003F4F48E76FEF0E9434078A818093B803FF
:10102000F8016481613049F06230D1F08091B803F9
:1010300040E0662331F040E015C06091B80340E025
:1010400080E00E94EA07F801848190E0019663E065
:1010500070E00E94D12084832396E4E00C94B820B1
:101060004091B80380E060E0ECCFFA01882311F0F2
:1010700009950895FB01FCCF90E06623E9F0895CB7
:101080009E4FFC0180818F3FB1F0E82FE295EF7019
:10109000F0E041A18F7021E030E0B90102C0660F9D
:1010A000771F8A95E2F7CB01962F9095942391A311
:1010B00092A1892B82A308958C5C9E4FE2CF90E091
:1010C0006623A9F0895C9E4FFC0120812F3F91F09F
:1010D000E22FE295EF70E05EF0E0808190E02F700B
:1010E00002C0959587952A95E2F7817008958C5CEA
:1010F0009E4FEACF80E00895539A0895E0915804F6
:10110000F0915904309729F00190F081E02D099574
:10111000089580E00895A4E0B0E0E1E9F8E00C94DF
:101120009E208FB7F89420919001309191014091C9
:1011300092015091930129833A834B835C838FBF43
:1011400069817A818B819C812496E2E00C94BA209B
:1011500080918F010895089508950895FC019B01E1
:1011600080918501909186018617970740F0672B43
:1011700029F48091E8008E778093E800C90140E06F
:10118000009741F4411106C08091E80082FF2FC012
:1011900080E0089520912D042223A9F12530A9F1A2
:1011A0002091E80023FD2DC02091E80022FDECCF26
:1011B0002091E80020FFE4CF3091F3002091F2006D
:1011C000009719F02830310558F041E028303105FA
:1011D00009F040E02091E8002E772093E800D0CF7E
:1011E00041914093F10001972F5F3F4FE9CF8091EC
:1011F0002D04882341F0853041F08091E80083FF81
:10120000C3CF81E0089582E0089583E0089580913E
:101210007F0187FF13C08091E80082FF06C08091A4
:10122000E8008B778093E80004C080912D04811141
:10123000F2CF089580912D048823D9F38091E8009E
:1012400080FFF8CF8091E8008E77ECCF2091E4000A
:101250003091E50095E6A9018091EC00817088232A
:1012600031F08091E80080FF06C080E00895209171
:10127000E80022FD1BC080912D04882391F0853069
:1012800091F08091EB0085FD10C02091E400309139
:10129000E5004217530701F391509111DCCF84E030
:1012A000089582E0089583E0089581E00895E8EDCF
:1012B000F0E080818E7F80831092E2001092DA004D
:1012C0001092E100A0EEB0E08C9181608C9380815F
:1012D0008F77808319BCA7EDB0E08C918E7F8C93C3
:1012E00080818F7E808310927E010895982F909345
:1012F000E900891771F05091EC002091ED004091C8
:10130000F00021FD09C09F5F973089F78093E900C5
:101310000895562F40E022E03091EB003E7F30935D
:10132000EB003091ED003D7F3093ED003091EB000C
:1013300031603093EB005093EC002093ED0040932C
:10134000F0002091EE0027FDDECF0895A0E0B0E090
:10135000ECEAF9E00C949820C8EDD0E088818F7E0B
:101360008883E7EDF0E080818160808384E082BF44
:1013700081E080937E0188818E7F888302EE10E079
:10138000F80110821092DA0081EEC82ED12CF601FD
:10139000108288818F77888388818068888388819C
:1013A0008F7D888319BC10922D0410927D011092BC
:1013B0002C0410927C0190EEE92EF12CF701808133
:1013C0008B7F808388818160888360E080E00E94D9
:1013D0007609F60180818E7F8083F80180818160AB
:1013E0008083808188608083F70180818E7F808305
:1013F000888180618883CDB7DEB7E8E00C94B420A3
:10140000E09188049091870427E0E91302C080E00E
:101410000895AE2FB0E02E9FF0011124E757FB4F47
:101420003181361306C03081381303C0358134133F
:1014300004C0FD013196E770E8CF81E008959C017A
:10144000AB016BB1677F7BB17860EFB7F894CA01ED
:10145000880F991F840F951F820F931F8217930780
:1014600041F4EFBF8FE594E00197F1F700C0000071
:101470000895D9014D919D0158E07BB9000000C04D
:1014800047FF6BB9440F000000C000C000C06BB93B
:1014900000C05A9591F7E2CF0F931F93CF93DF933C
:1014A000EC0180912D04843059F581E08093E900AE
:1014B0008FEF9091E80095FD07C095ED9A95F1F7B3
:1014C000000081508111F5CF8091E80085FF18C0A0
:1014D0000E94260981110FC008E010E08091E80009
:1014E00085FD13C08091E8008E778093E8000E940C
:1014F0002609882399F38091E8008E778093E8008D
:10150000DF91CF911F910F91089588818093F10011
:10151000015011090115110571F32196DFCFCF9309
:10152000DF93D82FC92F0E944C0A88E0ED2FFC2FA3
:10153000A7E8B1E001900D928A95E1F7DF91CF9194
:1015400008959091850492FB222720F9281779F0BD
:1015500080FB92F9909385046091840470918504D6
:1015600084E090E00E94252482E00E946A040895AD
:10157000E8EBF1E080E092E0DF019C011D92215058
:101580003040E1F7F093B701E093B6018FEF9FEFA2
:101590009093B5018093B401089580917E04909159
:1015A0008604892B40917F04442389F090E02CE647
:1015B00031E0F90150812F5F3F4F51119F5F51E0A2
:1015C00022373507B1F7911110927F04842B809355
:1015D0006A0148E050E06AE574E08AE691E00E9422
:1015E0003721892BA9F088E0EAE6F1E0AAE5B4E02A
:1015F00001900D928A95E1F7E0915804F091590419
:10160000309731F00280F381E02D8AE691E0099570
:10161000089510927E04ECE6F1E086E0DF011D9271
:101620008A95E9F7109286040E94CD0A08950E94D7
:10163000090B2FEF84E39CE0215080409040E1F7BC
:1016400000C0000088E19AE00FB6F894A895809356
:1016500060000FBE90936000FFCFAAE2B0E0E3E32A
:10166000FBE00C949D208FE791E0FC010196209116
:10167000F100208321E087389207B9F7809180013B
:10168000893009F456C0C8F4823009F4B2C08330FE
:1016900009F481C0813071F18091E80083FFE6C0D8
:1016A00080917F01909180019A3008F0DFC0E92F8E
:1016B000F0E0E35CFB4D0C94E5208A3009F488C02F
:1016C0008B3051F780917F01813231F78091830116
:1016D00090918401892B01F78091E800877F8093A6
:1016E000E8000E94070980918101809300010E9417
:1016F000090BD2CF80917F01813A71F68091E80089
:10170000877F8093E8008091830190918401892BE9
:1017100061F060E080E090E070E00E94AE088091AF
:10172000E8008B778093E800B7CF68E087E891E026
:10173000F3CF80917F01813209F0AECF8091830198
:1017400090918401892B09F0A7CF8091E800877FD1
:101750008093E8008091E80082FF18C09091F30028
:101760008091F200029731F48091F100813011F004
:10177000863021F48091F10080938F018091E80000
:101780008B778093E8000E94070986CF80912D0413
:101790008111E0CF81CF80917F01813A09F07CCF28
:1017A0008091830190918401892B09F075CF8091FC
:1017B000E800877F8093E8008091E80080FFFCCFFD
:1017C000809100018093F1008091E8008E77D9CF5D
:1017D00080917F01813209F05FCF8091E800877F9F
:1017E0008093E8000E9407098091820180937B0129
:1017F00053CF80917F01813A09F04ECF8091E8006C
:10180000877F8093E8008091E80080FFFCCF809183
:101810007B01D8CF803889F0823841F580918301EF
:101820008F70873018F58093E9008091EB0085FB7D
:10183000882780F91092E90006C080917C01909180
:101840002C04911182609091E800977F9093E800BA
:101850008093F1001092F1008091E8008E7723C010
:10186000811116C080918101813011F18091E800D1
:1018700083FF0AC08091E800877F8093E800809111
:10188000EB0080628093EB00AA96E3E00C94B92011
:10189000823061F780918101882389F01092E900FC
:1018A0008091E800877F8093E8000E940709DECFDF
:1018B00081E0933009F080E080932C04EFCF809199
:1018C00083018F702FEF280F263080F68093E90078
:1018D0002091EB0020FFE2CF933031F48091EB00B8
:1018E00080628093EB00DACF9091EB00906190934F
:1018F000EB0021E030E0A90102C0440F551F8A959A
:10190000E2F74093EA001092EA008091EB008860D1
:10191000E8CF8111ABCF109181011F778091E30057
:101920008078812B8093E3008091E800877F80930B
:10193000E8000E9407098091E80080FFFCCF8091B9
:10194000E30080688093E30083E0111101C082E02E
:1019500080932D048BCF8058823008F087CF209160
:101960008101309182012C3D53E0350799F583E0E8
:101970008A838AE289834FB7F894DE01139620E0C8
:101980003EE051E2E32FF0E050935700849120FFB6
:1019900003C082958F703F5F8F708A30C8F0895C7A
:1019A00090E08D939D932F5F243161F74FBF80911D
:1019B000E800877F8093E8006AE270E0CE0101963C
:1019C0000E94AE088091E8008B778093E8004ECFAC
:1019D000805DE6CF4091830150918401832F992748
:1019E00083309105E1F060F48130910509F468C01D
:1019F000029709F03BCF82E290E0E4E5F4E024C0F6
:101A00008132910509F454C0829709F02FCF452BFC
:101A100009F02CCF84E490E0E0E1F4E015C0C901C6
:101A200099272130A9F18230910509F439C0892B19
:101A300009F01CCFEEECF4E0E4918E2F90E0EEEC98
:101A4000F4E0009709F412CF2091E800277F20935B
:101A5000E80020918501309186018217930708F4F0
:101A60009C0140E02115310581F541112EC0809186
:101A7000E80082FDA7CF80912D04882309F4A2CF2E
:101A8000853009F49FCF8091E80083FFF0CF9ACF93
:101A9000EAEAF4E0E4918E2F90E0EAEAF4E0D1CFB4
:101AA000E8E8F4E0E4918E2F90E0E8E8F4E0C9CFB4
:101AB000452B09F0DBCE89E090E0E6E6F4E0C4CF08
:101AC00082E190E0E6E7F4E0BFCF80912D04882327
:101AD00009F478CF853009F475CF8091E80083FD53
:101AE00071CF8091E80082FDC2CF8091E80080FF35
:101AF000B9CF9091F3008091F2002115310519F0D2
:101B00008830910550F041E0089709F040E080915D
:101B1000E8008E778093E800A5CF44914093F100D0
:101B20003196215031090196E8CF803809F09ECED8
:101B30008091E800877F8093E80080917D01809309
:101B4000F1008ACE811192CE10918101123008F0FD
:101B50008DCE8091E800877F8093E80010937D010F
:101B60000E940709112351F084E080932D0461EC59
:101B700081E00E94760980912D0478CE8091E30067
:101B800087FDF2CF81E0F1CF0F931F93CF93C82F42
:101B9000882339F18CEF8C0F813AB0F50CE611E017
:101BA000F8018191C81709F181E0E237F807C9F718
:101BB000EFEF80E0D8019D918D01C91781F0EF3FD3
:101BC00019F4911101C0E82F8F5F863099F7EF3F2C
:101BD00031F00E2E000CFF0BE659FE4FC2830E941F
:101BE000CD0ACF911F910F910895ECE6F1E081911C
:101BF000C81303C0DF0111971C92A1E0E237FA0776
:101C0000B1F70E94CD0AD4CF80E28C0F883048F71C
:101C1000C77081E090E001C0880FCA95EAF7C091D3
:101C20007E04C82BC0937E04DACF882391F09CEF0A
:101C3000980F913A78F4ECE6F1E09191891303C0A2
:101C4000DF0111971C9291E0E237F907B1F70E948A
:101C5000CD0A089590E2980F9830D8F7877091E0F8
:101C600001C0990F8A95EAF7892F0E948204EFCF6D
:101C7000882339F090917E04892B80937E040E9402
:101C8000CD0A0895882321F00E9482040E94CD0A83
:101C90000895A0E0B0E0EFE4FEE00C949820890104
:101CA000D42FC52F6B017C010E94C007A8016D2FA6
:101CB0007C2F88E090E00E94192498014D2F5C2F22
:101CC000B601C70100E20E940621622F83E290E084
:101CD0000E940724CDB7DEB7E8E00C94B4208091D1
:101CE0007A04833018F48F5F80937A04209176040D
:101CF00030917704409178045091790460917A048E
:101D000070917B0480917C0490917D040E94490E27
:101D1000089580917A04882319F0815080937A0481
:101D200020917604309177044091780450917904A1
:101D300060917A0470917B0480917C0490917D0481
:101D40000E94490E0895A3E0B0E0E9EAFEE00C9499
:101D50009320E82ED62EF42E722E8091760480FFEA
:101D600034C0982F96959695E92FF0E0EE5BFE4FE4
:101D70002081209374048C7F843059F528E7241740
:101D800008F448E79E012F5F3F4F6D2D8E2D0E9476
:101D900034074B8169818A810E94EA07E0927704C7
:101DA000D0927804F0927904772079F0209176042B
:101DB00060917A0470917B043E2D4D2D5F2D8091B2
:101DC0007C0490917D040E94490E2396EDE00C94D2
:101DD000AF20223019F7EEEFE90F9170C92EE6958A
:101DE000F0E0E151FB4FE4910E2F10E039EBA32E10
:101DF00033E0B32E812C912CC40125E09695879574
:101E00002A95E1F7C11017C08E0D4F2D98E79F1549
:101E100008F448E795016D2D0E943407800E911E4D
:101E200023E0A20EB11C89E1A81684E0B80621F7D0
:101E30000E94D507B3CF2E2D281B822FE6CFE6E7D1
:101E4000F4E0818121E0438162818F5E0E94A30ED4
:101E50000895E6E7F4E0818121E0438162818151C8
:101E60000E94A30E0895E6E7F4E0628121E1620F8B
:101E700008F46FEF21E0438181810E94A30E089551
:101E8000E6E7F4E0628121E1621B08F460E021E012
:101E9000438181810E94A30E0895E6E7F4E0438127
:101EA0002CE0420F08F44FEF21E0628181810E9413
:101EB000A30E0895E6E7F4E043812CE0421B08F40A
:101EC00040E021E0628181810E94A30E0895AB0170
:101ED00024E630E0BC0188E70E94DB1F9C0181E022
:101EE000232B09F080E0089580912304882369F072
:101EF00080912204882349F062E070E08EEA90E04D
:101F00000E94670F8111109222040895A4E0B0E0AE
:101F1000ECE8FFE00C949E20809123048823F9F0E4
:101F20000E948B08DC01CB01805A9541AF4FBF4F17
:101F30008093240490932504A0932604B09327044F
:101F40008091220481110BC062E070E08CEA90E085
:101F50000E94670F882319F081E080932204249661
:101F6000E2E00C94BA20CF93DF93282F81E02A304F
:101F700019F02D3031F480E00E943910DF91CF91BB
:101F800008958091B6019091B70136E0FC01A5E774
:101F9000B1E001900D923A95E1F730EE320F303911
:101FA00008F458C026E0FC0111922A95E9F7C09187
:101FB000B601D091B70146E050E0BE0185E791E05F
:101FC0000E9437219E01285B3140892B41F1C901D4
:101FD00045E0969587954A95E1F741E050E0BA01D2
:101FE00002C0660F771F8A95E2F7CB016091B401BA
:101FF0007091B501862B972BB9016B5F7F4FE5E0A0
:1020000076956795EA95E1F702C0440F551F6A95EA
:10201000E2F7842B952B9093B5018093B4012A5F4E
:102020003F4F40912804642F70E0C9010E947A203C
:10203000481B463010F4240F311D211572E037077C
:1020400010F020E030E028543E4F3093B701209349
:10205000B60194CF2052330B46E0429FB001439F1C
:10206000700D112460557F4F46E050E00E94212101
:102070009ECFCF93382FE091B601F091B701E85B86
:10208000F14020912804622F70E0CF010E947A2055
:10209000281B822F332361F066E00E94C520C82FE1
:1020A000C15010F4CF91089580E20E94B30FF8CF91
:1020B0009F01280F311D2115324018F080E0E0E02B
:1020C000F0E08E0F9F2F911D88549E4F9093B70183
:1020D0008093B601E7CFCF93DF93C0E8D5E0DC0F64
:1020E0008C2FCF5F0E94B30FDC13FACFD43911F0DD
:1020F000CD2FF4CF80E00E943910DF91CF91089569
:102100000F931F93CF93DF93EC01FC01019000200C
:10211000E9F78F0101501109C017D10728F0DF91AD
:10212000CF911F910F91089589910E94B30FF4CF21
:10213000CF93DF93EC01FE018491811103C0DF9105
:10214000CF9108950E94B30F2196F5CFA0E1B0E0A2
:10215000ECEAF0E10C948F2080912304882309F4A9
:10216000D1C088EB91E09093B7018093B6010E94B3
:102170006B108091280425E0829FC00111248115F5
:1021800032E0930714F080E090E088549E4F9093E3
:10219000B7018093B60181EE94E00E94981080917F
:1021A00026019091270154E0969587955A95E1F77D
:1021B0008F708A3008F0AAC0805D0E94B30F8091B2
:1021C00026018F708A3008F0A3C0805D0E94B30F93
:1021D0008FED94E00E94981081E00E94391089ED03
:1021E00094E00E949810809129018F708A3008F045
:1021F00091C0805D0E94B30F87ED94E00E9498101B
:10220000809128018F708A3008F086C0805D0E941E
:10221000B30F84ED94E00E9498108AE291E00E944E
:10222000801082ED94E00E94981081E00E943910A5
:1022300089EE94E00E94981081E00E94391080910C
:1022400082040E94A2031F928F9381E391E09F93E7
:102250008F931F928CE08F938E010F5F1F4F1F9300
:102260000F930E944421C8010E94801081E00E94C7
:10227000391087EE94E00E94981081E00E94391096
:102280000FB6F894DEBF0FBECDBF8091B401909120
:10229000B501892BA1F080912304882381F08091DE
:1022A000210481110CC00E94860F2091B40130914D
:1022B000B50180E061E070E02115310581F5809184
:1022C00022048823F9F00E948B086D877E878F8710
:1022D000988B8091240490912504A0912604B091BC
:1022E00027042D853E854F855889281B390B4A0BBD
:1022F0005B0BDA01C9018F3F9F4FAF4FBF4710F40F
:102300000E94740F6096E1E10C94AB20895A55CF7E
:10231000895A5CCF895A6ECF895A79CF8F5F082F3F
:1023200010E07B01082E02C0EE0CFF1C0A94E2F7BD
:10233000A70142235323452B89F39091290490FD53
:1023400043C098013695279536952795922F82950B
:10235000880F80763FE1380F8093030120930601B8
:10236000309304019093070124E630E047E050E009
:1023700061E071E088E70E94901F892B09F09FCFF0
:10238000A80125E0440F551F2A95E1F78091290403
:1023900080FD22C048545E4F04E610E020E230E0A9
:1023A00060E488E70E942820892B09F088CFE09418
:1023B000F0948091B4019091B501E822F922F09255
:1023C000B501E092B4017BCF880F880F880F37E00A
:1023D000380F20E093E0C0CFE4E9F1E080E2DF01D4
:1023E0001D928A95E9F7EEE3F1E0FE87ED870AE3B7
:1023F00011E082E4A82E81E0B82E97E0392E442423
:102400004394AD85BE858D91BE87AD87F80121913E
:102410008F01240F352F311D28543E4FE82FF0E057
:10242000EC56FE4F80E090E0632C681A742C082E66
:1024300001C0770C0A94EAF76901812CD6019D90BE
:102440006D019720662D6819677070E0B92D062E12
:1024500001C0BB0F0A94EAF75B2E71956195710973
:102460006770772701C096946A95EAF759286081CA
:10247000562A5082839468E08612E0CF0196319606
:102480008830910589F68D859E85A816B90609F0D4
:10249000B8CF04E610E020E230E044E951E080CF1C
:1024A0001F921FB61F9211248F939F93AF93BF93D8
:1024B00080912B04811113C0809190019091910122
:1024C000A0919201B09193014196A11DB11D8093FD
:1024D000900190939101A0939201B0939301BF91C9
:1024E000AF919F918F911F901FBE1F9018952FB78E
:1024F000F8948091900190919101A0919201B091F6
:1025000093012FBF08959091760490FF3BC08823DC
:10251000D1F18D30D0F58F73282F220F220F8091AB
:1025200076048370282B20937604662381F0309103
:102530007704409178045091790460917A04709105
:102540007B0480917C0490917D040E94490E6091EF
:1025500076046695669570E04BE050E088E091E087
:102560000E942A21892B99F01092750481E08093B2
:10257000420420E0409179046091780480917704CE
:102580000E94A30E089581E0C7CF8CE0C5CF81E003
:10259000809375040E9477129093400480933F04C7
:1025A000E5CF80917604869586958F5F8D3008F013
:1025B00081E061E00E9483120895909176049695DF
:1025C00096958FEF890F913009F48CE061E00E94BD
:1025D000831208958091760480FF09C086958695C0
:1025E000825C8F73893018F40E94D112089561E0E3
:1025F00082E00E9483120895A0E0B0E0E2E0F3E1FF
:102600000C9498207C01FC018481882309F40FC17B
:1026100061E0C7010E94DC069C01F70145819093AF
:1026200027018093260180819181909329018093D5
:102630002801F9013497E533F10508F0BCC0EC58E6
:10264000F94FE4915FE5442311F05E2FEFE5AAE234
:10265000B1E080E090E06D916E1376C08A5D9E4F90
:10266000FC015483F7018581811180C0F7018581C8
:1026700000811181882309F448C1C8010E94B10674
:10268000C82F682FC8010E942D04B8018C2F0E940A
:102690008A040E94B005D82FC92FF701D580C680C3
:1026A000C2948FE0C8228091830487708823F9F058
:1026B0000D2DDD20E9F0892F807F803461F080E2EC
:1026C0008D0F8830A0F0892F807E803221F4D230A7
:1026D00070F0CC2061F08091850482FF08C082E018
:1026E0000E946A0480918304877001E0811100E0F8
:1026F0008C2F82958F70883009F4D4C108F00AC1FC
:10270000823008F419C1825F8F70823008F44CC1A6
:102710000023A9F08091830480FD11C0F701158288
:102720008695869586950E94BA03C7010E94FC1281
:10273000809183048695869586950E94C60360E005
:10274000C7010E94DC0673C001968630910509F02E
:1027500082CF442309F48ACF2B358CE7380708F061
:10276000B8C021309CE7390709F4CBC02330ECE72F
:102770003E0709F4C0C021153C4709F077CF0E94FD
:10278000090BEFEFF4E32CE0E150F0402040E1F7DB
:1027900000C0000087E797E7909301088093000846
:1027A00088E19AE00FB6F894A895809360000FBE78
:1027B00090936000FFCF411185C080917E048272AA
:1027C000F901E052F847E531F10508F04FCFE95B38
:1027D000FB4D0C94E5208091760480FF2DC0282FBE
:1027E0002E7F2093760430917704409178045091A5
:1027F000790460917A0470917B0480917C049091BB
:102800007D040E94490E109275040E94D5078091A4
:1028100083048770882359F0F7018581882339F074
:102820008091850482FF03C082E00E946A04CDB7D4
:10283000DEB7E8E00C94B42081608093760461E018
:10284000869586950E948312E2CF4DED52E161EDAF
:1028500072E10E943508DBCF41ED52E16DED72E18E
:10286000F8CF49E25FE06FE17FE0F3CF4FE15FE057
:1028700069E27FE0EECF40E45FE063E37FE0E9CF31
:1028800043E35FE060E47FE0E4CF4AE55FE06DE4CE
:102890007FE0DFCF4DE45FE06AE57FE0DACF49E833
:1028A0005EE06FE67EE0D5CF4FE65EE069E87EE071
:1028B000D0CF61E081E0C6CF0E94EA12A8CF61E0EC
:1028C0008CE0C0CF2A35FCE73F0709F045CF81E017
:1028D0000FC02B358CE73807B1F02C353C4709F099
:1028E000C5CE8091850482FB882780F991E08927F5
:1028F0000E94A10ABBCE6FEF7FEF80E090E00E94C4
:1029000025240E94170B80E0F3CFC8010E944704E2
:10291000C82FBBCE893009F434C18A5F8F708230F2
:1029200008F0F6CED23F09F03DC18C2F8F71D11047
:1029300036C10E94BA03E3C01C2F1F70C03110F0D3
:102940001295107FDD20B9F0112369F080E28D0F20
:10295000883010F0D11109C080917E04812B8093C2
:102960007E040E94CD0A8D2F41C080918604812B68
:1029700080938604F6CF8D2F0E94150E112309F443
:10298000C7CE80E28D0F883010F0D11104C0812FA6
:102990000E94820406C01095809186048123809352
:1029A00086040E94CD0AB4CE1C2F1F70C07FC03297
:1029B00011F01295107FDD2349F0D13009F452C097
:1029C000DD2009F45EC0CC20F9F0CDCF80918504E4
:1029D00082FD16C0DD2069F0112339F080917E045C
:1029E000812B80937E040E94CD0A80E00E94C40D5A
:1029F0008FCE80E00E94150E112309F489CEC7CF37
:102A0000DD20A1F0C11004C0812F0E94380E80CEBD
:102A1000F1E0CF127DCE80917F04912F982319177A
:102A200009F476CE812B80937F0472CEC11070CED4
:102A3000812F0E94420E90917F04812F8923882349
:102A400029F0812F8095892380937F0480918004D1
:102A5000912F9823992309F45BCE10951823109396
:102A6000800456CEDD2029F025E02C1508F450CE48
:102A7000CBCF34E03C1508F44BCE812F0E94420EA0
:102A800047CECC20D1F3D93349F48FEF97EEE3E072
:102A900081509040E040E1F700C000008D2F0E947F
:102AA000150E36CE8C2F8370811134C0D11027C003
:102AB0004D2F429546954770440F440F8D2F8F70D0
:102AC000042E01C0880F0A94EAF7D071DD2341F08B
:102AD0002FE030E001C0220F4A95EAF7D22FD095BF
:102AE000C695C695C370C23081F0C33061F02091A5
:102AF0008104C13039F08D2B82230E94B4030E94DF
:102B00007E0806CE822B8D2BF8CF8D2B90918104E1
:102B10008927F3CFDD2051F1C0FFF1CF4D2F429532
:102B200046954770440F440F8D2F8F70042E01C0BF
:102B3000880F0A94EAF7D071DD2341F02FE030E0EE
:102B400001C0220F4A95EAF7D22FD095C695C695B7
:102B5000C370C23089F0C33069F020918204C13063
:102B600041F08D2B82230E94B703C9CF823038F207
:102B7000D5CF822B8D2BF7CF8D2B90918204892777
:102B8000F2CFCF70DD2039F08C2F0E94BA038D2F49
:102B90000E94380EB4CF8D2F0E94420E8C2F0E94BF
:102BA000C603ADCFD33F70F4D03FB9F0D13FC9F1E8
:102BB000DD2009F458C0CC2009F452C08D2F0E94AA
:102BC000C40D9DCFD33FF1F0D43F39F1D110F3CFF5
:102BD000C11057C08C2F8F71E2CFDD2081F0F4E05F
:102BE000FC1508F48CCFCF7181E090E09C0101C00E
:102BF000220FCA95EAF7809182048227B4CF35E08C
:102C0000C316EFCF80E0DD2009F4ADCFCF7181E0B6
:102C100001C0880FCA95EAF7A6CF9091850492FD6E
:102C200006C08C2F8F71DD2009F4B9CF82CEDD2054
:102C300061F08C2F8F7192FF7CCE98E0899F90017C
:102C4000112423602093830474CE81E00E946A04DF
:102C5000E1E0EC1508F053CF82E00E946A044FCF08
:102C60008C2F8F7166CECC2009F4B4CFD93349F4C0
:102C7000FFEF27EE33E0F15020403040E1F700C095
:102C800000008D2F0E94150E3ACF8091C70480312D
:102C900078F48091C604882359F0E091880420914B
:102CA00087043091C2044091C10457E02E1301C043
:102CB00008956E2F70E05E9FF0011124DF01A75789
:102CC000BB4F14968C911497882361F111968C91C7
:102CD0001197831327C08C91841324C015968C916F
:102CE000159781111FC012968D919C91A091C304DC
:102CF000B091C4048A1B9B0B883C910598F4809189
:102D0000C7048F7080618093C704E157FB4F8081B7
:102D10008F708061808381EC94E00E94FC120E949D
:102D200060040895FB013196E770C0CFADE0B0E0DC
:102D3000ECE9F6E10C9493208C0186E0F801DE01C9
:102D4000189601900D928A95E1F7F801E080F580E0
:102D5000A280B380C48081EC882E84E0982E70908D
:102D6000C504711020C0CC20D9F0FF2009F419C18E
:102D7000C8010E940B07882309F413C187E0F801FA
:102D8000D40101900D928A95E1F7F1E0CF1206C0CF
:102D90008091C1049091C2040E94FC060E944516D5
:102DA000FF24F39451C0D090C6048091C304909145
:102DB000C4049501281B390BDD2009F4BAC0283C56
:102DC000310508F090C0CC2059F39091C204C18025
:102DD0008091C704803108F058C0C91214C0909186
:102DE000C1049E1110C0F1104AC08F7080618093A1
:102DF000C70481EC94E00E94FC128091C704F801A2
:102E00008683F12C21C0F1103AC040E06C2D8E2D4C
:102E10000E94000A40E06C2D8E2D0E94000AF82EC0
:102E20008111EFCF888599850E94FC06292F229574
:102E30002F70903470F49F702230A0F09923B1F07D
:102E4000F8019681903190F48F2D2D96EDE00C9441
:102E5000AF202A5F2F70223068F0C8010E94FC1258
:102E6000FD2CF2CF992311F0882371F3805E883016
:102E700058F3F3CF803F40F3815F8230F9CF8091E8
:102E8000C70481608093C704BCCFC91207C090916A
:102E9000C1049E1103C0FF2009F46CC0C8010E9448
:102EA0000B07882309F47DC0FF2009F47AC08091C4
:102EB000C704803278F02091C1043091C2043A8373
:102EC0002983BC82AB827D821E828F83CE010196D4
:102ED0000E94FC1287E0F801A1ECB4E001900D9291
:102EE0008A95E1F75BCF8091C704803150F481EC83
:102EF00094E00E94FC1287E0F40111928A95E9F7B0
:102F000080CFCC2009F44CCF2091C20491812913A9
:102F1000C5CF9091C1049E11C1CFF110BFCF868360
:102F2000C8010E94FC1287E0F40111928A95E9F72A
:102F300037CF283C3105F8F6CC2009F431CFFF20FB
:102F400081F19091C2048181981321C08091C104C4
:102F50008E111DC08091C70480FD10C0803170F0BB
:102F60008683807F803F39F08681982F907F905FA5
:102F70008F70892B8683C8010E94FC1287E0F801BC
:102F8000A1ECB4E001900D928A95E1F709CFC80158
:102F90000E940B0781119ECF8091C70481608093AE
:102FA000C704C8010E94FC12FBCEABE1B0E0EBED20
:102FB000F7E10C949D204E8B5F8B688F798F8A8F01
:102FC0009B8F9111109286041D8A86E0FE017696F1
:102FD000DE011F9601900D928A95E1F78B89882377
:102FE00029F061E0CE010F960E94DC0687E0FE0129
:102FF0003F96DE01189601900D928A95E1F7CE0179
:1030000008960E94961681112BC087E0FE01389623
:10301000DE01119601900D928A95E1F720918704C7
:10302000409188048C858823D9F030E0C90101964D
:103030008770992750E084179507E9F097E0929FF1
:10304000D001939FB00D1124A757BB4FFE013196BD
:1030500001900D929A95E1F7809387040E94600495
:1030600017E08091880490918704891312C06B96B1
:10307000E3E00C94B9200E94090B1092870410928F
:10308000880487E0E1ECF4E0DF011D928A95E9F71E
:10309000E7CF189FC001112487579B4F0E949616B7
:1030A000882329F38091880490E0019687709927FE
:1030B00080938804D6CFA6E0B0E0E1E6F8E10C9476
:1030C0009C200E9477128C018091560490915704A5
:1030D0008017910779F019821A820E947712BC0139
:1030E00049815A8180E090E00E94D51710935704DF
:1030F000009356042696E4E00C94B8209C014FB748
:10310000F8948091900190919101A0919201B091D9
:1031100093014FBF821B930B0895A8E0B0E0E3E951
:10312000F8E10C949020CE0101967C0188E0D70153
:103130001D928A95E9F73701570123E1C22E21E05C
:10314000D22E44244394512CF60181916F010E94A8
:103150008B0300C097E1892E91E0992EF40100E0E5
:1031600010E02191A22FA295AF70A05EB0E08C91EB
:1031700090E02F7002C0959587952A95E2F78170AF
:1031800081110FC0D5018D919C9111979201002E54
:1031900002C0220F331F0A94E2F7822B932B8D93E8
:1031A0009C930F5F1F4F05301105D9F6F60131973B
:1031B00080810E947403B0EABA95F1F7E2E0AE0EA6
:1031C000B11CF7E1CF16F1E0DF0609F0BDCFCC244A
:1031D000C394D12CD4018D914D010E948B0300C06A
:1031E0009601002E02C0220F331F0A94E2F7F70166
:1031F00063E171E0DB014D91BD01842F82958F70F9
:10320000805E90E0DC018C9190E04F7002C095955B
:1032100087954A95E2F78170811106C0808191817E
:10322000822B932B918380833296B1E067317B07A9
:1032300009F7F401319780810E947403E0EAEA956E
:10324000F1F70F5F1F4F0A30110521F6E9E1F4E0B5
:10325000C701089620E0D3014D915D913D01619138
:1032600071914617570729F0DF0112974D935C9330
:1032700021E08615970579F7222369F081E0809394
:1032800074010E94771290937301809372012896C3
:10329000E0E10C94AC20809174018823C1F380910B
:1032A0007201909173010E947E18059780F348E0A7
:1032B00050E069E174E08EE294E00E943721892BAE
:1032C00049F088E0E9E1F4E0AEE2B4E001900D926B
:1032D0008A95E1F710927401DACFCDB7DEB76A971D
:1032E0000FB6F894DEBF0FBECDBF85B7806885BF2F
:1032F00085B7806885BF84B7877F84BF0FB6F89491
:10330000A8958091600088618093600010926000B1
:103310000FBE80E890E00FB6F89480936100909320
:1033200061000FBE81E397E090936901809368018B
:103330000E9457090E94A6098091E2008460809350
:10334000E200789480912D04882399F08091E9001F
:103350001091EC001795112717958F70182B10926C
:10336000E9008091E80083FD0E942D0B1F701093EF
:10337000E90092E094BD83E085BD2AEF27BD9093DC
:103380006E00ECE4F4E098E0DF011D929A95E9F715
:1033900080934B0410E060E0812F0E943C0861E0C4
:1033A000812F0E943C081F5F1330A9F7EFE8F1E07E
:1033B0003197F1F700C0000010E080914B0418171E
:1033C00008F42AC207E111E0D8018D918D010E9415
:1033D0007403B1E00C311B07B9F703E111E0F80108
:1033E00081918F010E947403F1E007311F07B9F743
:1033F00010921A041092190410922F0410922E04A5
:1034000010921C0410921B0410923104109230048C
:1034100010921E0410921D04109233041092320474
:103420001092200410921F0410923504109234045C
:1034300080E090E00E94F123853E9E4F09F45EC03B
:1034400065EE7EEF80E090E00E94252460E082E05F
:1034500090E00E94072481E08093810461E083E092
:1034600090E00E94072460E074E184E090E00E9414
:10347000252460E086E090E00E94072460E087E079
:1034800090E00E94072440E050E0BA0188E090E01C
:103490000E94192460E083E290E00E94072460E02B
:1034A0008CE090E00E94072460E08DE090E00E94B4
:1034B000072419821A821B821C821D821E821F828F
:1034C000188648E050E067E170E0CE0101960E9466
:1034D000F72340E050E0BA018FE190E00E94192408
:1034E00040E050E0BA018FE090E00E94192440E0F3
:1034F00050E0BA0183E190E00E94192482E090E05C
:103500000E94E3238093360484E090E00E94F1233C
:10351000909385048093840483E090E00E94E323E9
:103520000E94B40383E08093290480E280932804FE
:103530000E945A1F6BE070E08BE096E00E94670FDC
:10354000882389F18091290465E070E081FD76C1CE
:1035500086E096E00E94670F882329F16DE070E015
:1035600084EF95E00E94670F8823E9F00E948B08A2
:103570006D8B7E8B8F8B988FDC01CB01805A9541B0
:10358000AF4FBF4F8093240490932504A09326044B
:10359000B09327040E94B80A81E0809323048093AB
:1035A00022041092210480912A04811199C088E09C
:1035B00090E00E94EB236B017C0183E290E00E948B
:1035C000E323282F30E040E050E060E070E080E04E
:1035D00090E000E20E94EB20F22FA32EB42EB52F34
:1035E000A62FE72F9701860140E050E0BA01FC29A1
:1035F000A12AB22AB32BA42BE52B862B972BF09371
:103600007604A0927704B0927804B0937904A093E2
:103610007A04E0937B0480937C0490937D04F430DF
:1036200008F04CC025E020937604109277042FEF29
:103630002093780428E72093790410927A0425E0F7
:1036400030E04FEF58E760E07E2F0E94490E88E09F
:1036500090E00E94EB236B017C0183E290E00E94EA
:10366000E323282F30E040E050E060E070E080E0AD
:1036700090E000E20E94EB205901B42FA52FF62F15
:10368000E72F9701860140E050E0BA01AC28B12A4B
:10369000B22BA32BF42BE52B862B972BA092760431
:1036A000B0927704B0937804A0937904F0937A04ED
:1036B000E0937B0480937C0490937D040E94C00778
:1036C000109275040E947C088091760480FF05C0EA
:1036D00060E0869586950E94831281E080932A049B
:1036E0008091760481608093760460E0869586956B
:1036F0000E94831260E08CE00E9483128CE191E0D2
:1037000090935904809358047FE3272E74E0372E5A
:10371000E0E47E2EFF24F3945CEFE52E6DEFD62ED1
:1037200080912D04853049F480912D04853009F471
:1037300088C00E94090B0E947E080E948D1847E3F2
:10374000442E44E0542EAEE2B4E0BA8FA98FEFE4E9
:10375000F1E0FE8BED8BAF018D01F20121913191F2
:10376000D8018D919D918D01DA016D917D91AD0111
:10377000862397232E163F0609F4BCC02817390765
:1037800069F3C12CE98DFA8D01911191FA8FE98FBE
:10379000AD89BE898D919D91BE8BAD8B0823192378
:1037A000F201819091902F018016910661F180269F
:1037B0009126612CAA24A394B12CC50188219921BA
:1037C000892BB9F06F86C88A0E9477129A8B898BF1
:1037D000F1E0FB8B91E0950120233123232B09F4A9
:1037E00090E09C8B4F85588969897A898B890E94E2
:1037F000D5176394AA0CBB1C2AE06212DECFF2013B
:10380000329711830083C39444E0C412BBCF0E945B
:103810008B08CC24C39475C060E0812F0E945F08A0
:10382000082F61E0812F0E945F08E12FF0E0E85B44
:10383000FB4F880F802B80831F5FBFCD81E096E018
:1038400089CE80912D04843029F10E94740F10924A
:103850002B0488E190E00FB6F894A895809360005F
:103860000FBE7092600083B7817F846083BF83B78F
:10387000816083BF7894889583B78E7F83BF0FB6AE
:10388000F894A89580916000886180936000109200
:1038900060000FBE80912C04882309F445CF0E945C
:1038A0008D18EEE2F4E0AFE4B1E0819191912D91B9
:1038B0003D9182239323892B29F494E0E633F90781
:1038C000A1F732CF80E189BD82E189BD09B400FE54
:1038D000FDCF8091D8008F7D8093D8008091E0004B
:1038E00082608093E0008091E00081FDFCCF0E9427
:1038F000090B1ACF2817390709F043CF0E945B182C
:10390000C12C80917504882309F43EC09091740401
:103910008091760486958695891B8093410400EDFD
:1039200017E083E3A82E87E0B82E9C3041F4E6E14F
:10393000F6E0059114919BEFA92E97E0B92E8091A6
:103940004204882361F0109242040E9477129093FF
:10395000400480933F0410924404109243040E9458
:10396000771220913F0430914004821B930B8F3FCC
:103970009F4750F4200F311F3093400420933F04A1
:103980008FE394E0F501099580915404882351F068
:1039900080914E041092540480934F0480914C0403
:1039A00080934D0400E050C061E0802F0E945F08CA
:1039B000A82E60E0802F0E945F08AA0CA82AE02FA2
:1039C000F0E09F01285B3B4FD9019C91892F8370C8
:1039D000A816C9F1A92FAA0FAA0F8A2F8A29D901DF
:1039E0008C93A82FAF70B0E0A95ABE4FEB5BFB4F92
:1039F0008C919081890F808382300CF465C0412FB7
:103A000050E02B2D30E0BA016F5F7F4F6370772756
:103A10002617370781F0445B5B4F902F9F77DA01C1
:103A200014969C931F5F137010934E0490914C0456
:103A30009F5F90934C04082E000C990B62E070E09D
:103A40000E94D12080830F5FB0904F0410914E04EC
:103A500080914B04081708F4A7CF90E080914F04A1
:103A600020914E04281709F473C0E82FF0E0E05BC2
:103A7000FB4F9081192F1F778F5F837080934F04C6
:103A800080914D048F5F80934D0497FD32C0198360
:103A9000EA820E947712BC018B839C83F3E0FD8352
:103AA000FE8249815A8183E091E00E94D5178FE31D
:103AB0009CE90197F1F700C000001987EA860E948F
:103AC0007712282F83E031C08F3F0CF0B4CF412F05
:103AD00050E02B2D30E0BA016F5F7F4F6370772786
:103AE0002617370709F4A7CF445B5B4F902F9068E8
:103AF00096CF1983DA820E947712BC018B839C8354
:103B0000B2E0BD83FE8249815A8182E091E00E9449
:103B1000D517EFE3FCE93197F1F700C000001987F2
:103B2000DA860E947712282F82E0622F792F2B8766
:103B30009C878D871E8649855A8590E00E94D517FF
:103B4000AFE3BCE91197F1F700C0000091E086CF28
:103B5000992339F00E948B080E94A6100E94860FBC
:103B600004C00E94A610C110F9CF0E947E08909157
:103B70005504891709F4D4CD809355040E948B080D
:103B8000C9CD78941F921FB61F9211248F939F93D3
:103B9000AF93BF938091900190919101A091920178
:103BA000B09193010196A11DB11D80939001909356
:103BB0009101A0939201B0939301BF91AF919F9116
:103BC0008F911F901FBE1F9018951F920F920FB6D6
:103BD0000F9211242F933F934F935F936F937F9393
:103BE0008F939F93AF93BF93EF93FF938091E100E7
:103BF00082FF09C08091E20082FF05C08091E10050
:103C00008B7F8093E1008091DA0080FF24C0809157
:103C1000D80080FF20C08091DA008E7F8093DA0088
:103C20008091D90080FF9AC080E189BD82E189BD81
:103C300009B400FEFDCF81E080932D0480917E01C8
:103C4000811109C00E9457090E94A6098091E200D3
:103C500084608093E2008091E10080FF17C0809132
:103C6000E20080FF13C08091E2008E7F8093E2002B
:103C70008091E20080618093E2008091D8008062B0
:103C80008093D80019BC85E080932D048091E100D9
:103C900084FF29C08091E20084FF25C080E189BDB6
:103CA00082E189BD09B400FEFDCF8091D8008F7DEF
:103CB0008093D8008091E1008F7E8093E100809115
:103CC000E2008F7E8093E2008091E2008160809329
:103CD000E20080917D01882309F446C084E080934E
:103CE0002D0480912D048091E10083FF26C08091F6
:103CF000E20083FF22C08091E100877F8093E10092
:103D000082E080932D0410927D018091E1008E7FEE
:103D10008093E1008091E2008E7F8093E2008091A9
:103D2000E20080618093E20060E080E00E9476091A
:103D30008091F00088608093F000FF91EF91BF9137
:103D4000AF919F918F917F916F915F914F913F9133
:103D50002F910F900FBE0F901F90189519BC1092C5
:103D60002D0410927E0177CF8091E30087FF02C07F
:103D700083E0B5CF81E0B3CF1F920F920FB60F92C1
:103D80001124FF920F931F932F933F934F935F93B1
:103D90006F937F938F939F93AF93BF93CF93DF9353
:103DA000EF93FF9309EE10E0F8018081C091EC00E1
:103DB000C795CC27C7958F70FC2EF82A1082C0EFCC
:103DC000D0E08881877F888378940E942D0BF8014A
:103DD0001082888188608883CF2DCF70C083FF9147
:103DE000EF91DF91CF91BF91AF919F918F917F9193
:103DF0006F915F914F913F912F911F910F91FF9084
:103E00000F900FBE0F901F901895FF920F931F9366
:103E1000CF93DF93182FEB011092BC0084EA8093BC
:103E2000BC000E947712082FF92E8091BC0087FFFA
:103E300028C08091B900887F883029F08091B9002E
:103E4000887F8031A1F51093BB0084E88093BC008B
:103E50000E947712182F092F8091BC0087FF1FC086
:103E60002091B900287F80E090E0283199F081E02E
:103E700090E0203411F480E090E0919581959109D3
:103E800009C0802F9F2D0E947E18C817D90768F699
:103E90008EEF9FEFCDB7DEB7E5E00C94B720812F12
:103EA000902F0E947E18C817D907B0F6F1CF8FEF78
:103EB0009FEFF0CF1092B9008CE08093B800089586
:103EC0000F931F93CF93DF93EB018093BB0084E8A4
:103ED0008093BC000E947712182F092F8091BC009C
:103EE00087FF11C02091B900287F81E090E028323F
:103EF00011F480E090E0919581959109DF91CF9147
:103F00001F910F910895CF3FDC0741F3812F902F30
:103F10000E947E18C817D90708F78EEF9FEFEECFE3
:103F2000A0E0B0E0E6E9FFE10C949320782E5B017D
:103F30006A0189010E9477124C010431110560F178
:103F40000F3F100769F1C80164E170E00E947A2018
:103F5000F62EE72E6F2D7E2D872D0E94051FEC017A
:103F600097FF09C00F3F1007A9F3C4010E947E18F4
:103F70000817190778F77501CA0CDB1CEC14FD044F
:103F800011F0D7FF10C084E98093BC00CE01CDB7FB
:103F9000DEB7EDE00C94AF20FF24F394E12CDACFF0
:103FA00085E0F82EFBCFB801F70181917F010E94D7
:103FB000601FEC01E3CFA0E0B0E0E1EEFFE10C9484
:103FC0009320782E5B016A0189010E9477124C01CF
:103FD0000431110560F10F3F100769F1C80164E178
:103FE00070E00E947A20F62EE72E6F2D7E2D872D11
:103FF0000E94051FEC0197FF09C00F3F1007A9F3AE
:10400000C4010E947E180817190778F77501CA0CB9
:10401000DB1CEC14FD0411F0D7FF10C084E9809381
:10402000BC00CE01CDB7DEB7EDE00C94AF20FF248D
:10403000F394E12CDACF85E0F82EFBCFF7018491E1
:10404000B8010E94601FEC01FFEFEF1AFF0AE1CFF9
:10405000A0E0B0E0EEE2F0E20C949220682E962E02
:104060005A01690178010E947712782E892E043155
:10407000110530F10F3F100731F1C80164E170E024
:104080000E947A20162F072F612F702F862D0E94F5
:10409000051FEC0197FF19C0FFEFEF16FF06A1F314
:1040A000872D982D0E947E18E816F90668F784E996
:1040B0008093BC00CE01CDB7DEB7EEE00C94AE200D
:1040C00011E000E0E1CF15E0FCCFB701892D0E949F
:1040D000601FEC018501CA0CDB1C0C151D0539F3B2
:1040E000D7FDE5CFB701F80181918F010E94601FD4
:1040F000EC01F3CFAA1BBB1B51E107C0AA1FBB1FDA
:10410000A617B70710F0A61BB70B881F991F5A9563
:10411000A9F780959095BC01CD0108952F923F920B
:104120004F925F926F927F928F929F92AF92BF92C7
:10413000CF92DF92EF92FF920F931F93CF93DF9373
:10414000CDB7DEB7CA1BDB0B0FB6F894DEBF0FBED0
:10415000CDBF09942A88398848885F846E847D841D
:104160008C849B84AA84B984C884DF80EE80FD801F
:104170000C811B81AA81B981CE0FD11D0FB6F89495
:10418000DEBF0FBECDBFED010895991B79E004C0DD
:10419000991F961708F0961B881F7A95C9F7809586
:1041A000089597FB072E16F4009407D077FD09D0E9
:1041B0000E947A2007FC05D03EF4909581959F4F90
:1041C0000895709561957F4F0895EE0FFF1F05903C
:1041D000F491E02D0994002E083090F0982F872F4D
:1041E000762F652F542F432F322F22270850F4CFDC
:1041F000220F331F441F551F661F771F881F991FEB
:104200000A95B2F7002D089597FD1094002E0830FE
:1042100098F00850232F342F452F562F672F782FD3
:10422000892F912DF4CF159497958795779567955C
:1042300057954795379527950A95AAF71124002D8C
:104240000895FB01DC0102C005900D9241505040E1
:10425000D8F70895FC014150504030F00190061607
:10426000D1F73197CF010895882799270895FB0149
:10427000DC0104C08D910190801921F4415050401F
:10428000C8F7881B990B0895AEE0B0E0EAE4F1E2CC
:104290000C949C200D891E898F89988D26E02C8393
:1042A0001A83098397FF02C080E090E801979E83FC
:1042B0008D83AE01455E5F4F698D7A8DCE0101968B
:1042C0000E9474214D815E8157FD0AC02F8138857F
:1042D000421753070CF49A01020F131FF8011082C2
:1042E0002E96E4E00C94B820ABE0B0E0EAE7F1E20F
:1042F0000C948E207C013B018A01FC0117821682FE
:10430000838181FFB9C19AE0292ECE0101965C011B
:10431000F7019381F30193FD859193FF81913F0113
:10432000882309F446C1853239F493FD859193FFC2
:1043300081913F01853229F4B70190E00E94552315
:10434000E7CF912C412C512CFFE1F51538F08B3241
:1043500009F188F4803201F1833221F157FC3AC02F
:1043600020ED280F2A3040F556FE1FC0929C200DEC
:104370001124922E06C08D3291F0803379F7689423
:1043800050F8F30193FD859193FF81913F018111D5
:10439000DBCF20C0689451F8689452F8F2CF68944B
:1043A00053F8EFCF689454F8ECCF429C200D1124C1
:1043B000422E689455F8E5CF8E3229F456FCF9C0A8
:1043C000689456F8DECF8C3619F4689457F8D9CF34
:1043D0008836B9F2982F9F7D95549330C0F083367C
:1043E000A1F18337C1F1833509F05BC0F801C190B9
:1043F000D1908F01692D70E056FC02C06FEF7FEF06
:10440000C6010E943F234C01689457F80AC00C5F14
:104410001F4F2FE3298388248394912C6501E8940E
:1044200057F853FC04C04814190409F018F5342C4B
:104430008114910431F5332009F46ACFB70180E289
:1044400090E00E9455233A94F6CFF8018081898349
:104450000E5F1F4FE0CFF801C190D1908F01692D01
:1044600070E056FC02C06FEF7FEFC6010E944A2346
:104470004C01D5CFB70180E290E00E9455234A94C9
:10448000D2CFF60157FC859157FE81916F01B7019C
:1044900090E00E94552331103A94F1E08F1A910870
:1044A000C7CF843619F0893609F074C0F80157FE79
:1044B0006AC061917191819191918F01252D2F7623
:1044C000D22E97FF09C090958095709561957F4F8A
:1044D0008F4F9F4F6894D7F82AE030E0A5010E94E3
:1044E0008523C82ECA188C2C5D2CD6FE0CC0E894EF
:1044F00050F8C91440F4D4FE05C0D2FC03C0FD2D11
:10450000FE7E5F2E892C54FE8FC0FE01EC0DF11D46
:104510008081803309F081C0252D297E522E852D82
:104520008870382E53FC8FC050FE89C09C2C841498
:1045300018F44C0C942C981854FE8BC0B70180E3EF
:1045400090E00E94552352FE09C088E790E051FE9A
:1045500002C088E590E0B7010E945523C91408F411
:1045600084C0CA94D12C9FEFC91AD90ACA0CDB1C8B
:10457000F60182916F01B70190E00E945523AC14BF
:10458000BD04B1F758CF61917191072E000C880BD3
:10459000990B93CFD52CE894D4F82AE030E08537F6
:1045A00039F1952D997FD92E8F3601F148F4883550
:1045B000A9F0F701868197812B96E2E10C94AA205D
:1045C000803749F08837A9F7D4FE02C06894D2F842
:1045D00020E130E00DC06894D4F8F6CF54FE03C05B
:1045E000E92FE660DE2E20E132E002C028E030E074
:1045F000F801D7FE0DC061917191819191918F0168
:10460000A5010E948523C82ECA18E894D7F86BCF5D
:104610006191719190E080E0F2CF52FC02C08394EE
:104620007ECF839483947BCF852D867809F477CFD2
:10463000F6CFB70180E290E00E9455238394841462
:10464000C0F3312C79CF342C3818841408F474CF8B
:10465000F8CF852D867809F481CF8BE251FE80E278
:1046600057FC8DE2B70190E077CFB70180E390E08F
:104670000E9455239A9472CF8FEF9FEF9DCFFC013C
:104680000590615070400110D8F7809590958E0F7D
:104690009F1F0895FC016150704001900110D8F7F0
:1046A000809590958E0F9F1F08950F931F93CF9322
:1046B000DF93182F092FEB018B8181FD09C01FEFBC
:1046C0000FEF812F902FDF91CF911F910F910895C0
:1046D00082FF14C02E813F818C819D81281739076C
:1046E0003CF4E881F981CF01019699838883108396
:1046F0008E819F8101969F838E83E3CFE885F98524
:10470000812F0995892BA1F3DACFFA01AA27283046
:1047100051F1203181F1E8946F936E7F6E5F7F4F8E
:104720008F4F9F4FAF4FB1E03ED0B4E03CD0670F0A
:10473000781F891F9A1FA11D680F791F8A1F911D5D
:10474000A11D6A0F711D811D911DA11D20D009F4AD
:1047500068943F912AE0269F11243019305D3193EF
:10476000DEF6CF010895462F4770405D4193B3E0D8
:104770000FD0C9F7F6CF462F4F70405D4A3318F07F
:10478000495D31FD4052419302D0A9F7EACFB4E030
:10479000A6959795879577956795BA95C9F70097E8
:1047A0006105710508959B01AC010A2E0694579589
:1047B000479537952795BA95C9F7620F731F841FE0
:1047C000951FA01D0895F999FECF92BD81BDF89A5D
:1047D000992780B50895A6E1B0E044E050E00C943C
:1047E0002D24A8E1B0E042E050E00C942D24DC013F
:1047F000A40FB51F4150504048F0CB01840F951FC6
:104800002E910E94082441505040D0F70895262F41
:10481000F999FECF92BD81BDF89A019700B40216B6
:1048200039F01FBA20BD0FB6F894FA9AF99A0FBE64
:1048300008950396272F0E9408240E940724252FFD
:104840000E940824242F0C9408240196272F0E94EC
:1048500008240C940724DC01CB01FC01F999FECF5C
:1048600006C0F2BDE1BDF89A319600B40D924150F8
:104870005040B8F70895F894FFCF0A0C300C360C6E
:10488000300C360C890CAB0C360C950DA20DEB13CD
:1048900025142C14311436143B14401445144A14B6
:1048A0004F14541459140714071407140714071449
:0848B00007145C145F140714E7
:1048B800010021007F220003010203040506070806
:1048C800090A0B92946697F4F5F6F731A8088F0A4F
:1048D800AB08AC08AD08000000005F5F5F5F5F00D9
:1048E80000256400C6353234363300081018181015
:1048F80008000001020202020202020202020CEF98
:1049080003EE03EF03EF0300FF0100010000FFFFC8
:084918000000010001FF000096
:00000001FF
