:100000000C9429040C9446040C9446040C94460465
:100010000C9446040C9446040C9446040C94460438
:100020000C9446040C9446040C9458230C943024ED
:100030000C94CB1B0C9446040C9446040C9446047C
:100040000C9446040C9446040C9446040C94460408
:100050000C9446040C9434230C9446040C944604EB
:100060000C9446040C9446040C9446040C944604E8
:100070000C9446040C9446040C9446040C944604D8
:100080000C9446040C9446040C9446040C944604C8
:100090000C9446040C9446040C9446040C944604B8
:1000A0000C9446040C9446040C94460400AF00AE35
:1000B00000000000000000002F0000000007000703
:1000C0000000123F123F1200242A7F2A1200360934
:1000D0001E241B001826291228000000070000001B
:1000E000001E214000000040211E000014083E08B0
:1000F000140008083E0808000000307000000808DE
:100100000808080000003030000020100C02010038
:100110001E2925231E0000223F200000223129290C
:100120002600122125251A001814123F1000172549
:10013000252518001E252525180001310905030075
:100140001A2525251A00062929291E000000333307
:10015000000000003373000008141422220014145D
:1001600014141400222214140800020129050200AC
:100170003E59555D3E003816111638003F2525259D
:100180001A001E21212112003F2121211E003F259E
:10019000252521003F09090901001E2121291A00F6
:1001A0003F0404043F0000213F21000010202020D4
:1001B0001F003F040C1221003F20202020003F029E
:1001C00004023F003F020C103F001E2121211E00AF
:1001D0003F09090906001E2129112E003F090919AE
:1001E000260012252529120001013F0101001F20D0
:1001F00020201F000718201807000F300C300F00B8
:1002000021120C1221000304380403003129252394
:100210002100007F4141000001020C10200000413C
:10022000417F0000040201020400404040404000C1
:10023000000103040000102A2A2A3C003F24222245
:100240001C001C22222224001C2222243F001C2AE3
:100250002A2A0C0000043E0505000C5252543E00B0
:100260003F080404380000003D0000002040403DED
:1002700000003F080814220000013F2000003E0259
:100280003C023C003E0402023C001C2222221C00D4
:100290007E1422221C001C2222147E003E04020234
:1002A0000400242A2A2A120000021F2200001E2015
:1002B00020103E000618201806000E300C300E00EC
:1002C0002214081422000E5050483E0022322A26E2
:1002D000220008087741410000007F0000004141F2
:1002E00077080800180408100C0000000000000047
:1002F0000000381C0CCCCCCCFC3800180C8CCC7C0E
:1003000038000080C0404040404040C0800000C0F5
:1003100047CF4C4C4C4C4743404E4F49484848C04F
:1003200040FF0001FD0101FD0100FF0000FF007F13
:10033000808080808080808080808080807F00FFBF
:100340000000FF0000FF0000FF00000F0A0908087E
:100350000808080808080808080808090A0D02041F
:100360000404040404020100000000000000000076
:10037000000000000000000000000000000000007D
:10038000000000000000000000000000000000006D
:10039000000000000000000000000000000000005D
:1003A000000000000000000000000000000000004D
:1003B000000000000000000000000000000000003D
:1003C000000000000000000000000000000000002D
:1003D000000000000000000000000000000000001D
:1003E000000000000000000000000000000000000D
:1003F00000000000000000000000000000000000FD
:1004000000000000000000000000000000000000EC
:100410000660FF0961A1010962150026FF00952011
:10042000750881020963150026FF00952075089163
:1004300002C005010906A101050719E029E7150019
:10044000250195087501810295017508810105074F
:10045000190029FF150026FF009506750881000583
:1004600008190129051500250195057501910295C9
:100470000175039101C009024200020100A0FA09BE
:1004800004000001030101000921110100012244BF
:1004900000070581030800010904010002030000B0
:1004A000000921110100012222000705820320001A
:1004B00001070503032000011201000200000008EB
:1004C00032883288000101020001200366007200B8
:1004D0006500650061006400720073003300320043
:1004E0005F006B006E006F0062000000220354008A
:1004F00061006B0061006800690072006F002000FD
:100500004E0061007400730075006D00650000000E
:10051000040309041E0029004402440000000B00EB
:100520000C00120013004C00000014001A00080018
:100530000000150017001C0018002B001E00090207
:10054000040016000000070009000E000F00E30081
:100550001E001D041B00060000000A0021521000AE
:100560000D0028001E0029024402440200000B0274
:100570000C02120213024C02000014021A020802BA
:100580000000150217021C0218022B021E000902AD
:10059000040216020000070209020E020F02E30223
:1005A0001E001D041B02060200000A020100104288
:1005B0000D022802010001000100010000000100FD
:1005C000010021782278007C000001000100010078
:1005D0000000010001000100010001000100010014
:1005E0000100010000000100010001000100017C88
:1005F00001000100010001000000010001000100F4
:10060000010001004E004B00510052004F0050000D
:100610000100010023782478277828780100010060
:1006200001000100010001002000202000200052F4
:10063000204320200020004B657920200020004C22
:100640006179657200FFAA7F554000010101010137
:10065000010101010202020202020202020303037B
:10066000030303030304040404040404050505054B
:10067000050606060606070707070708080808090B
:100680000909090A0A0A0B0B0B0C0C0C0D0D0D0EB7
:100690000E0E0F0F0F10101111111212131314144C
:1006A000151516161717181819191A1A1B1B1C1DC1
:1006B0001D1E1E1F2020212222232424252626271A
:1006C0002829292A2B2C2D2D2E2F3031323233344C
:1006D00035363738393A3B3C3D3E3F404142434452
:1006E00045464748494A4C4D4E4F50515354555634
:1006F00058595A5B5D5E5F616264656668696B6CE0
:100700006D6F7072737577787A7B7D7E808283855A
:1007100087888A8C8E8F91939596989A9C9EA0A29A
:10072000A3A5A7A9ABADAFB1B3B5B7BABCBEC0C2A4
:10073000C4C6C9CBCDCFD1D4D6D8DBDDDFE2E4E768
:10074000E9EBEEF0F3F5F8FAFDFF00DA0281FFD9EC
:10075000F1DB20A4A62EAF00A0C0D30000A1C8D317
:100760000000AED580A81F408D14200000000000BE
:100770000000000000000000000000000000000079
:100780000000000000000000000000000000000069
:100790007E0F00D4FFFFFFC70000007800000000BC
:1007A000000000002A2B28000000000000000000CC
:1007B0000000000000000029000000002C1E342072
:1007C000212224342627252E362D3738271E1F2098
:1007D0002122232425263333362E37381F040506DD
:1007E0000708090A0B0C0D0E0F1011121314151621
:1007F0001718191A1B1C1D2F3130232D350405061F
:100800000708090A0B0C0D0E0F1011121314151600
:100810001718191A1B1C1D2F3130354C6162636487
:1008200065666768696A6B6C6D6E6F707172737400
:1008300075767778797A31323334353637383930DE
:10084000524542545F2D3D5B5D5C233B27602C2E5F
:100850002F0011241FBECFEFDAE0DEBFCDBF11E0C5
:10086000A0E0B1E0EEEBF3E502C005900D92AC35EF
:10087000B107D9F724E0ACE5B1E001C01D92A33B7C
:10088000B207E1F70E94101D0C94A9290C940000F6
:10089000F894E82FE295EF70F0E041A18F7021E02D
:1008A00030E0B90102C0660F771F8A95E2F7CB01ED
:1008B000962F9095942391A392A1892B82A378944B
:1008C0000895F894E82FE295EF70F0E041A18F7061
:1008D00021E030E0B90102C0660F771F8A95E2F788
:1008E000CB01942F982B91A392A18095892382A369
:1008F00078940895982F82958F70882311F0982FFF
:1009000084E0292F26952695222311F08E5F922FC1
:10091000969591118F5F089580936C04089580934C
:100920006D04089521E030E001C0220F8A95EAF7B6
:1009300080916D04822B0E948F04089521E030E0A5
:10094000A90102C0440F551F8A95E2F7CA0180959C
:1009500090916D0489230E948F0408959B01677014
:1009600091E001C0990F6A95EAF763E03695279503
:100970006A95E1F7B901660F771F260F371FFA0155
:10098000E20FF31F40E050E0682F70E08191DF013B
:1009900011979B01042E02C0369527950A94E2F721
:1009A000217021952827292328272C934F5F5F4FFB
:1009B0004330510559F708959C01A82FA77083E093
:1009C000369527958A95E1F7C901880F991F820FFF
:1009D000931FFB01E80FF91F40E050E080E02191F8
:1009E00030E00A2E02C0369527950A94E2F721706E
:1009F0003327042E01C0220F0A94EAF7822B4F5F9F
:100A00005F4F4330510559F70895282F862F9430B2
:100A100070F42A3058F4622F70E02AE0929F600D43
:100A2000711D112442E554E00E94AE0408959C5FBC
:100A30009230E0F7622F70E04FE454E0F5CF292FB9
:100A4000943068F48A3090F490E062E574E03AE023
:100A5000239F800D911D11240E94DC0408952C5FBA
:100A6000223020F46FE474E090E0F6CF80E0089547
:100A700090916D0421E030E0F90101C0EE0F8A95FC
:100A8000EAF7D90102C0AA0FBB1F6A95E2F7EA2B69
:100A900001C0220F4A95EAF7892F8E23E81305C07B
:100AA000892F822B0E948F0408952095822F8923FD
:100AB000F9CF8091730490917204981301C0089546
:100AC0008F5F8770FACF90916E0480958923809311
:100AD0006E04282F277021110DC0891759F09091AD
:100AE000700492FF07C08695869586950E949E04A5
:100AF00010926E040895982F90958091690489232F
:100B0000809369040895803E9105D1F1C8F4813342
:100B1000910509F47FC048F48932910509F46FC04A
:100B20008A32910509F47DC0089589339105E1F079
:100B300082389105C9F08533910509F45BC00895A9
:100B4000843E9105D1F148F4823E910531F1833E16
:100B5000910541F181EE90E00895863E9105C1F145
:100B6000873E9105E1F1089520916F0423702111D2
:100B700065C02091700423FF14C089E290E00895BD
:100B800020916F0420FD43C03091700430FF09C0F4
:100B900024FF4EC080E090E0089520916F0422FD74
:100BA000F7CF089520916F0422FD45C03091700465
:100BB00030FD44C024FFF5CFEDCF2091700421FF1C
:100BC000F0CF80916F0484FDE5CF87EE90E008952B
:100BD00020916F0423FFE5CF24FDDCCFF6CF2091D9
:100BE0006F0423FD2EC03091700431FFE3CF84EEFB
:100BF00090E0089520916F0425FFD3CFBECF2091C0
:100C00006F0425FD21C02091700423FFCACF89E322
:100C100090E0089520916F0426FFC3CF8AE290E010
:100C2000089520916F0426FFBCCF81E390E00895E2
:100C300083EE90E0089582EE90E0089580EE90E0DB
:100C4000089586EE90E0089585E390E0AACF909114
:100C50006F0492FF10C041E0282F2471243009F066
:100C600040E031E0282F2871283009F030E04317A8
:100C700011F02CE0822793FF10C041E0282F24714F
:100C8000243109F040E031E0282F2871283109F0A3
:100C900030E0431711F02CE082273091700430FFD0
:100CA00010C051E0282F2171213009F050E041E0BF
:100CB000282F2871283009F040E0541711F029E05E
:100CC000822731FF10C041E0282F2171213109F026
:100CD00040E031E0282F2871283109F030E0431737
:100CE00011F029E0822794FD877E08951F93CF930A
:100CF000DF930E948305EC01811522E5920708F03D
:100D00004DC0811540E5940708F0C5C0883E9105A7
:100D100088F0811550E4950728F199270E948305F2
:100D2000CC27DF70C82BD92BD06ACE01DF91CF91B1
:100D30001F910895803E9105C0F7853A910550F4C2
:100D4000049798F781E0219709F080E0C82F80E0B0
:100D5000D82FEBCF8D5C9109D065439730F3C0E07D
:100D6000D0E0E3CFC11590E2D90708F0ADC0CE01C5
:100D70009A9581159F4198F78D2F0E942706182F6D
:100D8000CE0199270E948305212F30E0322F2227A0
:100D9000E901CC27DF71C82BD92BC7CF803842E5BA
:100DA0009407C0F5803652E5950708F055C0C03469
:100DB00082E5D807B0F08C2F86958695877020E263
:100DC000829FC0011124C37021E030E0A90102C05C
:100DD000440F551FCA95E2F7EA01C82BD92BDC68EE
:100DE000A4CFC03252E5D50780F58C2F8695869525
:100DF00020E2829FC0011124C37021E030E0A901EC
:100E000002C0440F551FCA95E2F7EA01C82BD92B3F
:100E1000DD688BCF803C52E5950758F48F71C03A5E
:100E2000D24578F590E0982F8827EC01C46FD06AFE
:100E30007CCF805C9245809708F091CFDC2FCC2747
:100E4000CC27DF71C06FD06A70CFCF71D0E0DC2FBC
:100E5000CC27C16FD06A69CF86958695877020E2CE
:100E6000829FC0011124C37021E030E0A90102C0BB
:100E7000440F551FCA95E2F7EA01C82BD92BDA684F
:100E800054CF0E942706C82FD0E0DC2FCC27CC27D8
:100E9000DF71D0624ACF8F710E94270665E0D69538
:100EA000C7956A95E1F7CF70D0E0DC2FCC27282FCB
:100EB00030E084FF05C054E0220F331F5A95E1F75C
:100EC000C22BD32BD06931CF8D2F8F710E94270673
:100ED000182FCE0199270E948305212F30E0322F51
:100EE000222722273F71282B392BE901D2CF80E01E
:100EF0000895A0E0B0E0EFE7F7E00C940A26E901DE
:100F0000E42FF0E0E65BF94F61110BC0E4919E2FF6
:100F10008E2F8983E8839A83CDB7DEB7EAE00C94FD
:100F20002626282F30E0062F10E0F491EF2F86E0E0
:100F3000829F6001839FD00C1124EE24EA94F12C4F
:100F4000C601B7010E94EE25220F331F45E5469FDB
:100F5000C001479F900D1124281B390B822F880F49
:100F6000280FC701801B910BF89FA001F99F500D1E
:100F70001124952F209F5001219FB00C1124AB2CE0
:100F8000BB24D701AA19BB095D01FA9DD001FB9DC5
:100F9000B00D11248B2F5701A21AB1089501209F83
:100FA0005001219FB00C309FB00C1124AB2CBB24FE
:100FB000EA18FB08FE9D9001FF9D300D112463305F
:100FC0007105C9F01CEFC11613E0D10650F4613071
:100FD000710509F49ECF6230710589F08E2FE32FE1
:100FE00098CF6430710571F066307105B9F3E52F63
:100FF0009B2F8F2F8ECFEB2F852F9F2F8ACF852F63
:10100000932F87CF832FE52FF8CF80916104843011
:1010100060F48370846080936104809164048937F4
:1010200018F088E78093640408958033B0F38370E8
:101030008C62F1CF8091610480FD0AC0ECEAF3E09C
:10104000118210821282339684E0EC30F807C1F7E7
:1010500060E270E08CEA93E00E94320A0895FA019F
:10106000882311F009950895FB01FCCF90E06623D9
:10107000E9F0845D9E4FFC0180818F3FB1F0E82F45
:10108000E295EF70F0E041A18F7021E030E0B9010E
:1010900002C0660F771F8A95E2F7CB01962F9095D5
:1010A000942391A392A1892B82A30895875D9E4FDB
:1010B000E2CF90E06623A9F0845D9E4FFC01208181
:1010C0002F3F91F0E22FE295EF70E05EF0E080813B
:1010D00090E02F7002C0959587952A95E2F7817070
:1010E0000895875D9E4FEACF80E00895539A089552
:1010F000E0914504F0914604309729F00190F08189
:10110000E02D0995089580E00895A4E0B0E0EBE8B3
:10111000F8E00C9412268FB7F89420918401309156
:101120008501409186015091870129833A834B8341
:101130005C838FBF69817A818B819C812496E2E0F8
:101140000C942E2687E797E7909301088093000878
:1011500088E19AE00FB6F894A895809360000FBEDE
:1011600090936000FFCF80918301089508950895C2
:101170000895FC019B018091790190917A01861775
:10118000970740F0672B29F48091E8008E778093D1
:10119000E800C90140E0009741F4411106C0809188
:1011A000E80082FF2FC080E00895209142042223AE
:1011B000A9F12530A9F12091E80023FD2DC020914F
:1011C000E80022FDECCF2091E80020FFE4CF309131
:1011D000F3002091F200009719F02830310558F003
:1011E00041E02830310509F040E02091E8002E77F9
:1011F0002093E800D0CF41914093F10001972F5FF9
:101200003F4FE9CF80914204882341F0853041F07F
:101210008091E80083FFC3CF81E0089582E00895C4
:1012200083E008958091730187FF13C08091E800E7
:1012300082FF06C08091E8008B778093E80004C0AD
:10124000809142048111F2CF089580914204882355
:10125000D9F38091E80080FFF8CF8091E8008E7785
:10126000ECCF2091E4003091E50095E6A901809152
:10127000EC008170882331F08091E80080FF06C087
:1012800080E008952091E80022FD1BC08091420477
:10129000882391F0853091F08091EB0085FD10C09E
:1012A0002091E4003091E5004217530701F391507B
:1012B0009111DCCF84E0089582E0089583E00895E1
:1012C00081E00895E8EDF0E080818E7F80831092C8
:1012D000E2001092DA001092E100A0EEB0E08C91F2
:1012E00081608C9380818F77808319BCA7EDB0E0FB
:1012F0008C918E7F8C9380818F7E8083109272017F
:101300000895982FE42FE2709093E900891308C0A4
:10131000762F242F50E0E11111C091E0980FF4CF07
:101320007091EC002091ED005091F00021FD06C07D
:101330009F5F973049F78093E90008953091EB0063
:101340003E7F3093EB003091ED003D7F3093ED0018
:101350003091EB0031603093EB007093EC00209300
:10136000ED005093F0002091EE0027FDE1CF0895AD
:10137000A0E0B0E0EEEBF9E00C940C26C8EDD0E074
:1013800088818F7E8883E7EDF0E0808181608083B3
:1013900084E082BF81E08093720188818E7F8883A0
:1013A00002EE10E0F80110821092DA0081EEC82EF1
:1013B000D12CF601108288818F778883888180689C
:1013C000888388818F7D888319BC10924204109293
:1013D000710110921F041092700190EEE92EF12C11
:1013E000F70180818B7F808388818160888342E0E0
:1013F00060E080E00E948109F60180818E7F808319
:10140000F801808181608083808188608083F7011A
:1014100080818E7F8083888180618883CDB7DEB7AD
:10142000E8E00C942826E09173049091720427E080
:10143000E91302C080E00895AE2FB0E02E9FF001C6
:101440001124EC58FB4F3181361306C0308138131C
:1014500003C03581341304C0FD013196E770E8CF35
:1014600081E008959C01AB016BB1677F7BB178602F
:10147000EFB7F894CA01880F991F840F951F820F48
:10148000931F8217930741F4EFBF8FE594E0019714
:10149000F1F700C000000895D9014D919D0158E079
:1014A0007BB9000000C047FF6BB9440F000000C0CB
:1014B00000C000C06BB900C05A9591F7E2CF0F93FE
:1014C0001F93CF93DF93EB018A01909142049430F4
:1014D00079F58093E9008FEF9091E80095FD07C0C2
:1014E00095ED9A95F1F7000081508111F5CF80912B
:1014F000E80085FF1DC00E943109811114C0809150
:10150000E80085FD06C08091E8008E778093E800B2
:10151000F2CF88818093F100015011090115110566
:1015200011F02196ECCF8091E8008E778093E8004F
:10153000DF91CF911F910F910895CF93DF93D82F13
:10154000C92F48E050E0682F792F81E00E945F0AA0
:1015500088E0ED2FFC2FABE7B1E001900D928A956A
:10156000E1F7DF91CF9108959091700492FB2227CB
:1015700020F9281779F080FB92F99093700460911C
:101580006F047091700484E090E00E94932982E0DF
:101590000E94630508950F931F93CF93DF938330C9
:1015A00030F5643020F54A3010F5C42FD0E0CC0F70
:1015B000DD1F24E1629FC00DD11D112430E5839F02
:1015C000C00DD11D1124CE0188960E945129082FEB
:1015D00010E0102F0027CE0189960E945129980112
:1015E000282BC901DF91CF911F910F91089580E0C1
:1015F00090E0F8CF0F931F93CF93DF93833070F574
:10160000633060F524E0629F800111243CE0839FF9
:10161000000D111D1124085E1E4FC8014423A1F0C6
:101620000E945129C82FD0E0DC2FCC2781E090E028
:10163000800F911F0E9451299E01282BC901DF9123
:10164000CF911F910F91089502960E945129C82FA2
:10165000D0E0DC2FCC2783E090E0EACF80E090E080
:10166000EECF743048F46A3070F4833060F4462F63
:10167000672F0E94CB0A08957D3F41F4633018F430
:1016800041E0833050F080E090E008957C3FD9F74E
:101690006330C8F78330B8F740E00E94FA0A089533
:1016A000A0E0B0E0E6E5FBE00C940D267C010091A3
:1016B0006D0480916C04082BC2E0D0E010E0C801FA
:1016C0000C2E02C0959587950A94E2F780FD09C01B
:1016D0002197A8F7D12C8D2DCDB7DEB7E7E00C947C
:1016E0002926DC2EB7018C2F0E94310B0E94760632
:1016F000019771F3F0CF0F931F93CF93FC01858176
:1017000000811181882391F0662381F0C8010E9435
:10171000500BC82F682FC8010E940505B8018C2FF7
:101720000E94310BCF911F910F910895C8010E9423
:101730001F05C82FF3CFCF93DF93D82FC92F0E9457
:10174000500B6D2F7C2F0E94310B0E947606DF918B
:10175000CF910895FC0184818823A1F0808191813B
:101760000E949B0B282F92959F70963091F060F409
:10177000925F9F70923030F481E0203F79F030F436
:10178000283E30F080E004C09A5FF3CF243FD1F7C9
:10179000089581E0283E18F0213FF9CF089508957B
:1017A00084E290E00E945129843289F485E290E03D
:1017B0000E945129873059F486E290E00E94512915
:1017C00091E0883209F090E0892F8170089580E0DF
:1017D000FCCFECEAF1E080E092E0DF019C011D9299
:1017E00021503040E1F7F093AB01E093AA018FEF75
:1017F0009FEF9093A9018093A801089580916904B7
:1018000090917104892B40916A04442389F090E0FF
:1018100020E631E0F90150812F5F3F4F51119F5F6A
:1018200051E026363507B1F7911110926A04842BE6
:1018300080935E0148E050E067E474E08EE591E05B
:101840000E94A526892BA9F088E0EEE5F1E0A7E447
:10185000B4E001900D928A95E1F7E0914504F09192
:101860004604309731F00280F381E02D8EE591E05F
:101870000995089510926904E0E6F1E086E0DF0141
:101880001D928A95E9F7109271040E94FE0B08954B
:101890000E943A0C2FEF84E39CE02150804090405E
:1018A000E1F700C0000088E19AE00FB6F894A8952F
:1018B000809360000FBE90936000FFCFAAE2B0E07B
:1018C000E4E6FCE00C94112683E791E0FC0101962C
:1018D0002091F100208321E08B379207B9F78091A6
:1018E0007401893009F456C0C8F4823009F4B2C0DA
:1018F000833009F481C0813071F18091E80083FF69
:10190000E6C080917301909174019A3008F0DFC0B5
:10191000E92FF0E0E555F64D0C9459268A3009F48C
:1019200088C08B3051F780917301813231F78091FB
:10193000770190917801892B01F78091E800877FEA
:101940008093E8000E941209809175018093000144
:101950000E943A0CD2CF80917301813A71F6809146
:10196000E800877F8093E80080917701909178016B
:10197000892B61F060E080E090E070E00E94B9089F
:101980008091E8008B778093E800B7CF68E08BE721
:1019900091E0F3CF80917301813209F0AECF809155
:1019A000770190917801892B09F0A7CF8091E80009
:1019B000877F8093E8008091E80082FF18C09091B3
:1019C000F3008091F200029731F48091F1008130B0
:1019D00011F0863021F48091F10080938301809191
:1019E000E8008B778093E8000E94120986CF8091EF
:1019F00042048111E0CF81CF80917301813A09F0D7
:101A00007CCF8091770190917801892B09F075CF77
:101A10008091E800877F8093E8008091E80080FF54
:101A2000FCCF809100018093F1008091E8008E77D7
:101A3000D9CF80917301813209F05FCF8091E800A6
:101A4000877F8093E8000E9412098091760180933D
:101A50006F0153CF80917301813A09F04ECF80918D
:101A6000E800877F8093E8008091E80080FFFCCF4A
:101A700080916F01D8CF803889F0823841F580910C
:101A800077018F70873018F58093E9008091EB0023
:101A900085FB882780F91092E90006C080917001CB
:101AA00090911F04911182609091E800977F90932C
:101AB000E8008093F1001092F1008091E8008E77A9
:101AC00023C0811116C080917501813011F1809180
:101AD000E80083FF0AC08091E800877F8093E800D8
:101AE0008091EB0080628093EB00AA96E3E00C9477
:101AF0002D26823061F780917501882389F010923C
:101B0000E9008091E800877F8093E8000E94120935
:101B1000DECF81E0933009F080E080931F04EFCFA7
:101B2000809177018F702FEF280F263080F68093F9
:101B3000E9002091EB0020FFE2CF933031F4809157
:101B4000EB0080628093EB00DACF9091EB00906124
:101B50009093EB0021E030E0A90102C0440F551F33
:101B60008A95E2F74093EA001092EA008091EB0038
:101B70008860E8CF8111ABCF109175011F778091FC
:101B8000E3008078812B8093E3008091E800877FD9
:101B90008093E8000E9412098091E80080FFFCCF4A
:101BA0008091E30080688093E30083E0111101C01D
:101BB00082E0809342048BCF8058823008F087CF38
:101BC00040917501509176014C3D83E0580799F59D
:101BD00083E08A838AE289834FB7F894DE01139603
:101BE00020E03EE051E2E32FF0E050935700849173
:101BF00020FF03C082958F703F5F8F708A30C8F0DE
:101C0000895C90E08D939D932F5F243161F74FBFE6
:101C10008091E800877F8093E8006AE270E0CE015F
:101C200001960E94B9088091E8008B778093E800C4
:101C30004ECF805DE6CF2091770130917801852FDE
:101C400099278330910501F160F48130910509F401
:101C500071C0029709F03BCF82E490E0E6E7F4E040
:101C600028C08132910509F459C08232910509F0EA
:101C70002ECF2115310509F467C02130310509F057
:101C800026CFE0E1F4E015C0CA0199274130B1F157
:101C90008230910509F43AC0892B09F018CFE0E1B0
:101CA000F5E0E4918E2F90E0E0E1F5E0009709F493
:101CB0000ECF2091E800277F2093E8002091790142
:101CC00030917A018217930708F49C0140E02115B6
:101CD000310509F03EC041113CC08091E80082FD11
:101CE000A2CF80914204882309F49DCF853009F466
:101CF0009ACF8091E80083FFF0CF95CFECEEF4E02F
:101D0000E4918E2F90E0ECEEF4E0D0CFEAECF4E03A
:101D1000E4918E2F90E0EAECF4E0C8CF2115310574
:101D200071F02130310509F0D2CE89E090E0E1EA8E
:101D3000F4E0BFCF82E190E0E8EBF4E0BACF89E0D5
:101D400090E0E8E8F4E0B5CF84E490E0E2E3F4E08A
:101D5000B0CF80914204882309F465CF853009F41F
:101D600062CF8091E80083FD5ECF8091E80082FD24
:101D7000B4CF8091E80080FFAACF9091F3008091CA
:101D8000F2002115310519F08830910550F041E03D
:101D9000089709F040E08091E8008E778093E80092
:101DA00096CF44914093F10031962150310901962C
:101DB000E8CF803809F08BCE8091E800877F809350
:101DC000E800809171018093F10077CE81117FCE80
:101DD00010917501123008F07ACE8091E800877F6B
:101DE0008093E800109371010E9412091123A9F059
:101DF00084E08093420442E061EC81E00E9481092A
:101E000042E261EC82E00E94810942E260EC83E000
:101E10000E948109809142045ACE8091E30087FD9F
:101E2000E7CF81E0E6CF0F931F93CF93C82F88238E
:101E300039F18CEF8C0F813AB0F500E611E0F80132
:101E40008191C81709F181E0E636F807C9F7EFEF8D
:101E500080E0D8019D918D01C91781F0EF3F19F401
:101E6000911101C0E82F8F5F863099F7EF3F31F075
:101E70000E2E000CFF0BE25AFE4FC2830E94FE0B97
:101E8000CF911F910F910895E0E6F1E08191C81381
:101E900003C0DF0111971C92A1E0E636FA07B1F703
:101EA0000E94FE0BD4CF80E28C0F883048F7C770B9
:101EB00081E090E001C0880FCA95EAF7C0916904FB
:101EC000C82BC0936904DACF882391F09CEF980F58
:101ED000913A78F4E0E6F1E09191891303C0DF01D3
:101EE00011971C9291E0E636F907B1F70E94FE0BBC
:101EF000089590E2980F9830D8F7877091E001C06C
:101F0000990F8A95EAF7892F0E947B05EFCF1F93DF
:101F1000CF93DF93182FEB010E94130F209739F412
:101F2000812F0E94640FDF91CF911F9108958FE957
:101F30009FE00197F1F700C000002197EFCF8823C1
:101F400039F090916904892B809369040E94FE0BFB
:101F50000895882321F00E947B050E94FE0B0895BE
:101F60001F93CF93DF93962F122F632F8330D8F4D4
:101F70009430C8F44A30B8F4C42FD0E0CC0FDD1F41
:101F800024E1929FC00DD11D112490E5899FC00DC1
:101F9000D11D1124CE0188960E947529612FCE0192
:101FA00089960E947529DF91CF911F9108951F9303
:101FB000CF93DF93C62F122F632F8330C8F4C33023
:101FC000B8F494E0C99FE00111249CE0899FC00D02
:101FD000D11D1124C85EDE4FCE01442369F00E945A
:101FE000752981E090E0612F8C0F9D1F0E9475295B
:101FF000DF91CF911F91089502960E94752983E089
:1020000090E0F1CF8F929F92BF92CF92DF92EF92AA
:10201000FF920F931F93CF93DF9394E0C92E96E026
:10202000D92EE12CF12CC0E04701D0E014C0F8011A
:10203000259134914B2D6D2F8C2F0E94B00F0E5F88
:102040001F4FB3948AE0B812F2CF8AE0880E911C39
:10205000DF5FD43039F08401000F111F0C5E1A4F7E
:10206000B12CE5CF8601D0E0F8012591349141E013
:102070006D2F8C2F0E94D70FF80132962591349145
:1020800040E06D2F8C2F0E94D70F0C5F1F4FDF5F3A
:10209000D33051F78CE0C80ED11CCF5F88E2E80E38
:1020A000F11CC33009F0C0CFDF91CF911F910F9188
:1020B000FF90EF90DF90CF90BF909F908F9008950A
:1020C000CF93DF93CCE3D1E060E0CE010E9475298D
:1020D0002196C11584E0D807B9F7DF91CF91089513
:1020E000882381F064E284E290E00E94752967E031
:1020F00085E290E00E94752968E286E290E00E9405
:10210000752908956FEF84E290E00E9475296FEFC2
:1021100085E290E00E9475296FEFEFCF80E00E948A
:10212000701060E087E290E00E9475290E94021022
:102130000E94601081E00E9470100895A0E0B0E05D
:10214000E4EAF0E10C940C268901D42FC52F6B0131
:102150007C010E940508A8016D2F7C2F88E090E08B
:102160000E94872998014D2F5C2FB601C70100E21C
:102170000E948126622F83E290E00E947529CDB7EC
:10218000DEB7E8E00C94282680916504833018F4CB
:102190008F5F8093650420916104309162044091C7
:1021A00063045091640460916504709166048091A9
:1021B0006704909168040E949E10089580916504C0
:1021C000882319F081508093650420916104309137
:1021D00062044091630450916404609165047091BD
:1021E000660480916704909168040E949E1008958F
:1021F000A3E0B0E0EEEFF0E10C940726E82ED62E37
:10220000F42E722E8091610480FF40C0982F969525
:102210009695E92FF0E0E95CFE4F20818C7F8430B9
:10222000C9F528E7241708F448E79E012F5F3F4FC0
:102230006D2D8E2D0E9479078091610480FF0FC063
:102240008B8199812A81ECEAF3E021839083828358
:10225000339634E0EC30F307C1F70E941A08E0929D
:102260006204D0926304F0926404772079F02091A4
:10227000610460916504709166043E2D4D2D5F2DC3
:1022800080916704909168040E949E102396EDE06F
:102290000C942326223019F7EEEFE90F9170C92E26
:1022A000E695F0E0EB5BF94FE4910E2F10E03CEA8D
:1022B000A32E33E0B32E812C912CC40125E09695FA
:1022C00087952A95E1F7C11015C08E0D4F2D38E77F
:1022D0003F1508F448E795016D2D0E947907800E9F
:1022E000911E83E0A80EB11C9CE0A91694E0B906EB
:1022F00021F7B3CF2E2D281B822FE8CF90916104B8
:1023000090FF29C0882341F18C3040F58F73282F2E
:10231000220F220F809161048370282B2093610487
:10232000662381F03091620440916304509164040B
:1023300060916504709166048091670490916804CF
:102340000E949E1020E0409164046091630480919B
:1023500062040E94F810089581E0D9CF8BE0D7CFB6
:1023600080916104869586958F5F8C3008F081E0BE
:1023700061E00E947E110895909161049695969572
:102380008FEF890F913009F48BE061E00E947E119C
:1023900008958091610480FF09C086958695825CCE
:1023A0008F73893018F40E94B011089561E082E0C3
:1023B0000E947E110895A8E0B0E0E1EEF1E10C94F6
:1023C00005266C01DC0114968C91882309F4B5C0B4
:1023D00061E0C6010E947B0B9C01F6019581992367
:1023E00009F455C1A90157574038510508F0FBC100
:1023F000122F203108F090C08FEF93E00E945129F6
:1024000081118AC04CE3E42EFF24F394111153C0D0
:102410001A821982FE01339686E0DF011D928A95A9
:10242000E9F75701BFEFAB1ABB0AC7010E94512958
:1024300089831A82882309F46FC0813009F081C032
:1024400087010E5F1F4FC5010E9451298A8388238F
:1024500009F462C09FEF980F9330E0F5E3E0EE0ED1
:10246000F11CC8010E9451298B83882309F454C0B0
:102470001C828E010F5F1F4FD8018C91882389F237
:10248000813009F0A1C011968C911197813009F02B
:102490005AC05801B2E0AB0EB11CF801828160E075
:1024A00070E0893311F460E570E00E94870F8501C8
:1024B0000F5F1F4FE1CFE114F4E0FF0669F1C701A0
:1024C0000E94512997012F5F3F4F79018111F3CF6E
:1024D00011509CCF8430B9F432E0E32EF12CC801C6
:1024E0000F5F1F4F0E945129E1E0F0E0EC0FFD1F4C
:1024F000EE0DFF1D8083882379F08C3731F4FE01C7
:10250000EE0DFF1D12827801B4CFFFEFEF1AFF0A24
:1025100027E0E216F10419F780916E048770882392
:1025200061F0D60115968C91882339F08091700462
:1025300082FF03C082E00E9463052896EFE00C94BE
:102540002126750196CF823049F45801F2E0AF0E92
:10255000B11C12968C910E94130FA9CF833049F4BD
:102560005801B2E0AB0EB11CF80182810E94640FE9
:102570009ECF843019F00F5F1F4F9ACF12962C9187
:102580000E5F1F4F80E090E06AE0A8014F5F5F4F51
:102590002053330B2A30310558F0009709F488CFC7
:1025A000AFE9BFE01197F1F700C000000197F5CF48
:1025B000689FF001699FF00D1124C9018E0F9F1FC4
:1025C000F80121818A01E1CFE82FF0E0E456F84FCD
:1025D0006490282F26952695269530E0F901E4573A
:1025E000F84FA4908770782EB12C082E02C0B594B5
:1025F000A7940A94E2F7B1E0AB22BB24F901E458B6
:10260000F84F8490912C02C0959487948A95E2F7B4
:10261000E1E08E229924F901E459F84F5490A11475
:10262000B104C1F48114910421F560E070E0862DBD
:102630000E94870FE52DF0E0072C02C0F595E79585
:102640000A94E2F7E0FF34CF60E070E08CE20E9491
:10265000870F2ECF81EE0E94130F8114910449F44D
:1026600060E070E0862D0E94870F81EE0E94640F6B
:10267000E1CF86EE0E94130F60E070E0862D0E948D
:10268000870F86EE0E94640FAB28A1F2EECF309345
:102690001C0120931B014081518150931E014093E6
:1026A0001D01F9013497E533F10508F0B9C0E45E86
:1026B000F74FE4918FE5AFE1B1E040E050E06D917C
:1026C0006E13A6C0455E5E4FDA0114968C93D60158
:1026D00015968C918823A9F02A35BCE73B0709F4AD
:1026E00053C108F02AC12130FCE73F0709F44AC171
:1026F00023308CE7380709F43FC121153C4709F422
:102700002EC1F6018581E080F180882309F440C163
:10271000C7010E94500B182F682FC7010E940505A2
:10272000B701812F0E94310B0E9476068C01D601E1
:102730001596BC9015971696AC90A2942FE0A22205
:1027400080916E048770882301F1EB2CBB20F1F09F
:10275000812F807F803461F080E2800F8830A8F084
:10276000812F807E803221F4023078F0AA2069F037
:102770008091700482FF09C082E00E94630580910D
:102780006E048770EE24E3948111E12C812F8295F1
:102790008F70883009F4CDC108F0FFC0823008F492
:1027A0000EC1825F8F70823008F443C1EE20B1F019
:1027B00080916E0480FD12C0D60115961C928695FC
:1027C000869586950E949204C6010E94DB11809135
:1027D0006E048695869586950E949E0460E0C601EB
:1027E0000E947B0BAACE30931C0120931B014081D9
:1027F000518150931E0140931D01F9013497E53337
:10280000F10508F079C0E45EF74F8491EFE553CF0E
:102810004F5F5F4F4630510509F051CF91116CC0A9
:10282000809169048272F901E052F847E531F105BF
:1028300008F075C0EB54F64D0C9459268091610454
:1028400080FF17C0282F2E7F2093610430916204EF
:102850004091630450916404609165047091660432
:1028600080916704909168040E949E100E941A084B
:1028700053CE81608093610461E0869586950E94C5
:102880007E114ACE4CEB51E160EB71E10E942F08C2
:1028900043CE40EB51E16CEB71E1F8CF44EA58E1F3
:1028A0006AE978E1F3CF4AE958E164EA78E1EECFEA
:1028B0004BEB58E16EEA78E1E9CF4EEA58E16BEB79
:1028C00078E1E4CF45ED58E168EC78E1DFCF48EC02
:1028D00058E165ED78E1DACF4EED50E164EC70E15E
:1028E000D5CF44EC50E16EED70E1D0CF61E081E0F6
:1028F000C6CF0E94C91110CE81E02737BCE73B0745
:1029000031F082E02837ECE73E0709F0E0CE0E9484
:10291000920443E062E081E00E943805FDCD81E051
:102920002737FCE73F0731F028378CE7380709F0F5
:10293000CECE82E00E949E04ECCF2B35ACE73A0766
:1029400029F12C353C4709F0DCCE8091700482FBE4
:10295000882780F991E089270E94B40AD2CE0E948C
:102960003A0CEFEFF4E32CE0E150F0402040E1F7C7
:1029700000C000000E94A2086FEF7FEF80E090E0AF
:102980000E9493290E94480C81E0E6CF80E0E4CFCA
:10299000C7010E941F05182FC3CE893009F438C122
:1029A0008A5F8F70823008F001CF023F09F041C189
:1029B000812F8F71B1103AC10E949204E7C0B12FEC
:1029C000BF70FB2E103118F0F29490EFF922BB206B
:1029D000B9F0FF2069F080E2800F883010F001111B
:1029E00009C0809169048F29809369040E94FE0BBD
:1029F000802F43C0809171048F2980937104F6CF9A
:102A0000802F0E94640FFF2009F4D0CE80E2800F57
:102A1000883010F0011104C08F2D0E947B0506C084
:102A2000F094809171048F21809371040E94FE0BB9
:102A3000BDCEE12FEF70FE2E107F103219F0F29410
:102A400080EFF822002349F0013009F452C0BB2086
:102A500009F45EC0AA20F9F0CBCF8091700482FD0A
:102A600016C0BB2069F0FF2039F0809169048F29DE
:102A7000809369040E94FE0B80E00E94130F96CEA3
:102A800080E00E94640FFF2009F490CEC5CFBB20E8
:102A9000A1F0A11004C08F2D0E949F0F87CEF1E0FE
:102AA000AF1284CE80916A049F2D9823F91609F401
:102AB0007DCE8F2980936A0479CEA11077CE8F2D99
:102AC0000E94A90F90916A048F2D8923882329F0F1
:102AD0008F2D8095892380936A0480916B049F2DAC
:102AE0009823992309F462CEF094F822F0926B04B3
:102AF0005DCEBB2029F025E02A1508F457CECBCFB8
:102B000034E03A1508F452CE8F2D0E94A90F4ECE14
:102B1000AA20D1F3093349F48FEF97EEA3E0815057
:102B20009040A040E1F700C00000802F0E94640F99
:102B30003DCE812F8370811134C0B11027C0402F4A
:102B4000429546954770440F440F802F8F70042E96
:102B500001C0880F0A94EAF70071002341F02FE0CA
:102B600030E001C0220F4A95EAF7022F0095169532
:102B700016951370123081F0133061F020916C04BF
:102B8000113039F0802B82230E948C040E94780837
:102B90000DCE822B802BF8CF802B90916C0489274F
:102BA000F3CFBB2051F110FFF1CF402F4295469556
:102BB0004770440F440F802F8F70042E01C0880F80
:102BC0000A94EAF70071002341F02FE030E001C0E1
:102BD000220F4A95EAF7022F009516951695137065
:102BE000123089F0133069F020916D04113041F0FA
:102BF000802B82230E948F04C9CF823038F2D5CF38
:102C0000822B802BF7CF802B90916D048927F2CFF8
:102C10001F70BB2039F0812F0E949204802F0E94E8
:102C20009F0FB4CF802F0E94A90F812F0E949E0476
:102C3000ADCF033F70F4003FB9F0013FB9F1BB20C5
:102C400009F456C0AA2009F450C0802F0E94130F27
:102C50009DCF033FD9F0043F29F1B110F3CFA1106C
:102C600055C0812F8F71E2CFBB2069F0B4E0BA1557
:102C700008F48CCF1F7181E090E0012E01C0880F15
:102C80000A94EAF7C1CFE5E0AE16F2CF80E0BB20B0
:102C900009F4B0CF1F7181E0012E01C0880F0A94A2
:102CA000EAF7A8CF9091700492FD06C0812F8F7132
:102CB000BB2009F4BBCF80CEBB2061F0812F8F7188
:102CC00092FF7ACEF8E08F9F900111242360209329
:102CD0006E0472CE81E00E94630521E02A1508F09F
:102CE00055CF82E00E94630551CF812F8F7164CE52
:102CF000AA2009F4B6CF093349F43FEF87EE93E0F9
:102D0000315080409040E1F700C00000802F0E94C9
:102D1000640F3CCF8091B204803178F48091B1048B
:102D2000882359F0E0917304209172043091AD042E
:102D30004091AC0457E02E1301C008956E2F70E04F
:102D40005E9FF0011124DF01AC58BB4F14968C91AB
:102D50001497882361F111968C911197831327C0E2
:102D60008C91841324C015968C91159781111FC0E6
:102D700012968D919C91A091AE04B091AF048A1BE4
:102D80009B0B883C910598F48091B2048F70806110
:102D90008093B204E658FB4F80818F7080618083FE
:102DA0008CEA94E00E94DB110E9459050895FB0112
:102DB0003196E770C0CFADE0B0E0E1EEF6E10C9403
:102DC00006268C0186E0F801DE01189601900D922E
:102DD0008A95E1F7F8017080F580A280B380848144
:102DE0009CEA892E94E0992E6090B004611018C07E
:102DF000882399F0FF2009F413C1C8010E94AA0B8F
:102E0000882309F40DC187E0F801ACEAB4E0019031
:102E10000D928A95E1F70E948A16FF24F39453C01D
:102E2000D090B1042091AE043091AF04A501421BB3
:102E3000530BDD2009F4C4C0483C510508F07AC0AA
:102E4000882359F38091AD04C180E090B204FFE083
:102E5000FE1508F459C0C81215C08091AC04871142
:102E600011C0F1104BC08E2D8F7080618093B20421
:102E70008CEA94E00E94DB118091B204F801868311
:102E8000F12C21C0F1103AC040E06C2D872D0E943A
:102E9000130A40E06C2D872D0E94130AF82E811131
:102EA000EFCF888599850E949B0B292F22952F7043
:102EB000903470F49F702230A0F09923B1F0F801A3
:102EC0009681903190F48F2D2D96EEE00C94222671
:102ED0002A5F2F70223068F0C8010E94DB11FD2CA0
:102EE000F2CF992311F0882371F3805E883058F374
:102EF000F3CF803F40F3815F8230F9CF8091B204FD
:102F000081608093B204BCCFC8123CC08091AC04F5
:102F1000871138C0F11036C0F801E682C8010E945E
:102F2000DB1187E0F801ACEAB4E001900D928A95DC
:102F3000E1F773CFE090B204FFE0FE1550F08CEAA9
:102F400094E00E94DB1187E0F40111928A95E9F781
:102F500097CF882309F461CF9091AD04F801818166
:102F6000981310C08091AC0487110CC0F1100AC0F6
:102F7000E682C8010E94DB1187E0F40111928A9574
:102F8000E9F74BCFC8010E94AA0B882309F448C077
:102F9000FF2009F445C08091B204803208F433CF99
:102FA0008091AC049091AD049A838983BC82AB82FA
:102FB0006D821E82EF82CE0101960E94DB1123CF2B
:102FC000483C510508F0BFCF882309F426CFFF20E5
:102FD00039F19091AD048181981318C08091AC04AF
:102FE000871114C08091B20480FD9BCF803108F41A
:102FF00098CF8683807F803F09F490CF8681982F79
:10300000907F905F8F70892B868388CFC8010E9444
:10301000AA0B8111F8CE8091B20481608093B20432
:10302000C8010E94DB11F9CEABE1B0E0EAE1F8E1C2
:103030000C9411264E8B5F8B688F798F8A8F9B8FB4
:103040009111109271041D8A86E0FE017696DE01D0
:103050001F9601900D928A95E1F78B89882329F0BC
:1030600061E0CE010F960E947B0B87E0FE013F9648
:10307000DE01189601900D928A95E1F7CE0108962F
:103080000E94DB1681112BC087E0FE013896DE011D
:10309000119601900D928A95E1F72091720440916A
:1030A00073048C858823D9F030E0C90101968770BC
:1030B000992750E084179507E9F097E0929FD00197
:1030C000939FB00D1124AC58BB4FFE013196019077
:1030D0000D929A95E1F7809372040E94590517E0CA
:1030E0008091730490917204891312C06B96E3E08F
:1030F0000C942D260E943A0C1092720410927304C4
:1031000087E0ECEAF4E0DF011D928A95E9F7E7CF6A
:10311000189FC00111248C589B4F0E94DB168823F6
:1031200029F38091730490E001968770992780932A
:103130007304D6CFE1E6F4E0818121E0438162812E
:103140008F5E0E94F8100895E1E6F4E0818121E0AD
:103150004381628181510E94F8100895E1E6F4E014
:10316000628121E1620F08F46FEF21E043818181E8
:103170000E94F8100895E1E6F4E0628121E1621B0B
:1031800008F460E021E0438181810E94F8100895F5
:10319000E1E6F4E043812CE0420F08F44FEF21E038
:1031A000628181810E94F8100895E1E6F4E0438194
:1031B0002CE0421B08F440E021E0628181810E9402
:1031C000F8100895AB0124E630E0BC0188E70E94C6
:1031D0004F259C0181E0232B09F080E00895809128
:1031E0001604882369F080911504882349F062E071
:1031F00070E08EEA90E00E94E218811110921504AE
:103200000895A4E0B0E0E7E0F9E10C941226809183
:1032100016048823F9F00E948508DC01CB01805A4E
:103220009541AF4FBF4F8093170490931804A0931C
:103230001904B0931A048091150481110BC062E047
:1032400070E08CEA90E00E94E218882319F081E097
:10325000809315042496E2E00C942E26CF93DF93FE
:10326000282F81E02A3019F02D3031F480E00E94BF
:10327000B419DF91CF9108958091AA019091AB018B
:1032800036E0FC01A9E6B1E001900D923A95E1F734
:1032900030EE320F303908F458C026E0FC011192AC
:1032A0002A95E9F7C091AA01D091AB0146E050E020
:1032B000BE0189E691E00E94A5269E012C5A31406C
:1032C000892B41F1C90145E0969587954A95E1F72B
:1032D00041E050E0BA0102C0660F771F8A95E2F71D
:1032E000CB016091A8017091A901862B972BB901A0
:1032F0006B5F7F4FE5E076956795EA95E1F702C051
:10330000440F551F6A95E2F7842B952B9093A901E2
:103310008093A8012A5F3F4F40911B04642F70E007
:10332000C9010E94EE25481B463010F4240F311DC0
:10333000211572E0370710F020E030E024553E4FB1
:103340003093AB012093AA0194CF2052330B46E077
:10335000429FB001439F700D112460557F4F46E09E
:1033600050E00E949C269ECFCF93382FE091AA0177
:10337000F091AB01EC5AF14020911B04622F70E0F8
:10338000CF010E94EE25281B822F332361F066E0D7
:103390000E943926C82FC15010F4CF91089580E2C1
:1033A0000E942E19F8CF9F01280F311D21153240A0
:1033B00018F080E0E0E0F0E08E0F9F2F911D845523
:1033C0009E4F9093AB018093AA01E7CFCF93DF93F9
:1033D000C0E8D5E0DC0F8C2FCF5F0E942E19DC13E4
:1033E000FACFD43911F0CD2FF4CF80E00E94B41978
:1033F000DF91CF9108950F931F93CF93DF93EC014B
:10340000FC0101900020E9F78F0101501109C0175C
:10341000D10728F0DF91CF911F910F9108958991E5
:103420000E942E19F4CFCF93DF93EC01FE0184911B
:10343000811103C0DF91CF9108950E942E1921962A
:10344000F5CFA0E1B0E0E7E2FAE10C940326809129
:103450001604882309F4D1C08CEA91E09093AB0163
:103460008093AA010E94E61980911B0425E0829FA7
:10347000C0011124811532E0930714F080E090E040
:1034800084559E4F9093AB018093AA0187E396E009
:103490000E94131A80911B0190911C0154E0969593
:1034A00087955A95E1F78F708A3008F0AAC0805D41
:1034B0000E942E1980911B018F708A3008F0A3C0E2
:1034C000805D0E942E1985E396E00E94131A81E028
:1034D0000E94B4198FE296E00E94131A80911E0197
:1034E0008F708A3008F091C0805D0E942E198DE2A5
:1034F00096E00E94131A80911D018F708A3008F0A7
:1035000086C0805D0E942E198AE296E00E94131AFE
:103510008FE191E00E94FB1988E296E00E94131A65
:1035200081E00E94B4198FE396E00E94131A81E0B3
:103530000E94B41980916D040E947A041F928F93A7
:1035400086E291E09F938F931F928CE08F938E0180
:103550000F5F1F4F1F930F930E94B226C8010E9456
:10356000FB1981E00E94B4198DE396E00E94131AC2
:1035700081E00E94B4190FB6F894DEBF0FBECDBF34
:103580008091A8019091A901892BA1F08091160446
:10359000882381F08091140481110CC00E940119CC
:1035A0002091A8013091A90180E061E070E021152F
:1035B000310581F5809115048823F9F00E94850872
:1035C0006D877E878F87988B809117049091180460
:1035D000A0911904B0911A042D853E854F85588914
:1035E000281B390B4A0B5B0BDA01C9018F3F9F4F38
:1035F000AF4FBF4710F40E94EF186096E1E10C94C2
:103600001F26895A55CF895A5CCF895A6ECF895A5D
:1036100079CF8F5F082F10E07B01082E02C0EE0CDF
:10362000FF1C0A94E2F7A70142235323452B89F399
:1036300090911C0490FD43C09801369527953695CE
:103640002795922F8295880F80763FE1380F8093DF
:10365000030120930601309304019093070124E6AF
:1036600030E047E050E061E071E088E70E94042527
:10367000892B09F09FCFA80125E0440F551F2A95FB
:10368000E1F780911C0480FD22C044555E4F04E6A2
:1036900010E020E230E060E488E70E949C25892B5E
:1036A00009F088CFE094F0948091A8019091A9014D
:1036B000E822F922F092A901E092A8017BCF880FBD
:1036C000880F880F37E0380F20E093E0C0CFE8E89C
:1036D000F1E080E2DF011D928A95E9F7E3E3F1E092
:1036E000FE87ED870FE211E087E3A82E81E0B82E78
:1036F00097E0392E44244394AD85BE858D91BE87D5
:10370000AD87F80121918F01240F352F311D2455EC
:103710003E4FE82FF0E0E857FE4F80E090E0632C4A
:10372000681A742C082E01C0770C0A94EAF7690114
:10373000812CD6019D906D019720662D68196770C8
:1037400070E0B92D062E01C0BB0F0A94EAF75B2E7C
:103750007195619571096770772701C096946A9594
:10376000EAF759286081562A5082839468E08612CD
:10377000E0CF019631968830910589F68D859E853A
:10378000A816B90609F0B8CF04E610E020E230E050
:1037900048E851E080CF1F921FB61F9211248F93EB
:1037A0009F93AF93BF9380911E04811113C08091AA
:1037B000840190918501A0918601B0918701419685
:1037C000A11DB11D8093840190938501A093860172
:1037D000B0938701BF91AF919F918F911F901FBEB2
:1037E0001F9018952FB7F8948091840190918501CE
:1037F000A0918601B09187012FBF0895A6E0B0E0A7
:10380000E4E0FCE10C9410260E94F21B8C018091F4
:103810004304909144048017910779F019821A8229
:103820000E94F21BBC0149815A8180E090E00E9415
:10383000141810934404009343042696E4E00C9477
:103840002C269C014FB7F8948091840190918501BA
:10385000A0918601B09187014FBF821B930B089501
:10386000A8E0B0E0E6E3FCE10C940426CE0101966A
:103870007C0188E0D7011D928A95E9F7370157014D
:1038800028E0C22E21E0D22E44244394512CF6018C
:1038900081916F010E94610400C09CE0892E91E03B
:1038A000992EF40100E010E02191A22FA295AF70B3
:1038B000A05EB0E08C9190E02F7002C09595879546
:1038C0002A95E2F7817081110FC0D5018D919C91ED
:1038D00011979201002E02C0220F331F0A94E2F7C3
:1038E000822B932B8D939C930F5F1F4F05301105F7
:1038F000D9F6F601319780810E944804B0EABA9562
:10390000F1F7E2E0AE0EB11CFCE0CF16F1E0DF060D
:1039100009F0BDCFCC24C394D12CD4018D914D019D
:103920000E94610400C09601002E02C0220F331FC6
:103930000A94E2F7F70168E071E0DB014D91BD0107
:10394000842F82958F70805E90E0DC018C9190E0F6
:103950004F7002C0959587954A95E2F78170811165
:1039600006C080819181822B932B91838083329634
:10397000B1E06C307B0709F7F401319780810E9438
:103980004804E0EAEA95F1F70F5F1F4F0A3011058E
:1039900021F6ECE0F4E0C701089620E0D3014D9158
:1039A0005D913D01619171914617570729F0DF0143
:1039B00012974D935C9321E08615970579F72223A2
:1039C00069F081E0809368010E94F21B9093670187
:1039D000809366012896E0E10C942026809168018E
:1039E0008823C1F380916601909167010E94211C98
:1039F000059780F348E050E06CE074E08AE394E0DF
:103A00000E94A526892B49F088E0ECE0F4E0AAE3C7
:103A1000B4E001900D928A95E1F710926801DACF37
:103A2000CDB7DEB7E0970FB6F894DEBF0FBECDBFBF
:103A300085B7806885BF85B7806885BF84B7877F75
:103A400084BF0FB6F894A895809160008861809338
:103A50006000109260000FBE80E890E00FB6F8940E
:103A600080936100909361000FBE87E797E0909389
:103A70005D0180935C010E9462090E94B8098091F7
:103A8000E20084608093E20078948091420488236D
:103A900099F08091E9001091EC0017951127179586
:103AA0008F70182B1092E9008091E80083FD0E942E
:103AB0005E0C1F701093E90082E084BD93E095BD19
:103AC0009AEF97BD80936E000E94D00B811102C0C7
:103AD0000E948E10E0E3F4E088E0DF011D928A95F9
:103AE000E9F783E080932F0410E060E0812F0E94CB
:103AF000360861E0812F0E9436081F5F1330A9F756
:103B0000EFE8F1E03197F1F700C0000010E080919C
:103B10002F04181708F4CBC00CE011E0D8018D91E8
:103B20008D010E944804B1E001311B07B9F708E09C
:103B300011E0F80181918F010E944804F1E00C30FE
:103B40001F07B9F710920D0410920C0410923B0459
:103B500010923A0410920F0410920E0410923D0439
:103B600010923C04109211041092100410923F0421
:103B700010923E0410921304109212041092410409
:103B80001092400480E090E00E945F29853E9E4FA5
:103B900021F40E94D00B811163C065EE7EEF80E0BE
:103BA00090E00E94932960E082E090E00E947529F5
:103BB00081E080936C0461E083E090E00E947529CD
:103BC00060E074E184E090E00E94932960E086E088
:103BD00090E00E94752960E087E090E00E947529DE
:103BE00040E050E0BA0188E090E00E94872960E060
:103BF00083E290E00E94752960E08CE090E00E94F2
:103C0000752960E08DE090E00E94752919821A8282
:103C10001B821C821D821E821F82188648E050E093
:103C200067E170E0CE0101960E94652940E050E016
:103C3000BA018FE190E00E94872980E00E94701015
:103C40000E948E1040E050E0BA018FE090E00E94A8
:103C5000872940E050E0BA0183E190E00E94872983
:103C600082E090E00E9451298093200484E090E05B
:103C70000E945F299093700480936F040E94301C0F
:103C80006FEF86E791E0615080409040E1F700C01F
:103C900000000E94301C80913A0481FF1AC06FEF2F
:103CA0007FEF80E090E00E9493290E94A20860E0EC
:103CB000812F0E945908082F61E0812F0E94590826
:103CC000E12FF0E0E45DFB4F880F802B80831F5FC6
:103CD0001ECF83E090E00E9451290E948C0483E073
:103CE00080931C0480E280931B040E94CE246BE02E
:103CF00070E081E697E00E94E218882389F18091C4
:103D00001C0465E070E081FD48C18CE597E00E94ED
:103D1000E218882329F16DE070E08AE497E00E94C0
:103D2000E2188823E9F00E9485086DA77EA78FA777
:103D300098ABDC01CB01805A9541AF4FBF4F8093C8
:103D4000170490931804A0931904B0931A040E94C6
:103D5000E90B81E0809316048093150410921404FB
:103D600080911D04811197C088E090E00E9459293C
:103D70006B017C0183E290E00E945129282F30E002
:103D800040E050E060E070E080E090E000E20E94FF
:103D90006626F22FA32EB42EB52FA62FE72F97015C
:103DA000860140E050E0BA01FC29A12AB22AB32BD7
:103DB000A42BE52B862B972BF0936104A092620431
:103DC000B0926304B0936404A0936504E093660426
:103DD0008093670490936804F43008F04CC025E0A9
:103DE00020936104109262042FEF2093630428E76C
:103DF000209364041092650425E030E04FEF58E70B
:103E000060E07E2F0E949E1088E090E00E94592979
:103E10006B017C0183E290E00E945129282F30E061
:103E200040E050E060E070E080E090E000E20E945E
:103E300066265901B42FA52FF62FE72F970186018B
:103E400040E050E0BA01AC28B12AB22BA32BF42BEE
:103E5000E52B862B972BA0926104B0926204B0935D
:103E60006304A0936404F0936504E0936604809374
:103E70006704909368040E9405080E947608809168
:103E8000610480FF05C060E0869586950E947E11E2
:103E900081E080931D0481E191E09093460480933A
:103EA000450408E1402E512C80914204853049F4AC
:103EB00080914204853009F473C00E943A0C0E943C
:103EC00078080E94301CA1E2AA2EA4E0BA2EBAE320
:103ED0008B2EB4E09B2E13E5612E11E0712E830131
:103EE000A401F50121913191DA018D919D91AD01EE
:103EF000D8016D917D918D0186239723B4E0E9323D
:103F0000FB0709F4A5C02817390761F3312CF40128
:103F1000019111914F01D3018D919D913D01082394
:103F20001923F501C190D1905F01C016D10661F14E
:103F3000C026D126212CEE24E394F12CC7018C213C
:103F40009D21892BB9F029823A820E94F21B9C8321
:103F50008B83F1E0FD8391E0970120233123232B14
:103F600009F490E09E8349815A816B817C818D8127
:103F70000E9414182394EE0CFF1C2AE02212DECFBC
:103F8000F501329711830083339464E03612BFCF7A
:103F90000E948508EE24E39462C087E597E0B7CEDF
:103FA00080914204843021F10E94EF1810921E0487
:103FB000A0E40FB6F894A895409260000FBEA093BD
:103FC000600083B7817F846083BF83B7816083BFD4
:103FD0007894889583B78E7F83BF0FB6F894A895A1
:103FE00080916000886180936000109260000FBE35
:103FF00080911F04882309F45BCF0E94301CEAE300
:10400000F4E0A3E5B1E0819191912D913D9182235E
:104010009323892B29F424E0E234F207A1F748CF57
:1040200080E189BD82E189BD09B400FEFDCF8091A8
:10403000D8008F7D8093D8008091E00082608093CB
:10404000E0008091E00081FDFCCF0E943A0C30CF6F
:104050002817390709F05ACF0E94FE1BE12C8091E6
:104060003804882351F080913204109238048093F0
:104070003304809130048093310400E04FC061E04C
:10408000802F0E945908D82E60E0802F0E94590886
:10409000DD0C8D29E02FF0E09F01245D3B4FD9011D
:1040A0004C91942F93708917C1F1A42FAA0FAA0FD6
:1040B0008A2BD9018C93A82FAF70B0E0AD5BBE4FB7
:1040C000E75DFB4F8C919081890F808382300CF4E7
:1040D0006CC0412F50E02F2D30E0BA016F5F7F4F51
:1040E000637077272617370781F0405D5B4F902F6D
:1040F0009F77DA0114969C931F5F1370109332041C
:10410000909130049F5F90933004082E000C990B1F
:1041100062E070E00E94452680830F5FF0903304D8
:104120001091320480912F04081708F4A8CF90E072
:104130001CEF63E0F62E0DEF72E0D72E8091330472
:1041400020913204281709F474C0E82FF0E0EC5CE9
:10415000FB4F9081C92EE894C7F88F5F83708093DE
:104160003304809131048F5F8093310497FD32C016
:10417000C9A21AA30E94F21BBC018BA39CA3FDA29F
:10418000F1E0FEA349A15AA183E091E00E94141836
:104190008FE39CE90197F1F700C00000CFA218A7B8
:1041A0000E94F21B282F83E031C08F3F0CF0ADCF6F
:1041B000412F50E02F2D30E0BA016F5F7F4F6370C9
:1041C00077272617370709F4A0CF405D5B4F902F64
:1041D00090688FCFC9A20AA30E94F21BBC018BA3D7
:1041E0009CA3DDA2B1E0BEA349A15AA182E091E067
:1041F0000E941418EFE3FCE93197F1F700C00000CA
:10420000CFA208A70E94F21B282F82E0622F792FED
:1042100029A79AA78BA71CA64FA158A590E00E949A
:104220001418AFE3BCE91197F1F700C0000091E06A
:1042300085CF992339F00E9485080E94211A0E9497
:10424000011904C00E94211AE110F9CF0E947808D8
:1042500090913904891721F0809339040E948508D0
:1042600080914204843009F01FCE83E08093E900FE
:104270008091E80082FF18CE8091E80085FD06C09D
:104280008091E8008B778093E8000ECE0E94310980
:1042900050E2E52EF12C8E010F5F1F4F8823D9F0DD
:1042A0008091E8008B778093E8008981EFEFE80F39
:1042B000E53158F5F0E0E653F64D0C94592680911F
:1042C000F100F8018083F1E0EF1AF108E114F10444
:1042D00039F30F5F1F4F8091E80085FDF0CF80918B
:1042E000E8008B778093E8000E943109882399F3D6
:1042F000D7CF1A828CE08B831AC08A81833049F130
:1043000038F4813061F08230D9F08FEF89830FC0AB
:104310008430D9F71B821C821D821E8208C00E9435
:1043200085080E945F266B837C838D839E8340E299
:1043300050E0BE016F5F7F4F82E00E945F0AB4CD04
:1043400087E290E00E9451291B821C821D828E838D
:10435000EECF8B8190E0FE0131963296843091054C
:1043600034F79C013327220F331FD901A65CBB4FC2
:104370002D5A3E4F4D915C91D9012D913C912423B2
:104380003523318322830196E8CF8A81823079F008
:10439000853009F0BACF8091610480FF19C0809107
:1043A00061048E7F809361040E941A08C0CF8B81C4
:1043B0009C81AD81BE818DA79EA7AFA7B8ABBC0184
:1043C000CD010E945F2687E290E00E947529AFCF61
:1043D00081608093610460E0869586950E947E11DD
:1043E000A6CF4C816B818A810E94CB0A98278927AE
:1043F00098279E838D839BCF2D813E813227232753
:1044000032274C816B818A810E94B00F90CF0E942D
:1044100002108DCF9A81923009F077CF8830E1F188
:10442000893009F465C08B81833091F1B0F481301B
:10443000E9F0823009F07BCF8C81882309F4AFCF7B
:104440008091610481608093610460E08695869527
:104450000E947E1160E08C81C1CF843009F067CF6B
:1044600020E0409164046D818C810FC08C81A8E7AD
:104470008A9FC00111246FEF70E00E94EE25462F45
:1044800020E060916304809162040E94F8104FCF95
:104490008C81809365044BCF8B81833031F168F43C
:1044A0008130A9F0823009F042CF8091610480FF11
:1044B0001AC0869586958C833ACF843009F037CF21
:1044C000809162048C83809163048D8330CF8091CE
:1044D0006404BFEF8B9FC001112468E770E00E9465
:1044E000EE256C8324CF80E0E6CF80916504E3CF96
:1044F00020916104309162044091630450916404FE
:1045000060916504709166048091670490916804DD
:104510000E949E100CCF80E18A8309CF82E08A83BB
:1045200084ECE9CECA80DB80DC24CD24DC248C81C1
:104530007601E80EF11C8E010B5F1F4FEC14FD0499
:1045400009F4F5CE80E0E4ECCE16E2E0DE0628F4D5
:10455000C601845C9E4F0E945129D8018D938D0124
:10456000BFEFCB1ADB0AEACF0A811B811027012794
:104570001027FE0131966F01EC80EE0EFF2EF11C2C
:10458000EC14FD0409F4D3CE043CF2E01F0740F420
:10459000D60114966C91C801845C9E4F0E947529C7
:1045A0000F5F1F4FBFEFCB1ADB0AEACF0E946010EC
:1045B000BECE83E0B1CFCA80DB80DC24CD24DC24F6
:1045C0008C817601E80EF11C8E010B5F1F4FCE141B
:1045D000DF0409F4ACCE80E0E0EFCE16D10420F485
:1045E000C60188960E945129D8018D938D01BFEF95
:1045F000CB1ADB0AECCF0A811B8110270127102779
:10460000FE0131966F01EC80EE0EFF2EF11CCE14F0
:10461000DF0409F48CCE003F110538F4D60114965E
:104620006C91C80188960E9475290F5F1F4FBFEFDC
:10463000CB1ADB0AECCF41E08C81811101C040E054
:104640006B818A810E94FA0AD1CE2D813E81322768
:104650002327322741E08C81811101C040E06B812A
:104660008A810E94D70F63CE78941F921FB61F9243
:1046700011248F939F93AF93BF9380918401909166
:104680008501A0918601B09187010196A11DB11D00
:104690008093840190938501A0938601B093870154
:1046A000BF91AF919F918F911F901FBE1F90189542
:1046B0001F920F920FB60F9211242F933F934F9397
:1046C0005F936F937F938F939F93AF93BF93EF937A
:1046D000FF938091E10082FF09C08091E20082FF98
:1046E00005C08091E1008B7F8093E1008091DA002A
:1046F00080FF24C08091D80080FF20C08091DA0024
:104700008E7F8093DA008091D90080FF9BC080E18A
:1047100089BD82E189BD09B400FEFDCF81E08093AF
:10472000420480917201811109C00E9462090E94B5
:10473000B8098091E20084608093E2008091E100FA
:1047400080FF17C08091E20080FF13C08091E200DB
:104750008E7F8093E2008091E20080618093E2008E
:104760008091D80080628093D80019BC85E0809346
:1047700042048091E10084FF29C08091E20084FF1F
:1047800025C080E189BD82E189BD09B400FEFDCF6D
:104790008091D8008F7D8093D8008091E1008F7E3A
:1047A0008093E1008091E2008F7E8093E20080910F
:1047B000E20081608093E20080917101882309F416
:1047C00047C084E080934204809142048091E100DC
:1047D00083FF27C08091E20083FF23C08091E10026
:1047E000877F8093E10082E0809342041092710100
:1047F0008091E1008E7F8093E1008091E2008E7FC6
:104800008093E2008091E20080618093E20042E0C8
:1048100060E080E00E9481098091F00088608093D0
:10482000F000FF91EF91BF91AF919F918F917F9198
:104830006F915F914F913F912F910F900FBE0F900D
:104840001F90189519BC109242041092720176CFF5
:104850008091E30087FF02C083E0B4CF81E0B2CF54
:104860001F920F920FB60F921124FF920F931F9376
:104870002F933F934F935F936F937F938F939F9368
:10488000AF93BF93CF93DF93EF93FF9309EE10E0C5
:10489000F8018081C091EC00C795CC27C7958F7037
:1048A000FC2EF82A1082C0EFD0E08881877F8883B1
:1048B00078940E945E0CF801108288818860888359
:1048C000CF2DCF70C083FF91EF91DF91CF91BF913A
:1048D000AF919F918F917F916F915F914F913F9198
:1048E0002F911F910F91FF900F900FBE0F901F906F
:1048F0001895FF920F931F93CF93DF93182FEB011F
:104900001092BC0084EA8093BC000E94F21B082F26
:10491000F92E8091BC0087FF28C08091B900887F64
:10492000883029F08091B900887F8031A1F51093FB
:10493000BB0084E88093BC000E94F21B182F092F53
:104940008091BC0087FF1FC02091B900287F80E0C4
:1049500090E0283199F081E090E0203411F480E07B
:1049600090E091958195910909C0802F9F2D0E941B
:10497000211CC817D90768F68EEF9FEFCDB7DEB7B9
:10498000E5E00C942B26812F902F0E94211CC81744
:10499000D907B0F6F1CF8FEF9FEFF0CF1092B900AB
:1049A0008CE08093B80008950F931F93CF93DF930B
:1049B000EB018093BB0084E88093BC000E94F21B53
:1049C000182F092F8091BC0087FF11C02091B900DA
:1049D000287F81E090E0283211F480E090E091950A
:1049E00081959109DF91CF911F910F910895CF3F4C
:1049F000DC0741F3812F902F0E94211CC817D90793
:104A000008F78EEF9FEFEECFA0E0B0E0EAE0F5E22E
:104A10000C940726782E5B016A0189010E94F21B23
:104A20004C010431110560F10F3F100769F1C80115
:104A300064E170E00E94EE25F62EE72E6F2D7E2DAC
:104A4000872D0E947924EC0197FF09C00F3F1007C2
:104A5000A9F3C4010E94211C0817190778F77501F2
:104A6000CA0CDB1CEC14FD0411F0D7FF10C084E964
:104A70008093BC00CE01CDB7DEB7EDE00C942326C9
:104A8000FF24F394E12CDACF85E0F82EFBCFB801B8
:104A9000F70181917F010E94D424EC01E3CFA0E0D3
:104AA000B0E0E5E5F5E20C940726782E5B016A019B
:104AB00089010E94F21B4C010431110560F10F3F86
:104AC000100769F1C80164E170E00E94EE25F62E3E
:104AD000E72E6F2D7E2D872D0E947924EC0197FF04
:104AE00009C00F3F1007A9F3C4010E94211C081739
:104AF000190778F77501CA0CDB1CEC14FD0411F0E2
:104B0000D7FF10C084E98093BC00CE01CDB7DEB7DB
:104B1000EDE00C942326FF24F394E12CDACF85E01A
:104B2000F82EFBCFF7018491B8010E94D424EC0148
:104B3000FFEFEF1AFF0AE1CFA0E0B0E0E2EAF5E212
:104B40000C940626682E962E5A01690178010E945F
:104B5000F21B782E892E0431110530F10F3F10071A
:104B600031F1C80164E170E00E94EE25162F072F95
:104B7000612F702F862D0E947924EC0197FF19C0B8
:104B8000FFEFEF16FF06A1F3872D982D0E94211C41
:104B9000E816F90668F784E98093BC00CE01CDB72A
:104BA000DEB7EEE00C94222611E000E0E1CF15E044
:104BB000FCCFB701892D0E94D424EC018501CA0CD9
:104BC000DB1C0C151D0539F3D7FDE5CFB701F80146
:104BD00081918F010E94D424EC01F3CFAA1BBB1B4F
:104BE00051E107C0AA1FBB1FA617B70710F0A61BED
:104BF000B70B881F991F5A95A9F780959095BC010E
:104C0000CD0108952F923F924F925F926F927F92C3
:104C10008F929F92AF92BF92CF92DF92EF92FF92CC
:104C20000F931F93CF93DF93CDB7DEB7CA1BDB0B78
:104C30000FB6F894DEBF0FBECDBF09942A8839881D
:104C400048885F846E847D848C849B84AA84B98424
:104C5000C884DF80EE80FD800C811B81AA81B98130
:104C6000CE0FD11D0FB6F894DEBF0FBECDBFED0144
:104C70000895991B79E004C0991F961708F0961BB8
:104C8000881F7A95C9F78095089597FB072E16F42B
:104C9000009407D077FD09D00E94EE2507FC05D0CF
:104CA0003EF4909581959F4F0895709561957F4F43
:104CB0000895EE0FFF1F0590F491E02D09946927E8
:104CC000962769277827872778270895002E0830A8
:104CD00090F0982F872F762F652F542F432F322F48
:104CE00022270850F4CF220F331F441F551F661F81
:104CF000771F881F991F0A95B2F7002D089597FD19
:104D00001094002E083098F00850232F342F452F90
:104D1000562F672F782F892F912DF4CF15949795C3
:104D200087957795679557954795379527950A9570
:104D3000AAF71124002D0895FB01DC0102C00590A3
:104D40000D9241505040D8F70895FB01DC0104C09A
:104D50008D910190801921F441505040C8F7881B73
:104D6000990B0895AEE0B0E0E8EBF6E20C94102663
:104D70000D891E898F89988D26E02C831A830983DB
:104D800097FF02C080E090E801979E838D83AE017B
:104D9000455E5F4F698D7A8DCE0101960E94E226B5
:104DA0004D815E8157FD0AC02F8138854217530718
:104DB0000CF49A01020F131FF80110822E96E4E002
:104DC0000C942C26ABE0B0E0E8EEF6E20C94022660
:104DD0007C013B018A01FC0117821682838181FFDD
:104DE000B9C19AE0292ECE0101965C01F7019381A9
:104DF000F30193FD859193FF81913F01882309F48D
:104E000046C1853239F493FD859193FF81913F012D
:104E1000853229F4B70190E00E94C328E7CF912C96
:104E2000412C512CFFE1F51538F08B3209F188F453
:104E3000803201F1833221F157FC3AC020ED280F76
:104E40002A3040F556FE1FC0929C200D1124922E50
:104E500006C08D3291F0803379F7689450F8F301F1
:104E600093FD859193FF81913F018111DBCF20C09C
:104E7000689451F8689452F8F2CF689453F8EFCFE1
:104E8000689454F8ECCF429C200D1124422E689473
:104E900055F8E5CF8E3229F456FCF9C0689456F8DF
:104EA000DECF8C3619F4689457F8D9CF8836B9F22A
:104EB000982F9F7D95549330C0F08336A1F18337AE
:104EC000C1F1833509F05BC0F801C190D1908F0129
:104ED000692D70E056FC02C06FEF7FEFC6010E94A3
:104EE000AD284C01689457F80AC00C5F1F4F2FE3A0
:104EF000298388248394912C6501E89457F853FC06
:104F000004C04814190409F018F5342C81149104D4
:104F100031F5332009F46ACFB70180E290E00E94B6
:104F2000C3283A94F6CFF801808189830E5F1F4F22
:104F3000E0CFF801C190D1908F01692D70E056FC4F
:104F400002C06FEF7FEFC6010E94B8284C01D5CF99
:104F5000B70180E290E00E94C3284A94D2CFF601C4
:104F600057FC859157FE81916F01B70190E00E9437
:104F7000C32831103A94F1E08F1A9108C7CF8436D4
:104F800019F0893609F074C0F80157FE6AC06191C2
:104F90007191819191918F01252D2F76D22E97FFBE
:104FA00009C090958095709561957F4F8F4F9F4F69
:104FB0006894D7F82AE030E0A5010E94F328C82EB3
:104FC000CA188C2C5D2CD6FE0CC0E89450F8C9147D
:104FD00040F4D4FE05C0D2FC03C0FD2DFE7E5F2E42
:104FE000892C54FE8FC0FE01EC0DF11D80818033B1
:104FF00009F081C0252D297E522E852D8870382EEE
:1050000053FC8FC050FE89C09C2C841418F44C0CA7
:10501000942C981854FE8BC0B70180E390E00E9456
:10502000C32852FE09C088E790E051FE02C088E51F
:1050300090E0B7010E94C328C91408F484C0CA9440
:10504000D12C9FEFC91AD90ACA0CDB1CF601829138
:105050006F01B70190E00E94C328AC14BD04B1F702
:1050600058CF61917191072E000C880B990B93CF4B
:10507000D52CE894D4F82AE030E0853739F1952D25
:10508000997FD92E8F3601F148F48835A9F0F701C0
:10509000868197812B96E2E10C941E26803749F099
:1050A0008837A9F7D4FE02C06894D2F820E130E036
:1050B0000DC06894D4F8F6CF54FE03C0E92FE66023
:1050C000DE2E20E132E002C028E030E0F801D7FE19
:1050D0000DC061917191819191918F01A5010E9403
:1050E000F328C82ECA18E894D7F86BCF6191719154
:1050F00090E080E0F2CF52FC02C083947ECF839494
:1051000083947BCF852D867809F477CFF6CFB701CE
:1051100080E290E00E94C32883948414C0F3312C71
:1051200079CF342C3818841408F474CFF8CF852D37
:10513000867809F481CF8BE251FE80E257FC8DE244
:10514000B70190E077CFB70180E390E00E94C328D9
:105150009A9472CF8FEF9FEF9DCFFC010590615025
:1051600070400110D8F7809590958E0F9F1F08957D
:10517000FC016150704001900110D8F78095909526
:105180008E0F9F1F08950F931F93CF93DF93182FB8
:10519000092FEB018B8181FD09C01FEF0FEF812FDC
:1051A000902FDF91CF911F910F91089582FF14C02E
:1051B0002E813F818C819D81281739073CF4E8813D
:1051C000F981CF0101969983888310838E819F8115
:1051D00001969F838E83E3CFE885F985812F09951A
:1051E000892BA1F3DACFFA01AA27283051F1203117
:1051F00081F1E8946F936E7F6E5F7F4F8F4F9F4F6B
:10520000AF4FB1E03ED0B4E03CD0670F781F891FAC
:105210009A1FA11D680F791F8A1F911DA11D6A0F7A
:10522000711D811D911DA11D20D009F468943F912D
:105230002AE0269F11243019305D3193DEF6CF012C
:105240000895462F4770405D4193B3E00FD0C9F7F2
:10525000F6CF462F4F70405D4A3318F0495D31FD5F
:105260004052419302D0A9F7EACFB4E0A6959795B2
:10527000879577956795BA95C9F700976105710588
:1052800008959B01AC010A2E0694579547953795D2
:105290002795BA95C9F7620F731F841F951FA01D2C
:1052A0000895F999FECF92BD81BDF89A992780B5EE
:1052B0000895A6E1B0E044E050E00C949B29A8E1F9
:1052C000B0E042E050E00C949B29DC01A40FB51F34
:1052D0004150504048F0CB01840F951F2E910E9401
:1052E000762941505040D0F70895262FF999FECFE6
:1052F00092BD81BDF89A019700B4021639F01FBA29
:1053000020BD0FB6F894FA9AF99A0FBE0895039645
:10531000272F0E9476290E947529252F0E94762921
:10532000242F0C9476290196272F0E9476290C941D
:105330007529DC01CB01FC01F999FECF06C0F2BD55
:10534000E1BDF89A319600B40D9241505040B8F743
:105350000895F894FFCF3B0D610D670D610D670D4A
:10536000BA0DDC0D670DD90EE60E1E144214491459
:105370004E14531458145D14621467146C14711491
:1053800076148C128C128C128C128C128C12791452
:105390008C128C1279217D21C521F121FC2107225B
:1053A0000A220A220A22852185218B228E2292221C
:0E53B000B422D622D922DB22FB221B23252386
:1053BE00010021007F22000392946697F4F5F6F720
:1053CE0031B3089D0AB608B708B808000000005FA0
:1053DE005F5F5F5F0000256400C6353234363300F0
:1053EE000810181810080000010202020202020240
:1053FE0002020200FF0100010000FFFF0000010099
:0C540E0001FF00EF03EE03EF03EF0300CB
:00000001FF
