:100000000C94B0030C94CD030C94CD030C94CD034D
:100010000C94CD030C94CD030C94CD030C94CD0320
:100020000C94CD030C94CD030C94A71D0C947E1E50
:100030000C943B180C94CD030C94CD030C94CD037D
:100040000C94CD030C94CD030C94CD030C94CD03F0
:100050000C94CD030C94831D0C94CD030C94CD0310
:100060000C94CD030C94CD030C94CD030C94CD03D0
:100070000C94CD030C94CD030C94CD030C94CD03C0
:100080000C94CD030C94CD030C94CD030C94CD03B0
:100090000C94CD030C94CD030C94CD030C94CD03A0
:1000A0000C94CD030C94CD030C94CD0300AF00AEA3
:1000B00000000000000000002F0000000007000703
:1000C0000000123F123F1200242A7F2A1200360934
:1000D0001E241B001826291228000000070000001B
:1000E000001E214000000040211E000014083E08B0
:1000F000140008083E0808000000307000000808DE
:100100000808080000003030000020100C02010038
:100110001E2925231E0000223F200000223129290C
:100120002600122125251A001814123F1000172549
:10013000252518001E252525180001310905030075
:100140001A2525251A00062929291E000000333307
:10015000000000003373000008141422220014145D
:1001600014141400222214140800020129050200AC
:100170003E59555D3E003816111638003F2525259D
:100180001A001E21212112003F2121211E003F259E
:10019000252521003F09090901001E2121291A00F6
:1001A0003F0404043F0000213F21000010202020D4
:1001B0001F003F040C1221003F20202020003F029E
:1001C00004023F003F020C103F001E2121211E00AF
:1001D0003F09090906001E2129112E003F090919AE
:1001E000260012252529120001013F0101001F20D0
:1001F00020201F000718201807000F300C300F00B8
:1002000021120C1221000304380403003129252394
:100210002100007F4141000001020C10200000413C
:10022000417F0000040201020400404040404000C1
:10023000000103040000102A2A2A3C003F24222245
:100240001C001C22222224001C2222243F001C2AE3
:100250002A2A0C0000043E0505000C5252543E00B0
:100260003F080404380000003D0000002040403DED
:1002700000003F080814220000013F2000003E0259
:100280003C023C003E0402023C001C2222221C00D4
:100290007E1422221C001C2222147E003E04020234
:1002A0000400242A2A2A120000021F2200001E2015
:1002B00020103E000618201806000E300C300E00EC
:1002C0002214081422000E5050483E0022322A26E2
:1002D000220008087741410000007F0000004141F2
:1002E00077080800180408100C0000000000000047
:1002F0000000381C0CCCCCCCFC3800180C8CCC7C0E
:1003000038000080C0404040404040C0800000C0F5
:1003100047CF4C4C4C4C4743404E4F49484848C04F
:1003200040FF0001FD0101FD0100FF0000FF007F13
:10033000808080808080808080808080807F00FFBF
:100340000000FF0000FF0000FF00000F0A0908087E
:100350000808080808080808080808090A0D02041F
:100360000404040404020100000000000000000076
:10037000000000000000000000000000000000007D
:10038000000000000000000000000000000000006D
:10039000000000000000000000000000000000005D
:1003A000000000000000000000000000000000004D
:1003B000000000000000000000000000000000003D
:1003C000000000000000000000000000000000002D
:1003D000000000000000000000000000000000001D
:1003E000000000000000000000000000000000000D
:1003F00000000000000000000000000000000000FD
:1004000000000000000000000000000000000000EC
:1004100005010906A101050719E029E715002501D5
:10042000950875018102950175088101050719007C
:1004300029FF150026FF009506750881000508199B
:100440000129051500250195057501910295017594
:10045000039101C009022200010100A0FA09040071
:1004600000010301010009211101000122440007DC
:100470000581030800011201000200000008328813
:10048000328800010102000120036600720065004D
:1004900065006100640072007300330032005F0089
:1004A0006B006E006F0062000000220354006100C8
:1004B0006B0061006800690072006F0020004E0050
:1004C00061007400730075006D0065000000040396
:1004D000090420002020002000522043202000207A
:1004E000004B657920200020004C6179657200FF87
:1004F000AA7F554000010101010101010101020231
:1005000002020202020202030303030303030304C1
:10051000040404040404050505050506060606068C
:10052000070707070708080808090909090A0A0A46
:100530000B0B0B0C0C0C0D0D0D0E0E0E0F0F0F10E8
:100540001011111112121313141415151616171772
:10055000181819191A1A1B1B1C1D1D1E1E1F2020DE
:10056000212222232424252626272829292A2B2C28
:100570002D2D2E2F30313232333435363738393A4B
:100580003B3C3D3E3F404142434445464748494A43
:100590004C4D4E4F50515354555658595A5B5D5E11
:1005A0005F616264656668696B6C6D6F70727375AC
:1005B00077787A7B7D7E8082838587888A8C8E8F10
:1005C00091939596989A9C9EA0A2A3A5A7A9ABAD3E
:1005D000AFB1B3B5B7BABCBEC0C2C4C6C9CBCDCF2C
:1005E000D1D4D6D8DBDDDFE2E4E7E9EBEEF0F3F5DA
:1005F000F8FAFDFF00DA0281FFD9F1DB20A4A62E74
:10060000AF00A0C0D30000A1C8D30000AED580A821
:100610001F408D14200029001E001F002000000034
:1006200021002200230024002500000014001A00ED
:1006300008000000150017001C0018000C001E0028
:10064000E100040016000000070009000A000B008A
:100650000D001E00E2001D001B0000000600190036
:1006600021521000280029021E021F022002000051
:1006700021022202230224022502000014021A028F
:1006800008020000150217021C0218020C021E02CA
:10069000E100040216020000070209020A020B022E
:1006A0000D021E02E2001D021B02000006021902DA
:1006B0002152104228000100010001000100000049
:1006C0000100010001000100010000000100010023
:1006D0000100000001000100010001000100010013
:1006E0000100010001000000010001000100010003
:1006F00001000100010001000100000001000100F3
:100700000100010001004E004B00510052004F005B
:1007100050004E004B00510052004F0050004E0060
:100720004B00510052004F005000616263646566E7
:100730006768696A6B6C6D6E6F70717273747576D1
:100740007778797A31323334353637383930524523
:1007500042545F2D3D5B5D5C233B27602C2E2F00B8
:1007600011241FBECFEFDAE0DEBFCDBF11E0A0E065
:10077000B1E0E2E2F8E402C005900D92AC35B107B9
:10078000D9F724E0ACE5B1E001C01D92A33BB2076C
:10079000E1F70E9480190C94F0230C940000F89467
:1007A000E82FE295EF70F0E041A18F7021E030E09A
:1007B000B90102C0660F771F8A95E2F7CB01962F29
:1007C0009095942391A392A1892B82A37894089564
:1007D000F894E82FE295EF70F0E041A18F7021E0EE
:1007E00030E0B90102C0660F771F8A95E2F7CB01AE
:1007F000942F982B91A392A18095892382A378941A
:100800000895982F82958F70882311F0982F84E097
:10081000292F26952695222311F08E5F922F9695EB
:1008200091118F5F089580936C04089580936D04F7
:10083000089521E030E001C0220F8A95EAF7809107
:100840006D04822B0E941604089521E030E0A90176
:1008500002C0440F551F8A95E2F7CA018095909116
:100860006D0489230E94160408959B01677091E02E
:1008700001C0990F6A95EAF763E0369527956A9566
:10088000E1F7B901660F771F260F371FFA01E20F54
:10089000F31F40E050E0682F70E08191DF01119775
:1008A0009B01042E02C0369527950A94E2F7217029
:1008B00021952827292328272C934F5F5F4F43300A
:1008C000510559F708959C01A82FA77083E036952C
:1008D00027958A95E1F7C901880F991F820F931F09
:1008E000FB01E80FF91F40E050E080E0219130E08B
:1008F0000A2E02C0369527950A94E2F72170332715
:10090000042E01C0220F0A94EAF7822B4F5F5F4F3B
:100910004330510559F70895282F862F943070F4ED
:100920002A3058F4622F70E02AE0929F600D711D0A
:10093000112442E554E00E94350408959C5F9230F2
:10094000E0F7622F70E04FE454E0F5CF292F9430A8
:1009500068F48A3090F490E062E574E03AE0239F16
:10096000800D911D11240E94630408952C5F223094
:1009700020F46FE474E090E0F6CF80E00895809179
:10098000730490917204981301C008958F5F87706B
:10099000FACF90916E048095892380936E04282F5E
:1009A000277021110DC0891759F09091700492FFA2
:1009B00007C08695869586950E94250410926E0440
:1009C0000895982F909580916904892380936904F4
:1009D00008957430C8F46A3008F040C0833008F0DD
:1009E00040C0E62FF0E09AE0799FE00DF11D112460
:1009F00098E2899FE00DF11D1124EE0FFF1FEA5EC2
:100A0000F94F8591949108957D3F99F4633030F5C5
:100A1000833038F590E0FC01EE0FFF1FE80FF91F5F
:100A2000E60FF11DEE0FFF1FEE0FFF1FEA5FF84FFD
:100A3000E8CF7C3F99F4633088F4833090F490E001
:100A4000FC01EE0FFF1FE80FF91FE60FF11DEE0F7F
:100A5000FF1FEE0FFF1FE85FF84FD3CF80E090E05D
:100A6000089581E0FCCF803E9105D1F1C8F4813337
:100A7000910509F47FC048F48932910509F46FC0EB
:100A80008A32910509F47DC0089589339105E1F01A
:100A900082389105C9F08533910509F45BC008954A
:100AA000843E9105D1F148F4823E910531F1833EB7
:100AB000910541F181EE90E00895863E9105C1F1E6
:100AC000873E9105E1F1089520916F042370211173
:100AD00065C02091700423FF14C089E290E008955E
:100AE00020916F0420FD43C03091700430FF09C095
:100AF00024FF4EC080E090E0089520916F0422FD15
:100B0000F7CF089520916F0422FD45C03091700405
:100B100030FD44C024FFF5CFEDCF2091700421FFBC
:100B2000F0CF80916F0484FDE5CF87EE90E00895CB
:100B300020916F0423FFE5CF24FDDCCFF6CF209179
:100B40006F0423FD2EC03091700431FFE3CF84EE9B
:100B500090E0089520916F0425FFD3CFBECF209160
:100B60006F0425FD21C02091700423FFCACF89E3C3
:100B700090E0089520916F0426FFC3CF8AE290E0B1
:100B8000089520916F0426FFBCCF81E390E0089583
:100B900083EE90E0089582EE90E0089580EE90E07C
:100BA000089586EE90E0089585E390E0AACF9091B5
:100BB0006F0492FF10C041E0282F2471243009F007
:100BC00040E031E0282F2871283009F030E0431749
:100BD00011F02CE0822793FF10C041E0282F2471F0
:100BE000243109F040E031E0282F2871283109F044
:100BF00030E0431711F02CE082273091700430FF71
:100C000010C051E0282F2171213009F050E041E05F
:100C1000282F2871283009F040E0541711F029E0FE
:100C2000822731FF10C041E0282F2171213109F0C6
:100C300040E031E0282F2871283109F030E04317D7
:100C400011F029E0822794FD877E08951F93CF93AA
:100C5000DF930E943305EC01811522E5920708F02D
:100C60004DC0811540E5940708F0C5C0883E910548
:100C700088F0811550E4950728F199270E943305E3
:100C8000CC27DF70C82BD92BD06ACE01DF91CF9152
:100C90001F910895803E9105C0F7853A910550F463
:100CA000049798F781E0219709F080E0C82F80E051
:100CB000D82FEBCF8D5C9109D065439730F3C0E01E
:100CC000D0E0E3CFC11590E2D90708F0ADC0CE0166
:100CD0009A9581159F4198F78D2F0E94D705182F5F
:100CE000CE0199270E943305212F30E0322F222791
:100CF000E901CC27DF71C82BD92BC7CF803842E55B
:100D00009407C0F5803652E5950708F055C0C03409
:100D100082E5D807B0F08C2F86958695877020E203
:100D2000829FC0011124C37021E030E0A90102C0FC
:100D3000440F551FCA95E2F7EA01C82BD92BDC688E
:100D4000A4CFC03252E5D50780F58C2F86958695C5
:100D500020E2829FC0011124C37021E030E0A9018C
:100D600002C0440F551FCA95E2F7EA01C82BD92BE0
:100D7000DD688BCF803C52E5950758F48F71C03AFF
:100D8000D24578F590E0982F8827EC01C46FD06A9F
:100D90007CCF805C9245809708F091CFDC2FCC27E8
:100DA000CC27DF71C06FD06A70CFCF71D0E0DC2F5D
:100DB000CC27C16FD06A69CF86958695877020E26F
:100DC000829FC0011124C37021E030E0A90102C05C
:100DD000440F551FCA95E2F7EA01C82BD92BDA68F0
:100DE00054CF0E94D705C82FD0E0DC2FCC27CC27CA
:100DF000DF71D0624ACF8F710E94D70565E0D6952A
:100E0000C7956A95E1F7CF70D0E0DC2FCC27282F6B
:100E100030E084FF05C054E0220F331F5A95E1F7FC
:100E2000C22BD32BD06931CF8D2F8F710E94D70564
:100E3000182FCE0199270E943305212F30E0322F41
:100E4000222722273F71282B392BE901D2CFA0E09E
:100E5000B0E0EDE2F7E00C945B207C0100916D04C2
:100E600080916C04082BC7E0D0E010E0C8010C2E84
:100E700002C0959587950A94E2F780FD09C02197F5
:100E8000A8F7D12C8D2DCDB7DEB7E7E00C947720F5
:100E9000DC2EB7018C2F0E94E9040E9426060197E0
:100EA00071F3F0CF0F931F93CF93FC0185810081E5
:100EB0001181882391F0662381F0C8010E942707E1
:100EC000C82F682FC8010E948C04B8018C2F0E9483
:100ED000E904CF911F910F910895C8010E94A604C3
:100EE000C82FF3CFCF93DF93D82FC92F0E942707A6
:100EF0006D2F7C2F0E94E9040E942606DF91CF917E
:100F00000895FC0184818823A1F0808191810E9451
:100F10007207282F92959F70963091F060F4925F3F
:100F20009F70923030F481E0203F79F030F4283E19
:100F300030F080E004C09A5FF3CF243FD1F70895EA
:100F400081E0283E18F0213FF9CF0895089580E010
:100F50000895A0E0B0E0EFEAF7E00C945820E90132
:100F6000E42FF0E0EC50FB4F61110BC0E4919E2F99
:100F70008E2F8983E8839A83CDB7DEB7EAE00C949D
:100F80007420282F30E0062F10E0F491EF2F86E038
:100F9000829F6001839FD00C1124EE24EA94F12CEF
:100FA000C601B7010E943C20220F331F45E5469F32
:100FB000C001479F900D1124281B390B822F880FE9
:100FC000280FC701801B910BF89FA001F99F500DBE
:100FD0001124952F209F5001219FB00C1124AB2C80
:100FE000BB24D701AA19BB095D01FA9DD001FB9D65
:100FF000B00D11248B2F5701A21AB1089501209F23
:101000005001219FB00C309FB00C1124AB2CBB249D
:10101000EA18FB08FE9D9001FF9D300D11246330FE
:101020007105C9F01CEFC11613E0D10650F4613010
:10103000710509F49ECF6230710589F08E2FE32F80
:1010400098CF6430710571F066307105B9F3E52F02
:101050009B2F8F2F8ECFEB2F852F9F2F8ACF852F02
:10106000932F87CF832FE52FF8CF809161048430B1
:1010700060F4837084608093610480916404893794
:1010800018F088E78093640408958033B0F3837088
:101090008C62F1CF8091610480FD0AC0ECEAF3E03C
:1010A000118210821282339684E0EC30F807C1F787
:1010B00060E270E08CEA93E00E94490A0895FA0128
:1010C000882311F009950895FB01FCCF90E0662379
:1010D000E9F0845D9E4FFC0180818F3FB1F0E82FE5
:1010E000E295EF70F0E041A18F7021E030E0B901AE
:1010F00002C0660F771F8A95E2F7CB01962F909575
:10110000942391A392A1892B82A30895875D9E4F7A
:10111000E2CF90E06623A9F0845D9E4FFC01208120
:101120002F3F91F0E22FE295EF70E05EF0E08081DA
:1011300090E02F7002C0959587952A95E2F781700F
:101140000895875D9E4FEACF80E00895539A0895F1
:10115000E0914504F0914604309729F00190F08128
:10116000E02D0995089580E00895A4E0B0E0EBEB50
:10117000F8E00C9460208FB7F894209184013091AE
:101180008501409186015091870129833A834B83E1
:101190005C838FBF69817A818B819C812496E2E098
:1011A0000C947C20809183010895089508950895FA
:1011B000FC019B018091790190917A018617970734
:1011C00040F0672B29F48091E8008E778093E80047
:1011D000C90140E0009741F4411106C08091E80048
:1011E00082FF2FC080E00895209120042223A9F1DE
:1011F0002530A9F12091E80023FD2DC02091E800C1
:1012000022FDECCF2091E80020FFE4CF3091F300E5
:101210002091F200009719F02830310558F041E094
:101220002830310509F040E02091E8002E77209326
:10123000E800D0CF41914093F10001972F5F3F4FDD
:10124000E9CF80912004882341F0853041F08091DE
:10125000E80083FFC3CF81E0089582E0089583E032
:1012600008958091730187FF13C08091E80082FF89
:1012700006C08091E8008B778093E80004C08091DD
:1012800020048111F2CF0895809120048823D9F39E
:101290008091E80080FFF8CF8091E8008E77ECCF56
:1012A0002091E4003091E50095E6A9018091EC00E1
:1012B0008170882331F08091E80080FF06C080E0D3
:1012C00008952091E80022FD1BC08091200488230E
:1012D00091F0853091F08091EB0085FD10C0209158
:1012E000E4003091E5004217530701F3915091114A
:1012F000DCCF84E0089582E0089583E0089581E0E2
:101300000895E8EDF0E080818E7F80831092E20006
:101310001092DA001092E100A0EEB0E08C918160B2
:101320008C9380818F77808319BCA7EDB0E08C917E
:101330008E7F8C9380818F7E8083109272010895BE
:10134000982F9093E900891771F05091EC0020914B
:10135000ED004091F00021FD09C09F5F973089F7B3
:101360008093E9000895562F40E022E03091EB0091
:101370003E7F3093EB003091ED003D7F3093ED00E8
:101380003091EB0031603093EB005093EC002093F0
:10139000ED004093F0002091EE0027FDDECF089590
:1013A000A0E0B0E0E6EDF9E00C945A20C8EDD0E002
:1013B00088818F7E8883E7EDF0E080818160808383
:1013C00084E082BF81E08093720188818E7F888370
:1013D00002EE10E0F80110821092DA0081EEC82EC1
:1013E000D12CF601108288818F778883888180686C
:1013F000888388818F7D888319BC10922004109285
:10140000710110921F041092700190EEE92EF12CE0
:10141000F70180818B7F808388818160888360E091
:1014200080E00E94A009F60180818E7F8083F80110
:10143000808181608083808188608083F7018081E2
:101440008E7F8083888180618883CDB7DEB7E8E0B6
:101450000C947620E09173049091720427E0E913D4
:1014600002C080E00895AE2FB0E02E9FF00111245D
:10147000EC58FB4F3181361306C03081381303C05E
:101480003581341304C0FD013196E770E8CF81E067
:1014900008959C01AB016BB1677F7BB17860EFB7BA
:1014A000F894CA01880F991F840F951F820F931F0C
:1014B0008217930741F4EFBF8FE594E00197F1F7AE
:1014C00000C000000895D9014D919D0158E07BB9FD
:1014D000000000C047FF6BB9440F000000C000C00F
:1014E00000C06BB900C05A9591F7E2CF0F931F93DC
:1014F000CF93DF93EC0180912004843059F581E093
:101500008093E9008FEF9091E80095FD07C095ED7D
:101510009A95F1F7000081508111F5CF8091E80094
:1015200085FF18C00E94500981110FC008E010E02B
:101530008091E80085FD13C08091E8008E7780934C
:10154000E8000E945009882399F38091E8008E7783
:101550008093E800DF91CF911F910F9108958881CA
:101560008093F100015011090115110571F32196C5
:10157000DFCFCF93DF93D82FC92F0E94760A88E060
:10158000ED2FFC2FABE7B1E001900D928A95E1F7CA
:10159000DF91CF9108959091700492FB222720F95A
:1015A000281779F080FB92F99093700460916F0492
:1015B0007091700484E090E00E94DA2382E00E943F
:1015C000C9040895ECEAF1E080E092E0DF019C01BB
:1015D0001D9221503040E1F7F093AB01E093AA0156
:1015E0008FEF9FEF9093A9018093A80108958091B8
:1015F000690490917104892B40916A04442389F015
:1016000090E020E631E0F90150812F5F3F4F51110A
:101610009F5F51E026363507B1F7911110926A04A9
:10162000842B80935E0148E050E067E474E08EE52F
:1016300091E00E94EC20892BA9F088E0EEE5F1E032
:10164000A7E4B4E001900D928A95E1F7E09145049A
:10165000F0914604309731F00280F381E02D8EE561
:1016600091E00995089510926904E0E6F1E086E0C2
:10167000DF011D928A95E9F7109271040E94F70A22
:1016800008950E94330B2FEF84E39CE021508040AB
:101690009040E1F700C0000088E19AE00FB6F894AE
:1016A000A895809360000FBE90936000FFCFAAE2E0
:1016B000B0E0EDE5FBE00C945F2083E791E0FC01F6
:1016C00001962091F100208321E08B379207B9F732
:1016D00080917401893009F456C0C8F4823009F44D
:1016E000B2C0833009F481C0813071F18091E8008B
:1016F00083FFE6C080917301909174019A3008F0E5
:10170000DFC0E92FF0E0EE50FC4D0C94A7208A30AA
:1017100009F488C08B3051F780917301813231F721
:101720008091770190917801892B01F78091E800F1
:10173000877F8093E8000E94310980917501809332
:1017400000010E94330BD2CF80917301813A71F670
:101750008091E800877F8093E800809177019091E5
:101760007801892B61F060E080E090E070E00E94F9
:10177000D8088091E8008B778093E800B7CF68E0C5
:101780008BE791E0F3CF80917301813209F0AECF06
:101790008091770190917801892B09F0A7CF8091F2
:1017A000E800877F8093E8008091E80082FF18C0FE
:1017B0009091F3008091F200029731F48091F10052
:1017C000813011F0863021F48091F1008093830103
:1017D0008091E8008B778093E8000E94310986CFE2
:1017E000809120048111E0CF81CF80917301813AF3
:1017F00009F07CCF8091770190917801892B09F0D5
:1018000075CF8091E800877F8093E8008091E800A1
:1018100080FFFCCF809100018093F1008091E8006F
:101820008E77D9CF80917301813209F05FCF80919B
:10183000E800877F8093E8000E943109809176015B
:1018400080936F0153CF80917301813A09F04ECF9D
:101850008091E800877F8093E8008091E80080FF16
:10186000FCCF80916F01D8CF803889F0823841F564
:10187000809177018F70873018F58093E90080910F
:10188000EB0085FB882780F91092E90006C0809163
:10189000700190911F04911182609091E800977FF0
:1018A0009093E8008093F1001092F1008091E8009D
:1018B0008E7723C0811116C080917501813011F19E
:1018C0008091E80083FF0AC08091E800877F8093C1
:1018D000E8008091EB0080628093EB00AA96E3E041
:1018E0000C947B20823061F780917501882389F008
:1018F0001092E9008091E800877F8093E8000E94C1
:101900003109DECF81E0933009F080E080931F043D
:10191000EFCF809177018F702FEF280F263080F660
:101920008093E9002091EB0020FFE2CF933031F467
:101930008091EB0080628093EB00DACF9091EB0016
:1019400090619093EB0021E030E0A90102C0440FC8
:10195000551F8A95E2F74093EA001092EA008091C1
:10196000EB008860E8CF8111ABCF109175011F7734
:101970008091E3008078812B8093E3008091E800E0
:10198000877F8093E8000E9431098091E80080FF02
:10199000FCCF8091E30080688093E30083E0111125
:1019A00001C082E0809320048BCF8058823008F001
:1019B00087CF20917501309176012C3D53E035079A
:1019C00099F583E08A838AE289834FB7F894DE0130
:1019D000139620E03EE051E2E32FF0E050935700F1
:1019E000849120FF03C082958F703F5F8F708A3093
:1019F000C8F0895C90E08D939D932F5F243161F74F
:101A00004FBF8091E800877F8093E8006AE270E032
:101A1000CE0101960E94D8088091E8008B778093D0
:101A2000E8004ECF805DE6CF40917701509178017C
:101A3000832F992783309105E1F060F4813091057F
:101A400009F468C0029709F03BCF82E290E0E4E538
:101A5000F4E024C08132910509F454C0829709F062
:101A60002FCF452B09F02CCF84E490E0E0E1F4E0A7
:101A700015C0C90199272130A9F18230910509F4D7
:101A800039C0892B09F01CCFEEECF4E0E4918E2FE5
:101A900090E0EEECF4E0009709F412CF2091E8001A
:101AA000277F2093E8002091790130917A018217F5
:101AB000930708F49C0140E02115310581F541119F
:101AC0002EC08091E80082FDA7CF8091200488235A
:101AD00009F4A2CF853009F49FCF8091E80083FFFD
:101AE000F0CF9ACFEAEAF4E0E4918E2F90E0EAEAB0
:101AF000F4E0D1CFE8E8F4E0E4918E2F90E0E8E85C
:101B0000F4E0C9CF452B09F0DBCE89E090E0E6E6B2
:101B1000F4E0C4CF82E190E0E6E7F4E0BFCF80914B
:101B20002004882309F478CF853009F475CF80919B
:101B3000E80083FD71CF8091E80082FDC2CF8091E3
:101B4000E80080FFB9CF9091F3008091F200211559
:101B5000310519F08830910550F041E0089709F0FF
:101B600040E08091E8008E778093E800A5CF449113
:101B70004093F1003196215031090196E8CF803829
:101B800009F09ECE8091E800877F8093E8008091E5
:101B900071018093F1008ACE811192CE109175016E
:101BA000123008F08DCE8091E800877F8093E800A6
:101BB000109371010E943109112351F084E0809348
:101BC000200461EC81E00E94A0098091200478CE7D
:101BD0008091E30087FDF2CF81E0F1CF0F931F9357
:101BE000CF93C82F882339F18CEF8C0F813AB0F551
:101BF00000E611E0F8018191C81709F181E0E636AD
:101C0000F807C9F7EFEF80E0D8019D918D01C91762
:101C100081F0EF3F19F4911101C0E82F8F5F8630FA
:101C200099F7EF3F31F00E2E000CFF0BE25AFE4FFA
:101C3000C2830E94F70ACF911F910F910895E0E6A9
:101C4000F1E08191C81303C0DF0111971C92A1E05C
:101C5000E636FA07B1F70E94F70AD4CF80E28C0F7C
:101C6000883048F7C77081E090E001C0880FCA95BE
:101C7000EAF7C0916904C82BC0936904DACF8823BE
:101C800091F09CEF980F913A78F4E0E6F1E09191B1
:101C9000891303C0DF0111971C9291E0E636F90722
:101CA000B1F70E94F70A089590E2980F9830D8F79C
:101CB000877091E001C0990F8A95EAF7892F0E94F9
:101CC000E104EFCF882339F090916904892B809348
:101CD00069040E94F70A0895882321F00E94E10414
:101CE0000E94F70A0895A0E0B0E0E9E7FEE00C9456
:101CF0005A208901D42FC52F6B017C010E94350821
:101D0000A8016D2F7C2F88E090E00E94CE239801DF
:101D10004D2F5C2FB601C70100E20E94C820622F40
:101D200083E290E00E94BC23CDB7DEB7E8E00C94DC
:101D3000762080916504833018F48F5F809365046A
:101D400020916104309162044091630450916404D5
:101D500060916504709166048091670490916804B5
:101D60000E94730E089580916504882319F08150B4
:101D70008093650420916104309162044091630472
:101D800050916404609165047091660480916704C9
:101D9000909168040E94730E0895A3E0B0E0E3ED13
:101DA000FEE00C945520E82ED62EF42E722E809153
:101DB000610480FF40C0982F96959695E92FF0E03A
:101DC000E95CFE4F20818C7F8430C9F528E7241719
:101DD00008F448E79E012F5F3F4F6D2D8E2D0E9426
:101DE000A9078091610480FF0FC08B8199812A81AE
:101DF000ECEAF3E0218390838283339634E0EC3085
:101E0000F307C1F70E944A08E0926204D09263048B
:101E1000F0926404772079F0209161046091650468
:101E2000709166043E2D4D2D5F2D80916704909139
:101E300068040E94730E2396EDE00C94712022300A
:101E400019F7EEEFE90F9170C92EE695F0E0E15138
:101E5000FB4FE4910E2F10E03CEAA32E33E0B32EAB
:101E6000812C912CC40125E0969587952A95E1F760
:101E7000C11015C08E0D4F2D38E73F1508F448E707
:101E800095016D2D0E94A907800E911E83E0A80E7A
:101E9000B11C9CE0A91694E0B90621F7B3CF2E2D12
:101EA000281B822FE8CF9091610490FF29C08823DE
:101EB00041F18C3040F58F73282F220F220F809133
:101EC00061048370282B20936104662381F0309194
:101ED00062044091630450916404609165047091C0
:101EE000660480916704909168040E94730E20E05C
:101EF0004091640460916304809162040E94CD0E5D
:101F0000089581E0D9CF8BE0D7CF80916104869589
:101F100086958F5F8C3008F081E061E00E94530F5E
:101F2000089590916104969596958FEF890F913061
:101F300009F48BE061E00E94530F089580916104E1
:101F400080FF09C086958695825C8F73893018F46E
:101F50000E94850F089561E082E00E94530F08956A
:101F6000A0E0B0E0E6EBFFE00C945A207C01FC011D
:101F70008481882309F40DC161E0C7010E945207E2
:101F80009C01F701458190931C0180931B01808186
:101F9000918190931E0180931D01F9013497E533DF
:101FA000F10508F0BCC0E65DF84FE4915FE544231D
:101FB00011F05E2FEFE5AFE1B1E080E090E06D91D0
:101FC0006E1376C0855E9E4FFC015483F7018581B8
:101FD000811180C0F701858100811181882309F476
:101FE00043C1C8010E942707C82F682FC8010E945B
:101FF0008C04B8018C2F0E94E9040E942606D82F79
:10200000C92FF701D580C680C2948FE0C822809185
:102010006E0487708823F9F00D2DDD20E9F0892FFB
:10202000807F803461F080E28D0F8830A0F0892FAE
:10203000807E803221F4D23070F0CC2061F080912B
:10204000700482FF08C082E00E94C90480916E047F
:10205000877001E0811100E08C2F82958F708830AD
:1020600009F4CFC108F005C1823008F414C1825FC1
:102070008F70823008F447C10023A9F080916E046C
:1020800080FD11C0F70115828695869586950E9480
:102090001904C7010E94B00F80916E048695869541
:1020A00086950E94250460E0C7010E94520771C016
:1020B00001968630910509F082CF442309F48ACF36
:1020C0002B358CE7380708F0B3C021309CE739077F
:1020D00009F4C6C02330ECE73E0709F4BBC0211564
:1020E0003C4709F077CF0E94330BEFEFF4E32CE08D
:1020F000E150F0402040E1F700C0000087E797E79B
:10210000909301088093000888E19AE00FB6F89454
:10211000A895809360000FBE90936000FFCF41119F
:1021200080C0809169048272F901E052F847E5317C
:10213000F10508F04FCFE450FC4D0C94A72080919E
:10214000610480FF2BC0282F2E7F209361043091E3
:10215000620440916304509164046091650470913D
:10216000660480916704909168040E94730E0E9437
:102170004A0880916E048770882359F0F7018581A1
:10218000882339F08091700482FF03C082E00E94AE
:10219000C904CDB7DEB7E8E00C9476208160809367
:1021A000610461E0869586950E94530FE2CF41E974
:1021B0005FE065E87FE00E945F08DBCF45E85FE015
:1021C00061E97FE0F8CF44E155E16AE075E1F3CFE2
:1021D0004AE055E164E175E1EECF4BE255E16EE195
:1021E00075E1E9CF4EE155E16BE275E1E4CF45E4FD
:1021F00055E168E375E1DFCF48E355E165E475E15A
:10220000DACF43EB5EE069E97EE0D5CF49E95EE0F5
:1022100063EB7EE0D0CF61E081E0C6CF0E949E0FED
:10222000A8CF2A35FCE73F0709F04ACF81E00FC06D
:102230002B358CE73807B1F02C353C4709F0CACE76
:102240008091700482FB882780F991E089270E94A1
:10225000CB0AC0CE6FEF7FEF80E090E00E94DA23E0
:102260000E94410B80E0F3CFC8010E94A604C82F52
:10227000C0CE893009F434C18A5F8F70823008F093
:10228000FBCED23F09F03DC18C2F8F71D11036C1EA
:102290000E941904E3C01C2F1F70C03110F012956A
:1022A000107FDD20B9F0112369F080E28D0F8830B6
:1022B00010F0D11109C080916904812B80936904C9
:1022C0000E94F70A8D2F41C080917104812B809369
:1022D0007104F6CF8D2F0E943F0E112309F4CCCE4E
:1022E00080E28D0F883010F0D11104C0812F0E9440
:1022F000E10406C0109580917104812380937104DC
:102300000E94F70AB9CE1C2F1F70C07FC03211F097
:102310001295107FDD2349F0D13009F452C0DD2041
:1023200009F45EC0CC20F9F0CDCF8091700482FD1D
:1023300016C0DD2069F0112339F080916904812BEA
:10234000809369040E94F70A80E00E94EE0D94CE0B
:1023500080E00E943F0E112309F48ECEC7CFDD200E
:10236000A1F0C11004C0812F0E94620E85CEF1E061
:10237000CF1282CE80916A04912F9823191709F405
:102380007BCE812B80936A0477CEC11075CE812FCE
:102390000E946C0E90916A04812F8923882329F072
:1023A000812F8095892380936A0480916B04912FFB
:1023B0009823992309F460CE1095182310936B0489
:1023C0005BCEDD2029F025E02C1508F455CECBCFCF
:1023D00034E03C1508F450CE812F0E946C0E4CCE98
:1023E000CC20D1F3D93349F48FEF97EEE3E081505D
:1023F0009040E040E1F700C000008D2F0E943F0EAA
:102400003BCE8C2F8370811134C0D11027C04D2F4B
:10241000429546954770440F440F8D2F8F70042EC0
:1024200001C0880F0A94EAF7D071DD2341F02FE054
:1024300030E001C0220F4A95EAF7D22FD095C69519
:10244000C695C370C23081F0C33061F020916C0436
:10245000C13039F08D2B82230E9413040E94A808FA
:102460000BCE822B8D2BF8CF8D2B90916C0489276E
:10247000F3CFDD2051F1C0FFF1CF4D2F42954695AE
:102480004770440F440F8D2F8F70042E01C0880FAA
:102490000A94EAF7D071DD2341F02FE030E001C06B
:1024A000220F4A95EAF7D22FD095C695C695C370EC
:1024B000C23089F0C33069F020916D04C13041F021
:1024C0008D2B82230E941604C9CF823038F2D5CFDB
:1024D000822B8D2BF7CF8D2B90916D048927F2CF16
:1024E000CF70DD2039F08C2F0E9419048D2F0E94AF
:1024F000620EB4CF8D2F0E946C0E8C2F0E9425048B
:10250000ADCFD33F70F4D03FB9F0D13FC9F1DD205A
:1025100009F458C0CC2009F452C08D2F0E94EE0D52
:102520009DCFD33FF1F0D43F39F1D110F3CFC1109B
:1025300057C08C2F8F71E2CFDD2081F0F4E0FC15C5
:1025400008F48CCFCF7181E090E09C0101C0220F94
:10255000CA95EAF780916D048227B4CF35E0C3169F
:10256000EFCF80E0DD2009F4ADCFCF7181E001C075
:10257000880FCA95EAF7A6CF9091700492FD06C025
:102580008C2F8F71DD2009F4B9CF82CEDD2061F070
:102590008C2F8F7192FF7CCE98E0899F900111243F
:1025A000236020936E0474CE81E00E94C904E1E0B0
:1025B000EC1508F053CF82E00E94C9044FCF8C2F56
:1025C0008F7166CECC2009F4B4CFD93349F4FFEF34
:1025D00027EE33E0F15020403040E1F700C000002A
:1025E0008D2F0E943F0E3ACF8091B204803178F453
:1025F0008091B104882359F0E09173042091720412
:102600003091AD044091AC0457E02E1301C0089501
:102610006E2F70E05E9FF0011124DF01AC58BB4FBC
:1026200014968C911497882361F111968C911197CF
:10263000831327C08C91841324C015968C91159711
:1026400081111FC012968D919C91A091AE04B09102
:10265000AF048A1B9B0B883C910598F48091B204CF
:102660008F7080618093B204E658FB4F80818F7039
:10267000806180838CEA94E00E94B00F0E94BF04C6
:102680000895FB013196E770C0CFADE0B0E0EBE418
:10269000F3E10C9455208C0186E0F801DE011896D8
:1026A00001900D928A95E1F7F801E080F580A28013
:1026B000B380C4808CEA882E84E0982E7090B00499
:1026C000711020C0CC20D9F0FF2009F419C1C80135
:1026D0000E948107882309F413C187E0F801D4011F
:1026E00001900D928A95E1F7F1E0CF1206C080913A
:1026F000AC049091AD040E9472070E94F412FF2472
:10270000F39451C0D090B1048091AE049091AF0485
:102710009501281B390BDD2009F4BAC0283C31058E
:1027200008F090C0CC2059F39091AD04C180809105
:10273000B204803108F058C0C91214C09091AC04A2
:102740009E1110C0F1104AC08F7080618093B20456
:102750008CEA94E00E94B00F8091B204F801868365
:10276000F12C21C0F1103AC040E06C2D8E2D0E945A
:102770002A0A40E06C2D8E2D0E942A0AF82E811123
:10278000EFCF888599850E947207292F22952F7097
:10279000903470F49F702230A0F09923B1F0F801CA
:1027A0009681903190F48F2D2D96EDE00C94712050
:1027B0002A5F2F70223068F0C8010E94B00FFD2CF4
:1027C000F2CF992311F0882371F3805E883058F39B
:1027D000F3CF803F40F3815F8230F9CF8091B20424
:1027E00081608093B204BCCFC91207C09091AC0441
:1027F0009E1103C0FF2009F46CC0C8010E9481072C
:10280000882309F47DC0FF2009F47AC08091B204C6
:10281000803278F02091AC043091AD043A83298362
:10282000BC82AB827D821E828F83CE0101960E9484
:10283000B00F87E0F801ACEAB4E001900D928A9500
:10284000E1F75BCF8091B204803150F48CEA94E0E0
:102850000E94B00F87E0F40111928A95E9F780CFCA
:10286000CC2009F44CCF2091AD0491812913C5CF20
:102870009091AC049E11C1CFF110BFCF8683C801E7
:102880000E94B00F87E0F40111928A95E9F737CFE3
:10289000283C3105F8F6CC2009F431CFFF2081F136
:1028A0009091AD048181981321C08091AC048E1168
:1028B0001DC08091B20480FD10C0803170F086830D
:1028C000807F803F39F08681982F907F905F8F7056
:1028D000892B8683C8010E94B00F87E0F801ACEA1B
:1028E000B4E001900D928A95E1F709CFC8010E94EA
:1028F000810781119ECF8091B20481608093B204E0
:10290000C8010E94B00FFBCEABE1B0E0EAE8F4E111
:102910000C945F204E8B5F8B688F798F8A8F9B8F93
:102920009111109271041D8A86E0FE017696DE01F7
:102930001F9601900D928A95E1F78B89882329F0E3
:1029400061E0CE010F960E94520787E0FE013F969C
:10295000DE01189601900D928A95E1F7CE01089656
:102960000E94451381112BC087E0FE013896DE01DD
:10297000119601900D928A95E1F720917204409191
:1029800073048C858823D9F030E0C90101968770E3
:10299000992750E084179507E9F097E0929FD001BE
:1029A000939FB00D1124AC58BB4FFE01319601909E
:1029B0000D929A95E1F7809372040E94BF0417E08C
:1029C0008091730490917204891312C06B96E3E0B6
:1029D0000C947B200E94330B1092720410927304AB
:1029E00087E0ECEAF4E0DF011D928A95E9F7E7CF92
:1029F000189FC00111248C589B4F0E9445138823B7
:102A000029F38091730490E0019687709927809351
:102A10007304D6CFE1E6F4E0818121E04381628155
:102A20008F5E0E94CD0E0895E1E6F4E0818121E001
:102A30004381628181510E94CD0E0895E1E6F4E068
:102A4000628121E1620F08F46FEF21E0438181810F
:102A50000E94CD0E0895E1E6F4E0628121E1621B5F
:102A600008F460E021E0438181810E94CD0E089549
:102A7000E1E6F4E043812CE0420F08F44FEF21E05F
:102A8000628181810E94CD0E0895E1E6F4E04381E8
:102A90002CE0421B08F440E021E0628181810E9429
:102AA000CD0E0895AB0124E630E0BC0188E70E941A
:102AB0009D1F9C0181E0232B09F080E00895809107
:102AC0001604882369F080911504882349F062E098
:102AD00070E08EEA90E00E94521581111092150468
:102AE0000895A4E0B0E0E7E7F5E10C946020809160
:102AF00016048823F9F00E94B508DC01CB01805A46
:102B00009541AF4FBF4F8093170490931804A09343
:102B10001904B0931A048091150481110BC062E06E
:102B200070E08CEA90E00E945215882319F081E051
:102B3000809315042496E2E00C947C20CF93DF93DD
:102B4000282F81E02A3019F02D3031F480E00E94E6
:102B50002416DF91CF9108958091AA019091AB0145
:102B600036E0FC01A9E6B1E001900D923A95E1F75B
:102B700030EE320F303908F458C026E0FC011192D3
:102B80002A95E9F7C091AA01D091AB0146E050E047
:102B9000BE0189E691E00E94EC209E012C5A314052
:102BA000892B41F1C90145E0969587954A95E1F752
:102BB00041E050E0BA0102C0660F771F8A95E2F744
:102BC000CB016091A8017091A901862B972BB901C7
:102BD0006B5F7F4FE5E076956795EA95E1F702C078
:102BE000440F551F6A95E2F7842B952B9093A9010A
:102BF0008093A8012A5F3F4F40911B04642F70E02F
:102C0000C9010E943C20481B463010F4240F311D9E
:102C1000211572E0370710F020E030E024553E4FD8
:102C20003093AB012093AA0194CF2052330B46E09E
:102C3000429FB001439F700D112460557F4F46E0C5
:102C400050E00E94E3209ECFCF93382FE091AA015D
:102C5000F091AB01EC5AF14020911B04622F70E01F
:102C6000CF010E943C20281B822F332361F066E0B5
:102C70000E948720C82FC15010F4CF91089580E2A0
:102C80000E949E15F8CF9F01280F311D211532405B
:102C900018F080E0E0E0F0E08E0F9F2F911D84554A
:102CA0009E4F9093AB018093AA01E7CFCF93DF9320
:102CB000C0E8D5E0DC0F8C2FCF5F0E949E15DC139F
:102CC000FACFD43911F0CD2FF4CF80E00E94241632
:102CD000DF91CF9108950F931F93CF93DF93EC0172
:102CE000FC0101900020E9F78F0101501109C01784
:102CF000D10728F0DF91CF911F910F91089589910D
:102D00000E949E15F4CFCF93DF93EC01FE018491D6
:102D1000811103C0DF91CF9108950E949E152196E5
:102D2000F5CFA0E1B0E0E7E9F6E10C945120809105
:102D30001604882309F4D1C08CEA91E09093AB018A
:102D40008093AA010E94561680911B0425E0829F61
:102D5000C0011124811532E0930714F080E090E067
:102D600084559E4F9093AB018093AA0181EE94E02D
:102D70000E94831680911B0190911C0154E096954E
:102D800087955A95E1F78F708A3008F0AAC0805D68
:102D90000E949E1580911B018F708A3008F0A3C09D
:102DA000805D0E949E158FED94E00E94831681E065
:102DB0000E94241689ED94E00E94831680911E01E2
:102DC0008F708A3008F091C0805D0E949E1587ED5B
:102DD00094E00E94831680911D018F708A3008F064
:102DE00086C0805D0E949E1584ED94E00E9483164B
:102DF0008FE191E00E946B1682ED94E00E948316B1
:102E000081E00E94241689EE94E00E94831681E0FE
:102E10000E94241680916D040E9401041F928F93DA
:102E200086E291E09F938F931F928CE08F938E01A7
:102E30000F5F1F4F1F930F930E94F920C8010E943C
:102E40006B1681E00E94241687EE94E00E948316A0
:102E500081E00E9424160FB6F894DEBF0FBECDBFEE
:102E60008091A8019091A901892BA1F0809116046D
:102E7000882381F08091140481110CC00E94711587
:102E80002091A8013091A90180E061E070E0211556
:102E9000310581F5809115048823F9F00E94B50869
:102EA0006D877E878F87988B809117049091180487
:102EB000A0911904B0911A042D853E854F8558893B
:102EC000281B390B4A0B5B0BDA01C9018F3F9F4F5F
:102ED000AF4FBF4710F40E945F156096E1E10C947C
:102EE0006D20895A55CF895A5CCF895A6ECF895A3D
:102EF00079CF8F5F082F10E07B01082E02C0EE0C07
:102F0000FF1C0A94E2F7A70142235323452B89F3C0
:102F100090911C0490FD43C09801369527953695F5
:102F20002795922F8295880F80763FE1380F809306
:102F3000030120930601309304019093070124E6D6
:102F400030E047E050E061E071E088E70E94521F06
:102F5000892B09F09FCFA80125E0440F551F2A9522
:102F6000E1F780911C0480FD22C044555E4F04E6C9
:102F700010E020E230E060E488E70E94EA1F892B3D
:102F800009F088CFE094F0948091A8019091A90174
:102F9000E822F922F092A901E092A8017BCF880FE4
:102FA000880F880F37E0380F20E093E0C0CFE8E8C3
:102FB000F1E080E2DF011D928A95E9F7E3E3F1E0B9
:102FC000FE87ED870FE211E087E3A82E81E0B82E9F
:102FD00097E0392E44244394AD85BE858D91BE87FC
:102FE000AD87F80121918F01240F352F311D245514
:102FF0003E4FE82FF0E0E857FE4F80E090E0632C72
:10300000681A742C082E01C0770C0A94EAF769013B
:10301000812CD6019D906D019720662D68196770EF
:1030200070E0B92D062E01C0BB0F0A94EAF75B2EA3
:103030007195619571096770772701C096946A95BB
:10304000EAF759286081562A5082839468E08612F4
:10305000E0CF019631968830910589F68D859E8561
:10306000A816B90609F0B8CF04E610E020E230E077
:1030700048E851E080CF1F921FB61F9211248F9312
:103080009F93AF93BF9380911E04811113C08091D1
:10309000840190918501A0918601B09187014196AC
:1030A000A11DB11D8093840190938501A093860199
:1030B000B0938701BF91AF919F918F911F901FBED9
:1030C0001F9018952FB7F8948091840190918501F5
:1030D000A0918601B09187012FBF0895A6E0B0E0CE
:1030E000E4E7F8E10C945E200E9462188C01809164
:1030F0004304909144048017910779F019821A8251
:103100000E946218BC0149815A8180E090E00E94CF
:10311000841410934404009343042696E4E00C9432
:103120007A209C014FB7F894809184019091850199
:10313000A0918601B09187014FBF821B930B089528
:10314000A8E0B0E0E6EAF8E10C945220CE01019646
:103150007C0188E0D7011D928A95E9F73701570174
:1031600028E0C22E21E0D22E44244394512CF601B3
:1031700081916F010E94E80300C09CE0892E91E0DC
:10318000992EF40100E010E02191A22FA295AF70DA
:10319000A05EB0E08C9190E02F7002C0959587956D
:1031A0002A95E2F7817081110FC0D5018D919C9114
:1031B00011979201002E02C0220F331F0A94E2F7EA
:1031C000822B932B8D939C930F5F1F4F053011051E
:1031D000D9F6F601319780810E94CF03B0EABA9503
:1031E000F1F7E2E0AE0EB11CFCE0CF16F1E0DF0635
:1031F00009F0BDCFCC24C394D12CD4018D914D01C5
:103200000E94E80300C09601002E02C0220F331F67
:103210000A94E2F7F70168E071E0DB014D91BD012E
:10322000842F82958F70805E90E0DC018C9190E01D
:103230004F7002C0959587954A95E2F7817081118C
:1032400006C080819181822B932B9183808332965B
:10325000B1E06C307B0709F7F401319780810E945F
:10326000CF03E0EAEA95F1F70F5F1F4F0A3011052F
:1032700021F6ECE0F4E0C701089620E0D3014D917F
:103280005D913D01619171914617570729F0DF016A
:1032900012974D935C9321E08615970579F72223C9
:1032A00069F081E0809368010E9462189093670141
:1032B000809366012896E0E10C946E20809168016D
:1032C0008823C1F380916601909167010E94911853
:1032D000059780F348E050E06CE074E081E294E010
:1032E0000E94EC20892B49F088E0ECE0F4E0A1E2B8
:1032F000B4E001900D928A95E1F710926801DACF5F
:10330000CDB7DEB76A970FB6F894DEBF0FBECDBF5C
:1033100085B7806885BF85B7806885BF84B7877F9C
:1033200084BF0FB6F894A89580916000886180935F
:103330006000109260000FBE80E890E00FB6F89435
:1033400080936100909361000FBE87EA97E09093AD
:103350005D0180935C010E9481090E94D0098091E7
:10336000E20084608093E2007894809120048823B6
:1033700099F08091E9001091EC00179511271795AD
:103380008F70182B1092E9008091E80083FD0E9455
:10339000570B1F701093E90092E094BD83E085BD48
:1033A0002AEF27BD90936E00E9E3F4E098E0DF0197
:1033B0001D929A95E9F78093380410E060E0812F20
:1033C0000E94660861E0812F0E9466081F5F13302B
:1033D000A9F7EFE8F1E03197F1F700C0000010E045
:1033E00080913804181708F41CC20CE011E071E158
:1033F000E72E71E0F72ED8018D918D010E94CF0349
:10340000E016F106C1F708E011E0F80181918F01A3
:103410000E94CF03F1E00C301F07B9F710920D04A2
:1034200010920C04109222041092210410920F04A6
:1034300010920E041092240410922304109211048E
:103440001092100410922604109225041092130476
:1034500010921204109228041092270480E090E049
:103460000E94A623853E9E4F09F45EC065EE7EEF66
:1034700080E090E00E94DA2360E082E090E00E9429
:10348000BC2381E080936C0461E083E090E00E94C3
:10349000BC2360E074E184E090E00E94DA2360E005
:1034A00086E090E00E94BC2360E087E090E00E940C
:1034B000BC2340E050E0BA0188E090E00E94CE23B7
:1034C00060E083E290E00E94BC2360E08CE090E04A
:1034D0000E94BC2360E08DE090E00E94BC23198232
:1034E0001A821B821C821D821E821F82188648E05F
:1034F00050E067E170E0CE0101960E94AC2340E00D
:1035000050E0BA018FE190E00E94CE2340E050E00D
:10351000BA018FE090E00E94CE2340E050E0BA0173
:1035200083E190E00E94CE2382E090E00E94982305
:103530008093290484E090E00E94A6239093700475
:1035400080936F0483E090E00E9498230E9413040C
:1035500083E080931C0480E280931B040E941C1F64
:103560006BE070E08BE096E00E945215882389F1B1
:1035700080911C0465E070E081FD65C186E096E005
:103580000E945215882329F16DE070E084EF95E0E8
:103590000E9452158823E9F00E94B5086D8B7E8B3E
:1035A0008F8B988FDC01CB01805A9541AF4FBF4F75
:1035B0008093170490931804A0931904B0931A04ED
:1035C0000E94E20A81E08093160480931504109211
:1035D000140480911D04811197C088E090E00E943E
:1035E000A0236B017C0183E290E00E949823282FA6
:1035F00030E040E050E060E070E080E090E000E229
:103600000E94AD20F22FA32EB42EB52FA62FE72FA8
:103610009701860140E050E0BA01FC29A12AB22AB4
:10362000B32BA42BE52B862B972BF0936104A09250
:103630006204B0926304B0936404A0936504E093C1
:1036400066048093670490936804F43008F04CC0DB
:1036500025E020936104109262042FEF209363040D
:1036600028E7209364041092650425E030E04FEFD2
:1036700058E760E07E2F0E94730E88E090E00E9481
:10368000A0236B017C0183E290E00E949823282F05
:1036900030E040E050E060E070E080E090E000E288
:1036A0000E94AD205901B42FA52FF62FE72F9701C7
:1036B000860140E050E0BA01AC28B12AB22BA32B1E
:1036C000F42BE52B862B972BA0926104B092620419
:1036D000B0936304A0936404F0936504E0936604DC
:1036E00080936704909368040E9435080E94A6089E
:1036F0008091610480FF05C060E0869586950E94F8
:10370000530F81E080931D0481E191E09093460482
:103710008093450452E3A52E54E0B52EFF24F39484
:1037200060E4762E3CEFE32E4DEFD42E8091200402
:10373000853049F480912004853009F487C00E94C7
:10374000330B0E94A8080E94A0182AE2422E24E00F
:10375000522EA1E2B4E0BA8FA98FE3E4F1E0FE8B30
:10376000ED8BAF018D01F20121913191D8018D9145
:103770009D918D01DA016D917D91AD018623972395
:10378000AE16BF0609F4BBC02817390769F3C12C70
:10379000E98DFA8D01911191FA8FE98FAD89BE897A
:1037A0008D919D91BE8BAD8B08231923F201219041
:1037B00031902F012016310659F120263126612C37
:1037C00088248394912CC40182219321892BB1F008
:1037D0006F86C88A0E9462189A8B898BFB8A91E057
:1037E000940120233123232B09F490E09C8B4F85F7
:1037F000588969897A898B890E9484146394880C1A
:10380000991CFAE06F12DFCFF20132971183008327
:10381000C39424E0C212BCCF0E94B508CC24C39448
:1038200075C060E0812F0E948908082F61E0812F18
:103830000E948908E12FF0E0EB5CFB4F880F802BA2
:1038400080831F5FCDCD81E096E09ACE80912004E9
:10385000843029F10E945F1510921E0488E190E0E7
:103860000FB6F894A895809360000FBE7092600028
:1038700083B7817F846083BF83B7816083BF78947F
:10388000889583B78E7F83BF0FB6F894A8958091F3
:103890006000886180936000109260000FBE80918C
:1038A0001F04882309F446CF0E94A018E1E2F4E047
:1038B000A3E4B1E0819191912D913D9182239323D5
:1038C000892B29F494E0E932F907A1F733CF80E19D
:1038D00089BD82E189BD09B400FEFDCF8091D80089
:1038E0008F7D8093D8008091E00082608093E0001B
:1038F0008091E00081FDFCCF0E94330B1BCF281785
:10390000390709F044CF0E946E18C12C8091410400
:10391000882351F080913B041092410480933C0431
:103920008091390480933A0400E050C061E0802F18
:103930000E948908882E60E0802F0E948908880CE8
:10394000882AE02FF0E09F012B5C3B4FD9019C912E
:10395000892F83708816C9F1A92FAA0FAA0F8A2F61
:103960008829D9018C93A82FAF70B0E0A55BBE4F1A
:10397000EE5CFB4F8C919081890F808382300CF438
:1039800065C0412F50E0292D30E0BA016F5F7F4FB5
:10399000637077272617370781F0475C5B4F902FBE
:1039A0009F77DA0114969C931F5F137010933B046A
:1039B000909139049F5F90933904082E000C990B65
:1039C00062E070E00E94932080830F5F90903C043F
:1039D00010913B0480913804081708F4A7CF90E0B9
:1039E00080913C0420913B04281709F473C0E82F10
:1039F000F0E0E35CFB4F9081192F1F778F5F83709E
:103A000080933C0480913A048F5F80933A0497FD41
:103A100032C01983EA820E946218BC018B839C83A6
:103A2000F3E0FD83FE8249815A8183E091E00E94A8
:103A300084148FE39CE90197F1F700C00000198717
:103A4000EA860E946218282F83E031C08F3F0CF075
:103A5000B4CF412F50E0292D30E0BA016F5F7F4F86
:103A6000637077272617370709F4A7CF475C5B4FAA
:103A7000902F906896CF1983DA820E946218BC0159
:103A80008B839C83B2E0BD83FE8249815A8182E0B0
:103A900091E00E948414EFE3FCE93197F1F700C054
:103AA00000001987DA860E946218282F82E0622FB0
:103AB000792F2B879C878D871E8649855A8590E0B4
:103AC0000E948414AFE3BCE91197F1F700C0000035
:103AD00091E086CF992339F00E94B5080E94911693
:103AE0000E94711504C00E949116C110F9CF0E9466
:103AF000A80890914204891709F418CE80934204D3
:103B00000E94B5080FCE78941F921FB61F92112401
:103B10008F939F93AF93BF93809184019091850180
:103B2000A0918601B09187010196A11DB11D8093DE
:103B3000840190938501A0938601B0938701BF9182
:103B4000AF919F918F911F901FBE1F9018951F924C
:103B50000F920FB60F9211242F933F934F935F93C1
:103B60006F937F938F939F93AF93BF93EF93FF9345
:103B70008091E10082FF09C08091E20082FF05C0D0
:103B80008091E1008B7F8093E1008091DA0080FFDB
:103B900024C08091D80080FF20C08091DA008E7F01
:103BA0008093DA008091D90080FF9AC080E189BDBE
:103BB00082E189BD09B400FEFDCF81E0809320043D
:103BC00080917201811109C00E9481090E94D0096F
:103BD0008091E20084608093E2008091E10080FFA8
:103BE00017C08091E20080FF13C08091E2008E7FB9
:103BF0008093E2008091E20080618093E2008091F6
:103C0000D80080628093D80019BC85E0809320049E
:103C10008091E10084FF29C08091E20084FF25C0EB
:103C200080E189BD82E189BD09B400FEFDCF8091AC
:103C3000D8008F7D8093D8008091E1008F7E8093A3
:103C4000E1008091E2008F7E8093E2008091E200AB
:103C500081608093E20080917101882309F446C05D
:103C600084E080932004809120048091E10083FF10
:103C700026C08091E20083FF22C08091E100877F0F
:103C80008093E10082E08093200410927101809182
:103C9000E1008E7F8093E1008091E2008E7F80932F
:103CA000E2008091E20080618093E20060E080E0C9
:103CB0000E94A0098091F00088608093F000FF913D
:103CC000EF91BF91AF919F918F917F916F915F9194
:103CD0004F913F912F910F900FBE0F901F9018950D
:103CE00019BC109220041092720177CF8091E300EA
:103CF00087FF02C083E0B5CF81E0B3CF1F920F9260
:103D00000FB60F921124FF920F931F932F933F939F
:103D10004F935F936F937F938F939F93AF93BF93D3
:103D2000CF93DF93EF93FF9309EE10E0F8018081CA
:103D3000C091EC00C795CC27C7958F70FC2EF82A50
:103D40001082C0EFD0E08881877F888378940E94BA
:103D5000570BF8011082888188608883CF2DCF703F
:103D6000C083FF91EF91DF91CF91BF91AF919F9170
:103D70008F917F916F915F914F913F912F911F9103
:103D80000F91FF900F900FBE0F901F901895FF920C
:103D90000F931F93CF93DF93182FEB011092BC006A
:103DA00084EA8093BC000E946218082FF92E80914B
:103DB000BC0087FF28C08091B900887F883029F037
:103DC0008091B900887F8031A1F51093BB0084E811
:103DD0008093BC000E946218182F092F8091BC00AC
:103DE00087FF1FC02091B900287F80E090E0283134
:103DF00099F081E090E0203411F480E090E091951A
:103E00008195910909C0802F9F2D0E949118C81794
:103E1000D90768F68EEF9FEFCDB7DEB7E5E00C94DB
:103E20007920812F902F0E949118C817D907B0F6DA
:103E3000F1CF8FEF9FEFF0CF1092B9008CE080931D
:103E4000B80008950F931F93CF93DF93EB018093F6
:103E5000BB0084E88093BC000E946218182F092FD1
:103E60008091BC0087FF11C02091B900287F81E0BC
:103E700090E0283211F480E090E0919581959109CD
:103E8000DF91CF911F910F910895CF3FDC0741F350
:103E9000812F902F0E949118C817D90708F78EEF2D
:103EA0009FEFEECFA0E0B0E0E8E5FFE10C945520F5
:103EB000782E5B016A0189010E9462184C0104316D
:103EC000110560F10F3F100769F1C80164E170E06E
:103ED0000E943C20F62EE72E6F2D7E2D872D0E940E
:103EE000C71EEC0197FF09C00F3F1007A9F3C401DB
:103EF0000E9491180817190778F77501CA0CDB1C86
:103F0000EC14FD0411F0D7FF10C084E98093BC00CD
:103F1000CE01CDB7DEB7EDE00C947120FF24F39411
:103F2000E12CDACF85E0F82EFBCFB801F7018191C3
:103F30007F010E94221FEC01E3CFA0E0B0E0E3EAA2
:103F4000FFE10C945520782E5B016A0189010E94E3
:103F500062184C010431110560F10F3F100769F13F
:103F6000C80164E170E00E943C20F62EE72E6F2D20
:103F70007E2D872D0E94C71EEC0197FF09C00F3FC1
:103F80001007A9F3C4010E9491180817190778F7C0
:103F90007501CA0CDB1CEC14FD0411F0D7FF10C036
:103FA00084E98093BC00CE01CDB7DEB7EDE00C9480
:103FB0007120FF24F394E12CDACF85E0F82EFBCFBB
:103FC000F7018491B8010E94221FEC01FFEFEF1A64
:103FD000FF0AE1CFA0E0B0E0E0EFFFE10C94542055
:103FE000682E962E5A01690178010E946218782E77
:103FF000892E0431110530F10F3F100731F1C8014E
:1040000064E170E00E943C20162F072F612F702F73
:10401000862D0E94C71EEC0197FF19C0FFEFEF1617
:10402000FF06A1F3872D982D0E949118E816F90636
:1040300068F784E98093BC00CE01CDB7DEB7EEE02F
:104040000C94702011E000E0E1CF15E0FCCFB70147
:10405000892D0E94221FEC018501CA0CDB1C0C1566
:104060001D0539F3D7FDE5CFB701F80181918F0127
:104070000E94221FEC01F3CFAA1BBB1B51E107C01A
:10408000AA1FBB1FA617B70710F0A61BB70B881FE8
:10409000991F5A95A9F780959095BC01CD01089577
:1040A0002F923F924F925F926F927F928F929F9248
:1040B000AF92BF92CF92DF92EF92FF920F931F9336
:1040C000CF93DF93CDB7DEB7CA1BDB0B0FB6F894E7
:1040D000DEBF0FBECDBF09942A88398848885F8427
:1040E0006E847D848C849B84AA84B984C884DF8098
:1040F000EE80FD800C811B81AA81B981CE0FD11D7C
:104100000FB6F894DEBF0FBECDBFED010895991B29
:1041100079E004C0991F961708F0961B881F7A95BE
:10412000C9F78095089597FB072E16F4009407D0E1
:1041300077FD09D00E943C2007FC05D03EF4909505
:1041400081959F4F0895709561957F4F0895EE0F6B
:10415000FF1F0590F491E02D0994002E083090F097
:10416000982F872F762F652F542F432F322F2227FA
:104170000850F4CF220F331F441F551F661F771FAF
:10418000881F991F0A95B2F7002D089597FD109486
:10419000002E083098F00850232F342F452F562F2B
:1041A000672F782F892F912DF4CF159497958795A8
:1041B0007795679557954795379527950A95AAF767
:1041C0001124002D0895FB01DC0102C005900D9221
:1041D00041505040D8F70895FB01DC0104C08D9197
:1041E0000190801921F441505040C8F7881B990B69
:1041F0000895AEE0B0E0EFEFF0E20C945E200D89A0
:104200001E898F89988D26E02C831A83098397FF56
:1042100002C080E090E801979E838D83AE01455EE9
:104220005F4F698D7A8DCE0101960E9429214D81C3
:104230005E8157FD0AC02F813885421753070CF461
:104240009A01020F131FF80110822E96E4E00C94DD
:104250007A20ABE0B0E0EFE2F1E20C9450207C0178
:104260003B018A01FC0117821682838181FFB9C15B
:104270009AE0292ECE0101965C01F7019381F301AA
:1042800093FD859193FF81913F01882309F446C1F5
:10429000853239F493FD859193FF81913F018532F9
:1042A00029F4B70190E00E940A23E7CF912C412C1A
:1042B000512CFFE1F51538F08B3209F188F480328A
:1042C00001F1833221F157FC3AC020ED280F2A304A
:1042D00040F556FE1FC0929C200D1124922E06C060
:1042E0008D3291F0803379F7689450F8F30193FDA3
:1042F000859193FF81913F018111DBCF20C06894AC
:1043000051F8689452F8F2CF689453F8EFCF68945C
:1043100054F8ECCF429C200D1124422E689455F89D
:10432000E5CF8E3229F456FCF9C0689456F8DECFFA
:104330008C3619F4689457F8D9CF8836B9F2982F8B
:104340009F7D95549330C0F08336A1F18337C1F13E
:10435000833509F05BC0F801C190D1908F01692DC0
:1043600070E056FC02C06FEF7FEFC6010E94F4229E
:104370004C01689457F80AC00C5F1F4F2FE3298344
:1043800088248394912C6501E89457F853FC04C069
:104390004814190409F018F5342C8114910431F5EE
:1043A000332009F46ACFB70180E290E00E940A232B
:1043B0003A94F6CFF801808189830E5F1F4FE0CFDA
:1043C000F801C190D1908F01692D70E056FC02C0B8
:1043D0006FEF7FEFC6010E94FF224C01D5CFB701DE
:1043E00080E290E00E940A234A94D2CFF60157FC63
:1043F000859157FE81916F01B70190E00E940A23D9
:1044000031103A94F1E08F1A9108C7CF843619F031
:10441000893609F074C0F80157FE6AC06191719144
:10442000819191918F01252D2F76D22E97FF09C072
:1044300090958095709561957F4F8F4F9F4F6894B1
:10444000D7F82AE030E0A5010E943A23C82ECA1806
:104450008C2C5D2CD6FE0CC0E89450F8C91440F4A6
:10446000D4FE05C0D2FC03C0FD2DFE7E5F2E892C3C
:1044700054FE8FC0FE01EC0DF11D8081803309F0E8
:1044800081C0252D297E522E852D8870382E53FC13
:104490008FC050FE89C09C2C841418F44C0C942CB2
:1044A000981854FE8BC0B70180E390E00E940A2365
:1044B00052FE09C088E790E051FE02C088E590E016
:1044C000B7010E940A23C91408F484C0CA94D12CED
:1044D0009FEFC91AD90ACA0CDB1CF60182916F0141
:1044E000B70190E00E940A23AC14BD04B1F758CF85
:1044F00061917191072E000C880B990B93CFD52CED
:10450000E894D4F82AE030E0853739F1952D997F89
:10451000D92E8F3601F148F48835A9F0F70186814C
:1045200097812B96E2E10C946C20803749F0883714
:10453000A9F7D4FE02C06894D2F820E130E00DC0A3
:104540006894D4F8F6CF54FE03C0E92FE660DE2E5F
:1045500020E132E002C028E030E0F801D7FE0DC0D3
:1045600061917191819191918F01A5010E943A23EE
:10457000C82ECA18E894D7F86BCF6191719190E07A
:1045800080E0F2CF52FC02C083947ECF8394839468
:104590007BCF852D867809F477CFF6CFB70180E2FF
:1045A00090E00E940A2383948414C0F3312C79CFC5
:1045B000342C3818841408F474CFF8CF852D8678FD
:1045C00009F481CF8BE251FE80E257FC8DE2B70106
:1045D00090E077CFB70180E390E00E940A239A949D
:1045E00072CF8FEF9FEF9DCFFC010590615070401F
:1045F0000110D8F7809590958E0F9F1F0895FC01AC
:104600006150704001900110D8F7809590958E0F01
:104610009F1F08950F931F93CF93DF93182F092F98
:10462000EB018B8181FD09C01FEF0FEF812F902FD0
:10463000DF91CF911F910F91089582FF14C02E81B9
:104640003F818C819D81281739073CF4E881F981ED
:10465000CF0101969983888310838E819F81019673
:104660009F838E83E3CFE885F985812F0995892B78
:10467000A1F3DACFFA01AA27283051F1203181F1D4
:10468000E8946F936E7F6E5F7F4F8F4F9F4FAF4F5A
:10469000B1E03ED0B4E03CD0670F781F891F9A1F6D
:1046A000A11D680F791F8A1F911DA11D6A0F711D21
:1046B000811D911DA11D20D009F468943F912AE02D
:1046C000269F11243019305D3193DEF6CF01089515
:1046D000462F4770405D4193B3E00FD0C9F7F6CF46
:1046E000462F4F70405D4A3318F0495D31FD40520E
:1046F000419302D0A9F7EACFB4E0A69597958795A4
:1047000077956795BA95C9F7009761057105089582
:104710009B01AC010A2E069457954795379527952E
:10472000BA95C9F7620F731F841F951FA01D0895C6
:10473000F999FECF92BD81BDF89A992780B5089569
:10474000A6E1B0E044E050E00C94E223A8E1B0E040
:1047500042E050E00C94E223DC01A40FB51F41506D
:10476000504048F0CB01840F951F2E910E94BD232D
:1047700041505040D0F70895262FF999FECF92BDB1
:1047800081BDF89A019700B4021639F01FBA20BD16
:104790000FB6F894FA9AF99A0FBE08950396272F48
:1047A0000E94BD230E94BC23252F0E94BD23242FDD
:1047B0000C94BD230196272F0E94BD230C94BC238B
:1047C000DC01CB01FC01F999FECF06C0F2BDE1BDD1
:1047D000F89A319600B40D9241505040B8F70895C0
:1047E000F894FFCF340C5A0C600C5A0C600CB30CCC
:1047F000D50C600CBF0DCC0D9F10D710DE10E31050
:10480000E810ED10F210F710FC10011106110B1159
:10481000B910B910B910B910B910B9100E11B910FA
:02482000B910CD
:10482200010021007F22000392946697F4F5F6F7C7
:1048320031D208B90AD508D608D708000000005FAF
:104842005F5F5F5F0000256400C635323436330097
:1048520008101818100800000102020202020202E7
:10486200020202EF03EE03EF03EF0300FF01000178
:0C4872000000FFFF0000010001FF00003B
:00000001FF
